{
    "_format": "hh-sol-artifact-1",
    "contractName": "GovernanceNFT",
    "sourceName": "contracts/GovernanceNFT.sol",
    "abi": [
        {
            "inputs": [
                {
                    "internalType": "string",
                    "name": "name_",
                    "type": "string"
                },
                {
                    "internalType": "string",
                    "name": "symbol_",
                    "type": "string"
                },
                {
                    "internalType": "string",
                    "name": "baseURI_",
                    "type": "string"
                },
                {
                    "internalType": "uint256",
                    "name": "priceInEther",
                    "type": "uint256"
                },
                {
                    "internalType": "address",
                    "name": "layerZeroEndpoint_",
                    "type": "address"
                },
                {
                    "internalType": "uint256",
                    "name": "startMintId_",
                    "type": "uint256"
                },
                {
                    "internalType": "uint256",
                    "name": "endMintId_",
                    "type": "uint256"
                }
            ],
            "stateMutability": "nonpayable",
            "type": "constructor"
        },
        {
            "anonymous": false,
            "inputs": [
                {
                    "indexed": true,
                    "internalType": "address",
                    "name": "owner",
                    "type": "address"
                },
                {
                    "indexed": true,
                    "internalType": "address",
                    "name": "approved",
                    "type": "address"
                },
                {
                    "indexed": true,
                    "internalType": "uint256",
                    "name": "tokenId",
                    "type": "uint256"
                }
            ],
            "name": "Approval",
            "type": "event"
        },
        {
            "anonymous": false,
            "inputs": [
                {
                    "indexed": true,
                    "internalType": "address",
                    "name": "owner",
                    "type": "address"
                },
                {
                    "indexed": true,
                    "internalType": "address",
                    "name": "operator",
                    "type": "address"
                },
                {
                    "indexed": false,
                    "internalType": "bool",
                    "name": "approved",
                    "type": "bool"
                }
            ],
            "name": "ApprovalForAll",
            "type": "event"
        },
        {
            "anonymous": false,
            "inputs": [
                {
                    "indexed": true,
                    "internalType": "address",
                    "name": "delegator",
                    "type": "address"
                },
                {
                    "indexed": true,
                    "internalType": "address",
                    "name": "fromDelegate",
                    "type": "address"
                },
                {
                    "indexed": true,
                    "internalType": "address",
                    "name": "toDelegate",
                    "type": "address"
                }
            ],
            "name": "DelegateChanged",
            "type": "event"
        },
        {
            "anonymous": false,
            "inputs": [
                {
                    "indexed": true,
                    "internalType": "address",
                    "name": "delegate",
                    "type": "address"
                },
                {
                    "indexed": false,
                    "internalType": "uint256",
                    "name": "previousBalance",
                    "type": "uint256"
                },
                {
                    "indexed": false,
                    "internalType": "uint256",
                    "name": "newBalance",
                    "type": "uint256"
                }
            ],
            "name": "DelegateVotesChanged",
            "type": "event"
        },
        {
            "anonymous": false,
            "inputs": [
                {
                    "indexed": false,
                    "internalType": "uint16",
                    "name": "_srcChainId",
                    "type": "uint16"
                },
                {
                    "indexed": false,
                    "internalType": "bytes",
                    "name": "_srcAddress",
                    "type": "bytes"
                },
                {
                    "indexed": false,
                    "internalType": "uint64",
                    "name": "_nonce",
                    "type": "uint64"
                },
                {
                    "indexed": false,
                    "internalType": "bytes",
                    "name": "_payload",
                    "type": "bytes"
                }
            ],
            "name": "MessageFailed",
            "type": "event"
        },
        {
            "anonymous": false,
            "inputs": [
                {
                    "indexed": true,
                    "internalType": "address",
                    "name": "previousOwner",
                    "type": "address"
                },
                {
                    "indexed": true,
                    "internalType": "address",
                    "name": "newOwner",
                    "type": "address"
                }
            ],
            "name": "OwnershipTransferred",
            "type": "event"
        },
        {
            "anonymous": false,
            "inputs": [
                {
                    "indexed": true,
                    "internalType": "uint16",
                    "name": "_srcChainId",
                    "type": "uint16"
                },
                {
                    "indexed": true,
                    "internalType": "bytes",
                    "name": "_srcAddress",
                    "type": "bytes"
                },
                {
                    "indexed": true,
                    "internalType": "address",
                    "name": "_toAddress",
                    "type": "address"
                },
                {
                    "indexed": false,
                    "internalType": "uint256",
                    "name": "_tokenId",
                    "type": "uint256"
                },
                {
                    "indexed": false,
                    "internalType": "uint64",
                    "name": "_nonce",
                    "type": "uint64"
                }
            ],
            "name": "ReceiveFromChain",
            "type": "event"
        },
        {
            "anonymous": false,
            "inputs": [
                {
                    "indexed": true,
                    "internalType": "address",
                    "name": "_sender",
                    "type": "address"
                },
                {
                    "indexed": true,
                    "internalType": "uint16",
                    "name": "_dstChainId",
                    "type": "uint16"
                },
                {
                    "indexed": true,
                    "internalType": "bytes",
                    "name": "_toAddress",
                    "type": "bytes"
                },
                {
                    "indexed": false,
                    "internalType": "uint256",
                    "name": "_tokenId",
                    "type": "uint256"
                },
                {
                    "indexed": false,
                    "internalType": "uint64",
                    "name": "_nonce",
                    "type": "uint64"
                }
            ],
            "name": "SendToChain",
            "type": "event"
        },
        {
            "anonymous": false,
            "inputs": [
                {
                    "indexed": false,
                    "internalType": "uint16",
                    "name": "_srcChainId",
                    "type": "uint16"
                },
                {
                    "indexed": false,
                    "internalType": "bytes",
                    "name": "_srcAddress",
                    "type": "bytes"
                }
            ],
            "name": "SetTrustedRemote",
            "type": "event"
        },
        {
            "anonymous": false,
            "inputs": [
                {
                    "indexed": true,
                    "internalType": "address",
                    "name": "from",
                    "type": "address"
                },
                {
                    "indexed": true,
                    "internalType": "address",
                    "name": "to",
                    "type": "address"
                },
                {
                    "indexed": true,
                    "internalType": "uint256",
                    "name": "tokenId",
                    "type": "uint256"
                }
            ],
            "name": "Transfer",
            "type": "event"
        },
        {
            "inputs": [],
            "name": "DOMAIN_SEPARATOR",
            "outputs": [
                {
                    "internalType": "bytes32",
                    "name": "",
                    "type": "bytes32"
                }
            ],
            "stateMutability": "view",
            "type": "function"
        },
        {
            "inputs": [
                {
                    "internalType": "address",
                    "name": "to",
                    "type": "address"
                },
                {
                    "internalType": "uint256",
                    "name": "tokenId",
                    "type": "uint256"
                }
            ],
            "name": "approve",
            "outputs": [],
            "stateMutability": "nonpayable",
            "type": "function"
        },
        {
            "inputs": [
                {
                    "internalType": "address",
                    "name": "owner",
                    "type": "address"
                }
            ],
            "name": "balanceOf",
            "outputs": [
                {
                    "internalType": "uint256",
                    "name": "",
                    "type": "uint256"
                }
            ],
            "stateMutability": "view",
            "type": "function"
        },
        {
            "inputs": [],
            "name": "baseURI",
            "outputs": [
                {
                    "internalType": "string",
                    "name": "",
                    "type": "string"
                }
            ],
            "stateMutability": "view",
            "type": "function"
        },
        {
            "inputs": [
                {
                    "internalType": "address",
                    "name": "delegatee",
                    "type": "address"
                }
            ],
            "name": "delegate",
            "outputs": [],
            "stateMutability": "nonpayable",
            "type": "function"
        },
        {
            "inputs": [
                {
                    "internalType": "address",
                    "name": "delegatee",
                    "type": "address"
                },
                {
                    "internalType": "uint256",
                    "name": "nonce",
                    "type": "uint256"
                },
                {
                    "internalType": "uint256",
                    "name": "expiry",
                    "type": "uint256"
                },
                {
                    "internalType": "uint8",
                    "name": "v",
                    "type": "uint8"
                },
                {
                    "internalType": "bytes32",
                    "name": "r",
                    "type": "bytes32"
                },
                {
                    "internalType": "bytes32",
                    "name": "s",
                    "type": "bytes32"
                }
            ],
            "name": "delegateBySig",
            "outputs": [],
            "stateMutability": "nonpayable",
            "type": "function"
        },
        {
            "inputs": [
                {
                    "internalType": "address",
                    "name": "account",
                    "type": "address"
                }
            ],
            "name": "delegates",
            "outputs": [
                {
                    "internalType": "address",
                    "name": "",
                    "type": "address"
                }
            ],
            "stateMutability": "view",
            "type": "function"
        },
        {
            "inputs": [
                {
                    "internalType": "uint16",
                    "name": "_dstChainId",
                    "type": "uint16"
                },
                {
                    "internalType": "bytes",
                    "name": "_toAddress",
                    "type": "bytes"
                },
                {
                    "internalType": "uint256",
                    "name": "_tokenId",
                    "type": "uint256"
                },
                {
                    "internalType": "bool",
                    "name": "_useZro",
                    "type": "bool"
                },
                {
                    "internalType": "bytes",
                    "name": "_adapterParams",
                    "type": "bytes"
                }
            ],
            "name": "estimateSendFee",
            "outputs": [
                {
                    "internalType": "uint256",
                    "name": "nativeFee",
                    "type": "uint256"
                },
                {
                    "internalType": "uint256",
                    "name": "zroFee",
                    "type": "uint256"
                }
            ],
            "stateMutability": "view",
            "type": "function"
        },
        {
            "inputs": [
                {
                    "internalType": "uint16",
                    "name": "",
                    "type": "uint16"
                },
                {
                    "internalType": "bytes",
                    "name": "",
                    "type": "bytes"
                },
                {
                    "internalType": "uint64",
                    "name": "",
                    "type": "uint64"
                }
            ],
            "name": "failedMessages",
            "outputs": [
                {
                    "internalType": "bytes32",
                    "name": "",
                    "type": "bytes32"
                }
            ],
            "stateMutability": "view",
            "type": "function"
        },
        {
            "inputs": [
                {
                    "internalType": "uint16",
                    "name": "_srcChainId",
                    "type": "uint16"
                },
                {
                    "internalType": "bytes",
                    "name": "_srcAddress",
                    "type": "bytes"
                }
            ],
            "name": "forceResumeReceive",
            "outputs": [],
            "stateMutability": "nonpayable",
            "type": "function"
        },
        {
            "inputs": [
                {
                    "internalType": "uint256",
                    "name": "tokenId",
                    "type": "uint256"
                }
            ],
            "name": "getApproved",
            "outputs": [
                {
                    "internalType": "address",
                    "name": "",
                    "type": "address"
                }
            ],
            "stateMutability": "view",
            "type": "function"
        },
        {
            "inputs": [
                {
                    "internalType": "uint16",
                    "name": "_version",
                    "type": "uint16"
                },
                {
                    "internalType": "uint16",
                    "name": "_chainId",
                    "type": "uint16"
                },
                {
                    "internalType": "address",
                    "name": "",
                    "type": "address"
                },
                {
                    "internalType": "uint256",
                    "name": "_configType",
                    "type": "uint256"
                }
            ],
            "name": "getConfig",
            "outputs": [
                {
                    "internalType": "bytes",
                    "name": "",
                    "type": "bytes"
                }
            ],
            "stateMutability": "view",
            "type": "function"
        },
        {
            "inputs": [
                {
                    "internalType": "uint256",
                    "name": "blockNumber",
                    "type": "uint256"
                }
            ],
            "name": "getPastTotalSupply",
            "outputs": [
                {
                    "internalType": "uint256",
                    "name": "",
                    "type": "uint256"
                }
            ],
            "stateMutability": "view",
            "type": "function"
        },
        {
            "inputs": [
                {
                    "internalType": "address",
                    "name": "account",
                    "type": "address"
                },
                {
                    "internalType": "uint256",
                    "name": "blockNumber",
                    "type": "uint256"
                }
            ],
            "name": "getPastVotes",
            "outputs": [
                {
                    "internalType": "uint256",
                    "name": "",
                    "type": "uint256"
                }
            ],
            "stateMutability": "view",
            "type": "function"
        },
        {
            "inputs": [
                {
                    "internalType": "address",
                    "name": "account",
                    "type": "address"
                }
            ],
            "name": "getVotes",
            "outputs": [
                {
                    "internalType": "uint256",
                    "name": "",
                    "type": "uint256"
                }
            ],
            "stateMutability": "view",
            "type": "function"
        },
        {
            "inputs": [
                {
                    "internalType": "address",
                    "name": "owner",
                    "type": "address"
                },
                {
                    "internalType": "address",
                    "name": "operator",
                    "type": "address"
                }
            ],
            "name": "isApprovedForAll",
            "outputs": [
                {
                    "internalType": "bool",
                    "name": "",
                    "type": "bool"
                }
            ],
            "stateMutability": "view",
            "type": "function"
        },
        {
            "inputs": [
                {
                    "internalType": "uint16",
                    "name": "_srcChainId",
                    "type": "uint16"
                },
                {
                    "internalType": "bytes",
                    "name": "_srcAddress",
                    "type": "bytes"
                }
            ],
            "name": "isTrustedRemote",
            "outputs": [
                {
                    "internalType": "bool",
                    "name": "",
                    "type": "bool"
                }
            ],
            "stateMutability": "view",
            "type": "function"
        },
        {
            "inputs": [],
            "name": "lzEndpoint",
            "outputs": [
                {
                    "internalType": "contract ILayerZeroEndpoint",
                    "name": "",
                    "type": "address"
                }
            ],
            "stateMutability": "view",
            "type": "function"
        },
        {
            "inputs": [
                {
                    "internalType": "uint16",
                    "name": "_srcChainId",
                    "type": "uint16"
                },
                {
                    "internalType": "bytes",
                    "name": "_srcAddress",
                    "type": "bytes"
                },
                {
                    "internalType": "uint64",
                    "name": "_nonce",
                    "type": "uint64"
                },
                {
                    "internalType": "bytes",
                    "name": "_payload",
                    "type": "bytes"
                }
            ],
            "name": "lzReceive",
            "outputs": [],
            "stateMutability": "nonpayable",
            "type": "function"
        },
        {
            "inputs": [],
            "name": "maxMintId",
            "outputs": [
                {
                    "internalType": "uint256",
                    "name": "",
                    "type": "uint256"
                }
            ],
            "stateMutability": "view",
            "type": "function"
        },
        {
            "inputs": [],
            "name": "mint",
            "outputs": [],
            "stateMutability": "payable",
            "type": "function"
        },
        {
            "inputs": [],
            "name": "name",
            "outputs": [
                {
                    "internalType": "string",
                    "name": "",
                    "type": "string"
                }
            ],
            "stateMutability": "view",
            "type": "function"
        },
        {
            "inputs": [],
            "name": "nextMintId",
            "outputs": [
                {
                    "internalType": "uint256",
                    "name": "",
                    "type": "uint256"
                }
            ],
            "stateMutability": "view",
            "type": "function"
        },
        {
            "inputs": [
                {
                    "internalType": "uint16",
                    "name": "_srcChainId",
                    "type": "uint16"
                },
                {
                    "internalType": "bytes",
                    "name": "_srcAddress",
                    "type": "bytes"
                },
                {
                    "internalType": "uint64",
                    "name": "_nonce",
                    "type": "uint64"
                },
                {
                    "internalType": "bytes",
                    "name": "_payload",
                    "type": "bytes"
                }
            ],
            "name": "nonblockingLzReceive",
            "outputs": [],
            "stateMutability": "nonpayable",
            "type": "function"
        },
        {
            "inputs": [
                {
                    "internalType": "address",
                    "name": "owner",
                    "type": "address"
                }
            ],
            "name": "nonces",
            "outputs": [
                {
                    "internalType": "uint256",
                    "name": "",
                    "type": "uint256"
                }
            ],
            "stateMutability": "view",
            "type": "function"
        },
        {
            "inputs": [
                {
                    "internalType": "address",
                    "name": "addr",
                    "type": "address"
                }
            ],
            "name": "numAvailableToMint",
            "outputs": [
                {
                    "internalType": "uint8",
                    "name": "",
                    "type": "uint8"
                }
            ],
            "stateMutability": "view",
            "type": "function"
        },
        {
            "inputs": [],
            "name": "owner",
            "outputs": [
                {
                    "internalType": "address",
                    "name": "",
                    "type": "address"
                }
            ],
            "stateMutability": "view",
            "type": "function"
        },
        {
            "inputs": [
                {
                    "internalType": "uint256",
                    "name": "tokenId",
                    "type": "uint256"
                }
            ],
            "name": "ownerOf",
            "outputs": [
                {
                    "internalType": "address",
                    "name": "",
                    "type": "address"
                }
            ],
            "stateMutability": "view",
            "type": "function"
        },
        {
            "inputs": [],
            "name": "pricePerToken",
            "outputs": [
                {
                    "internalType": "uint256",
                    "name": "",
                    "type": "uint256"
                }
            ],
            "stateMutability": "view",
            "type": "function"
        },
        {
            "inputs": [],
            "name": "renounceOwnership",
            "outputs": [],
            "stateMutability": "nonpayable",
            "type": "function"
        },
        {
            "inputs": [
                {
                    "internalType": "uint256",
                    "name": "amount",
                    "type": "uint256"
                }
            ],
            "name": "reserve",
            "outputs": [],
            "stateMutability": "nonpayable",
            "type": "function"
        },
        {
            "inputs": [
                {
                    "internalType": "uint16",
                    "name": "_srcChainId",
                    "type": "uint16"
                },
                {
                    "internalType": "bytes",
                    "name": "_srcAddress",
                    "type": "bytes"
                },
                {
                    "internalType": "uint64",
                    "name": "_nonce",
                    "type": "uint64"
                },
                {
                    "internalType": "bytes",
                    "name": "_payload",
                    "type": "bytes"
                }
            ],
            "name": "retryMessage",
            "outputs": [],
            "stateMutability": "payable",
            "type": "function"
        },
        {
            "inputs": [
                {
                    "internalType": "address",
                    "name": "from",
                    "type": "address"
                },
                {
                    "internalType": "address",
                    "name": "to",
                    "type": "address"
                },
                {
                    "internalType": "uint256",
                    "name": "tokenId",
                    "type": "uint256"
                }
            ],
            "name": "safeTransferFrom",
            "outputs": [],
            "stateMutability": "nonpayable",
            "type": "function"
        },
        {
            "inputs": [
                {
                    "internalType": "address",
                    "name": "from",
                    "type": "address"
                },
                {
                    "internalType": "address",
                    "name": "to",
                    "type": "address"
                },
                {
                    "internalType": "uint256",
                    "name": "tokenId",
                    "type": "uint256"
                },
                {
                    "internalType": "bytes",
                    "name": "data",
                    "type": "bytes"
                }
            ],
            "name": "safeTransferFrom",
            "outputs": [],
            "stateMutability": "nonpayable",
            "type": "function"
        },
        {
            "inputs": [
                {
                    "internalType": "address",
                    "name": "_from",
                    "type": "address"
                },
                {
                    "internalType": "uint16",
                    "name": "_dstChainId",
                    "type": "uint16"
                },
                {
                    "internalType": "bytes",
                    "name": "_toAddress",
                    "type": "bytes"
                },
                {
                    "internalType": "uint256",
                    "name": "_tokenId",
                    "type": "uint256"
                },
                {
                    "internalType": "address payable",
                    "name": "_refundAddress",
                    "type": "address"
                },
                {
                    "internalType": "address",
                    "name": "_zroPaymentAddress",
                    "type": "address"
                },
                {
                    "internalType": "bytes",
                    "name": "_adapterParams",
                    "type": "bytes"
                }
            ],
            "name": "sendFrom",
            "outputs": [],
            "stateMutability": "payable",
            "type": "function"
        },
        {
            "inputs": [
                {
                    "internalType": "address[]",
                    "name": "addresses",
                    "type": "address[]"
                },
                {
                    "internalType": "uint8",
                    "name": "numAllowedToMint",
                    "type": "uint8"
                }
            ],
            "name": "setAllowList",
            "outputs": [],
            "stateMutability": "nonpayable",
            "type": "function"
        },
        {
            "inputs": [
                {
                    "internalType": "address",
                    "name": "operator",
                    "type": "address"
                },
                {
                    "internalType": "bool",
                    "name": "approved",
                    "type": "bool"
                }
            ],
            "name": "setApprovalForAll",
            "outputs": [],
            "stateMutability": "nonpayable",
            "type": "function"
        },
        {
            "inputs": [
                {
                    "internalType": "string",
                    "name": "baseURI_",
                    "type": "string"
                }
            ],
            "name": "setBaseURI",
            "outputs": [],
            "stateMutability": "nonpayable",
            "type": "function"
        },
        {
            "inputs": [
                {
                    "internalType": "uint16",
                    "name": "_version",
                    "type": "uint16"
                },
                {
                    "internalType": "uint16",
                    "name": "_chainId",
                    "type": "uint16"
                },
                {
                    "internalType": "uint256",
                    "name": "_configType",
                    "type": "uint256"
                },
                {
                    "internalType": "bytes",
                    "name": "_config",
                    "type": "bytes"
                }
            ],
            "name": "setConfig",
            "outputs": [],
            "stateMutability": "nonpayable",
            "type": "function"
        },
        {
            "inputs": [
                {
                    "internalType": "uint16",
                    "name": "_version",
                    "type": "uint16"
                }
            ],
            "name": "setReceiveVersion",
            "outputs": [],
            "stateMutability": "nonpayable",
            "type": "function"
        },
        {
            "inputs": [
                {
                    "internalType": "uint16",
                    "name": "_version",
                    "type": "uint16"
                }
            ],
            "name": "setSendVersion",
            "outputs": [],
            "stateMutability": "nonpayable",
            "type": "function"
        },
        {
            "inputs": [
                {
                    "internalType": "uint16",
                    "name": "_srcChainId",
                    "type": "uint16"
                },
                {
                    "internalType": "bytes",
                    "name": "_srcAddress",
                    "type": "bytes"
                }
            ],
            "name": "setTrustedRemote",
            "outputs": [],
            "stateMutability": "nonpayable",
            "type": "function"
        },
        {
            "inputs": [
                {
                    "internalType": "bytes4",
                    "name": "interfaceId",
                    "type": "bytes4"
                }
            ],
            "name": "supportsInterface",
            "outputs": [
                {
                    "internalType": "bool",
                    "name": "",
                    "type": "bool"
                }
            ],
            "stateMutability": "view",
            "type": "function"
        },
        {
            "inputs": [],
            "name": "symbol",
            "outputs": [
                {
                    "internalType": "string",
                    "name": "",
                    "type": "string"
                }
            ],
            "stateMutability": "view",
            "type": "function"
        },
        {
            "inputs": [
                {
                    "internalType": "uint256",
                    "name": "index",
                    "type": "uint256"
                }
            ],
            "name": "tokenByIndex",
            "outputs": [
                {
                    "internalType": "uint256",
                    "name": "",
                    "type": "uint256"
                }
            ],
            "stateMutability": "view",
            "type": "function"
        },
        {
            "inputs": [
                {
                    "internalType": "address",
                    "name": "owner",
                    "type": "address"
                },
                {
                    "internalType": "uint256",
                    "name": "index",
                    "type": "uint256"
                }
            ],
            "name": "tokenOfOwnerByIndex",
            "outputs": [
                {
                    "internalType": "uint256",
                    "name": "",
                    "type": "uint256"
                }
            ],
            "stateMutability": "view",
            "type": "function"
        },
        {
            "inputs": [
                {
                    "internalType": "uint256",
                    "name": "tokenId",
                    "type": "uint256"
                }
            ],
            "name": "tokenURI",
            "outputs": [
                {
                    "internalType": "string",
                    "name": "",
                    "type": "string"
                }
            ],
            "stateMutability": "view",
            "type": "function"
        },
        {
            "inputs": [],
            "name": "totalSupply",
            "outputs": [
                {
                    "internalType": "uint256",
                    "name": "",
                    "type": "uint256"
                }
            ],
            "stateMutability": "view",
            "type": "function"
        },
        {
            "inputs": [
                {
                    "internalType": "address",
                    "name": "from",
                    "type": "address"
                },
                {
                    "internalType": "address",
                    "name": "to",
                    "type": "address"
                },
                {
                    "internalType": "uint256",
                    "name": "tokenId",
                    "type": "uint256"
                }
            ],
            "name": "transferFrom",
            "outputs": [],
            "stateMutability": "nonpayable",
            "type": "function"
        },
        {
            "inputs": [
                {
                    "internalType": "address",
                    "name": "newOwner",
                    "type": "address"
                }
            ],
            "name": "transferOwnership",
            "outputs": [],
            "stateMutability": "nonpayable",
            "type": "function"
        },
        {
            "inputs": [
                {
                    "internalType": "uint16",
                    "name": "",
                    "type": "uint16"
                }
            ],
            "name": "trustedRemoteLookup",
            "outputs": [
                {
                    "internalType": "bytes",
                    "name": "",
                    "type": "bytes"
                }
            ],
            "stateMutability": "view",
            "type": "function"
        },
        {
            "inputs": [],
            "name": "withdraw",
            "outputs": [],
            "stateMutability": "nonpayable",
            "type": "function"
        }
    ],
    "bytecode": "0x6101806040523480156200001257600080fd5b5060405162004bfe38038062004bfe8339810160408190526200003591620003ba565b86868489604051806040016040528060018152602001603160f81b8152508484848080620000726200006c6200016f60201b60201c565b62000173565b6001600160a01b0316608052505081516200009590600390602085019062000247565b508051620000ab90600490602084019062000247565b505082516020808501919091208351848301206101008290526101208190524660c0818152604080517f8b73c3c69bb8fe3d512ecc4cf759cc79239f7b179b0ffacaa9a75d522b39400f8188018190528183018790526060820186905260808201949094523060a08083019190915282518083039091018152920190528051940193909320919350919060a0523060e0526101405250505060118690555050506012829055506101608490526200016285620001c3565b50505050505050620004c9565b3390565b600080546001600160a01b038381166001600160a01b0319831681178455604051919092169283917f8be0079c531659141344cd1fd0a4f28419497f9722a3daafe3b4186f6b6457e09190a35050565b620001cd620001e6565b8051620001e290601390602084019062000247565b5050565b6000546001600160a01b03163314620002455760405162461bcd60e51b815260206004820181905260248201527f4f776e61626c653a2063616c6c6572206973206e6f7420746865206f776e6572604482015260640160405180910390fd5b565b82805462000255906200048c565b90600052602060002090601f016020900481019282620002795760008555620002c4565b82601f106200029457805160ff1916838001178555620002c4565b82800160010185558215620002c4579182015b82811115620002c4578251825591602001919060010190620002a7565b50620002d2929150620002d6565b5090565b5b80821115620002d25760008155600101620002d7565b634e487b7160e01b600052604160045260246000fd5b600082601f8301126200031557600080fd5b81516001600160401b0380821115620003325762000332620002ed565b604051601f8301601f19908116603f011681019082821181831017156200035d576200035d620002ed565b816040528381526020925086838588010111156200037a57600080fd5b600091505b838210156200039e57858201830151818301840152908201906200037f565b83821115620003b05760008385830101525b9695505050505050565b600080600080600080600060e0888a031215620003d657600080fd5b87516001600160401b0380821115620003ee57600080fd5b620003fc8b838c0162000303565b985060208a01519150808211156200041357600080fd5b620004218b838c0162000303565b975060408a01519150808211156200043857600080fd5b50620004478a828b0162000303565b60608a015160808b0151919750955090506001600160a01b03811681146200046e57600080fd5b8093505060a0880151915060c0880151905092959891949750929550565b600181811c90821680620004a157607f821691505b60208210811415620004c357634e487b7160e01b600052602260045260246000fd5b50919050565b60805160a05160c05160e0516101005161012051610140516101605161468962000575600039600081816107270152610f2201526000612278015260006122c7015260006122a2015260006121fb015260006122250152600061224f01526000818161084e01528181610a1001528181610c7801528181610e37015281816110590152818161136501528181611a0d01528181611ce3015281816124850152612b7401526146896000f3fe6080604052600436106102fe5760003560e01c80636aa99da311610190578063a22cb465116100dc578063cbed8b9c11610095578063e985e9c51161006f578063e985e9c514610964578063eb8d72b7146109ad578063f2fde38b146109cd578063f5ecbdbc146109ed57600080fd5b8063cbed8b9c1461091b578063d1deba1f1461093b578063e1d4c8701461094e57600080fd5b8063a22cb4651461081c578063b353aaa71461083c578063b88d4fde14610870578063c04a283614610890578063c3cda520146108db578063c87b56dd146108fb57600080fd5b80637ecebe00116101495780638da5cb5b116101235780638da5cb5b146107a95780638e539e8c146107c757806395d89b41146107e75780639ab24eb0146107fc57600080fd5b80637ecebe0014610749578063819b25ba146107695780638295784d1461078957600080fd5b80636aa99da3146106955780636c0360eb146106ab57806370a08231146106c0578063715018a6146106e05780637533d788146106f55780637b1b1de61461071557600080fd5b80633a46b1a81161024f57806351905636116102085780635b8c41e6116101e25780635b8c41e6146105e65780635c19a95c146106355780636352211e1461065557806366ad5c8a1461067557600080fd5b8063519056361461057a57806355f804b31461058d578063587cde1e146105ad57600080fd5b80633a46b1a8146104c55780633ccfd60b146104e55780633d8b38f6146104fa57806342842e0e1461051a57806342d65a8d1461053a5780634f6ccce71461055a57600080fd5b806310ddb137116102bc57806323b872dd1161029657806323b872dd1461043b5780632a205e3d1461045b5780632f745c59146104905780633644e515146104b057600080fd5b806310ddb137146103f45780631249c58b1461041457806318160ddd1461041c57600080fd5b80621d35671461030357806301ffc9a71461032557806306fdde031461035a57806307e0db171461037c578063081812fc1461039c578063095ea7b3146103d4575b600080fd5b34801561030f57600080fd5b5061032361031e366004613a74565b610a0d565b005b34801561033157600080fd5b50610345610340366004613b12565b610bb4565b60405190151581526020015b60405180910390f35b34801561036657600080fd5b5061036f610bc5565b6040516103519190613b87565b34801561038857600080fd5b50610323610397366004613b9a565b610c57565b3480156103a857600080fd5b506103bc6103b7366004613bb5565b610cd9565b6040516001600160a01b039091168152602001610351565b3480156103e057600080fd5b506103236103ef366004613be3565b610d00565b34801561040057600080fd5b5061032361040f366004613b9a565b610e16565b610323610e6e565b34801561042857600080fd5b50600b545b604051908152602001610351565b34801561044757600080fd5b50610323610456366004613c0f565b610fe8565b34801561046757600080fd5b5061047b610476366004613c60565b61101a565b60408051928352602083019190915201610351565b34801561049c57600080fd5b5061042d6104ab366004613be3565b6110f4565b3480156104bc57600080fd5b5061042d61118a565b3480156104d157600080fd5b5061042d6104e0366004613be3565b611199565b3480156104f157600080fd5b506103236111c2565b34801561050657600080fd5b50610345610515366004613d2f565b61125f565b34801561052657600080fd5b50610323610535366004613c0f565b61132b565b34801561054657600080fd5b50610323610555366004613d2f565b611346565b34801561056657600080fd5b5061042d610575366004613bb5565b6113d5565b610323610588366004613d81565b611468565b34801561059957600080fd5b506103236105a8366004613e3a565b611477565b3480156105b957600080fd5b506103bc6105c8366004613e82565b6001600160a01b039081166000908152600d60205260409020541690565b3480156105f257600080fd5b5061042d610601366004613e9f565b6002602090815260009384526040808520845180860184018051928152908401958401959095209452929052825290205481565b34801561064157600080fd5b50610323610650366004613e82565b611492565b34801561066157600080fd5b506103bc610670366004613bb5565b61149d565b34801561068157600080fd5b50610323610690366004613a74565b6114fd565b3480156106a157600080fd5b5061042d60115481565b3480156106b757600080fd5b5061036f61156d565b3480156106cc57600080fd5b5061042d6106db366004613e82565b611577565b3480156106ec57600080fd5b506103236115fd565b34801561070157600080fd5b5061036f610710366004613b9a565b611611565b34801561072157600080fd5b5061042d7f000000000000000000000000000000000000000000000000000000000000000081565b34801561075557600080fd5b5061042d610764366004613e82565b6116ab565b34801561077557600080fd5b50610323610784366004613bb5565b6116c9565b34801561079557600080fd5b506103236107a4366004613f11565b611772565b3480156107b557600080fd5b506000546001600160a01b03166103bc565b3480156107d357600080fd5b5061042d6107e2366004613bb5565b6117ee565b3480156107f357600080fd5b5061036f61184a565b34801561080857600080fd5b5061042d610817366004613e82565b611859565b34801561082857600080fd5b50610323610837366004613f94565b61187a565b34801561084857600080fd5b506103bc7f000000000000000000000000000000000000000000000000000000000000000081565b34801561087c57600080fd5b5061032361088b366004613fc9565b611885565b34801561089c57600080fd5b506108c96108ab366004613e82565b6001600160a01b031660009081526014602052604090205460ff1690565b60405160ff9091168152602001610351565b3480156108e757600080fd5b506103236108f6366004614028565b6118b7565b34801561090757600080fd5b5061036f610916366004613bb5565b6119db565b34801561092757600080fd5b50610323610936366004614082565b6119ee565b610323610949366004613a74565b611a83565b34801561095a57600080fd5b5061042d60125481565b34801561097057600080fd5b5061034561097f3660046140f0565b6001600160a01b03918216600090815260086020908152604080832093909416825291909152205460ff1690565b3480156109b957600080fd5b506103236109c8366004613d2f565b611bd5565b3480156109d957600080fd5b506103236109e8366004613e82565b611c3c565b3480156109f957600080fd5b5061036f610a08366004614129565b611cb2565b337f00000000000000000000000000000000000000000000000000000000000000006001600160a01b031614610a8a5760405162461bcd60e51b815260206004820152601e60248201527f4c7a4170703a20696e76616c696420656e64706f696e742063616c6c6572000060448201526064015b60405180910390fd5b61ffff841660009081526001602052604081208054610aa890614176565b80601f0160208091040260200160405190810160405280929190818152602001828054610ad490614176565b8015610b215780601f10610af657610100808354040283529160200191610b21565b820191906000526020600020905b815481529060010190602001808311610b0457829003601f168201915b5050505050905080518451148015610b46575080805190602001208480519060200120145b610ba15760405162461bcd60e51b815260206004820152602660248201527f4c7a4170703a20696e76616c696420736f757263652073656e64696e6720636f6044820152651b9d1c9858dd60d21b6064820152608401610a81565b610bad85858585611d74565b5050505050565b6000610bbf82611e65565b92915050565b606060038054610bd490614176565b80601f0160208091040260200160405190810160405280929190818152602001828054610c0090614176565b8015610c4d5780601f10610c2257610100808354040283529160200191610c4d565b820191906000526020600020905b815481529060010190602001808311610c3057829003601f168201915b5050505050905090565b610c5f611e82565b6040516307e0db1760e01b815261ffff821660048201527f00000000000000000000000000000000000000000000000000000000000000006001600160a01b0316906307e0db17906024015b600060405180830381600087803b158015610cc557600080fd5b505af1158015610bad573d6000803e3d6000fd5b6000610ce482611edc565b506000908152600760205260409020546001600160a01b031690565b6000610d0b8261149d565b9050806001600160a01b0316836001600160a01b03161415610d795760405162461bcd60e51b815260206004820152602160248201527f4552433732313a20617070726f76616c20746f2063757272656e74206f776e656044820152603960f91b6064820152608401610a81565b336001600160a01b0382161480610d955750610d95813361097f565b610e075760405162461bcd60e51b815260206004820152603e60248201527f4552433732313a20617070726f76652063616c6c6572206973206e6f7420746f60448201527f6b656e206f776e6572206e6f7220617070726f76656420666f7220616c6c00006064820152608401610a81565b610e118383611f3b565b505050565b610e1e611e82565b6040516310ddb13760e01b815261ffff821660048201527f00000000000000000000000000000000000000000000000000000000000000006001600160a01b0316906310ddb13790602401610cab565b33600090815260146020526040902054600160ff9091161015610ed35760405162461bcd60e51b815260206004820152601e60248201527f4578636565646564206d617820617661696c61626c6520746f206d696e7400006044820152606401610a81565b6012546011541115610f205760405162461bcd60e51b815260206004820152601660248201527513585e081b5a5b9d081b1a5b5a5d081c995858da195960521b6044820152606401610a81565b7f0000000000000000000000000000000000000000000000000000000000000000341015610f815760405162461bcd60e51b815260206004820152600e60248201526d09cdee840cadcdeeaced0408aa8960931b6044820152606401610a81565b336000908152601460205260408120805460019290610fa490849060ff166141c1565b92506101000a81548160ff021916908360ff1602179055506000601154905060116000815480929190610fd6906141e4565b9190505550610fe53382611fa9565b50565b610ff3335b82611fc3565b61100f5760405162461bcd60e51b8152600401610a81906141ff565b610e11838383612041565b6000806000868660405160200161103292919061424d565b60408051601f198184030181529082905263040a7bb160e41b825291506001600160a01b037f000000000000000000000000000000000000000000000000000000000000000016906340a7bb1090611096908b90309086908b908b9060040161426f565b604080518083038186803b1580156110ad57600080fd5b505afa1580156110c1573d6000803e3d6000fd5b505050506040513d601f19601f820116820180604052508101906110e591906142c3565b92509250509550959350505050565b60006110ff83611577565b82106111615760405162461bcd60e51b815260206004820152602b60248201527f455243373231456e756d657261626c653a206f776e657220696e646578206f7560448201526a74206f6620626f756e647360a81b6064820152608401610a81565b506001600160a01b03919091166000908152600960209081526040808320938352929052205490565b60006111946121ee565b905090565b6001600160a01b0382166000908152600e602052604081206111bb9083612315565b9392505050565b6111ca611e82565b6040514790600090339083908381818185875af1925050503d806000811461120e576040519150601f19603f3d011682016040523d82523d6000602084013e611213565b606091505b505090508061125b5760405162461bcd60e51b81526020600482015260146024820152732330b4b632b2103a379039b2b7321022ba3432b960611b6044820152606401610a81565b5050565b61ffff83166000908152600160205260408120805482919061128090614176565b80601f01602080910402602001604051908101604052809291908181526020018280546112ac90614176565b80156112f95780601f106112ce576101008083540402835291602001916112f9565b820191906000526020600020905b8154815290600101906020018083116112dc57829003601f168201915b5050505050905083836040516113109291906142e7565b60405180910390208180519060200120149150509392505050565b610e1183838360405180602001604052806000815250611885565b61134e611e82565b6040516342d65a8d60e01b81526001600160a01b037f000000000000000000000000000000000000000000000000000000000000000016906342d65a8d9061139e90869086908690600401614320565b600060405180830381600087803b1580156113b857600080fd5b505af11580156113cc573d6000803e3d6000fd5b50505050505050565b60006113e0600b5490565b82106114435760405162461bcd60e51b815260206004820152602c60248201527f455243373231456e756d657261626c653a20676c6f62616c20696e646578206f60448201526b7574206f6620626f756e647360a01b6064820152608401610a81565b600b82815481106114565761145661433e565b90600052602060002001549050919050565b6113cc87878787878787612424565b61147f611e82565b805161125b906013906020840190613874565b3361125b818361257b565b6000818152600560205260408120546001600160a01b031680610bbf5760405162461bcd60e51b8152602060048201526018602482015277115490cdcc8c4e881a5b9d985b1a59081d1bdad95b88125160421b6044820152606401610a81565b33301461155b5760405162461bcd60e51b815260206004820152602660248201527f4e6f6e626c6f636b696e674c7a4170703a2063616c6c6572206d7573742062656044820152650204c7a4170760d41b6064820152608401610a81565b611567848484846125ed565b50505050565b6060611194612688565b60006001600160a01b0382166115e15760405162461bcd60e51b815260206004820152602960248201527f4552433732313a2061646472657373207a65726f206973206e6f7420612076616044820152683634b21037bbb732b960b91b6064820152608401610a81565b506001600160a01b031660009081526006602052604090205490565b611605611e82565b61160f6000612697565b565b6001602052600090815260409020805461162a90614176565b80601f016020809104026020016040519081016040528092919081815260200182805461165690614176565b80156116a35780601f10611678576101008083540402835291602001916116a3565b820191906000526020600020905b81548152906001019060200180831161168657829003601f168201915b505050505081565b6001600160a01b038116600090815260106020526040812054610bbf565b6116d1611e82565b6012546116df600183614354565b6011546116ec919061436b565b11156117335760405162461bcd60e51b815260206004820152601660248201527513585e081b5a5b9d081b1a5b5a5d081c995858da195960521b6044820152606401610a81565b60005b8181101561125b57601180549081906000611750836141e4565b919050555061175f3382611fa9565b508061176a816141e4565b915050611736565b61177a611e82565b60005b8281101561156757816014600086868581811061179c5761179c61433e565b90506020020160208101906117b19190613e82565b6001600160a01b031681526020810191909152604001600020805460ff191660ff92909216919091179055806117e6816141e4565b91505061177d565b600043821061183f5760405162461bcd60e51b815260206004820152601a60248201527f566f7465733a20626c6f636b206e6f7420796574206d696e65640000000000006044820152606401610a81565b610bbf600f83612315565b606060048054610bd490614176565b6001600160a01b0381166000908152600e60205260408120610bbf906126e7565b61125b338383612743565b61188f3383611fc3565b6118ab5760405162461bcd60e51b8152600401610a81906141ff565b61156784848484612812565b834211156119075760405162461bcd60e51b815260206004820152601860248201527f566f7465733a207369676e6174757265206578706972656400000000000000006044820152606401610a81565b604080517fe48329057bfd03d55e49b547132e39cffd9c1820ad7b9d4c5307691425d15adf60208201526001600160a01b038816918101919091526060810186905260808101859052600090611981906119799060a00160405160208183030381529060405280519060200120612845565b858585612893565b905061198c816128bb565b86146119d15760405162461bcd60e51b8152602060048201526014602482015273566f7465733a20696e76616c6964206e6f6e636560601b6044820152606401610a81565b6113cc818861257b565b60606119e682611edc565b610bbf612688565b6119f6611e82565b6040516332fb62e760e21b81526001600160a01b037f0000000000000000000000000000000000000000000000000000000000000000169063cbed8b9c90611a4a9088908890889088908890600401614383565b600060405180830381600087803b158015611a6457600080fd5b505af1158015611a78573d6000803e3d6000fd5b505050505050505050565b61ffff84166000908152600260205260408082209051611aa49086906143bc565b90815260408051602092819003830190206001600160401b03861660009081529252902054905080611b245760405162461bcd60e51b815260206004820152602360248201527f4e6f6e626c6f636b696e674c7a4170703a206e6f2073746f726564206d65737360448201526261676560e81b6064820152608401610a81565b815160208301208114611b835760405162461bcd60e51b815260206004820152602160248201527f4e6f6e626c6f636b696e674c7a4170703a20696e76616c6964207061796c6f616044820152601960fa1b6064820152608401610a81565b61ffff85166000908152600260205260408082209051611ba49087906143bc565b90815260408051602092819003830190206001600160401b03871660009081529252902055610bad858585856125ed565b611bdd611e82565b61ffff83166000908152600160205260409020611bfb9083836138f4565b507ffa41487ad5d6728f0b19276fa1eddc16558578f5109fc39d2dc33c3230470dab838383604051611c2f93929190614320565b60405180910390a1505050565b611c44611e82565b6001600160a01b038116611ca95760405162461bcd60e51b815260206004820152602660248201527f4f776e61626c653a206e6577206f776e657220697320746865207a65726f206160448201526564647265737360d01b6064820152608401610a81565b610fe581612697565b604051633d7b2f6f60e21b815261ffff808616600483015284166024820152306044820152606481018290526060907f00000000000000000000000000000000000000000000000000000000000000006001600160a01b03169063f5ecbdbc9060840160006040518083038186803b158015611d2d57600080fd5b505afa158015611d41573d6000803e3d6000fd5b505050506040513d6000823e601f3d908101601f19168201604052611d69919081019061441d565b90505b949350505050565b604051633356ae4560e11b815230906366ad5c8a90611d9d908790879087908790600401614451565b600060405180830381600087803b158015611db757600080fd5b505af1925050508015611dc8575060015b611567578080519060200120600260008661ffff1661ffff16815260200190815260200160002084604051611dfd91906143bc565b9081526040805191829003602090810183206001600160401b0387166000908152915220919091557fe6f254030bcb01ffd20558175c13fcaed6d1520be7becee4c961b65f79243b0d90611e58908690869086908690614451565b60405180910390a1611567565b60006001600160e01b031982161580610bbf5750610bbf826128e3565b6000546001600160a01b0316331461160f5760405162461bcd60e51b815260206004820181905260248201527f4f776e61626c653a2063616c6c6572206973206e6f7420746865206f776e65726044820152606401610a81565b6000818152600560205260409020546001600160a01b0316610fe55760405162461bcd60e51b8152602060048201526018602482015277115490cdcc8c4e881a5b9d985b1a59081d1bdad95b88125160421b6044820152606401610a81565b600081815260076020526040902080546001600160a01b0319166001600160a01b0384169081179091558190611f708261149d565b6001600160a01b03167f8c5be1e5ebec7d5bd14f71427d1e84f3dd0314c0f7b2291e5b200ac8c7c3b92560405160405180910390a45050565b61125b828260405180602001604052806000815250612908565b600080611fcf8361149d565b9050806001600160a01b0316846001600160a01b0316148061201657506001600160a01b0380821660009081526008602090815260408083209388168352929052205460ff165b80611d6c5750836001600160a01b031661202f84610cd9565b6001600160a01b031614949350505050565b826001600160a01b03166120548261149d565b6001600160a01b0316146120b85760405162461bcd60e51b815260206004820152602560248201527f4552433732313a207472616e736665722066726f6d20696e636f72726563742060448201526437bbb732b960d91b6064820152608401610a81565b6001600160a01b03821661211a5760405162461bcd60e51b8152602060048201526024808201527f4552433732313a207472616e7366657220746f20746865207a65726f206164646044820152637265737360e01b6064820152608401610a81565b61212583838361293b565b612130600082611f3b565b6001600160a01b0383166000908152600660205260408120805460019290612159908490614354565b90915550506001600160a01b038216600090815260066020526040812080546001929061218790849061436b565b909155505060008181526005602052604080822080546001600160a01b0319166001600160a01b0386811691821790925591518493918716917fddf252ad1be2c89b69c2b068fc378daa952ba7f163c4a11628f55a4df523b3ef91a4610e11838383612946565b6000306001600160a01b037f00000000000000000000000000000000000000000000000000000000000000001614801561224757507f000000000000000000000000000000000000000000000000000000000000000046145b1561227157507f000000000000000000000000000000000000000000000000000000000000000090565b50604080517f00000000000000000000000000000000000000000000000000000000000000006020808301919091527f0000000000000000000000000000000000000000000000000000000000000000828401527f000000000000000000000000000000000000000000000000000000000000000060608301524660808301523060a0808401919091528351808403909101815260c0909201909252805191012090565b60004382106123665760405162461bcd60e51b815260206004820181905260248201527f436865636b706f696e74733a20626c6f636b206e6f7420796574206d696e65646044820152606401610a81565b825460005b818110156123cb57600061237f8284612951565b9050848660000182815481106123975761239761433e565b60009182526020909120015463ffffffff1611156123b7578092506123c5565b6123c281600161436b565b91505b5061236b565b811561240f57846123dd600184614354565b815481106123ed576123ed61433e565b60009182526020909120015464010000000090046001600160e01b0316612412565b60005b6001600160e01b031695945050505050565b6124308787878761296c565b6000858560405160200161244592919061424d565b60405160208183030381529060405290506124638782868686612a55565b604051630f428ae960e31b815261ffff881660048201523060248201526000907f00000000000000000000000000000000000000000000000000000000000000006001600160a01b031690637a1457489060440160206040518083038186803b1580156124cf57600080fd5b505afa1580156124e3573d6000803e3d6000fd5b505050506040513d601f19601f82011682018060405250810190612507919061448f565b90508660405161251791906143bc565b604080519182900382208883526001600160401b03841660208401529161ffff8b16916001600160a01b038d16917f024797cc77ce15dc717112d54fb1df125fdfd8c81344fb046c5e074427ce1543910160405180910390a4505050505050505050565b6001600160a01b038281166000818152600d602052604080822080548686166001600160a01b0319821681179092559151919094169392849290917f3134e8a2e6d97e929a7e54011ea5485d7d196dd5f0ba4d4ef95803e8e3fc257f9190a4610e1181836125e886612bef565b612bfa565b6000808280602001905181019061260491906144ac565b60148201519193509150612619878284612d37565b806001600160a01b03168660405161263191906143bc565b604080519182900382208583526001600160401b03891660208401529161ffff8b16917f64e10c37f404d128982dce114f5d233c14c5c7f6d8db93099e3d99dacb9e27ba910160405180910390a450505050505050565b606060138054610bd490614176565b600080546001600160a01b038381166001600160a01b0319831681178455604051919092169283917f8be0079c531659141344cd1fd0a4f28419497f9722a3daafe3b4186f6b6457e09190a35050565b8054600090801561273057826126fe600183614354565b8154811061270e5761270e61433e565b60009182526020909120015464010000000090046001600160e01b0316612733565b60005b6001600160e01b03169392505050565b816001600160a01b0316836001600160a01b031614156127a55760405162461bcd60e51b815260206004820152601960248201527f4552433732313a20617070726f766520746f2063616c6c6572000000000000006044820152606401610a81565b6001600160a01b03838116600081815260086020908152604080832094871680845294825291829020805460ff191686151590811790915591519182527f17307eab39ab6107e8899845ad3d59bd9653f200f220920489ca2b5937696c31910160405180910390a3505050565b61281d848484612041565b61282984848484612d41565b6115675760405162461bcd60e51b8152600401610a81906144f2565b6000610bbf6128526121ee565b8360405161190160f01b6020820152602281018390526042810182905260009060620160405160208183030381529060405280519060200120905092915050565b60008060006128a487878787612e4b565b915091506128b181612f38565b5095945050505050565b6001600160a01b03811660009081526010602052604090208054600181018255905b50919050565b60006001600160e01b0319821663780e9d6360e01b1480610bbf5750610bbf826130f3565b6129128383613133565b61291f6000848484612d41565b610e115760405162461bcd60e51b8152600401610a81906144f2565b610e11838383613289565b610e11838383613341565b60006129606002848418614544565b6111bb9084841661436b565b61297533610fed565b6129d85760405162461bcd60e51b815260206004820152602e60248201527f4f4e46543732313a2073656e642063616c6c6572206973206e6f74206f776e6560448201526d1c881b9bdc88185c1c1c9bdd995960921b6064820152608401610a81565b836001600160a01b03166129eb8261149d565b6001600160a01b031614612a4c5760405162461bcd60e51b815260206004820152602260248201527f4f4e46543732313a2073656e642066726f6d20696e636f7272656374206f776e60448201526132b960f11b6064820152608401610a81565b6115678161334d565b61ffff851660009081526001602052604081208054612a7390614176565b80601f0160208091040260200160405190810160405280929190818152602001828054612a9f90614176565b8015612aec5780601f10612ac157610100808354040283529160200191612aec565b820191906000526020600020905b815481529060010190602001808311612acf57829003601f168201915b50505050509050805160001415612b5e5760405162461bcd60e51b815260206004820152603060248201527f4c7a4170703a2064657374696e6174696f6e20636861696e206973206e6f742060448201526f61207472757374656420736f7572636560801b6064820152608401610a81565b60405162c5803160e81b81526001600160a01b037f0000000000000000000000000000000000000000000000000000000000000000169063c5803100903490612bb5908a9086908b908b908b908b90600401614566565b6000604051808303818588803b158015612bce57600080fd5b505af1158015612be2573d6000803e3d6000fd5b5050505050505050505050565b6000610bbf82611577565b816001600160a01b0316836001600160a01b031614158015612c1c5750600081115b15610e11576001600160a01b03831615612caa576001600160a01b0383166000908152600e602052604081208190612c57906133fc85613408565b91509150846001600160a01b03167fdec2bacdd2f05b59de34da9b523dff8be42e5e38e818c82fdb0bae774387a7248383604051612c9f929190918252602082015260400190565b60405180910390a250505b6001600160a01b03821615610e11576001600160a01b0382166000908152600e602052604081208190612ce09061343685613408565b91509150836001600160a01b03167fdec2bacdd2f05b59de34da9b523dff8be42e5e38e818c82fdb0bae774387a7248383604051612d28929190918252602082015260400190565b60405180910390a25050505050565b610e118282611fa9565b60006001600160a01b0384163b15612e4357604051630a85bd0160e11b81526001600160a01b0385169063150b7a0290612d859033908990889088906004016145cd565b602060405180830381600087803b158015612d9f57600080fd5b505af1925050508015612dcf575060408051601f3d908101601f19168201909252612dcc9181019061460a565b60015b612e29573d808015612dfd576040519150601f19603f3d011682016040523d82523d6000602084013e612e02565b606091505b508051612e215760405162461bcd60e51b8152600401610a81906144f2565b805181602001fd5b6001600160e01b031916630a85bd0160e11b149050611d6c565b506001611d6c565b6000807f7fffffffffffffffffffffffffffffff5d576e7357a4501ddfe92f46681b20a0831115612e825750600090506003612f2f565b8460ff16601b14158015612e9a57508460ff16601c14155b15612eab5750600090506004612f2f565b6040805160008082526020820180845289905260ff881692820192909252606081018690526080810185905260019060a0016020604051602081039080840390855afa158015612eff573d6000803e3d6000fd5b5050604051601f1901519150506001600160a01b038116612f2857600060019250925050612f2f565b9150600090505b94509492505050565b6000816004811115612f4c57612f4c614627565b1415612f555750565b6001816004811115612f6957612f69614627565b1415612fb75760405162461bcd60e51b815260206004820152601860248201527f45434453413a20696e76616c6964207369676e617475726500000000000000006044820152606401610a81565b6002816004811115612fcb57612fcb614627565b14156130195760405162461bcd60e51b815260206004820152601f60248201527f45434453413a20696e76616c6964207369676e6174757265206c656e677468006044820152606401610a81565b600381600481111561302d5761302d614627565b14156130865760405162461bcd60e51b815260206004820152602260248201527f45434453413a20696e76616c6964207369676e6174757265202773272076616c604482015261756560f01b6064820152608401610a81565b600481600481111561309a5761309a614627565b1415610fe55760405162461bcd60e51b815260206004820152602260248201527f45434453413a20696e76616c6964207369676e6174757265202776272076616c604482015261756560f01b6064820152608401610a81565b60006001600160e01b031982166380ac58cd60e01b148061312457506001600160e01b03198216635b5e139f60e01b145b80610bbf5750610bbf82613442565b6001600160a01b0382166131895760405162461bcd60e51b815260206004820181905260248201527f4552433732313a206d696e7420746f20746865207a65726f20616464726573736044820152606401610a81565b6000818152600560205260409020546001600160a01b0316156131ee5760405162461bcd60e51b815260206004820152601c60248201527f4552433732313a20746f6b656e20616c7265616479206d696e746564000000006044820152606401610a81565b6131fa6000838361293b565b6001600160a01b038216600090815260066020526040812080546001929061322390849061436b565b909155505060008181526005602052604080822080546001600160a01b0319166001600160a01b03861690811790915590518392907fddf252ad1be2c89b69c2b068fc378daa952ba7f163c4a11628f55a4df523b3ef908290a461125b60008383612946565b6001600160a01b0383166132e4576132df81600b80546000838152600c60205260408120829055600182018355919091527f0175b7a638427703f0dbe7bb9bbf987a2551717b34e79f33b5b1008d1fa01db90155565b613307565b816001600160a01b0316836001600160a01b031614613307576133078382613477565b6001600160a01b03821661331e57610e1181613514565b826001600160a01b0316826001600160a01b031614610e1157610e1182826135c3565b610e1183836001613607565b60006133588261149d565b90506133668160008461293b565b613371600083611f3b565b6001600160a01b038116600090815260066020526040812080546001929061339a908490614354565b909155505060008281526005602052604080822080546001600160a01b0319169055518391906001600160a01b038416907fddf252ad1be2c89b69c2b068fc378daa952ba7f163c4a11628f55a4df523b3ef908390a461125b81600084612946565b60006111bb8284614354565b60008061342a8561342561341b886126e7565b868863ffffffff16565b613677565b91509150935093915050565b60006111bb828461436b565b60006001600160e01b03198216637bb0080b60e01b1480610bbf57506301ffc9a760e01b6001600160e01b0319831614610bbf565b6000600161348484611577565b61348e9190614354565b6000838152600a60205260409020549091508082146134e1576001600160a01b03841660009081526009602090815260408083208584528252808320548484528184208190558352600a90915290208190555b506000918252600a602090815260408084208490556001600160a01b039094168352600981528383209183525290812055565b600b5460009061352690600190614354565b6000838152600c6020526040812054600b805493945090928490811061354e5761354e61433e565b9060005260206000200154905080600b838154811061356f5761356f61433e565b6000918252602080832090910192909255828152600c9091526040808220849055858252812055600b8054806135a7576135a761463d565b6001900381819060005260206000200160009055905550505050565b60006135ce83611577565b6001600160a01b0390931660009081526009602090815260408083208684528252808320859055938252600a9052919091209190915550565b6001600160a01b03831661362657613623600f61343683613408565b50505b6001600160a01b03821661364557613642600f6133fc83613408565b50505b6001600160a01b038381166000908152600d6020526040808220548584168352912054610e1192918216911683612bfa565b8154600090819081613688866126e7565b90506000821180156136c6575043866136a2600185614354565b815481106136b2576136b261433e565b60009182526020909120015463ffffffff16145b15613726576136d4856137a2565b866136e0600185614354565b815481106136f0576136f061433e565b9060005260206000200160000160046101000a8154816001600160e01b0302191690836001600160e01b03160217905550613794565b85600001604051806040016040528061373e4361380f565b63ffffffff168152602001613752886137a2565b6001600160e01b0390811690915282546001810184556000938452602093849020835194909301519091166401000000000263ffffffff909316929092179101555b9250839150505b9250929050565b60006001600160e01b0382111561380b5760405162461bcd60e51b815260206004820152602760248201527f53616665436173743a2076616c756520646f65736e27742066697420696e20326044820152663234206269747360c81b6064820152608401610a81565b5090565b600063ffffffff82111561380b5760405162461bcd60e51b815260206004820152602660248201527f53616665436173743a2076616c756520646f65736e27742066697420696e203360448201526532206269747360d01b6064820152608401610a81565b82805461388090614176565b90600052602060002090601f0160209004810192826138a257600085556138e8565b82601f106138bb57805160ff19168380011785556138e8565b828001600101855582156138e8579182015b828111156138e85782518255916020019190600101906138cd565b5061380b929150613968565b82805461390090614176565b90600052602060002090601f01602090048101928261392257600085556138e8565b82601f1061393b5782800160ff198235161785556138e8565b828001600101855582156138e8579182015b828111156138e857823582559160200191906001019061394d565b5b8082111561380b5760008155600101613969565b803561ffff8116811461398f57600080fd5b919050565b634e487b7160e01b600052604160045260246000fd5b604051601f8201601f191681016001600160401b03811182821017156139d2576139d2613994565b604052919050565b60006001600160401b038211156139f3576139f3613994565b50601f01601f191660200190565b6000613a14613a0f846139da565b6139aa565b9050828152838383011115613a2857600080fd5b828260208301376000602084830101529392505050565b600082601f830112613a5057600080fd5b6111bb83833560208501613a01565b6001600160401b0381168114610fe557600080fd5b60008060008060808587031215613a8a57600080fd5b613a938561397d565b935060208501356001600160401b0380821115613aaf57600080fd5b613abb88838901613a3f565b945060408701359150613acd82613a5f565b90925060608601359080821115613ae357600080fd5b50613af087828801613a3f565b91505092959194509250565b6001600160e01b031981168114610fe557600080fd5b600060208284031215613b2457600080fd5b81356111bb81613afc565b60005b83811015613b4a578181015183820152602001613b32565b838111156115675750506000910152565b60008151808452613b73816020860160208601613b2f565b601f01601f19169290920160200192915050565b6020815260006111bb6020830184613b5b565b600060208284031215613bac57600080fd5b6111bb8261397d565b600060208284031215613bc757600080fd5b5035919050565b6001600160a01b0381168114610fe557600080fd5b60008060408385031215613bf657600080fd5b8235613c0181613bce565b946020939093013593505050565b600080600060608486031215613c2457600080fd5b8335613c2f81613bce565b92506020840135613c3f81613bce565b929592945050506040919091013590565b8035801515811461398f57600080fd5b600080600080600060a08688031215613c7857600080fd5b613c818661397d565b945060208601356001600160401b0380821115613c9d57600080fd5b613ca989838a01613a3f565b955060408801359450613cbe60608901613c50565b93506080880135915080821115613cd457600080fd5b50613ce188828901613a3f565b9150509295509295909350565b60008083601f840112613d0057600080fd5b5081356001600160401b03811115613d1757600080fd5b60208301915083602082850101111561379b57600080fd5b600080600060408486031215613d4457600080fd5b613d4d8461397d565b925060208401356001600160401b03811115613d6857600080fd5b613d7486828701613cee565b9497909650939450505050565b600080600080600080600060e0888a031215613d9c57600080fd5b8735613da781613bce565b9650613db56020890161397d565b955060408801356001600160401b0380821115613dd157600080fd5b613ddd8b838c01613a3f565b965060608a0135955060808a01359150613df682613bce565b90935060a089013590613e0882613bce565b90925060c08901359080821115613e1e57600080fd5b50613e2b8a828b01613a3f565b91505092959891949750929550565b600060208284031215613e4c57600080fd5b81356001600160401b03811115613e6257600080fd5b8201601f81018413613e7357600080fd5b611d6c84823560208401613a01565b600060208284031215613e9457600080fd5b81356111bb81613bce565b600080600060608486031215613eb457600080fd5b613ebd8461397d565b925060208401356001600160401b03811115613ed857600080fd5b613ee486828701613a3f565b9250506040840135613ef581613a5f565b809150509250925092565b803560ff8116811461398f57600080fd5b600080600060408486031215613f2657600080fd5b83356001600160401b0380821115613f3d57600080fd5b818601915086601f830112613f5157600080fd5b813581811115613f6057600080fd5b8760208260051b8501011115613f7557600080fd5b602092830195509350613f8b9186019050613f00565b90509250925092565b60008060408385031215613fa757600080fd5b8235613fb281613bce565b9150613fc060208401613c50565b90509250929050565b60008060008060808587031215613fdf57600080fd5b8435613fea81613bce565b93506020850135613ffa81613bce565b92506040850135915060608501356001600160401b0381111561401c57600080fd5b613af087828801613a3f565b60008060008060008060c0878903121561404157600080fd5b863561404c81613bce565b9550602087013594506040870135935061406860608801613f00565b92506080870135915060a087013590509295509295509295565b60008060008060006080868803121561409a57600080fd5b6140a38661397d565b94506140b16020870161397d565b93506040860135925060608601356001600160401b038111156140d357600080fd5b6140df88828901613cee565b969995985093965092949392505050565b6000806040838503121561410357600080fd5b823561410e81613bce565b9150602083013561411e81613bce565b809150509250929050565b6000806000806080858703121561413f57600080fd5b6141488561397d565b93506141566020860161397d565b9250604085013561416681613bce565b9396929550929360600135925050565b600181811c9082168061418a57607f821691505b602082108114156128dd57634e487b7160e01b600052602260045260246000fd5b634e487b7160e01b600052601160045260246000fd5b600060ff821660ff8416808210156141db576141db6141ab565b90039392505050565b60006000198214156141f8576141f86141ab565b5060010190565b6020808252602e908201527f4552433732313a2063616c6c6572206973206e6f7420746f6b656e206f776e6560408201526d1c881b9bdc88185c1c1c9bdd995960921b606082015260800190565b6040815260006142606040830185613b5b565b90508260208301529392505050565b61ffff861681526001600160a01b038516602082015260a06040820181905260009061429d90830186613b5b565b841515606084015282810360808401526142b78185613b5b565b98975050505050505050565b600080604083850312156142d657600080fd5b505080516020909101519092909150565b8183823760009101908152919050565b81835281816020850137506000828201602090810191909152601f909101601f19169091010190565b61ffff84168152604060208201526000611d696040830184866142f7565b634e487b7160e01b600052603260045260246000fd5b600082821015614366576143666141ab565b500390565b6000821982111561437e5761437e6141ab565b500190565b600061ffff8088168352808716602084015250846040830152608060608301526143b16080830184866142f7565b979650505050505050565b600082516143ce818460208701613b2f565b9190910192915050565b600082601f8301126143e957600080fd5b81516143f7613a0f826139da565b81815284602083860101111561440c57600080fd5b611d6c826020830160208701613b2f565b60006020828403121561442f57600080fd5b81516001600160401b0381111561444557600080fd5b611d6c848285016143d8565b61ffff8516815260806020820152600061446e6080830186613b5b565b6001600160401b038516604084015282810360608401526143b18185613b5b565b6000602082840312156144a157600080fd5b81516111bb81613a5f565b600080604083850312156144bf57600080fd5b82516001600160401b038111156144d557600080fd5b6144e1858286016143d8565b925050602083015190509250929050565b60208082526032908201527f4552433732313a207472616e7366657220746f206e6f6e20455243373231526560408201527131b2b4bb32b91034b6b83632b6b2b73a32b960711b606082015260800190565b60008261456157634e487b7160e01b600052601260045260246000fd5b500490565b61ffff8716815260c06020820152600061458360c0830188613b5b565b82810360408401526145958188613b5b565b6001600160a01b0387811660608601528616608085015283810360a085015290506145c08185613b5b565b9998505050505050505050565b6001600160a01b038581168252841660208201526040810183905260806060820181905260009061460090830184613b5b565b9695505050505050565b60006020828403121561461c57600080fd5b81516111bb81613afc565b634e487b7160e01b600052602160045260246000fd5b634e487b7160e01b600052603160045260246000fdfea2646970667358221220fc1124d58f7587735f01c05e8a12fc32ae5d011b8a56badded6d99f66c72626464736f6c63430008090033",
    "linkReferences": {},
    "deployedLinkReferences": {}
}