{
  "_format": "hh-sol-artifact-1",
  "contractName": "GovernanceNFT",
  "sourceName": "contracts/GovernanceNFT.sol",
  "abi": [
    {
      "inputs": [
        {
          "internalType": "string",
          "name": "name_",
          "type": "string"
        },
        {
          "internalType": "string",
          "name": "symbol_",
          "type": "string"
        },
        {
          "internalType": "address",
          "name": "layerZeroEndpoint_",
          "type": "address"
        },
        {
          "internalType": "uint256",
          "name": "startMintId_",
          "type": "uint256"
        },
        {
          "internalType": "uint256",
          "name": "endMintId_",
          "type": "uint256"
        }
      ],
      "stateMutability": "nonpayable",
      "type": "constructor"
    },
    {
      "anonymous": false,
      "inputs": [
        {
          "indexed": true,
          "internalType": "address",
          "name": "owner",
          "type": "address"
        },
        {
          "indexed": true,
          "internalType": "address",
          "name": "approved",
          "type": "address"
        },
        {
          "indexed": true,
          "internalType": "uint256",
          "name": "tokenId",
          "type": "uint256"
        }
      ],
      "name": "Approval",
      "type": "event"
    },
    {
      "anonymous": false,
      "inputs": [
        {
          "indexed": true,
          "internalType": "address",
          "name": "owner",
          "type": "address"
        },
        {
          "indexed": true,
          "internalType": "address",
          "name": "operator",
          "type": "address"
        },
        {
          "indexed": false,
          "internalType": "bool",
          "name": "approved",
          "type": "bool"
        }
      ],
      "name": "ApprovalForAll",
      "type": "event"
    },
    {
      "anonymous": false,
      "inputs": [
        {
          "indexed": true,
          "internalType": "address",
          "name": "delegator",
          "type": "address"
        },
        {
          "indexed": true,
          "internalType": "address",
          "name": "fromDelegate",
          "type": "address"
        },
        {
          "indexed": true,
          "internalType": "address",
          "name": "toDelegate",
          "type": "address"
        }
      ],
      "name": "DelegateChanged",
      "type": "event"
    },
    {
      "anonymous": false,
      "inputs": [
        {
          "indexed": true,
          "internalType": "address",
          "name": "delegate",
          "type": "address"
        },
        {
          "indexed": false,
          "internalType": "uint256",
          "name": "previousBalance",
          "type": "uint256"
        },
        {
          "indexed": false,
          "internalType": "uint256",
          "name": "newBalance",
          "type": "uint256"
        }
      ],
      "name": "DelegateVotesChanged",
      "type": "event"
    },
    {
      "anonymous": false,
      "inputs": [
        {
          "indexed": false,
          "internalType": "uint16",
          "name": "_srcChainId",
          "type": "uint16"
        },
        {
          "indexed": false,
          "internalType": "bytes",
          "name": "_srcAddress",
          "type": "bytes"
        },
        {
          "indexed": false,
          "internalType": "uint64",
          "name": "_nonce",
          "type": "uint64"
        },
        {
          "indexed": false,
          "internalType": "bytes",
          "name": "_payload",
          "type": "bytes"
        }
      ],
      "name": "MessageFailed",
      "type": "event"
    },
    {
      "anonymous": false,
      "inputs": [
        {
          "indexed": true,
          "internalType": "address",
          "name": "previousOwner",
          "type": "address"
        },
        {
          "indexed": true,
          "internalType": "address",
          "name": "newOwner",
          "type": "address"
        }
      ],
      "name": "OwnershipTransferred",
      "type": "event"
    },
    {
      "anonymous": false,
      "inputs": [
        {
          "indexed": true,
          "internalType": "uint16",
          "name": "_srcChainId",
          "type": "uint16"
        },
        {
          "indexed": true,
          "internalType": "bytes",
          "name": "_srcAddress",
          "type": "bytes"
        },
        {
          "indexed": true,
          "internalType": "address",
          "name": "_toAddress",
          "type": "address"
        },
        {
          "indexed": false,
          "internalType": "uint256",
          "name": "_tokenId",
          "type": "uint256"
        },
        {
          "indexed": false,
          "internalType": "uint64",
          "name": "_nonce",
          "type": "uint64"
        }
      ],
      "name": "ReceiveFromChain",
      "type": "event"
    },
    {
      "anonymous": false,
      "inputs": [
        {
          "indexed": true,
          "internalType": "address",
          "name": "_sender",
          "type": "address"
        },
        {
          "indexed": true,
          "internalType": "uint16",
          "name": "_dstChainId",
          "type": "uint16"
        },
        {
          "indexed": true,
          "internalType": "bytes",
          "name": "_toAddress",
          "type": "bytes"
        },
        {
          "indexed": false,
          "internalType": "uint256",
          "name": "_tokenId",
          "type": "uint256"
        },
        {
          "indexed": false,
          "internalType": "uint64",
          "name": "_nonce",
          "type": "uint64"
        }
      ],
      "name": "SendToChain",
      "type": "event"
    },
    {
      "anonymous": false,
      "inputs": [
        {
          "indexed": false,
          "internalType": "uint16",
          "name": "_srcChainId",
          "type": "uint16"
        },
        {
          "indexed": false,
          "internalType": "bytes",
          "name": "_srcAddress",
          "type": "bytes"
        }
      ],
      "name": "SetTrustedRemote",
      "type": "event"
    },
    {
      "anonymous": false,
      "inputs": [
        {
          "indexed": true,
          "internalType": "address",
          "name": "from",
          "type": "address"
        },
        {
          "indexed": true,
          "internalType": "address",
          "name": "to",
          "type": "address"
        },
        {
          "indexed": true,
          "internalType": "uint256",
          "name": "tokenId",
          "type": "uint256"
        }
      ],
      "name": "Transfer",
      "type": "event"
    },
    {
      "inputs": [],
      "name": "DOMAIN_SEPARATOR",
      "outputs": [
        {
          "internalType": "bytes32",
          "name": "",
          "type": "bytes32"
        }
      ],
      "stateMutability": "view",
      "type": "function"
    },
    {
      "inputs": [
        {
          "internalType": "address",
          "name": "to",
          "type": "address"
        },
        {
          "internalType": "uint256",
          "name": "tokenId",
          "type": "uint256"
        }
      ],
      "name": "approve",
      "outputs": [],
      "stateMutability": "nonpayable",
      "type": "function"
    },
    {
      "inputs": [
        {
          "internalType": "address",
          "name": "owner",
          "type": "address"
        }
      ],
      "name": "balanceOf",
      "outputs": [
        {
          "internalType": "uint256",
          "name": "",
          "type": "uint256"
        }
      ],
      "stateMutability": "view",
      "type": "function"
    },
    {
      "inputs": [
        {
          "internalType": "address",
          "name": "delegatee",
          "type": "address"
        }
      ],
      "name": "delegate",
      "outputs": [],
      "stateMutability": "nonpayable",
      "type": "function"
    },
    {
      "inputs": [
        {
          "internalType": "address",
          "name": "delegatee",
          "type": "address"
        },
        {
          "internalType": "uint256",
          "name": "nonce",
          "type": "uint256"
        },
        {
          "internalType": "uint256",
          "name": "expiry",
          "type": "uint256"
        },
        {
          "internalType": "uint8",
          "name": "v",
          "type": "uint8"
        },
        {
          "internalType": "bytes32",
          "name": "r",
          "type": "bytes32"
        },
        {
          "internalType": "bytes32",
          "name": "s",
          "type": "bytes32"
        }
      ],
      "name": "delegateBySig",
      "outputs": [],
      "stateMutability": "nonpayable",
      "type": "function"
    },
    {
      "inputs": [
        {
          "internalType": "address",
          "name": "account",
          "type": "address"
        }
      ],
      "name": "delegates",
      "outputs": [
        {
          "internalType": "address",
          "name": "",
          "type": "address"
        }
      ],
      "stateMutability": "view",
      "type": "function"
    },
    {
      "inputs": [
        {
          "internalType": "uint16",
          "name": "_dstChainId",
          "type": "uint16"
        },
        {
          "internalType": "bytes",
          "name": "_toAddress",
          "type": "bytes"
        },
        {
          "internalType": "uint256",
          "name": "_tokenId",
          "type": "uint256"
        },
        {
          "internalType": "bool",
          "name": "_useZro",
          "type": "bool"
        },
        {
          "internalType": "bytes",
          "name": "_adapterParams",
          "type": "bytes"
        }
      ],
      "name": "estimateSendFee",
      "outputs": [
        {
          "internalType": "uint256",
          "name": "nativeFee",
          "type": "uint256"
        },
        {
          "internalType": "uint256",
          "name": "zroFee",
          "type": "uint256"
        }
      ],
      "stateMutability": "view",
      "type": "function"
    },
    {
      "inputs": [
        {
          "internalType": "uint16",
          "name": "",
          "type": "uint16"
        },
        {
          "internalType": "bytes",
          "name": "",
          "type": "bytes"
        },
        {
          "internalType": "uint64",
          "name": "",
          "type": "uint64"
        }
      ],
      "name": "failedMessages",
      "outputs": [
        {
          "internalType": "bytes32",
          "name": "",
          "type": "bytes32"
        }
      ],
      "stateMutability": "view",
      "type": "function"
    },
    {
      "inputs": [
        {
          "internalType": "uint16",
          "name": "_srcChainId",
          "type": "uint16"
        },
        {
          "internalType": "bytes",
          "name": "_srcAddress",
          "type": "bytes"
        }
      ],
      "name": "forceResumeReceive",
      "outputs": [],
      "stateMutability": "nonpayable",
      "type": "function"
    },
    {
      "inputs": [
        {
          "internalType": "uint256",
          "name": "tokenId",
          "type": "uint256"
        }
      ],
      "name": "getApproved",
      "outputs": [
        {
          "internalType": "address",
          "name": "",
          "type": "address"
        }
      ],
      "stateMutability": "view",
      "type": "function"
    },
    {
      "inputs": [
        {
          "internalType": "uint16",
          "name": "_version",
          "type": "uint16"
        },
        {
          "internalType": "uint16",
          "name": "_chainId",
          "type": "uint16"
        },
        {
          "internalType": "address",
          "name": "",
          "type": "address"
        },
        {
          "internalType": "uint256",
          "name": "_configType",
          "type": "uint256"
        }
      ],
      "name": "getConfig",
      "outputs": [
        {
          "internalType": "bytes",
          "name": "",
          "type": "bytes"
        }
      ],
      "stateMutability": "view",
      "type": "function"
    },
    {
      "inputs": [
        {
          "internalType": "uint256",
          "name": "blockNumber",
          "type": "uint256"
        }
      ],
      "name": "getPastTotalSupply",
      "outputs": [
        {
          "internalType": "uint256",
          "name": "",
          "type": "uint256"
        }
      ],
      "stateMutability": "view",
      "type": "function"
    },
    {
      "inputs": [
        {
          "internalType": "address",
          "name": "account",
          "type": "address"
        },
        {
          "internalType": "uint256",
          "name": "blockNumber",
          "type": "uint256"
        }
      ],
      "name": "getPastVotes",
      "outputs": [
        {
          "internalType": "uint256",
          "name": "",
          "type": "uint256"
        }
      ],
      "stateMutability": "view",
      "type": "function"
    },
    {
      "inputs": [
        {
          "internalType": "address",
          "name": "account",
          "type": "address"
        }
      ],
      "name": "getVotes",
      "outputs": [
        {
          "internalType": "uint256",
          "name": "",
          "type": "uint256"
        }
      ],
      "stateMutability": "view",
      "type": "function"
    },
    {
      "inputs": [
        {
          "internalType": "address",
          "name": "owner",
          "type": "address"
        },
        {
          "internalType": "address",
          "name": "operator",
          "type": "address"
        }
      ],
      "name": "isApprovedForAll",
      "outputs": [
        {
          "internalType": "bool",
          "name": "",
          "type": "bool"
        }
      ],
      "stateMutability": "view",
      "type": "function"
    },
    {
      "inputs": [
        {
          "internalType": "uint16",
          "name": "_srcChainId",
          "type": "uint16"
        },
        {
          "internalType": "bytes",
          "name": "_srcAddress",
          "type": "bytes"
        }
      ],
      "name": "isTrustedRemote",
      "outputs": [
        {
          "internalType": "bool",
          "name": "",
          "type": "bool"
        }
      ],
      "stateMutability": "view",
      "type": "function"
    },
    {
      "inputs": [],
      "name": "lzEndpoint",
      "outputs": [
        {
          "internalType": "contract ILayerZeroEndpoint",
          "name": "",
          "type": "address"
        }
      ],
      "stateMutability": "view",
      "type": "function"
    },
    {
      "inputs": [
        {
          "internalType": "uint16",
          "name": "_srcChainId",
          "type": "uint16"
        },
        {
          "internalType": "bytes",
          "name": "_srcAddress",
          "type": "bytes"
        },
        {
          "internalType": "uint64",
          "name": "_nonce",
          "type": "uint64"
        },
        {
          "internalType": "bytes",
          "name": "_payload",
          "type": "bytes"
        }
      ],
      "name": "lzReceive",
      "outputs": [],
      "stateMutability": "nonpayable",
      "type": "function"
    },
    {
      "inputs": [],
      "name": "maxMintId",
      "outputs": [
        {
          "internalType": "uint256",
          "name": "",
          "type": "uint256"
        }
      ],
      "stateMutability": "view",
      "type": "function"
    },
    {
      "inputs": [],
      "name": "mint",
      "outputs": [],
      "stateMutability": "nonpayable",
      "type": "function"
    },
    {
      "inputs": [],
      "name": "name",
      "outputs": [
        {
          "internalType": "string",
          "name": "",
          "type": "string"
        }
      ],
      "stateMutability": "view",
      "type": "function"
    },
    {
      "inputs": [],
      "name": "nextMintId",
      "outputs": [
        {
          "internalType": "uint256",
          "name": "",
          "type": "uint256"
        }
      ],
      "stateMutability": "view",
      "type": "function"
    },
    {
      "inputs": [
        {
          "internalType": "uint16",
          "name": "_srcChainId",
          "type": "uint16"
        },
        {
          "internalType": "bytes",
          "name": "_srcAddress",
          "type": "bytes"
        },
        {
          "internalType": "uint64",
          "name": "_nonce",
          "type": "uint64"
        },
        {
          "internalType": "bytes",
          "name": "_payload",
          "type": "bytes"
        }
      ],
      "name": "nonblockingLzReceive",
      "outputs": [],
      "stateMutability": "nonpayable",
      "type": "function"
    },
    {
      "inputs": [
        {
          "internalType": "address",
          "name": "owner",
          "type": "address"
        }
      ],
      "name": "nonces",
      "outputs": [
        {
          "internalType": "uint256",
          "name": "",
          "type": "uint256"
        }
      ],
      "stateMutability": "view",
      "type": "function"
    },
    {
      "inputs": [
        {
          "internalType": "address",
          "name": "addr",
          "type": "address"
        }
      ],
      "name": "numAvailableToMint",
      "outputs": [
        {
          "internalType": "uint8",
          "name": "",
          "type": "uint8"
        }
      ],
      "stateMutability": "view",
      "type": "function"
    },
    {
      "inputs": [],
      "name": "owner",
      "outputs": [
        {
          "internalType": "address",
          "name": "",
          "type": "address"
        }
      ],
      "stateMutability": "view",
      "type": "function"
    },
    {
      "inputs": [
        {
          "internalType": "uint256",
          "name": "tokenId",
          "type": "uint256"
        }
      ],
      "name": "ownerOf",
      "outputs": [
        {
          "internalType": "address",
          "name": "",
          "type": "address"
        }
      ],
      "stateMutability": "view",
      "type": "function"
    },
    {
      "inputs": [],
      "name": "renounceOwnership",
      "outputs": [],
      "stateMutability": "nonpayable",
      "type": "function"
    },
    {
      "inputs": [
        {
          "internalType": "uint256",
          "name": "amount",
          "type": "uint256"
        }
      ],
      "name": "reserve",
      "outputs": [],
      "stateMutability": "nonpayable",
      "type": "function"
    },
    {
      "inputs": [
        {
          "internalType": "uint16",
          "name": "_srcChainId",
          "type": "uint16"
        },
        {
          "internalType": "bytes",
          "name": "_srcAddress",
          "type": "bytes"
        },
        {
          "internalType": "uint64",
          "name": "_nonce",
          "type": "uint64"
        },
        {
          "internalType": "bytes",
          "name": "_payload",
          "type": "bytes"
        }
      ],
      "name": "retryMessage",
      "outputs": [],
      "stateMutability": "payable",
      "type": "function"
    },
    {
      "inputs": [
        {
          "internalType": "address",
          "name": "from",
          "type": "address"
        },
        {
          "internalType": "address",
          "name": "to",
          "type": "address"
        },
        {
          "internalType": "uint256",
          "name": "tokenId",
          "type": "uint256"
        }
      ],
      "name": "safeTransferFrom",
      "outputs": [],
      "stateMutability": "nonpayable",
      "type": "function"
    },
    {
      "inputs": [
        {
          "internalType": "address",
          "name": "from",
          "type": "address"
        },
        {
          "internalType": "address",
          "name": "to",
          "type": "address"
        },
        {
          "internalType": "uint256",
          "name": "tokenId",
          "type": "uint256"
        },
        {
          "internalType": "bytes",
          "name": "data",
          "type": "bytes"
        }
      ],
      "name": "safeTransferFrom",
      "outputs": [],
      "stateMutability": "nonpayable",
      "type": "function"
    },
    {
      "inputs": [
        {
          "internalType": "address",
          "name": "_from",
          "type": "address"
        },
        {
          "internalType": "uint16",
          "name": "_dstChainId",
          "type": "uint16"
        },
        {
          "internalType": "bytes",
          "name": "_toAddress",
          "type": "bytes"
        },
        {
          "internalType": "uint256",
          "name": "_tokenId",
          "type": "uint256"
        },
        {
          "internalType": "address payable",
          "name": "_refundAddress",
          "type": "address"
        },
        {
          "internalType": "address",
          "name": "_zroPaymentAddress",
          "type": "address"
        },
        {
          "internalType": "bytes",
          "name": "_adapterParams",
          "type": "bytes"
        }
      ],
      "name": "sendFrom",
      "outputs": [],
      "stateMutability": "payable",
      "type": "function"
    },
    {
      "inputs": [
        {
          "internalType": "address[]",
          "name": "addresses",
          "type": "address[]"
        },
        {
          "internalType": "uint8",
          "name": "numAllowedToMint",
          "type": "uint8"
        }
      ],
      "name": "setAllowList",
      "outputs": [],
      "stateMutability": "nonpayable",
      "type": "function"
    },
    {
      "inputs": [
        {
          "internalType": "address",
          "name": "operator",
          "type": "address"
        },
        {
          "internalType": "bool",
          "name": "approved",
          "type": "bool"
        }
      ],
      "name": "setApprovalForAll",
      "outputs": [],
      "stateMutability": "nonpayable",
      "type": "function"
    },
    {
      "inputs": [
        {
          "internalType": "string",
          "name": "baseURI",
          "type": "string"
        }
      ],
      "name": "setBaseURI",
      "outputs": [],
      "stateMutability": "nonpayable",
      "type": "function"
    },
    {
      "inputs": [
        {
          "internalType": "uint16",
          "name": "_version",
          "type": "uint16"
        },
        {
          "internalType": "uint16",
          "name": "_chainId",
          "type": "uint16"
        },
        {
          "internalType": "uint256",
          "name": "_configType",
          "type": "uint256"
        },
        {
          "internalType": "bytes",
          "name": "_config",
          "type": "bytes"
        }
      ],
      "name": "setConfig",
      "outputs": [],
      "stateMutability": "nonpayable",
      "type": "function"
    },
    {
      "inputs": [
        {
          "internalType": "uint16",
          "name": "_version",
          "type": "uint16"
        }
      ],
      "name": "setReceiveVersion",
      "outputs": [],
      "stateMutability": "nonpayable",
      "type": "function"
    },
    {
      "inputs": [
        {
          "internalType": "uint16",
          "name": "_version",
          "type": "uint16"
        }
      ],
      "name": "setSendVersion",
      "outputs": [],
      "stateMutability": "nonpayable",
      "type": "function"
    },
    {
      "inputs": [
        {
          "internalType": "uint16",
          "name": "_srcChainId",
          "type": "uint16"
        },
        {
          "internalType": "bytes",
          "name": "_srcAddress",
          "type": "bytes"
        }
      ],
      "name": "setTrustedRemote",
      "outputs": [],
      "stateMutability": "nonpayable",
      "type": "function"
    },
    {
      "inputs": [
        {
          "internalType": "bytes4",
          "name": "interfaceId",
          "type": "bytes4"
        }
      ],
      "name": "supportsInterface",
      "outputs": [
        {
          "internalType": "bool",
          "name": "",
          "type": "bool"
        }
      ],
      "stateMutability": "view",
      "type": "function"
    },
    {
      "inputs": [],
      "name": "symbol",
      "outputs": [
        {
          "internalType": "string",
          "name": "",
          "type": "string"
        }
      ],
      "stateMutability": "view",
      "type": "function"
    },
    {
      "inputs": [
        {
          "internalType": "uint256",
          "name": "index",
          "type": "uint256"
        }
      ],
      "name": "tokenByIndex",
      "outputs": [
        {
          "internalType": "uint256",
          "name": "",
          "type": "uint256"
        }
      ],
      "stateMutability": "view",
      "type": "function"
    },
    {
      "inputs": [
        {
          "internalType": "address",
          "name": "owner",
          "type": "address"
        },
        {
          "internalType": "uint256",
          "name": "index",
          "type": "uint256"
        }
      ],
      "name": "tokenOfOwnerByIndex",
      "outputs": [
        {
          "internalType": "uint256",
          "name": "",
          "type": "uint256"
        }
      ],
      "stateMutability": "view",
      "type": "function"
    },
    {
      "inputs": [
        {
          "internalType": "uint256",
          "name": "tokenId",
          "type": "uint256"
        }
      ],
      "name": "tokenURI",
      "outputs": [
        {
          "internalType": "string",
          "name": "",
          "type": "string"
        }
      ],
      "stateMutability": "view",
      "type": "function"
    },
    {
      "inputs": [],
      "name": "totalSupply",
      "outputs": [
        {
          "internalType": "uint256",
          "name": "",
          "type": "uint256"
        }
      ],
      "stateMutability": "view",
      "type": "function"
    },
    {
      "inputs": [
        {
          "internalType": "address",
          "name": "from",
          "type": "address"
        },
        {
          "internalType": "address",
          "name": "to",
          "type": "address"
        },
        {
          "internalType": "uint256",
          "name": "tokenId",
          "type": "uint256"
        }
      ],
      "name": "transferFrom",
      "outputs": [],
      "stateMutability": "nonpayable",
      "type": "function"
    },
    {
      "inputs": [
        {
          "internalType": "address",
          "name": "newOwner",
          "type": "address"
        }
      ],
      "name": "transferOwnership",
      "outputs": [],
      "stateMutability": "nonpayable",
      "type": "function"
    },
    {
      "inputs": [
        {
          "internalType": "uint16",
          "name": "",
          "type": "uint16"
        }
      ],
      "name": "trustedRemoteLookup",
      "outputs": [
        {
          "internalType": "bytes",
          "name": "",
          "type": "bytes"
        }
      ],
      "stateMutability": "view",
      "type": "function"
    }
  ],
  "bytecode": "0x6101606040523480156200001257600080fd5b5060405162004b1438038062004b14833981016040819052620000359162000321565b84848487604051806040016040528060018152602001603160f81b8152508484848080620000726200006c6200015a60201b60201c565b6200015e565b6001600160a01b03166080525050815162000095906003906020850190620001ae565b508051620000ab906004906020840190620001ae565b505082516020808501919091208351848301206101008290526101208190524660c0818152604080517f8b73c3c69bb8fe3d512ecc4cf759cc79239f7b179b0ffacaa9a75d522b39400f8188018190528183018790526060820186905260808201949094523060a08083019190915282518083039091018152920190528051940193909320919350919060a0523060e0526101405250505060119590955550505060125550620003fc92505050565b3390565b600080546001600160a01b038381166001600160a01b0319831681178455604051919092169283917f8be0079c531659141344cd1fd0a4f28419497f9722a3daafe3b4186f6b6457e09190a35050565b828054620001bc90620003bf565b90600052602060002090601f016020900481019282620001e057600085556200022b565b82601f10620001fb57805160ff19168380011785556200022b565b828001600101855582156200022b579182015b828111156200022b5782518255916020019190600101906200020e565b50620002399291506200023d565b5090565b5b808211156200023957600081556001016200023e565b634e487b7160e01b600052604160045260246000fd5b600082601f8301126200027c57600080fd5b81516001600160401b038082111562000299576200029962000254565b604051601f8301601f19908116603f01168101908282118183101715620002c457620002c462000254565b81604052838152602092508683858801011115620002e157600080fd5b600091505b83821015620003055785820183015181830184015290820190620002e6565b83821115620003175760008385830101525b9695505050505050565b600080600080600060a086880312156200033a57600080fd5b85516001600160401b03808211156200035257600080fd5b6200036089838a016200026a565b965060208801519150808211156200037757600080fd5b5062000386888289016200026a565b604088015190955090506001600160a01b0381168114620003a657600080fd5b6060870151608090970151959894975095949392505050565b600181811c90821680620003d457607f821691505b60208210811415620003f657634e487b7160e01b600052602260045260246000fd5b50919050565b60805160a05160c05160e05161010051610120516101405161467e620004966000396000612125015260006121740152600061214f015260006120a8015260006120d2015260006120fc0152600081816107ac0152818161096e01528181610bd601528181610d9501528181610f56015281816111c5015281816118ba01528181611b90015281816123320152612b1e015261467e6000f3fe6080604052600436106102ad5760003560e01c806366ad5c8a11610175578063a22cb465116100dc578063cbed8b9c11610095578063e985e9c51161006f578063e985e9c5146108c2578063eb8d72b71461090b578063f2fde38b1461092b578063f5ecbdbc1461094b57600080fd5b8063cbed8b9c14610879578063d1deba1f14610899578063e1d4c870146108ac57600080fd5b8063a22cb4651461077a578063b353aaa71461079a578063b88d4fde146107ce578063c04a2836146107ee578063c3cda52014610839578063c87b56dd1461085957600080fd5b8063819b25ba1161012e578063819b25ba146106c75780638295784d146106e75780638da5cb5b146107075780638e539e8c1461072557806395d89b41146107455780639ab24eb01461075a57600080fd5b806366ad5c8a1461061c5780636aa99da31461063c57806370a0823114610652578063715018a6146106725780637533d788146106875780637ecebe00146106a757600080fd5b80633644e5151161021957806351905636116101d2578063519056361461052157806355f804b314610534578063587cde1e146105545780635b8c41e61461058d5780635c19a95c146105dc5780636352211e146105fc57600080fd5b80633644e5151461046c5780633a46b1a8146104815780633d8b38f6146104a157806342842e0e146104c157806342d65a8d146104e15780634f6ccce71461050157600080fd5b806310ddb1371161026b57806310ddb137146103a35780631249c58b146103c357806318160ddd146103d857806323b872dd146103f75780632a205e3d146104175780632f745c591461044c57600080fd5b80621d3567146102b257806301ffc9a7146102d457806306fdde031461030957806307e0db171461032b578063081812fc1461034b578063095ea7b314610383575b600080fd5b3480156102be57600080fd5b506102d26102cd366004613a1e565b61096b565b005b3480156102e057600080fd5b506102f46102ef366004613abc565b610b12565b60405190151581526020015b60405180910390f35b34801561031557600080fd5b5061031e610b23565b6040516103009190613b31565b34801561033757600080fd5b506102d2610346366004613b44565b610bb5565b34801561035757600080fd5b5061036b610366366004613b5f565b610c37565b6040516001600160a01b039091168152602001610300565b34801561038f57600080fd5b506102d261039e366004613b8d565b610c5e565b3480156103af57600080fd5b506102d26103be366004613b44565b610d74565b3480156103cf57600080fd5b506102d2610dcc565b3480156103e457600080fd5b50600b545b604051908152602001610300565b34801561040357600080fd5b506102d2610412366004613bb9565b610ee5565b34801561042357600080fd5b50610437610432366004613c0a565b610f17565b60408051928352602083019190915201610300565b34801561045857600080fd5b506103e9610467366004613b8d565b610ff1565b34801561047857600080fd5b506103e9611087565b34801561048d57600080fd5b506103e961049c366004613b8d565b611096565b3480156104ad57600080fd5b506102f46104bc366004613cd9565b6110bf565b3480156104cd57600080fd5b506102d26104dc366004613bb9565b61118b565b3480156104ed57600080fd5b506102d26104fc366004613cd9565b6111a6565b34801561050d57600080fd5b506103e961051c366004613b5f565b611235565b6102d261052f366004613d2b565b6112c8565b34801561054057600080fd5b506102d261054f366004613de4565b6112d7565b34801561056057600080fd5b5061036b61056f366004613e2c565b6001600160a01b039081166000908152600d60205260409020541690565b34801561059957600080fd5b506103e96105a8366004613e49565b6002602090815260009384526040808520845180860184018051928152908401958401959095209452929052825290205481565b3480156105e857600080fd5b506102d26105f7366004613e2c565b6112f6565b34801561060857600080fd5b5061036b610617366004613b5f565b611301565b34801561062857600080fd5b506102d2610637366004613a1e565b611361565b34801561064857600080fd5b506103e960115481565b34801561065e57600080fd5b506103e961066d366004613e2c565b6113d1565b34801561067e57600080fd5b506102d2611457565b34801561069357600080fd5b5061031e6106a2366004613b44565b61146b565b3480156106b357600080fd5b506103e96106c2366004613e2c565b611505565b3480156106d357600080fd5b506102d26106e2366004613b5f565b611523565b3480156106f357600080fd5b506102d2610702366004613ebb565b6115cc565b34801561071357600080fd5b506000546001600160a01b031661036b565b34801561073157600080fd5b506103e9610740366004613b5f565b611648565b34801561075157600080fd5b5061031e6116a4565b34801561076657600080fd5b506103e9610775366004613e2c565b6116b3565b34801561078657600080fd5b506102d2610795366004613f3e565b6116d4565b3480156107a657600080fd5b5061036b7f000000000000000000000000000000000000000000000000000000000000000081565b3480156107da57600080fd5b506102d26107e9366004613f73565b6116df565b3480156107fa57600080fd5b50610827610809366004613e2c565b6001600160a01b031660009081526014602052604090205460ff1690565b60405160ff9091168152602001610300565b34801561084557600080fd5b506102d2610854366004613fd2565b611711565b34801561086557600080fd5b5061031e610874366004613b5f565b611835565b34801561088557600080fd5b506102d261089436600461402c565b61189b565b6102d26108a7366004613a1e565b611930565b3480156108b857600080fd5b506103e960125481565b3480156108ce57600080fd5b506102f46108dd36600461409a565b6001600160a01b03918216600090815260086020908152604080832093909416825291909152205460ff1690565b34801561091757600080fd5b506102d2610926366004613cd9565b611a82565b34801561093757600080fd5b506102d2610946366004613e2c565b611ae9565b34801561095757600080fd5b5061031e6109663660046140d3565b611b5f565b337f00000000000000000000000000000000000000000000000000000000000000006001600160a01b0316146109e85760405162461bcd60e51b815260206004820152601e60248201527f4c7a4170703a20696e76616c696420656e64706f696e742063616c6c6572000060448201526064015b60405180910390fd5b61ffff841660009081526001602052604081208054610a0690614120565b80601f0160208091040260200160405190810160405280929190818152602001828054610a3290614120565b8015610a7f5780601f10610a5457610100808354040283529160200191610a7f565b820191906000526020600020905b815481529060010190602001808311610a6257829003601f168201915b5050505050905080518451148015610aa4575080805190602001208480519060200120145b610aff5760405162461bcd60e51b815260206004820152602660248201527f4c7a4170703a20696e76616c696420736f757263652073656e64696e6720636f6044820152651b9d1c9858dd60d21b60648201526084016109df565b610b0b85858585611c21565b5050505050565b6000610b1d82611d12565b92915050565b606060038054610b3290614120565b80601f0160208091040260200160405190810160405280929190818152602001828054610b5e90614120565b8015610bab5780601f10610b8057610100808354040283529160200191610bab565b820191906000526020600020905b815481529060010190602001808311610b8e57829003601f168201915b5050505050905090565b610bbd611d2f565b6040516307e0db1760e01b815261ffff821660048201527f00000000000000000000000000000000000000000000000000000000000000006001600160a01b0316906307e0db17906024015b600060405180830381600087803b158015610c2357600080fd5b505af1158015610b0b573d6000803e3d6000fd5b6000610c4282611d89565b506000908152600760205260409020546001600160a01b031690565b6000610c6982611301565b9050806001600160a01b0316836001600160a01b03161415610cd75760405162461bcd60e51b815260206004820152602160248201527f4552433732313a20617070726f76616c20746f2063757272656e74206f776e656044820152603960f91b60648201526084016109df565b336001600160a01b0382161480610cf35750610cf381336108dd565b610d655760405162461bcd60e51b815260206004820152603e60248201527f4552433732313a20617070726f76652063616c6c6572206973206e6f7420746f60448201527f6b656e206f776e6572206e6f7220617070726f76656420666f7220616c6c000060648201526084016109df565b610d6f8383611de8565b505050565b610d7c611d2f565b6040516310ddb13760e01b815261ffff821660048201527f00000000000000000000000000000000000000000000000000000000000000006001600160a01b0316906310ddb13790602401610c09565b33600090815260146020526040902054600160ff9091161015610e315760405162461bcd60e51b815260206004820152601e60248201527f4578636565646564206d617820617661696c61626c6520746f206d696e74000060448201526064016109df565b6012546011541115610e7e5760405162461bcd60e51b815260206004820152601660248201527513585e081b5a5b9d081b1a5b5a5d081c995858da195960521b60448201526064016109df565b336000908152601460205260408120805460019290610ea190849060ff1661416b565b92506101000a81548160ff021916908360ff1602179055506000601154905060116000815480929190610ed39061418e565b9190505550610ee23382611e56565b50565b610ef0335b82611e70565b610f0c5760405162461bcd60e51b81526004016109df906141a9565b610d6f838383611eee565b60008060008686604051602001610f2f9291906141f7565b60408051601f198184030181529082905263040a7bb160e41b825291506001600160a01b037f000000000000000000000000000000000000000000000000000000000000000016906340a7bb1090610f93908b90309086908b908b90600401614219565b604080518083038186803b158015610faa57600080fd5b505afa158015610fbe573d6000803e3d6000fd5b505050506040513d601f19601f82011682018060405250810190610fe2919061426d565b92509250509550959350505050565b6000610ffc836113d1565b821061105e5760405162461bcd60e51b815260206004820152602b60248201527f455243373231456e756d657261626c653a206f776e657220696e646578206f7560448201526a74206f6620626f756e647360a81b60648201526084016109df565b506001600160a01b03919091166000908152600960209081526040808320938352929052205490565b600061109161209b565b905090565b6001600160a01b0382166000908152600e602052604081206110b890836121c2565b9392505050565b61ffff8316600090815260016020526040812080548291906110e090614120565b80601f016020809104026020016040519081016040528092919081815260200182805461110c90614120565b80156111595780601f1061112e57610100808354040283529160200191611159565b820191906000526020600020905b81548152906001019060200180831161113c57829003601f168201915b505050505090508383604051611170929190614291565b60405180910390208180519060200120149150509392505050565b610d6f838383604051806020016040528060008152506116df565b6111ae611d2f565b6040516342d65a8d60e01b81526001600160a01b037f000000000000000000000000000000000000000000000000000000000000000016906342d65a8d906111fe908690869086906004016142ca565b600060405180830381600087803b15801561121857600080fd5b505af115801561122c573d6000803e3d6000fd5b50505050505050565b6000611240600b5490565b82106112a35760405162461bcd60e51b815260206004820152602c60248201527f455243373231456e756d657261626c653a20676c6f62616c20696e646578206f60448201526b7574206f6620626f756e647360a01b60648201526084016109df565b600b82815481106112b6576112b66142e8565b90600052602060002001549050919050565b61122c878787878787876122d1565b6112df611d2f565b80516112f290601390602084019061381e565b5050565b336112f28183612428565b6000818152600560205260408120546001600160a01b031680610b1d5760405162461bcd60e51b8152602060048201526018602482015277115490cdcc8c4e881a5b9d985b1a59081d1bdad95b88125160421b60448201526064016109df565b3330146113bf5760405162461bcd60e51b815260206004820152602660248201527f4e6f6e626c6f636b696e674c7a4170703a2063616c6c6572206d7573742062656044820152650204c7a4170760d41b60648201526084016109df565b6113cb8484848461249a565b50505050565b60006001600160a01b03821661143b5760405162461bcd60e51b815260206004820152602960248201527f4552433732313a2061646472657373207a65726f206973206e6f7420612076616044820152683634b21037bbb732b960b91b60648201526084016109df565b506001600160a01b031660009081526006602052604090205490565b61145f611d2f565b6114696000612535565b565b6001602052600090815260409020805461148490614120565b80601f01602080910402602001604051908101604052809291908181526020018280546114b090614120565b80156114fd5780601f106114d2576101008083540402835291602001916114fd565b820191906000526020600020905b8154815290600101906020018083116114e057829003601f168201915b505050505081565b6001600160a01b038116600090815260106020526040812054610b1d565b61152b611d2f565b6012546115396001836142fe565b6011546115469190614315565b111561158d5760405162461bcd60e51b815260206004820152601660248201527513585e081b5a5b9d081b1a5b5a5d081c995858da195960521b60448201526064016109df565b60005b818110156112f2576011805490819060006115aa8361418e565b91905055506115b93382611e56565b50806115c48161418e565b915050611590565b6115d4611d2f565b60005b828110156113cb5781601460008686858181106115f6576115f66142e8565b905060200201602081019061160b9190613e2c565b6001600160a01b031681526020810191909152604001600020805460ff191660ff92909216919091179055806116408161418e565b9150506115d7565b60004382106116995760405162461bcd60e51b815260206004820152601a60248201527f566f7465733a20626c6f636b206e6f7420796574206d696e656400000000000060448201526064016109df565b610b1d600f836121c2565b606060048054610b3290614120565b6001600160a01b0381166000908152600e60205260408120610b1d90612585565b6112f23383836125e1565b6116e93383611e70565b6117055760405162461bcd60e51b81526004016109df906141a9565b6113cb848484846126b0565b834211156117615760405162461bcd60e51b815260206004820152601860248201527f566f7465733a207369676e61747572652065787069726564000000000000000060448201526064016109df565b604080517fe48329057bfd03d55e49b547132e39cffd9c1820ad7b9d4c5307691425d15adf60208201526001600160a01b0388169181019190915260608101869052608081018590526000906117db906117d39060a001604051602081830303815290604052805190602001206126e3565b858585612731565b90506117e681612759565b861461182b5760405162461bcd60e51b8152602060048201526014602482015273566f7465733a20696e76616c6964206e6f6e636560601b60448201526064016109df565b61122c8188612428565b606061184082611d89565b600061184a612781565b9050600081511161186a57604051806020016040528060008152506110b8565b8061187484612790565b60405160200161188592919061432d565b6040516020818303038152906040529392505050565b6118a3611d2f565b6040516332fb62e760e21b81526001600160a01b037f0000000000000000000000000000000000000000000000000000000000000000169063cbed8b9c906118f7908890889088908890889060040161435c565b600060405180830381600087803b15801561191157600080fd5b505af1158015611925573d6000803e3d6000fd5b505050505050505050565b61ffff84166000908152600260205260408082209051611951908690614395565b90815260408051602092819003830190206001600160401b038616600090815292529020549050806119d15760405162461bcd60e51b815260206004820152602360248201527f4e6f6e626c6f636b696e674c7a4170703a206e6f2073746f726564206d65737360448201526261676560e81b60648201526084016109df565b815160208301208114611a305760405162461bcd60e51b815260206004820152602160248201527f4e6f6e626c6f636b696e674c7a4170703a20696e76616c6964207061796c6f616044820152601960fa1b60648201526084016109df565b61ffff85166000908152600260205260408082209051611a51908790614395565b90815260408051602092819003830190206001600160401b03871660009081529252902055610b0b8585858561249a565b611a8a611d2f565b61ffff83166000908152600160205260409020611aa890838361389e565b507ffa41487ad5d6728f0b19276fa1eddc16558578f5109fc39d2dc33c3230470dab838383604051611adc939291906142ca565b60405180910390a1505050565b611af1611d2f565b6001600160a01b038116611b565760405162461bcd60e51b815260206004820152602660248201527f4f776e61626c653a206e6577206f776e657220697320746865207a65726f206160448201526564647265737360d01b60648201526084016109df565b610ee281612535565b604051633d7b2f6f60e21b815261ffff808616600483015284166024820152306044820152606481018290526060907f00000000000000000000000000000000000000000000000000000000000000006001600160a01b03169063f5ecbdbc9060840160006040518083038186803b158015611bda57600080fd5b505afa158015611bee573d6000803e3d6000fd5b505050506040513d6000823e601f3d908101601f19168201604052611c1691908101906143f6565b90505b949350505050565b604051633356ae4560e11b815230906366ad5c8a90611c4a90879087908790879060040161442a565b600060405180830381600087803b158015611c6457600080fd5b505af1925050508015611c75575060015b6113cb578080519060200120600260008661ffff1661ffff16815260200190815260200160002084604051611caa9190614395565b9081526040805191829003602090810183206001600160401b0387166000908152915220919091557fe6f254030bcb01ffd20558175c13fcaed6d1520be7becee4c961b65f79243b0d90611d0590869086908690869061442a565b60405180910390a16113cb565b60006001600160e01b031982161580610b1d5750610b1d8261288d565b6000546001600160a01b031633146114695760405162461bcd60e51b815260206004820181905260248201527f4f776e61626c653a2063616c6c6572206973206e6f7420746865206f776e657260448201526064016109df565b6000818152600560205260409020546001600160a01b0316610ee25760405162461bcd60e51b8152602060048201526018602482015277115490cdcc8c4e881a5b9d985b1a59081d1bdad95b88125160421b60448201526064016109df565b600081815260076020526040902080546001600160a01b0319166001600160a01b0384169081179091558190611e1d82611301565b6001600160a01b03167f8c5be1e5ebec7d5bd14f71427d1e84f3dd0314c0f7b2291e5b200ac8c7c3b92560405160405180910390a45050565b6112f28282604051806020016040528060008152506128b2565b600080611e7c83611301565b9050806001600160a01b0316846001600160a01b03161480611ec357506001600160a01b0380821660009081526008602090815260408083209388168352929052205460ff165b80611c195750836001600160a01b0316611edc84610c37565b6001600160a01b031614949350505050565b826001600160a01b0316611f0182611301565b6001600160a01b031614611f655760405162461bcd60e51b815260206004820152602560248201527f4552433732313a207472616e736665722066726f6d20696e636f72726563742060448201526437bbb732b960d91b60648201526084016109df565b6001600160a01b038216611fc75760405162461bcd60e51b8152602060048201526024808201527f4552433732313a207472616e7366657220746f20746865207a65726f206164646044820152637265737360e01b60648201526084016109df565b611fd28383836128e5565b611fdd600082611de8565b6001600160a01b03831660009081526006602052604081208054600192906120069084906142fe565b90915550506001600160a01b0382166000908152600660205260408120805460019290612034908490614315565b909155505060008181526005602052604080822080546001600160a01b0319166001600160a01b0386811691821790925591518493918716917fddf252ad1be2c89b69c2b068fc378daa952ba7f163c4a11628f55a4df523b3ef91a4610d6f8383836128f0565b6000306001600160a01b037f0000000000000000000000000000000000000000000000000000000000000000161480156120f457507f000000000000000000000000000000000000000000000000000000000000000046145b1561211e57507f000000000000000000000000000000000000000000000000000000000000000090565b50604080517f00000000000000000000000000000000000000000000000000000000000000006020808301919091527f0000000000000000000000000000000000000000000000000000000000000000828401527f000000000000000000000000000000000000000000000000000000000000000060608301524660808301523060a0808401919091528351808403909101815260c0909201909252805191012090565b60004382106122135760405162461bcd60e51b815260206004820181905260248201527f436865636b706f696e74733a20626c6f636b206e6f7420796574206d696e656460448201526064016109df565b825460005b8181101561227857600061222c82846128fb565b905084866000018281548110612244576122446142e8565b60009182526020909120015463ffffffff16111561226457809250612272565b61226f816001614315565b91505b50612218565b81156122bc578461228a6001846142fe565b8154811061229a5761229a6142e8565b60009182526020909120015464010000000090046001600160e01b03166122bf565b60005b6001600160e01b031695945050505050565b6122dd87878787612916565b600085856040516020016122f29291906141f7565b604051602081830303815290604052905061231087828686866129ff565b604051630f428ae960e31b815261ffff881660048201523060248201526000907f00000000000000000000000000000000000000000000000000000000000000006001600160a01b031690637a1457489060440160206040518083038186803b15801561237c57600080fd5b505afa158015612390573d6000803e3d6000fd5b505050506040513d601f19601f820116820180604052508101906123b49190614468565b9050866040516123c49190614395565b604080519182900382208883526001600160401b03841660208401529161ffff8b16916001600160a01b038d16917f024797cc77ce15dc717112d54fb1df125fdfd8c81344fb046c5e074427ce1543910160405180910390a4505050505050505050565b6001600160a01b038281166000818152600d602052604080822080548686166001600160a01b0319821681179092559151919094169392849290917f3134e8a2e6d97e929a7e54011ea5485d7d196dd5f0ba4d4ef95803e8e3fc257f9190a4610d6f818361249586612b99565b612ba4565b600080828060200190518101906124b19190614485565b601482015191935091506124c6878284612ce1565b806001600160a01b0316866040516124de9190614395565b604080519182900382208583526001600160401b03891660208401529161ffff8b16917f64e10c37f404d128982dce114f5d233c14c5c7f6d8db93099e3d99dacb9e27ba910160405180910390a450505050505050565b600080546001600160a01b038381166001600160a01b0319831681178455604051919092169283917f8be0079c531659141344cd1fd0a4f28419497f9722a3daafe3b4186f6b6457e09190a35050565b805460009080156125ce578261259c6001836142fe565b815481106125ac576125ac6142e8565b60009182526020909120015464010000000090046001600160e01b03166125d1565b60005b6001600160e01b03169392505050565b816001600160a01b0316836001600160a01b031614156126435760405162461bcd60e51b815260206004820152601960248201527f4552433732313a20617070726f766520746f2063616c6c65720000000000000060448201526064016109df565b6001600160a01b03838116600081815260086020908152604080832094871680845294825291829020805460ff191686151590811790915591519182527f17307eab39ab6107e8899845ad3d59bd9653f200f220920489ca2b5937696c31910160405180910390a3505050565b6126bb848484611eee565b6126c784848484612ceb565b6113cb5760405162461bcd60e51b81526004016109df906144cb565b6000610b1d6126f061209b565b8360405161190160f01b6020820152602281018390526042810182905260009060620160405160208183030381529060405280519060200120905092915050565b600080600061274287878787612df5565b9150915061274f81612ee2565b5095945050505050565b6001600160a01b03811660009081526010602052604090208054600181018255905b50919050565b606060138054610b3290614120565b6060816127b45750506040805180820190915260018152600360fc1b602082015290565b8160005b81156127de57806127c88161418e565b91506127d79050600a83614533565b91506127b8565b6000816001600160401b038111156127f8576127f861393e565b6040519080825280601f01601f191660200182016040528015612822576020820181803683370190505b5090505b8415611c19576128376001836142fe565b9150612844600a86614547565b61284f906030614315565b60f81b818381518110612864576128646142e8565b60200101906001600160f81b031916908160001a905350612886600a86614533565b9450612826565b60006001600160e01b0319821663780e9d6360e01b1480610b1d5750610b1d8261309d565b6128bc83836130dd565b6128c96000848484612ceb565b610d6f5760405162461bcd60e51b81526004016109df906144cb565b610d6f838383613233565b610d6f8383836132eb565b600061290a6002848418614533565b6110b890848416614315565b61291f33610eea565b6129825760405162461bcd60e51b815260206004820152602e60248201527f4f4e46543732313a2073656e642063616c6c6572206973206e6f74206f776e6560448201526d1c881b9bdc88185c1c1c9bdd995960921b60648201526084016109df565b836001600160a01b031661299582611301565b6001600160a01b0316146129f65760405162461bcd60e51b815260206004820152602260248201527f4f4e46543732313a2073656e642066726f6d20696e636f7272656374206f776e60448201526132b960f11b60648201526084016109df565b6113cb816132f7565b61ffff851660009081526001602052604081208054612a1d90614120565b80601f0160208091040260200160405190810160405280929190818152602001828054612a4990614120565b8015612a965780601f10612a6b57610100808354040283529160200191612a96565b820191906000526020600020905b815481529060010190602001808311612a7957829003601f168201915b50505050509050805160001415612b085760405162461bcd60e51b815260206004820152603060248201527f4c7a4170703a2064657374696e6174696f6e20636861696e206973206e6f742060448201526f61207472757374656420736f7572636560801b60648201526084016109df565b60405162c5803160e81b81526001600160a01b037f0000000000000000000000000000000000000000000000000000000000000000169063c5803100903490612b5f908a9086908b908b908b908b9060040161455b565b6000604051808303818588803b158015612b7857600080fd5b505af1158015612b8c573d6000803e3d6000fd5b5050505050505050505050565b6000610b1d826113d1565b816001600160a01b0316836001600160a01b031614158015612bc65750600081115b15610d6f576001600160a01b03831615612c54576001600160a01b0383166000908152600e602052604081208190612c01906133a6856133b2565b91509150846001600160a01b03167fdec2bacdd2f05b59de34da9b523dff8be42e5e38e818c82fdb0bae774387a7248383604051612c49929190918252602082015260400190565b60405180910390a250505b6001600160a01b03821615610d6f576001600160a01b0382166000908152600e602052604081208190612c8a906133e0856133b2565b91509150836001600160a01b03167fdec2bacdd2f05b59de34da9b523dff8be42e5e38e818c82fdb0bae774387a7248383604051612cd2929190918252602082015260400190565b60405180910390a25050505050565b610d6f8282611e56565b60006001600160a01b0384163b15612ded57604051630a85bd0160e11b81526001600160a01b0385169063150b7a0290612d2f9033908990889088906004016145c2565b602060405180830381600087803b158015612d4957600080fd5b505af1925050508015612d79575060408051601f3d908101601f19168201909252612d76918101906145ff565b60015b612dd3573d808015612da7576040519150601f19603f3d011682016040523d82523d6000602084013e612dac565b606091505b508051612dcb5760405162461bcd60e51b81526004016109df906144cb565b805181602001fd5b6001600160e01b031916630a85bd0160e11b149050611c19565b506001611c19565b6000807f7fffffffffffffffffffffffffffffff5d576e7357a4501ddfe92f46681b20a0831115612e2c5750600090506003612ed9565b8460ff16601b14158015612e4457508460ff16601c14155b15612e555750600090506004612ed9565b6040805160008082526020820180845289905260ff881692820192909252606081018690526080810185905260019060a0016020604051602081039080840390855afa158015612ea9573d6000803e3d6000fd5b5050604051601f1901519150506001600160a01b038116612ed257600060019250925050612ed9565b9150600090505b94509492505050565b6000816004811115612ef657612ef661461c565b1415612eff5750565b6001816004811115612f1357612f1361461c565b1415612f615760405162461bcd60e51b815260206004820152601860248201527f45434453413a20696e76616c6964207369676e6174757265000000000000000060448201526064016109df565b6002816004811115612f7557612f7561461c565b1415612fc35760405162461bcd60e51b815260206004820152601f60248201527f45434453413a20696e76616c6964207369676e6174757265206c656e6774680060448201526064016109df565b6003816004811115612fd757612fd761461c565b14156130305760405162461bcd60e51b815260206004820152602260248201527f45434453413a20696e76616c6964207369676e6174757265202773272076616c604482015261756560f01b60648201526084016109df565b60048160048111156130445761304461461c565b1415610ee25760405162461bcd60e51b815260206004820152602260248201527f45434453413a20696e76616c6964207369676e6174757265202776272076616c604482015261756560f01b60648201526084016109df565b60006001600160e01b031982166380ac58cd60e01b14806130ce57506001600160e01b03198216635b5e139f60e01b145b80610b1d5750610b1d826133ec565b6001600160a01b0382166131335760405162461bcd60e51b815260206004820181905260248201527f4552433732313a206d696e7420746f20746865207a65726f206164647265737360448201526064016109df565b6000818152600560205260409020546001600160a01b0316156131985760405162461bcd60e51b815260206004820152601c60248201527f4552433732313a20746f6b656e20616c7265616479206d696e7465640000000060448201526064016109df565b6131a4600083836128e5565b6001600160a01b03821660009081526006602052604081208054600192906131cd908490614315565b909155505060008181526005602052604080822080546001600160a01b0319166001600160a01b03861690811790915590518392907fddf252ad1be2c89b69c2b068fc378daa952ba7f163c4a11628f55a4df523b3ef908290a46112f2600083836128f0565b6001600160a01b03831661328e5761328981600b80546000838152600c60205260408120829055600182018355919091527f0175b7a638427703f0dbe7bb9bbf987a2551717b34e79f33b5b1008d1fa01db90155565b6132b1565b816001600160a01b0316836001600160a01b0316146132b1576132b18382613421565b6001600160a01b0382166132c857610d6f816134be565b826001600160a01b0316826001600160a01b031614610d6f57610d6f828261356d565b610d6f838360016135b1565b600061330282611301565b9050613310816000846128e5565b61331b600083611de8565b6001600160a01b03811660009081526006602052604081208054600192906133449084906142fe565b909155505060008281526005602052604080822080546001600160a01b0319169055518391906001600160a01b038416907fddf252ad1be2c89b69c2b068fc378daa952ba7f163c4a11628f55a4df523b3ef908390a46112f2816000846128f0565b60006110b882846142fe565b6000806133d4856133cf6133c588612585565b868863ffffffff16565b613621565b91509150935093915050565b60006110b88284614315565b60006001600160e01b03198216637bb0080b60e01b1480610b1d57506301ffc9a760e01b6001600160e01b0319831614610b1d565b6000600161342e846113d1565b61343891906142fe565b6000838152600a602052604090205490915080821461348b576001600160a01b03841660009081526009602090815260408083208584528252808320548484528184208190558352600a90915290208190555b506000918252600a602090815260408084208490556001600160a01b039094168352600981528383209183525290812055565b600b546000906134d0906001906142fe565b6000838152600c6020526040812054600b80549394509092849081106134f8576134f86142e8565b9060005260206000200154905080600b8381548110613519576135196142e8565b6000918252602080832090910192909255828152600c9091526040808220849055858252812055600b80548061355157613551614632565b6001900381819060005260206000200160009055905550505050565b6000613578836113d1565b6001600160a01b0390931660009081526009602090815260408083208684528252808320859055938252600a9052919091209190915550565b6001600160a01b0383166135d0576135cd600f6133e0836133b2565b50505b6001600160a01b0382166135ef576135ec600f6133a6836133b2565b50505b6001600160a01b038381166000908152600d6020526040808220548584168352912054610d6f92918216911683612ba4565b815460009081908161363286612585565b90506000821180156136705750438661364c6001856142fe565b8154811061365c5761365c6142e8565b60009182526020909120015463ffffffff16145b156136d05761367e8561374c565b8661368a6001856142fe565b8154811061369a5761369a6142e8565b9060005260206000200160000160046101000a8154816001600160e01b0302191690836001600160e01b0316021790555061373e565b8560000160405180604001604052806136e8436137b9565b63ffffffff1681526020016136fc8861374c565b6001600160e01b0390811690915282546001810184556000938452602093849020835194909301519091166401000000000263ffffffff909316929092179101555b9250839150505b9250929050565b60006001600160e01b038211156137b55760405162461bcd60e51b815260206004820152602760248201527f53616665436173743a2076616c756520646f65736e27742066697420696e20326044820152663234206269747360c81b60648201526084016109df565b5090565b600063ffffffff8211156137b55760405162461bcd60e51b815260206004820152602660248201527f53616665436173743a2076616c756520646f65736e27742066697420696e203360448201526532206269747360d01b60648201526084016109df565b82805461382a90614120565b90600052602060002090601f01602090048101928261384c5760008555613892565b82601f1061386557805160ff1916838001178555613892565b82800160010185558215613892579182015b82811115613892578251825591602001919060010190613877565b506137b5929150613912565b8280546138aa90614120565b90600052602060002090601f0160209004810192826138cc5760008555613892565b82601f106138e55782800160ff19823516178555613892565b82800160010185558215613892579182015b828111156138925782358255916020019190600101906138f7565b5b808211156137b55760008155600101613913565b803561ffff8116811461393957600080fd5b919050565b634e487b7160e01b600052604160045260246000fd5b604051601f8201601f191681016001600160401b038111828210171561397c5761397c61393e565b604052919050565b60006001600160401b0382111561399d5761399d61393e565b50601f01601f191660200190565b60006139be6139b984613984565b613954565b90508281528383830111156139d257600080fd5b828260208301376000602084830101529392505050565b600082601f8301126139fa57600080fd5b6110b8838335602085016139ab565b6001600160401b0381168114610ee257600080fd5b60008060008060808587031215613a3457600080fd5b613a3d85613927565b935060208501356001600160401b0380821115613a5957600080fd5b613a65888389016139e9565b945060408701359150613a7782613a09565b90925060608601359080821115613a8d57600080fd5b50613a9a878288016139e9565b91505092959194509250565b6001600160e01b031981168114610ee257600080fd5b600060208284031215613ace57600080fd5b81356110b881613aa6565b60005b83811015613af4578181015183820152602001613adc565b838111156113cb5750506000910152565b60008151808452613b1d816020860160208601613ad9565b601f01601f19169290920160200192915050565b6020815260006110b86020830184613b05565b600060208284031215613b5657600080fd5b6110b882613927565b600060208284031215613b7157600080fd5b5035919050565b6001600160a01b0381168114610ee257600080fd5b60008060408385031215613ba057600080fd5b8235613bab81613b78565b946020939093013593505050565b600080600060608486031215613bce57600080fd5b8335613bd981613b78565b92506020840135613be981613b78565b929592945050506040919091013590565b8035801515811461393957600080fd5b600080600080600060a08688031215613c2257600080fd5b613c2b86613927565b945060208601356001600160401b0380821115613c4757600080fd5b613c5389838a016139e9565b955060408801359450613c6860608901613bfa565b93506080880135915080821115613c7e57600080fd5b50613c8b888289016139e9565b9150509295509295909350565b60008083601f840112613caa57600080fd5b5081356001600160401b03811115613cc157600080fd5b60208301915083602082850101111561374557600080fd5b600080600060408486031215613cee57600080fd5b613cf784613927565b925060208401356001600160401b03811115613d1257600080fd5b613d1e86828701613c98565b9497909650939450505050565b600080600080600080600060e0888a031215613d4657600080fd5b8735613d5181613b78565b9650613d5f60208901613927565b955060408801356001600160401b0380821115613d7b57600080fd5b613d878b838c016139e9565b965060608a0135955060808a01359150613da082613b78565b90935060a089013590613db282613b78565b90925060c08901359080821115613dc857600080fd5b50613dd58a828b016139e9565b91505092959891949750929550565b600060208284031215613df657600080fd5b81356001600160401b03811115613e0c57600080fd5b8201601f81018413613e1d57600080fd5b611c19848235602084016139ab565b600060208284031215613e3e57600080fd5b81356110b881613b78565b600080600060608486031215613e5e57600080fd5b613e6784613927565b925060208401356001600160401b03811115613e8257600080fd5b613e8e868287016139e9565b9250506040840135613e9f81613a09565b809150509250925092565b803560ff8116811461393957600080fd5b600080600060408486031215613ed057600080fd5b83356001600160401b0380821115613ee757600080fd5b818601915086601f830112613efb57600080fd5b813581811115613f0a57600080fd5b8760208260051b8501011115613f1f57600080fd5b602092830195509350613f359186019050613eaa565b90509250925092565b60008060408385031215613f5157600080fd5b8235613f5c81613b78565b9150613f6a60208401613bfa565b90509250929050565b60008060008060808587031215613f8957600080fd5b8435613f9481613b78565b93506020850135613fa481613b78565b92506040850135915060608501356001600160401b03811115613fc657600080fd5b613a9a878288016139e9565b60008060008060008060c08789031215613feb57600080fd5b8635613ff681613b78565b9550602087013594506040870135935061401260608801613eaa565b92506080870135915060a087013590509295509295509295565b60008060008060006080868803121561404457600080fd5b61404d86613927565b945061405b60208701613927565b93506040860135925060608601356001600160401b0381111561407d57600080fd5b61408988828901613c98565b969995985093965092949392505050565b600080604083850312156140ad57600080fd5b82356140b881613b78565b915060208301356140c881613b78565b809150509250929050565b600080600080608085870312156140e957600080fd5b6140f285613927565b935061410060208601613927565b9250604085013561411081613b78565b9396929550929360600135925050565b600181811c9082168061413457607f821691505b6020821081141561277b57634e487b7160e01b600052602260045260246000fd5b634e487b7160e01b600052601160045260246000fd5b600060ff821660ff84168082101561418557614185614155565b90039392505050565b60006000198214156141a2576141a2614155565b5060010190565b6020808252602e908201527f4552433732313a2063616c6c6572206973206e6f7420746f6b656e206f776e6560408201526d1c881b9bdc88185c1c1c9bdd995960921b606082015260800190565b60408152600061420a6040830185613b05565b90508260208301529392505050565b61ffff861681526001600160a01b038516602082015260a06040820181905260009061424790830186613b05565b841515606084015282810360808401526142618185613b05565b98975050505050505050565b6000806040838503121561428057600080fd5b505080516020909101519092909150565b8183823760009101908152919050565b81835281816020850137506000828201602090810191909152601f909101601f19169091010190565b61ffff84168152604060208201526000611c166040830184866142a1565b634e487b7160e01b600052603260045260246000fd5b60008282101561431057614310614155565b500390565b6000821982111561432857614328614155565b500190565b6000835161433f818460208801613ad9565b835190830190614353818360208801613ad9565b01949350505050565b600061ffff80881683528087166020840152508460408301526080606083015261438a6080830184866142a1565b979650505050505050565b600082516143a7818460208701613ad9565b9190910192915050565b600082601f8301126143c257600080fd5b81516143d06139b982613984565b8181528460208386010111156143e557600080fd5b611c19826020830160208701613ad9565b60006020828403121561440857600080fd5b81516001600160401b0381111561441e57600080fd5b611c19848285016143b1565b61ffff851681526080602082015260006144476080830186613b05565b6001600160401b0385166040840152828103606084015261438a8185613b05565b60006020828403121561447a57600080fd5b81516110b881613a09565b6000806040838503121561449857600080fd5b82516001600160401b038111156144ae57600080fd5b6144ba858286016143b1565b925050602083015190509250929050565b60208082526032908201527f4552433732313a207472616e7366657220746f206e6f6e20455243373231526560408201527131b2b4bb32b91034b6b83632b6b2b73a32b960711b606082015260800190565b634e487b7160e01b600052601260045260246000fd5b6000826145425761454261451d565b500490565b6000826145565761455661451d565b500690565b61ffff8716815260c06020820152600061457860c0830188613b05565b828103604084015261458a8188613b05565b6001600160a01b0387811660608601528616608085015283810360a085015290506145b58185613b05565b9998505050505050505050565b6001600160a01b03858116825284166020820152604081018390526080606082018190526000906145f590830184613b05565b9695505050505050565b60006020828403121561461157600080fd5b81516110b881613aa6565b634e487b7160e01b600052602160045260246000fd5b634e487b7160e01b600052603160045260246000fdfea2646970667358221220278822484f42b79935aff99751b121dc59a1a28f8929b923b260bc2dd322b2ca64736f6c63430008090033",
  "linkReferences": {},
  "deployedLinkReferences": {}
}