{
  "_format": "hh-sol-artifact-1",
  "contractName": "GovernorContract",
  "sourceName": "contracts/governance-standard/GovernorContract.sol",
  "abi": [
    {
      "inputs": [
        {
          "internalType": "string",
          "name": "name_",
          "type": "string"
        },
        {
          "internalType": "contract IVotes",
          "name": "token_",
          "type": "address"
        },
        {
          "internalType": "uint256",
          "name": "votingPeriod_",
          "type": "uint256"
        },
        {
          "internalType": "uint256",
          "name": "quorumPercentage_",
          "type": "uint256"
        }
      ],
      "stateMutability": "nonpayable",
      "type": "constructor"
    },
    {
      "inputs": [],
      "name": "Empty",
      "type": "error"
    },
    {
      "anonymous": false,
      "inputs": [
        {
          "indexed": true,
          "internalType": "address",
          "name": "previousOwner",
          "type": "address"
        },
        {
          "indexed": true,
          "internalType": "address",
          "name": "newOwner",
          "type": "address"
        }
      ],
      "name": "OwnershipTransferred",
      "type": "event"
    },
    {
      "anonymous": false,
      "inputs": [
        {
          "indexed": false,
          "internalType": "uint256",
          "name": "proposalId",
          "type": "uint256"
        }
      ],
      "name": "ProposalCanceled",
      "type": "event"
    },
    {
      "anonymous": false,
      "inputs": [
        {
          "indexed": false,
          "internalType": "uint256",
          "name": "proposalId",
          "type": "uint256"
        },
        {
          "indexed": false,
          "internalType": "address",
          "name": "proposer",
          "type": "address"
        },
        {
          "indexed": false,
          "internalType": "address[]",
          "name": "targets",
          "type": "address[]"
        },
        {
          "indexed": false,
          "internalType": "uint256[]",
          "name": "values",
          "type": "uint256[]"
        },
        {
          "indexed": false,
          "internalType": "string[]",
          "name": "signatures",
          "type": "string[]"
        },
        {
          "indexed": false,
          "internalType": "bytes[]",
          "name": "calldatas",
          "type": "bytes[]"
        },
        {
          "indexed": false,
          "internalType": "uint256",
          "name": "startBlock",
          "type": "uint256"
        },
        {
          "indexed": false,
          "internalType": "uint256",
          "name": "endBlock",
          "type": "uint256"
        },
        {
          "indexed": false,
          "internalType": "string",
          "name": "description",
          "type": "string"
        }
      ],
      "name": "ProposalCreated",
      "type": "event"
    },
    {
      "anonymous": false,
      "inputs": [
        {
          "indexed": false,
          "internalType": "uint256",
          "name": "proposalId",
          "type": "uint256"
        }
      ],
      "name": "ProposalExecuted",
      "type": "event"
    },
    {
      "anonymous": false,
      "inputs": [
        {
          "indexed": false,
          "internalType": "uint256",
          "name": "oldProposalThreshold",
          "type": "uint256"
        },
        {
          "indexed": false,
          "internalType": "uint256",
          "name": "newProposalThreshold",
          "type": "uint256"
        }
      ],
      "name": "ProposalThresholdSet",
      "type": "event"
    },
    {
      "anonymous": false,
      "inputs": [
        {
          "indexed": false,
          "internalType": "uint256",
          "name": "oldQuorumNumerator",
          "type": "uint256"
        },
        {
          "indexed": false,
          "internalType": "uint256",
          "name": "newQuorumNumerator",
          "type": "uint256"
        }
      ],
      "name": "QuorumNumeratorUpdated",
      "type": "event"
    },
    {
      "anonymous": false,
      "inputs": [
        {
          "indexed": true,
          "internalType": "address",
          "name": "voter",
          "type": "address"
        },
        {
          "indexed": false,
          "internalType": "uint256",
          "name": "proposalId",
          "type": "uint256"
        },
        {
          "indexed": false,
          "internalType": "uint8",
          "name": "support",
          "type": "uint8"
        },
        {
          "indexed": false,
          "internalType": "uint256",
          "name": "weight",
          "type": "uint256"
        },
        {
          "indexed": false,
          "internalType": "string",
          "name": "reason",
          "type": "string"
        }
      ],
      "name": "VoteCast",
      "type": "event"
    },
    {
      "anonymous": false,
      "inputs": [
        {
          "indexed": true,
          "internalType": "address",
          "name": "voter",
          "type": "address"
        },
        {
          "indexed": false,
          "internalType": "uint256",
          "name": "proposalId",
          "type": "uint256"
        },
        {
          "indexed": false,
          "internalType": "uint8",
          "name": "support",
          "type": "uint8"
        },
        {
          "indexed": false,
          "internalType": "uint256",
          "name": "weight",
          "type": "uint256"
        },
        {
          "indexed": false,
          "internalType": "string",
          "name": "reason",
          "type": "string"
        },
        {
          "indexed": false,
          "internalType": "bytes",
          "name": "params",
          "type": "bytes"
        }
      ],
      "name": "VoteCastWithParams",
      "type": "event"
    },
    {
      "anonymous": false,
      "inputs": [
        {
          "indexed": false,
          "internalType": "uint256",
          "name": "oldVotingDelay",
          "type": "uint256"
        },
        {
          "indexed": false,
          "internalType": "uint256",
          "name": "newVotingDelay",
          "type": "uint256"
        }
      ],
      "name": "VotingDelaySet",
      "type": "event"
    },
    {
      "anonymous": false,
      "inputs": [
        {
          "indexed": false,
          "internalType": "uint256",
          "name": "oldVotingPeriod",
          "type": "uint256"
        },
        {
          "indexed": false,
          "internalType": "uint256",
          "name": "newVotingPeriod",
          "type": "uint256"
        }
      ],
      "name": "VotingPeriodSet",
      "type": "event"
    },
    {
      "inputs": [],
      "name": "BALLOT_TYPEHASH",
      "outputs": [
        {
          "internalType": "bytes32",
          "name": "",
          "type": "bytes32"
        }
      ],
      "stateMutability": "view",
      "type": "function"
    },
    {
      "inputs": [],
      "name": "COUNTING_MODE",
      "outputs": [
        {
          "internalType": "string",
          "name": "",
          "type": "string"
        }
      ],
      "stateMutability": "pure",
      "type": "function"
    },
    {
      "inputs": [],
      "name": "EXTENDED_BALLOT_TYPEHASH",
      "outputs": [
        {
          "internalType": "bytes32",
          "name": "",
          "type": "bytes32"
        }
      ],
      "stateMutability": "view",
      "type": "function"
    },
    {
      "inputs": [
        {
          "internalType": "address[]",
          "name": "targets",
          "type": "address[]"
        },
        {
          "internalType": "uint256[]",
          "name": "values",
          "type": "uint256[]"
        },
        {
          "internalType": "bytes[]",
          "name": "calldatas",
          "type": "bytes[]"
        },
        {
          "internalType": "bytes32",
          "name": "descriptionHash",
          "type": "bytes32"
        }
      ],
      "name": "cancel",
      "outputs": [
        {
          "internalType": "uint256",
          "name": "",
          "type": "uint256"
        }
      ],
      "stateMutability": "nonpayable",
      "type": "function"
    },
    {
      "inputs": [
        {
          "internalType": "uint256",
          "name": "proposalId",
          "type": "uint256"
        },
        {
          "internalType": "uint8",
          "name": "support",
          "type": "uint8"
        }
      ],
      "name": "castVote",
      "outputs": [
        {
          "internalType": "uint256",
          "name": "",
          "type": "uint256"
        }
      ],
      "stateMutability": "nonpayable",
      "type": "function"
    },
    {
      "inputs": [
        {
          "internalType": "uint256",
          "name": "proposalId",
          "type": "uint256"
        },
        {
          "internalType": "uint8",
          "name": "support",
          "type": "uint8"
        },
        {
          "internalType": "uint8",
          "name": "v",
          "type": "uint8"
        },
        {
          "internalType": "bytes32",
          "name": "r",
          "type": "bytes32"
        },
        {
          "internalType": "bytes32",
          "name": "s",
          "type": "bytes32"
        }
      ],
      "name": "castVoteBySig",
      "outputs": [
        {
          "internalType": "uint256",
          "name": "",
          "type": "uint256"
        }
      ],
      "stateMutability": "nonpayable",
      "type": "function"
    },
    {
      "inputs": [
        {
          "internalType": "uint256",
          "name": "proposalId",
          "type": "uint256"
        },
        {
          "internalType": "uint8",
          "name": "support",
          "type": "uint8"
        },
        {
          "internalType": "string",
          "name": "reason",
          "type": "string"
        }
      ],
      "name": "castVoteWithReason",
      "outputs": [
        {
          "internalType": "uint256",
          "name": "",
          "type": "uint256"
        }
      ],
      "stateMutability": "nonpayable",
      "type": "function"
    },
    {
      "inputs": [
        {
          "internalType": "uint256",
          "name": "proposalId",
          "type": "uint256"
        },
        {
          "internalType": "uint8",
          "name": "support",
          "type": "uint8"
        },
        {
          "internalType": "string",
          "name": "reason",
          "type": "string"
        },
        {
          "internalType": "bytes",
          "name": "params",
          "type": "bytes"
        }
      ],
      "name": "castVoteWithReasonAndParams",
      "outputs": [
        {
          "internalType": "uint256",
          "name": "",
          "type": "uint256"
        }
      ],
      "stateMutability": "nonpayable",
      "type": "function"
    },
    {
      "inputs": [
        {
          "internalType": "uint256",
          "name": "proposalId",
          "type": "uint256"
        },
        {
          "internalType": "uint8",
          "name": "support",
          "type": "uint8"
        },
        {
          "internalType": "string",
          "name": "reason",
          "type": "string"
        },
        {
          "internalType": "bytes",
          "name": "params",
          "type": "bytes"
        },
        {
          "internalType": "uint8",
          "name": "v",
          "type": "uint8"
        },
        {
          "internalType": "bytes32",
          "name": "r",
          "type": "bytes32"
        },
        {
          "internalType": "bytes32",
          "name": "s",
          "type": "bytes32"
        }
      ],
      "name": "castVoteWithReasonAndParamsBySig",
      "outputs": [
        {
          "internalType": "uint256",
          "name": "",
          "type": "uint256"
        }
      ],
      "stateMutability": "nonpayable",
      "type": "function"
    },
    {
      "inputs": [
        {
          "internalType": "address[]",
          "name": "targets",
          "type": "address[]"
        },
        {
          "internalType": "uint256[]",
          "name": "values",
          "type": "uint256[]"
        },
        {
          "internalType": "bytes[]",
          "name": "calldatas",
          "type": "bytes[]"
        },
        {
          "internalType": "bytes32",
          "name": "descriptionHash",
          "type": "bytes32"
        }
      ],
      "name": "execute",
      "outputs": [
        {
          "internalType": "uint256",
          "name": "",
          "type": "uint256"
        }
      ],
      "stateMutability": "payable",
      "type": "function"
    },
    {
      "inputs": [],
      "name": "getExecutedProposals",
      "outputs": [
        {
          "internalType": "uint256",
          "name": "",
          "type": "uint256"
        }
      ],
      "stateMutability": "view",
      "type": "function"
    },
    {
      "inputs": [
        {
          "internalType": "uint256",
          "name": "proposalId",
          "type": "uint256"
        }
      ],
      "name": "getProposer",
      "outputs": [
        {
          "internalType": "address",
          "name": "",
          "type": "address"
        }
      ],
      "stateMutability": "view",
      "type": "function"
    },
    {
      "inputs": [],
      "name": "getTotalProposals",
      "outputs": [
        {
          "internalType": "uint256",
          "name": "",
          "type": "uint256"
        }
      ],
      "stateMutability": "view",
      "type": "function"
    },
    {
      "inputs": [
        {
          "internalType": "address",
          "name": "account",
          "type": "address"
        },
        {
          "internalType": "uint256",
          "name": "blockNumber",
          "type": "uint256"
        }
      ],
      "name": "getVotes",
      "outputs": [
        {
          "internalType": "uint256",
          "name": "",
          "type": "uint256"
        }
      ],
      "stateMutability": "view",
      "type": "function"
    },
    {
      "inputs": [
        {
          "internalType": "address",
          "name": "account",
          "type": "address"
        },
        {
          "internalType": "uint256",
          "name": "blockNumber",
          "type": "uint256"
        },
        {
          "internalType": "bytes",
          "name": "params",
          "type": "bytes"
        }
      ],
      "name": "getVotesWithParams",
      "outputs": [
        {
          "internalType": "uint256",
          "name": "",
          "type": "uint256"
        }
      ],
      "stateMutability": "view",
      "type": "function"
    },
    {
      "inputs": [],
      "name": "governorInfoURI",
      "outputs": [
        {
          "internalType": "string",
          "name": "",
          "type": "string"
        }
      ],
      "stateMutability": "view",
      "type": "function"
    },
    {
      "inputs": [
        {
          "internalType": "uint256",
          "name": "proposalId",
          "type": "uint256"
        },
        {
          "internalType": "address",
          "name": "account",
          "type": "address"
        }
      ],
      "name": "hasVoted",
      "outputs": [
        {
          "internalType": "bool",
          "name": "",
          "type": "bool"
        }
      ],
      "stateMutability": "view",
      "type": "function"
    },
    {
      "inputs": [
        {
          "internalType": "address[]",
          "name": "targets",
          "type": "address[]"
        },
        {
          "internalType": "uint256[]",
          "name": "values",
          "type": "uint256[]"
        },
        {
          "internalType": "bytes[]",
          "name": "calldatas",
          "type": "bytes[]"
        },
        {
          "internalType": "bytes32",
          "name": "descriptionHash",
          "type": "bytes32"
        }
      ],
      "name": "hashProposal",
      "outputs": [
        {
          "internalType": "uint256",
          "name": "",
          "type": "uint256"
        }
      ],
      "stateMutability": "pure",
      "type": "function"
    },
    {
      "inputs": [],
      "name": "incrementExecutedProposals",
      "outputs": [],
      "stateMutability": "nonpayable",
      "type": "function"
    },
    {
      "inputs": [],
      "name": "name",
      "outputs": [
        {
          "internalType": "string",
          "name": "",
          "type": "string"
        }
      ],
      "stateMutability": "view",
      "type": "function"
    },
    {
      "inputs": [
        {
          "internalType": "address",
          "name": "",
          "type": "address"
        },
        {
          "internalType": "address",
          "name": "",
          "type": "address"
        },
        {
          "internalType": "uint256[]",
          "name": "",
          "type": "uint256[]"
        },
        {
          "internalType": "uint256[]",
          "name": "",
          "type": "uint256[]"
        },
        {
          "internalType": "bytes",
          "name": "",
          "type": "bytes"
        }
      ],
      "name": "onERC1155BatchReceived",
      "outputs": [
        {
          "internalType": "bytes4",
          "name": "",
          "type": "bytes4"
        }
      ],
      "stateMutability": "nonpayable",
      "type": "function"
    },
    {
      "inputs": [
        {
          "internalType": "address",
          "name": "",
          "type": "address"
        },
        {
          "internalType": "address",
          "name": "",
          "type": "address"
        },
        {
          "internalType": "uint256",
          "name": "",
          "type": "uint256"
        },
        {
          "internalType": "uint256",
          "name": "",
          "type": "uint256"
        },
        {
          "internalType": "bytes",
          "name": "",
          "type": "bytes"
        }
      ],
      "name": "onERC1155Received",
      "outputs": [
        {
          "internalType": "bytes4",
          "name": "",
          "type": "bytes4"
        }
      ],
      "stateMutability": "nonpayable",
      "type": "function"
    },
    {
      "inputs": [
        {
          "internalType": "address",
          "name": "",
          "type": "address"
        },
        {
          "internalType": "address",
          "name": "",
          "type": "address"
        },
        {
          "internalType": "uint256",
          "name": "",
          "type": "uint256"
        },
        {
          "internalType": "bytes",
          "name": "",
          "type": "bytes"
        }
      ],
      "name": "onERC721Received",
      "outputs": [
        {
          "internalType": "bytes4",
          "name": "",
          "type": "bytes4"
        }
      ],
      "stateMutability": "nonpayable",
      "type": "function"
    },
    {
      "inputs": [],
      "name": "owner",
      "outputs": [
        {
          "internalType": "address",
          "name": "",
          "type": "address"
        }
      ],
      "stateMutability": "view",
      "type": "function"
    },
    {
      "inputs": [
        {
          "internalType": "uint256",
          "name": "proposalId",
          "type": "uint256"
        }
      ],
      "name": "proposalDeadline",
      "outputs": [
        {
          "internalType": "uint256",
          "name": "",
          "type": "uint256"
        }
      ],
      "stateMutability": "view",
      "type": "function"
    },
    {
      "inputs": [
        {
          "internalType": "uint256",
          "name": "proposalId",
          "type": "uint256"
        }
      ],
      "name": "proposalInfoURI",
      "outputs": [
        {
          "internalType": "string",
          "name": "",
          "type": "string"
        }
      ],
      "stateMutability": "view",
      "type": "function"
    },
    {
      "inputs": [
        {
          "internalType": "uint256",
          "name": "proposalId",
          "type": "uint256"
        }
      ],
      "name": "proposalSnapshot",
      "outputs": [
        {
          "internalType": "uint256",
          "name": "",
          "type": "uint256"
        }
      ],
      "stateMutability": "view",
      "type": "function"
    },
    {
      "inputs": [],
      "name": "proposalThreshold",
      "outputs": [
        {
          "internalType": "uint256",
          "name": "",
          "type": "uint256"
        }
      ],
      "stateMutability": "view",
      "type": "function"
    },
    {
      "inputs": [
        {
          "internalType": "uint256",
          "name": "proposalId",
          "type": "uint256"
        }
      ],
      "name": "proposalVotes",
      "outputs": [
        {
          "internalType": "uint256",
          "name": "againstVotes",
          "type": "uint256"
        },
        {
          "internalType": "uint256",
          "name": "forVotes",
          "type": "uint256"
        },
        {
          "internalType": "uint256",
          "name": "abstainVotes",
          "type": "uint256"
        }
      ],
      "stateMutability": "view",
      "type": "function"
    },
    {
      "inputs": [
        {
          "internalType": "address[]",
          "name": "targets",
          "type": "address[]"
        },
        {
          "internalType": "uint256[]",
          "name": "values",
          "type": "uint256[]"
        },
        {
          "internalType": "bytes[]",
          "name": "calldatas",
          "type": "bytes[]"
        },
        {
          "internalType": "string",
          "name": "description",
          "type": "string"
        }
      ],
      "name": "propose",
      "outputs": [
        {
          "internalType": "uint256",
          "name": "",
          "type": "uint256"
        }
      ],
      "stateMutability": "nonpayable",
      "type": "function"
    },
    {
      "inputs": [
        {
          "internalType": "uint256",
          "name": "blockNumber",
          "type": "uint256"
        }
      ],
      "name": "quorum",
      "outputs": [
        {
          "internalType": "uint256",
          "name": "",
          "type": "uint256"
        }
      ],
      "stateMutability": "view",
      "type": "function"
    },
    {
      "inputs": [],
      "name": "quorumDenominator",
      "outputs": [
        {
          "internalType": "uint256",
          "name": "",
          "type": "uint256"
        }
      ],
      "stateMutability": "view",
      "type": "function"
    },
    {
      "inputs": [
        {
          "internalType": "uint256",
          "name": "blockNumber",
          "type": "uint256"
        }
      ],
      "name": "quorumNumerator",
      "outputs": [
        {
          "internalType": "uint256",
          "name": "",
          "type": "uint256"
        }
      ],
      "stateMutability": "view",
      "type": "function"
    },
    {
      "inputs": [],
      "name": "quorumNumerator",
      "outputs": [
        {
          "internalType": "uint256",
          "name": "",
          "type": "uint256"
        }
      ],
      "stateMutability": "view",
      "type": "function"
    },
    {
      "inputs": [
        {
          "internalType": "address",
          "name": "target",
          "type": "address"
        },
        {
          "internalType": "uint256",
          "name": "value",
          "type": "uint256"
        },
        {
          "internalType": "bytes",
          "name": "data",
          "type": "bytes"
        }
      ],
      "name": "relay",
      "outputs": [],
      "stateMutability": "nonpayable",
      "type": "function"
    },
    {
      "inputs": [],
      "name": "renounceOwnership",
      "outputs": [],
      "stateMutability": "nonpayable",
      "type": "function"
    },
    {
      "inputs": [
        {
          "internalType": "string",
          "name": "newInfoURI",
          "type": "string"
        }
      ],
      "name": "setGovernorInfoURI",
      "outputs": [],
      "stateMutability": "nonpayable",
      "type": "function"
    },
    {
      "inputs": [
        {
          "internalType": "uint256",
          "name": "proposalId",
          "type": "uint256"
        },
        {
          "internalType": "string",
          "name": "infoURI",
          "type": "string"
        }
      ],
      "name": "setProposalInfoURI",
      "outputs": [],
      "stateMutability": "nonpayable",
      "type": "function"
    },
    {
      "inputs": [
        {
          "internalType": "uint256",
          "name": "newProposalThreshold",
          "type": "uint256"
        }
      ],
      "name": "setProposalThreshold",
      "outputs": [],
      "stateMutability": "nonpayable",
      "type": "function"
    },
    {
      "inputs": [
        {
          "internalType": "uint256",
          "name": "newVotingDelay",
          "type": "uint256"
        }
      ],
      "name": "setVotingDelay",
      "outputs": [],
      "stateMutability": "nonpayable",
      "type": "function"
    },
    {
      "inputs": [
        {
          "internalType": "uint256",
          "name": "newVotingPeriod",
          "type": "uint256"
        }
      ],
      "name": "setVotingPeriod",
      "outputs": [],
      "stateMutability": "nonpayable",
      "type": "function"
    },
    {
      "inputs": [
        {
          "internalType": "uint256",
          "name": "proposalId",
          "type": "uint256"
        }
      ],
      "name": "state",
      "outputs": [
        {
          "internalType": "enum IGovernor.ProposalState",
          "name": "",
          "type": "uint8"
        }
      ],
      "stateMutability": "view",
      "type": "function"
    },
    {
      "inputs": [
        {
          "internalType": "bytes4",
          "name": "interfaceId",
          "type": "bytes4"
        }
      ],
      "name": "supportsInterface",
      "outputs": [
        {
          "internalType": "bool",
          "name": "",
          "type": "bool"
        }
      ],
      "stateMutability": "view",
      "type": "function"
    },
    {
      "inputs": [],
      "name": "token",
      "outputs": [
        {
          "internalType": "contract IVotes",
          "name": "",
          "type": "address"
        }
      ],
      "stateMutability": "view",
      "type": "function"
    },
    {
      "inputs": [
        {
          "internalType": "address",
          "name": "newOwner",
          "type": "address"
        }
      ],
      "name": "transferOwnership",
      "outputs": [],
      "stateMutability": "nonpayable",
      "type": "function"
    },
    {
      "inputs": [
        {
          "internalType": "uint256",
          "name": "newQuorumNumerator",
          "type": "uint256"
        }
      ],
      "name": "updateQuorumNumerator",
      "outputs": [],
      "stateMutability": "nonpayable",
      "type": "function"
    },
    {
      "inputs": [],
      "name": "version",
      "outputs": [
        {
          "internalType": "string",
          "name": "",
          "type": "string"
        }
      ],
      "stateMutability": "view",
      "type": "function"
    },
    {
      "inputs": [],
      "name": "votingDelay",
      "outputs": [
        {
          "internalType": "uint256",
          "name": "",
          "type": "uint256"
        }
      ],
      "stateMutability": "view",
      "type": "function"
    },
    {
      "inputs": [],
      "name": "votingPeriod",
      "outputs": [
        {
          "internalType": "uint256",
          "name": "",
          "type": "uint256"
        }
      ],
      "stateMutability": "view",
      "type": "function"
    },
    {
      "stateMutability": "payable",
      "type": "receive"
    }
  ],
  "bytecode": "0x6101606040523480156200001257600080fd5b5060405162004597380380620045978339810160408190526200003591620007dd565b80836001848188806200005c6040805180820190915260018152603160f81b602082015290565b815160208084019190912082518383012060e08290526101008190524660a0818152604080517f8b73c3c69bb8fe3d512ecc4cf759cc79239f7b179b0ffacaa9a75d522b39400f81880181905281830187905260608201869052608082019490945230818401528151808203909301835260c00190528051940193909320919290916080523060c05261012052505082516200010292506000915060208401906200070e565b506200011090508362000157565b6200011b8262000198565b62000126816200023f565b5050506001600160a01b031661014052620001418162000280565b506200014d33620003f8565b5050505062000957565b60045460408051918252602082018390527fc565b045403dc03c2eea82b81a0465edad9e2e7fc4d97e11421c209da93d7a93910160405180910390a1600455565b60008111620001fe5760405162461bcd60e51b815260206004820152602760248201527f476f7665726e6f7253657474696e67733a20766f74696e6720706572696f6420604482015266746f6f206c6f7760c81b60648201526084015b60405180910390fd5b60055460408051918252602082018390527f7e3f7f0708a84de9203036abaa450dccc85ad5ff52f78c170f3edb55cf5e8828910160405180910390a1600555565b60065460408051918252602082018390527fccb45da8d5717e6c4544694297c4ba5cf151d455c9bb0ed4fc7a38411bc05461910160405180910390a1600655565b6064811115620003055760405162461bcd60e51b815260206004820152604360248201527f476f7665726e6f72566f74657351756f72756d4672616374696f6e3a2071756f60448201527f72756d4e756d657261746f72206f7665722071756f72756d44656e6f6d696e616064820152623a37b960e91b608482015260a401620001f5565b6000620003116200044a565b90508015801590620003235750600954155b156200039e5760096000016040518060400160405280600063ffffffff1681526020016200035c846200047960201b6200161c1760201c565b6001600160e01b0390811690915282546001810184556000938452602093849020835194909301519091166401000000000263ffffffff909316929092179101555b620003b9826009620004e860201b620016891790919060201c565b505060408051828152602081018490527f0553476bf02ef2726e8ce5ced78d63e26e602e4a2257b1f559418e24b4633997910160405180910390a15050565b600a80546001600160a01b038381166001600160a01b0319831681179093556040519116919082907f8be0079c531659141344cd1fd0a4f28419497f9722a3daafe3b4186f6b6457e090600090a35050565b6009546000901562000472576200046d60096200064460201b620017b41760201c565b905090565b5060085490565b60006001600160e01b03821115620004e45760405162461bcd60e51b815260206004820152602760248201527f53616665436173743a2076616c756520646f65736e27742066697420696e20326044820152663234206269747360c81b6064820152608401620001f5565b5090565b8154600090819081620004fb8662000644565b90506000821180156200053f5750438662000518600185620008de565b815481106200052b576200052b62000904565b60009182526020909120015463ffffffff16145b15620005b3576200055b856200047960201b6200161c1760201c565b8662000569600185620008de565b815481106200057c576200057c62000904565b9060005260206000200160000160046101000a8154816001600160e01b0302191690836001600160e01b031602179055506200063b565b856000016040518060400160405280620005d843620006a760201b620018101760201c565b63ffffffff168152602001620005f9886200047960201b6200161c1760201c565b6001600160e01b0390811690915282546001810184556000938452602093849020835194909301519091166401000000000263ffffffff909316929092179101555b95939450505050565b805460009080156200069457826200065e600183620008de565b8154811062000671576200067162000904565b60009182526020909120015464010000000090046001600160e01b031662000697565b60005b6001600160e01b03169392505050565b600063ffffffff821115620004e45760405162461bcd60e51b815260206004820152602660248201527f53616665436173743a2076616c756520646f65736e27742066697420696e203360448201526532206269747360d01b6064820152608401620001f5565b8280546200071c906200091a565b90600052602060002090601f0160209004810192826200074057600085556200078b565b82601f106200075b57805160ff19168380011785556200078b565b828001600101855582156200078b579182015b828111156200078b5782518255916020019190600101906200076e565b50620004e49291505b80821115620004e4576000815560010162000794565b634e487b7160e01b600052604160045260246000fd5b80516001600160a01b0381168114620007d857600080fd5b919050565b60008060008060808587031215620007f457600080fd5b84516001600160401b03808211156200080c57600080fd5b818701915087601f8301126200082157600080fd5b815181811115620008365762000836620007aa565b604051601f8201601f19908116603f01168101908382118183101715620008615762000861620007aa565b81604052828152602093508a848487010111156200087e57600080fd5b600091505b82821015620008a2578482018401518183018501529083019062000883565b82821115620008b45760008484830101525b9750620008c6915050878201620007c0565b60408801516060909801519699909850945050505050565b600082821015620008ff57634e487b7160e01b600052601160045260246000fd5b500390565b634e487b7160e01b600052603260045260246000fd5b600181811c908216806200092f57607f821691505b602082108114156200095157634e487b7160e01b600052602260045260246000fd5b50919050565b60805160a05160c05160e051610100516101205161014051613bd7620009c06000396000818161099f01528181611586015261240601526000612614015260006126630152600061263e01526000612597015260006125c1015260006125eb0152613bd76000f3fe6080604052600436106102b25760003560e01c806370b0f66011610175578063c01f9e37116100dc578063ea0217cf11610095578063f23a6e611161006f578063f23a6e6114610921578063f2fde38b1461094d578063f8ce560a1461096d578063fc0c546a1461098d57600080fd5b8063ea0217cf146108c1578063eb9019d4146108e1578063ece40cc11461090157600080fd5b8063c01f9e37146107b1578063c28bc2fa146107d1578063c59057e4146107f1578063dd4e2ba514610811578063deaaa7cc14610857578063e14bd8741461088b57600080fd5b806397c3d3341161012e57806397c3d334146107075780639a802a6d1461071b578063a7713a701461073b578063b58131b014610750578063b801c87814610765578063bc197c811461078557600080fd5b806370b0f6601461064b578063715018a61461066b5780637b3c71d3146106805780637d5e81e2146106a05780637e2bcd95146106c05780638da5cb5b146106d557600080fd5b80633932abb111610219578063544ffc9c116101d2578063544ffc9c1461054c57806354fd4d50146105a157806356781388146105cb5780635f398a14146105eb57806360c4247f1461060b5780636b1084a01461062b57600080fd5b80633932abb11461046b5780633bccf4fd146104805780633e4f49e6146104a057806343859632146104cd578063452115d61461051757806348ca392f1461053757600080fd5b80631a5007dd1161026b5780631a5007dd146103ba5780632656227d146103cf5780632ad5aba6146103e25780632d63f693146104025780632fe3e2611461042257806334592a281461045657600080fd5b806301ffc9a7146102c057806302a251a3146102f5578063034201811461031457806306f3f9e61461033457806306fdde0314610354578063150b7a021461037657600080fd5b366102bb57005b005b600080fd5b3480156102cc57600080fd5b506102e06102db366004612d86565b6109c1565b60405190151581526020015b60405180910390f35b34801561030157600080fd5b506005545b6040519081526020016102ec565b34801561032057600080fd5b5061030661032f366004612ebc565b610a2e565b34801561034057600080fd5b506102b961034f366004612f62565b610b26565b34801561036057600080fd5b50610369610b76565b6040516102ec9190612fd7565b34801561038257600080fd5b506103a1610391366004613001565b630a85bd0160e11b949350505050565b6040516001600160e01b031990911681526020016102ec565b3480156103c657600080fd5b50600e54610306565b6103066103dd3660046131d7565b610c08565b3480156103ee57600080fd5b506103696103fd366004612f62565b610d2f565b34801561040e57600080fd5b5061030661041d366004612f62565b610dd1565b34801561042e57600080fd5b506103067fb3b3f3b703cd84ce352197dcff232b1b5d3cfb2025ce47cf04742d0651f1af8881565b34801561046257600080fd5b50600f54610306565b34801561047757600080fd5b50600454610306565b34801561048c57600080fd5b5061030661049b366004613266565b610e08565b3480156104ac57600080fd5b506104c06104bb366004612f62565b610e7e565b6040516102ec91906132ca565b3480156104d957600080fd5b506102e06104e83660046132f2565b60008281526007602090815260408083206001600160a01b038516845260030190915290205460ff1692915050565b34801561052357600080fd5b506103066105323660046131d7565b610f8a565b34801561054357600080fd5b50610369611025565b34801561055857600080fd5b50610586610567366004612f62565b6000908152600760205260409020805460018201546002909201549092565b604080519384526020840192909252908201526060016102ec565b3480156105ad57600080fd5b506040805180820190915260018152603160f81b6020820152610369565b3480156105d757600080fd5b506103066105e636600461331e565b611034565b3480156105f757600080fd5b50610306610606366004613341565b61105d565b34801561061757600080fd5b50610306610626366004612f62565b6110a7565b34801561063757600080fd5b506102b96106463660046133c4565b61113d565b34801561065757600080fd5b506102b9610666366004612f62565b6111b6565b34801561067757600080fd5b506102b96111fa565b34801561068c57600080fd5b5061030661069b36600461340a565b61120e565b3480156106ac57600080fd5b506103066106bb366004613463565b611256565b3480156106cc57600080fd5b506102b96112a3565b3480156106e157600080fd5b50600a546001600160a01b03165b6040516001600160a01b0390911681526020016102ec565b34801561071357600080fd5b506064610306565b34801561072757600080fd5b50610306610736366004613503565b6112f5565b34801561074757600080fd5b5061030661130c565b34801561075c57600080fd5b5061030661132d565b34801561077157600080fd5b506102b9610780366004613559565b611338565b34801561079157600080fd5b506103a16107a036600461358d565b63bc197c8160e01b95945050505050565b3480156107bd57600080fd5b506103066107cc366004612f62565b611357565b3480156107dd57600080fd5b506102b96107ec36600461361c565b611386565b3480156107fd57600080fd5b5061030661080c3660046131d7565b61140a565b34801561081d57600080fd5b506040805180820190915260208082527f737570706f72743d627261766f2671756f72756d3d666f722c6162737461696e90820152610369565b34801561086357600080fd5b506103067f150214d74d59b7d1e90c73fc22ef3d991dd0a76b046543d4d80ab92d2a50328f81565b34801561089757600080fd5b506106ef6108a6366004612f62565b6000908152600b60205260409020546001600160a01b031690565b3480156108cd57600080fd5b506102b96108dc366004612f62565b611444565b3480156108ed57600080fd5b506103066108fc36600461365d565b611488565b34801561090d57600080fd5b506102b961091c366004612f62565b6114a9565b34801561092d57600080fd5b506103a161093c366004613687565b63f23a6e6160e01b95945050505050565b34801561095957600080fd5b506102b96109683660046136eb565b6114ed565b34801561097957600080fd5b50610306610988366004612f62565b611563565b34801561099957600080fd5b506106ef7f000000000000000000000000000000000000000000000000000000000000000081565b60006001600160e01b0319821663bf26d89760e01b14806109f257506001600160e01b031982166379dd796f60e01b145b80610a0d57506001600160e01b03198216630271189760e51b145b80610a2857506301ffc9a760e01b6001600160e01b03198316145b92915050565b600080610ad2610aca7fb3b3f3b703cd84ce352197dcff232b1b5d3cfb2025ce47cf04742d0651f1af888c8c8c8c604051610a6a929190613706565b60405180910390208b80519060200120604051602001610aaf959493929190948552602085019390935260ff9190911660408401526060830152608082015260a00190565b60405160208183030381529060405280519060200120611875565b8686866118c3565b9050610b188a828b8b8b8080601f0160208091040260200160405190810160405280939291908181526020018383808284376000920191909152508d92506118e1915050565b9a9950505050505050505050565b333014610b4e5760405162461bcd60e51b8152600401610b4590613716565b60405180910390fd5b610b6a565b80610b5e6002611a43565b14610b6857610b53565b505b610b7381611ac2565b50565b606060008054610b859061374d565b80601f0160208091040260200160405190810160405280929190818152602001828054610bb19061374d565b8015610bfe5780601f10610bd357610100808354040283529160200191610bfe565b820191906000526020600020905b815481529060010190602001808311610be157829003601f168201915b5050505050905090565b600080610c178686868661140a565b90506000610c2482610e7e565b90506004816007811115610c3a57610c3a6132b4565b1480610c5757506005816007811115610c5557610c556132b4565b145b610cad5760405162461bcd60e51b815260206004820152602160248201527f476f7665726e6f723a2070726f706f73616c206e6f74207375636365737366756044820152601b60fa1b6064820152608401610b45565b600082815260016020818152604092839020600201805460ff191690921790915590518381527f712ae1383f79ac853f8d882153778e0260ef8f03b504e2866e0593e04d2b291f910160405180910390a1610d0b8288888888611c0f565b610d188288888888611c9c565b610d258288888888611c0f565b5095945050505050565b6000818152600c60205260409020805460609190610d4c9061374d565b80601f0160208091040260200160405190810160405280929190818152602001828054610d789061374d565b8015610dc55780601f10610d9a57610100808354040283529160200191610dc5565b820191906000526020600020905b815481529060010190602001808311610da857829003601f168201915b50505050509050919050565b60008181526001602090815260408083208151928301909152546001600160401b0316908190525b6001600160401b031692915050565b604080517f150214d74d59b7d1e90c73fc22ef3d991dd0a76b046543d4d80ab92d2a50328f602082015290810186905260ff851660608201526000908190610e5690610aca90608001610aaf565b9050610e7387828860405180602001604052806000815250611d9b565b979650505050505050565b6000818152600160205260408120600281015460ff1615610ea25750600792915050565b6002810154610100900460ff1615610ebd5750600292915050565b6000610ec884610dd1565b905080610f175760405162461bcd60e51b815260206004820152601d60248201527f476f7665726e6f723a20756e6b6e6f776e2070726f706f73616c2069640000006044820152606401610b45565b438110610f28575060009392505050565b6000610f3385611357565b9050438110610f4757506001949350505050565b610f5085611dc7565b8015610f6f575060008581526007602052604090208054600190910154115b15610f7f57506004949350505050565b506003949350505050565b600080610f998686868661140a565b6000818152600b60205260409020549091506001600160a01b0316331480610fcb5750600a546001600160a01b031633145b61100f5760405162461bcd60e51b81526020600482015260156024820152742737ba10383937b837b9b2b91037b91037bbb732b960591b6044820152606401610b45565b61101b86868686611dfe565b9695505050505050565b6060600d8054610b859061374d565b60008033905061105584828560405180602001604052806000815250611d9b565b949350505050565b600080339050610e7387828888888080601f0160208091040260200160405190810160405280939291908181526020018383808284376000920191909152508a92506118e1915050565b600954600090806110bc575050600854919050565b600060096110cb60018461379e565b815481106110db576110db6137b5565b60009182526020918290206040805180820190915291015463ffffffff81168083526401000000009091046001600160e01b0316928201929092529150841061113257602001516001600160e01b03169392505050565b611055600985611f1c565b6000828152600b60205260409020546001600160a01b031633146111925760405162461bcd60e51b815260206004820152600c60248201526b2737ba10383937b837b9b2b960a11b6044820152606401610b45565b6000828152600c6020908152604090912082516111b192840190612cf6565b505050565b3330146111d55760405162461bcd60e51b8152600401610b4590613716565b6111f1565b806111e56002611a43565b146111ef576111da565b505b610b738161202b565b61120261206c565b61120c60006120c6565b565b60008033905061101b86828787878080601f016020809104026020016040519081016040528093929190818152602001838380828437600092019190915250611d9b92505050565b60008061126586868686612118565b6000818152600b6020526040812080546001600160a01b03191633179055600e805492935090611294836137cb565b90915550909695505050505050565b3330146112c25760405162461bcd60e51b8152600401610b4590613716565b6112de565b806112d26002611a43565b146112dc576112c7565b505b600f80549060006112ee836137cb565b9190505550565b60006113028484846123dd565b90505b9392505050565b600954600090156113265761132160096117b4565b905090565b5060085490565b600061132160065490565b61134061206c565b805161135390600d906020840190612cf6565b5050565b60008181526001602081815260408084208151928301909152909101546001600160401b031690819052610df9565b3330146113a55760405162461bcd60e51b8152600401610b4590613716565b6113c1565b806113b56002611a43565b146113bf576113aa565b505b6114038483838080601f016020809104026020016040519081016040528093929190818152602001838380828437600092019190915250889250612482915050565b5050505050565b60008484848460405160200161142394939291906138af565b60408051601f19818403018152919052805160209091012095945050505050565b3330146114635760405162461bcd60e51b8152600401610b4590613716565b61147f565b806114736002611a43565b1461147d57611468565b505b610b73816124a8565b600061130583836114a460408051602081019091526000815290565b6123dd565b3330146114c85760405162461bcd60e51b8152600401610b4590613716565b6114e4565b806114d86002611a43565b146114e2576114cd565b505b610b7381612549565b6114f561206c565b6001600160a01b03811661155a5760405162461bcd60e51b815260206004820152602660248201527f4f776e61626c653a206e6577206f776e657220697320746865207a65726f206160448201526564647265737360d01b6064820152608401610b45565b610b73816120c6565b60006064611570836110a7565b604051632394e7a360e21b8152600481018590527f00000000000000000000000000000000000000000000000000000000000000006001600160a01b031690638e539e8c9060240160206040518083038186803b1580156115d057600080fd5b505afa1580156115e4573d6000803e3d6000fd5b505050506040513d601f19601f8201168201806040525081019061160891906138fa565b6116129190613913565b610a289190613932565b60006001600160e01b038211156116855760405162461bcd60e51b815260206004820152602760248201527f53616665436173743a2076616c756520646f65736e27742066697420696e20326044820152663234206269747360c81b6064820152608401610b45565b5090565b815460009081908161169a866117b4565b90506000821180156116d8575043866116b460018561379e565b815481106116c4576116c46137b5565b60009182526020909120015463ffffffff16145b15611738576116e68561161c565b866116f260018561379e565b81548110611702576117026137b5565b9060005260206000200160000160046101000a8154816001600160e01b0302191690836001600160e01b031602179055506117a6565b85600001604051806040016040528061175043611810565b63ffffffff1681526020016117648861161c565b6001600160e01b0390811690915282546001810184556000938452602093849020835194909301519091166401000000000263ffffffff909316929092179101555b9250839150505b9250929050565b805460009080156117fd57826117cb60018361379e565b815481106117db576117db6137b5565b60009182526020909120015464010000000090046001600160e01b0316611800565b60005b6001600160e01b03169392505050565b600063ffffffff8211156116855760405162461bcd60e51b815260206004820152602660248201527f53616665436173743a2076616c756520646f65736e27742066697420696e203360448201526532206269747360d01b6064820152608401610b45565b6000610a2861188261258a565b8360405161190160f01b6020820152602281018390526042810182905260009060620160405160208183030381529060405280519060200120905092915050565b60008060006118d4878787876126b1565b91509150610d258161279e565b60008581526001602081905260408220906118fb88610e7e565b600781111561190c5761190c6132b4565b146119655760405162461bcd60e51b815260206004820152602360248201527f476f7665726e6f723a20766f7465206e6f742063757272656e746c792061637460448201526269766560e81b6064820152608401610b45565b604080516020810190915281546001600160401b03169081905260009061198e908890866123dd565b905061199d8888888488612959565b83516119ef57866001600160a01b03167fb8e138887d0aa13bab447e82de9d5c1777041ecd21ca36ba824ff1e6c07ddda4898884896040516119e29493929190613954565b60405180910390a2610e73565b866001600160a01b03167fe2babfbac5889a709b63bb7f598b324e08bc5a4fb9ec647fb3cbc9ec07eb87128988848989604051611a3095949392919061397c565b60405180910390a2979650505050505050565b6000611a5e8254600f81810b600160801b909204900b131590565b15611a7c57604051631ed9509560e11b815260040160405180910390fd5b508054600f0b6000818152600180840160205260408220805492905583546fffffffffffffffffffffffffffffffff191692016001600160801b03169190911790915590565b6064811115611b455760405162461bcd60e51b815260206004820152604360248201527f476f7665726e6f72566f74657351756f72756d4672616374696f6e3a2071756f60448201527f72756d4e756d657261746f72206f7665722071756f72756d44656e6f6d696e616064820152623a37b960e91b608482015260a401610b45565b6000611b4f61130c565b90508015801590611b605750600954155b15611bc557604080518082019091526000815260099060208101611b838461161c565b6001600160e01b0390811690915282546001810184556000938452602093849020835194909301519091166401000000000263ffffffff909316929092179101555b611bd0600983611689565b505060408051828152602081018490527f0553476bf02ef2726e8ce5ced78d63e26e602e4a2257b1f559418e24b4633997910160405180910390a15050565b611403565b8451811015611c9457306001600160a01b0316858281518110611c3957611c396137b5565b60200260200101516001600160a01b03161415611c8457611c84838281518110611c6557611c656137b5565b6020026020010151805190602001206002612ad890919063ffffffff16565b611c8d816137cb565b9050611c14565b505050505050565b6000604051806060016040528060278152602001613b5260279139905060005b8551811015611d9257600080878381518110611cda57611cda6137b5565b60200260200101516001600160a01b0316878481518110611cfd57611cfd6137b5565b6020026020010151878581518110611d1757611d176137b5565b6020026020010151604051611d2c91906139c2565b60006040518083038185875af1925050503d8060008114611d69576040519150601f19603f3d011682016040523d82523d6000602084013e611d6e565b606091505b5091509150611d7e828286612b14565b50505080611d8b906137cb565b9050611cbc565b50505050505050565b6000611dbe85858585611db960408051602081019091526000815290565b6118e1565b95945050505050565b600081815260076020526040812060028101546001820154611de991906139de565b611df561098885610dd1565b11159392505050565b600080611e0d8686868661140a565b90506000611e1a82610e7e565b90506002816007811115611e3057611e306132b4565b14158015611e5057506006816007811115611e4d57611e4d6132b4565b14155b8015611e6e57506007816007811115611e6b57611e6b6132b4565b14155b611eba5760405162461bcd60e51b815260206004820152601d60248201527f476f7665726e6f723a2070726f706f73616c206e6f74206163746976650000006044820152606401610b45565b60008281526001602052604090819020600201805461ff001916610100179055517f789cf55be980739dad1d0699b93b58e806b51c9d96619bfa8fe0a28abaa7b30c90611f0a9084815260200190565b60405180910390a15095945050505050565b6000438210611f6d5760405162461bcd60e51b815260206004820181905260248201527f436865636b706f696e74733a20626c6f636b206e6f7420796574206d696e65646044820152606401610b45565b825460005b81811015611fd2576000611f868284612b4d565b905084866000018281548110611f9e57611f9e6137b5565b60009182526020909120015463ffffffff161115611fbe57809250611fcc565b611fc98160016139de565b91505b50611f72565b81156120165784611fe460018461379e565b81548110611ff457611ff46137b5565b60009182526020909120015464010000000090046001600160e01b0316612019565b60005b6001600160e01b031695945050505050565b60045460408051918252602082018390527fc565b045403dc03c2eea82b81a0465edad9e2e7fc4d97e11421c209da93d7a93910160405180910390a1600455565b600a546001600160a01b0316331461120c5760405162461bcd60e51b815260206004820181905260248201527f4f776e61626c653a2063616c6c6572206973206e6f7420746865206f776e65726044820152606401610b45565b600a80546001600160a01b038381166001600160a01b0319831681179093556040519116919082907f8be0079c531659141344cd1fd0a4f28419497f9722a3daafe3b4186f6b6457e090600090a35050565b600061212261132d565b612131336108fc60014361379e565b10156121995760405162461bcd60e51b815260206004820152603160248201527f476f7665726e6f723a2070726f706f73657220766f7465732062656c6f7720706044820152701c9bdc1bdcd85b081d1a1c995cda1bdb19607a1b6064820152608401610b45565b60006121ae868686868051906020012061140a565b905084518651146121d15760405162461bcd60e51b8152600401610b45906139f6565b83518651146121f25760405162461bcd60e51b8152600401610b45906139f6565b60008651116122435760405162461bcd60e51b815260206004820152601860248201527f476f7665726e6f723a20656d7074792070726f706f73616c00000000000000006044820152606401610b45565b600081815260016020908152604091829020825191820190925281546001600160401b031690819052156122c35760405162461bcd60e51b815260206004820152602160248201527f476f7665726e6f723a2070726f706f73616c20616c72656164792065786973746044820152607360f81b6064820152608401610b45565b60006122d66122d160045490565b612b68565b6122df43612b68565b6122e99190613a37565b905060006122f96122d160055490565b6123039083613a37565b835467ffffffffffffffff19166001600160401b038416178455905060018301805467ffffffffffffffff19166001600160401b0383161790557f7d84a6263ae0d98d3329bd7b46bb4e8d6f98cd35a7adb45c274c8b7fd5ebd5e084338b8b8d516001600160401b0381111561237b5761237b612e07565b6040519080825280602002602001820160405280156123ae57816020015b60608152602001906001900390816123995790505b508c88888e6040516123c899989796959493929190613a62565b60405180910390a15091979650505050505050565b604051630748d63560e31b81526001600160a01b038481166004830152602482018490526000917f000000000000000000000000000000000000000000000000000000000000000090911690633a46b1a89060440160206040518083038186803b15801561244a57600080fd5b505afa15801561245e573d6000803e3d6000fd5b505050506040513d601f19601f8201168201806040525081019061130291906138fa565b6060611302848484604051806060016040528060298152602001613b7960299139612bd0565b600081116125085760405162461bcd60e51b815260206004820152602760248201527f476f7665726e6f7253657474696e67733a20766f74696e6720706572696f6420604482015266746f6f206c6f7760c81b6064820152608401610b45565b60055460408051918252602082018390527f7e3f7f0708a84de9203036abaa450dccc85ad5ff52f78c170f3edb55cf5e8828910160405180910390a1600555565b60065460408051918252602082018390527fccb45da8d5717e6c4544694297c4ba5cf151d455c9bb0ed4fc7a38411bc05461910160405180910390a1600655565b6000306001600160a01b037f0000000000000000000000000000000000000000000000000000000000000000161480156125e357507f000000000000000000000000000000000000000000000000000000000000000046145b1561260d57507f000000000000000000000000000000000000000000000000000000000000000090565b50604080517f00000000000000000000000000000000000000000000000000000000000000006020808301919091527f0000000000000000000000000000000000000000000000000000000000000000828401527f000000000000000000000000000000000000000000000000000000000000000060608301524660808301523060a0808401919091528351808403909101815260c0909201909252805191012090565b6000807f7fffffffffffffffffffffffffffffff5d576e7357a4501ddfe92f46681b20a08311156126e85750600090506003612795565b8460ff16601b1415801561270057508460ff16601c14155b156127115750600090506004612795565b6040805160008082526020820180845289905260ff881692820192909252606081018690526080810185905260019060a0016020604051602081039080840390855afa158015612765573d6000803e3d6000fd5b5050604051601f1901519150506001600160a01b03811661278e57600060019250925050612795565b9150600090505b94509492505050565b60008160048111156127b2576127b26132b4565b14156127bb5750565b60018160048111156127cf576127cf6132b4565b141561281d5760405162461bcd60e51b815260206004820152601860248201527f45434453413a20696e76616c6964207369676e617475726500000000000000006044820152606401610b45565b6002816004811115612831576128316132b4565b141561287f5760405162461bcd60e51b815260206004820152601f60248201527f45434453413a20696e76616c6964207369676e6174757265206c656e677468006044820152606401610b45565b6003816004811115612893576128936132b4565b14156128ec5760405162461bcd60e51b815260206004820152602260248201527f45434453413a20696e76616c6964207369676e6174757265202773272076616c604482015261756560f01b6064820152608401610b45565b6004816004811115612900576129006132b4565b1415610b735760405162461bcd60e51b815260206004820152602260248201527f45434453413a20696e76616c6964207369676e6174757265202776272076616c604482015261756560f01b6064820152608401610b45565b60008581526007602090815260408083206001600160a01b0388168452600381019092529091205460ff16156129e15760405162461bcd60e51b815260206004820152602760248201527f476f7665726e6f72566f74696e6753696d706c653a20766f746520616c726561604482015266191e4818d85cdd60ca1b6064820152608401610b45565b6001600160a01b03851660009081526003820160205260408120805460ff1916600117905560ff168460ff161415612a325782816000016000828254612a2791906139de565b90915550611c949050565b60ff841660011415612a525782816001016000828254612a2791906139de565b60ff841660021415612a725782816002016000828254612a2791906139de565b60405162461bcd60e51b815260206004820152603560248201527f476f7665726e6f72566f74696e6753696d706c653a20696e76616c69642076616044820152746c756520666f7220656e756d20566f74655479706560581b6064820152608401610b45565b8154600160801b90819004600f0b6000818152600180860160205260409091209390935583546001600160801b03908116939091011602179055565b60608315612b23575081611305565b825115612b335782518084602001fd5b8160405162461bcd60e51b8152600401610b459190612fd7565b6000612b5c6002848418613932565b611305908484166139de565b60006001600160401b038211156116855760405162461bcd60e51b815260206004820152602660248201527f53616665436173743a2076616c756520646f65736e27742066697420696e203660448201526534206269747360d01b6064820152608401610b45565b606082471015612c315760405162461bcd60e51b815260206004820152602660248201527f416464726573733a20696e73756666696369656e742062616c616e636520666f6044820152651c8818d85b1b60d21b6064820152608401610b45565b6001600160a01b0385163b612c885760405162461bcd60e51b815260206004820152601d60248201527f416464726573733a2063616c6c20746f206e6f6e2d636f6e74726163740000006044820152606401610b45565b600080866001600160a01b03168587604051612ca491906139c2565b60006040518083038185875af1925050503d8060008114612ce1576040519150601f19603f3d011682016040523d82523d6000602084013e612ce6565b606091505b5091509150610e73828286612b14565b828054612d029061374d565b90600052602060002090601f016020900481019282612d245760008555612d6a565b82601f10612d3d57805160ff1916838001178555612d6a565b82800160010185558215612d6a579182015b82811115612d6a578251825591602001919060010190612d4f565b506116859291505b808211156116855760008155600101612d72565b600060208284031215612d9857600080fd5b81356001600160e01b03198116811461130557600080fd5b803560ff81168114612dc157600080fd5b919050565b60008083601f840112612dd857600080fd5b5081356001600160401b03811115612def57600080fd5b6020830191508360208285010111156117ad57600080fd5b634e487b7160e01b600052604160045260246000fd5b604051601f8201601f191681016001600160401b0381118282101715612e4557612e45612e07565b604052919050565b600082601f830112612e5e57600080fd5b81356001600160401b03811115612e7757612e77612e07565b612e8a601f8201601f1916602001612e1d565b818152846020838601011115612e9f57600080fd5b816020850160208301376000918101602001919091529392505050565b60008060008060008060008060e0898b031215612ed857600080fd5b88359750612ee860208a01612db0565b965060408901356001600160401b0380821115612f0457600080fd5b612f108c838d01612dc6565b909850965060608b0135915080821115612f2957600080fd5b50612f368b828c01612e4d565b945050612f4560808a01612db0565b925060a0890135915060c089013590509295985092959890939650565b600060208284031215612f7457600080fd5b5035919050565b60005b83811015612f96578181015183820152602001612f7e565b83811115612fa5576000848401525b50505050565b60008151808452612fc3816020860160208601612f7b565b601f01601f19169290920160200192915050565b6020815260006113056020830184612fab565b80356001600160a01b0381168114612dc157600080fd5b6000806000806080858703121561301757600080fd5b61302085612fea565b935061302e60208601612fea565b92506040850135915060608501356001600160401b0381111561305057600080fd5b61305c87828801612e4d565b91505092959194509250565b60006001600160401b0382111561308157613081612e07565b5060051b60200190565b600082601f83011261309c57600080fd5b813560206130b16130ac83613068565b612e1d565b82815260059290921b840181019181810190868411156130d057600080fd5b8286015b848110156130f2576130e581612fea565b83529183019183016130d4565b509695505050505050565b600082601f83011261310e57600080fd5b8135602061311e6130ac83613068565b82815260059290921b8401810191818101908684111561313d57600080fd5b8286015b848110156130f25780358352918301918301613141565b600082601f83011261316957600080fd5b813560206131796130ac83613068565b82815260059290921b8401810191818101908684111561319857600080fd5b8286015b848110156130f25780356001600160401b038111156131bb5760008081fd5b6131c98986838b0101612e4d565b84525091830191830161319c565b600080600080608085870312156131ed57600080fd5b84356001600160401b038082111561320457600080fd5b6132108883890161308b565b9550602087013591508082111561322657600080fd5b613232888389016130fd565b9450604087013591508082111561324857600080fd5b5061325587828801613158565b949793965093946060013593505050565b600080600080600060a0868803121561327e57600080fd5b8535945061328e60208701612db0565b935061329c60408701612db0565b94979396509394606081013594506080013592915050565b634e487b7160e01b600052602160045260246000fd5b60208101600883106132ec57634e487b7160e01b600052602160045260246000fd5b91905290565b6000806040838503121561330557600080fd5b8235915061331560208401612fea565b90509250929050565b6000806040838503121561333157600080fd5b8235915061331560208401612db0565b60008060008060006080868803121561335957600080fd5b8535945061336960208701612db0565b935060408601356001600160401b038082111561338557600080fd5b61339189838a01612dc6565b909550935060608801359150808211156133aa57600080fd5b506133b788828901612e4d565b9150509295509295909350565b600080604083850312156133d757600080fd5b8235915060208301356001600160401b038111156133f457600080fd5b61340085828601612e4d565b9150509250929050565b6000806000806060858703121561342057600080fd5b8435935061343060208601612db0565b925060408501356001600160401b0381111561344b57600080fd5b61345787828801612dc6565b95989497509550505050565b6000806000806080858703121561347957600080fd5b84356001600160401b038082111561349057600080fd5b61349c8883890161308b565b955060208701359150808211156134b257600080fd5b6134be888389016130fd565b945060408701359150808211156134d457600080fd5b6134e088838901613158565b935060608701359150808211156134f657600080fd5b5061305c87828801612e4d565b60008060006060848603121561351857600080fd5b61352184612fea565b92506020840135915060408401356001600160401b0381111561354357600080fd5b61354f86828701612e4d565b9150509250925092565b60006020828403121561356b57600080fd5b81356001600160401b0381111561358157600080fd5b61105584828501612e4d565b600080600080600060a086880312156135a557600080fd5b6135ae86612fea565b94506135bc60208701612fea565b935060408601356001600160401b03808211156135d857600080fd5b6135e489838a016130fd565b945060608801359150808211156135fa57600080fd5b61360689838a016130fd565b935060808801359150808211156133aa57600080fd5b6000806000806060858703121561363257600080fd5b61363b85612fea565b93506020850135925060408501356001600160401b0381111561344b57600080fd5b6000806040838503121561367057600080fd5b61367983612fea565b946020939093013593505050565b600080600080600060a0868803121561369f57600080fd5b6136a886612fea565b94506136b660208701612fea565b9350604086013592506060860135915060808601356001600160401b038111156136df57600080fd5b6133b788828901612e4d565b6000602082840312156136fd57600080fd5b61130582612fea565b8183823760009101908152919050565b60208082526018908201527f476f7665726e6f723a206f6e6c79476f7665726e616e63650000000000000000604082015260600190565b600181811c9082168061376157607f821691505b6020821081141561378257634e487b7160e01b600052602260045260246000fd5b50919050565b634e487b7160e01b600052601160045260246000fd5b6000828210156137b0576137b0613788565b500390565b634e487b7160e01b600052603260045260246000fd5b60006000198214156137df576137df613788565b5060010190565b600081518084526020808501945080840160005b8381101561381f5781516001600160a01b0316875295820195908201906001016137fa565b509495945050505050565b600081518084526020808501945080840160005b8381101561381f5781518752958201959082019060010161383e565b600081518084526020808501808196508360051b8101915082860160005b858110156138a2578284038952613890848351612fab565b98850198935090840190600101613878565b5091979650505050505050565b6080815260006138c260808301876137e6565b82810360208401526138d4818761382a565b905082810360408401526138e8818661385a565b91505082606083015295945050505050565b60006020828403121561390c57600080fd5b5051919050565b600081600019048311821515161561392d5761392d613788565b500290565b60008261394f57634e487b7160e01b600052601260045260246000fd5b500490565b84815260ff8416602082015282604082015260806060820152600061101b6080830184612fab565b85815260ff8516602082015283604082015260a0606082015260006139a460a0830185612fab565b82810360808401526139b68185612fab565b98975050505050505050565b600082516139d4818460208701612f7b565b9190910192915050565b600082198211156139f1576139f1613788565b500190565b60208082526021908201527f476f7665726e6f723a20696e76616c69642070726f706f73616c206c656e67746040820152600d60fb1b606082015260800190565b60006001600160401b03808316818516808303821115613a5957613a59613788565b01949350505050565b60006101208b8352602060018060a01b038c1681850152816040850152613a8b8285018c6137e6565b91508382036060850152613a9f828b61382a565b915083820360808501528189518084528284019150828160051b850101838c0160005b83811015613af057601f19878403018552613ade838351612fab565b94860194925090850190600101613ac2565b505086810360a0880152613b04818c61385a565b945050505050613b1f60c08401876001600160401b03169052565b6001600160401b03851660e0840152828103610100840152613b418185612fab565b9c9b50505050505050505050505056fe476f7665726e6f723a2063616c6c20726576657274656420776974686f7574206d657373616765416464726573733a206c6f772d6c6576656c2063616c6c20776974682076616c7565206661696c6564a26469706673582212208399016e71a4e27d00cddfc4e7a255b977fe590f6f7518ed9bff1205cd32ece864736f6c63430008090033",
  "linkReferences": {},
  "deployedLinkReferences": {}
}