{
  "_format": "hh-sol-artifact-1",
  "contractName": "GovernorContract",
  "sourceName": "contracts/governance-standard/GovernorContract.sol",
  "abi": [
    {
      "inputs": [
        {
          "internalType": "string",
          "name": "name_",
          "type": "string"
        },
        {
          "internalType": "contract IVotes",
          "name": "token_",
          "type": "address"
        },
        {
          "internalType": "uint256",
          "name": "votingPeriod_",
          "type": "uint256"
        },
        {
          "internalType": "uint256",
          "name": "quorumPercentage_",
          "type": "uint256"
        }
      ],
      "stateMutability": "nonpayable",
      "type": "constructor"
    },
    {
      "inputs": [],
      "name": "Empty",
      "type": "error"
    },
    {
      "anonymous": false,
      "inputs": [
        {
          "indexed": true,
          "internalType": "address",
          "name": "previousOwner",
          "type": "address"
        },
        {
          "indexed": true,
          "internalType": "address",
          "name": "newOwner",
          "type": "address"
        }
      ],
      "name": "OwnershipTransferred",
      "type": "event"
    },
    {
      "anonymous": false,
      "inputs": [
        {
          "indexed": false,
          "internalType": "uint256",
          "name": "proposalId",
          "type": "uint256"
        }
      ],
      "name": "ProposalCanceled",
      "type": "event"
    },
    {
      "anonymous": false,
      "inputs": [
        {
          "indexed": false,
          "internalType": "uint256",
          "name": "proposalId",
          "type": "uint256"
        },
        {
          "indexed": false,
          "internalType": "address",
          "name": "proposer",
          "type": "address"
        },
        {
          "indexed": false,
          "internalType": "address[]",
          "name": "targets",
          "type": "address[]"
        },
        {
          "indexed": false,
          "internalType": "uint256[]",
          "name": "values",
          "type": "uint256[]"
        },
        {
          "indexed": false,
          "internalType": "string[]",
          "name": "signatures",
          "type": "string[]"
        },
        {
          "indexed": false,
          "internalType": "bytes[]",
          "name": "calldatas",
          "type": "bytes[]"
        },
        {
          "indexed": false,
          "internalType": "uint256",
          "name": "startBlock",
          "type": "uint256"
        },
        {
          "indexed": false,
          "internalType": "uint256",
          "name": "endBlock",
          "type": "uint256"
        },
        {
          "indexed": false,
          "internalType": "string",
          "name": "description",
          "type": "string"
        }
      ],
      "name": "ProposalCreated",
      "type": "event"
    },
    {
      "anonymous": false,
      "inputs": [
        {
          "indexed": false,
          "internalType": "uint256",
          "name": "proposalId",
          "type": "uint256"
        }
      ],
      "name": "ProposalExecuted",
      "type": "event"
    },
    {
      "anonymous": false,
      "inputs": [
        {
          "indexed": false,
          "internalType": "uint256",
          "name": "oldProposalThreshold",
          "type": "uint256"
        },
        {
          "indexed": false,
          "internalType": "uint256",
          "name": "newProposalThreshold",
          "type": "uint256"
        }
      ],
      "name": "ProposalThresholdSet",
      "type": "event"
    },
    {
      "anonymous": false,
      "inputs": [
        {
          "indexed": false,
          "internalType": "uint256",
          "name": "oldQuorumNumerator",
          "type": "uint256"
        },
        {
          "indexed": false,
          "internalType": "uint256",
          "name": "newQuorumNumerator",
          "type": "uint256"
        }
      ],
      "name": "QuorumNumeratorUpdated",
      "type": "event"
    },
    {
      "anonymous": false,
      "inputs": [
        {
          "indexed": true,
          "internalType": "address",
          "name": "voter",
          "type": "address"
        },
        {
          "indexed": false,
          "internalType": "uint256",
          "name": "proposalId",
          "type": "uint256"
        },
        {
          "indexed": false,
          "internalType": "uint8",
          "name": "support",
          "type": "uint8"
        },
        {
          "indexed": false,
          "internalType": "uint256",
          "name": "weight",
          "type": "uint256"
        },
        {
          "indexed": false,
          "internalType": "string",
          "name": "reason",
          "type": "string"
        }
      ],
      "name": "VoteCast",
      "type": "event"
    },
    {
      "anonymous": false,
      "inputs": [
        {
          "indexed": true,
          "internalType": "address",
          "name": "voter",
          "type": "address"
        },
        {
          "indexed": false,
          "internalType": "uint256",
          "name": "proposalId",
          "type": "uint256"
        },
        {
          "indexed": false,
          "internalType": "uint8",
          "name": "support",
          "type": "uint8"
        },
        {
          "indexed": false,
          "internalType": "uint256",
          "name": "weight",
          "type": "uint256"
        },
        {
          "indexed": false,
          "internalType": "string",
          "name": "reason",
          "type": "string"
        },
        {
          "indexed": false,
          "internalType": "bytes",
          "name": "params",
          "type": "bytes"
        }
      ],
      "name": "VoteCastWithParams",
      "type": "event"
    },
    {
      "anonymous": false,
      "inputs": [
        {
          "indexed": false,
          "internalType": "uint256",
          "name": "oldVotingDelay",
          "type": "uint256"
        },
        {
          "indexed": false,
          "internalType": "uint256",
          "name": "newVotingDelay",
          "type": "uint256"
        }
      ],
      "name": "VotingDelaySet",
      "type": "event"
    },
    {
      "anonymous": false,
      "inputs": [
        {
          "indexed": false,
          "internalType": "uint256",
          "name": "oldVotingPeriod",
          "type": "uint256"
        },
        {
          "indexed": false,
          "internalType": "uint256",
          "name": "newVotingPeriod",
          "type": "uint256"
        }
      ],
      "name": "VotingPeriodSet",
      "type": "event"
    },
    {
      "inputs": [],
      "name": "BALLOT_TYPEHASH",
      "outputs": [
        {
          "internalType": "bytes32",
          "name": "",
          "type": "bytes32"
        }
      ],
      "stateMutability": "view",
      "type": "function"
    },
    {
      "inputs": [],
      "name": "COUNTING_MODE",
      "outputs": [
        {
          "internalType": "string",
          "name": "",
          "type": "string"
        }
      ],
      "stateMutability": "pure",
      "type": "function"
    },
    {
      "inputs": [],
      "name": "EXTENDED_BALLOT_TYPEHASH",
      "outputs": [
        {
          "internalType": "bytes32",
          "name": "",
          "type": "bytes32"
        }
      ],
      "stateMutability": "view",
      "type": "function"
    },
    {
      "inputs": [
        {
          "internalType": "address[]",
          "name": "targets",
          "type": "address[]"
        },
        {
          "internalType": "uint256[]",
          "name": "values",
          "type": "uint256[]"
        },
        {
          "internalType": "bytes[]",
          "name": "calldatas",
          "type": "bytes[]"
        },
        {
          "internalType": "bytes32",
          "name": "descriptionHash",
          "type": "bytes32"
        }
      ],
      "name": "cancel",
      "outputs": [
        {
          "internalType": "uint256",
          "name": "",
          "type": "uint256"
        }
      ],
      "stateMutability": "nonpayable",
      "type": "function"
    },
    {
      "inputs": [
        {
          "internalType": "uint256",
          "name": "proposalId",
          "type": "uint256"
        },
        {
          "internalType": "uint8",
          "name": "support",
          "type": "uint8"
        }
      ],
      "name": "castVote",
      "outputs": [
        {
          "internalType": "uint256",
          "name": "",
          "type": "uint256"
        }
      ],
      "stateMutability": "nonpayable",
      "type": "function"
    },
    {
      "inputs": [
        {
          "internalType": "uint256",
          "name": "proposalId",
          "type": "uint256"
        },
        {
          "internalType": "uint8",
          "name": "support",
          "type": "uint8"
        },
        {
          "internalType": "uint8",
          "name": "v",
          "type": "uint8"
        },
        {
          "internalType": "bytes32",
          "name": "r",
          "type": "bytes32"
        },
        {
          "internalType": "bytes32",
          "name": "s",
          "type": "bytes32"
        }
      ],
      "name": "castVoteBySig",
      "outputs": [
        {
          "internalType": "uint256",
          "name": "",
          "type": "uint256"
        }
      ],
      "stateMutability": "nonpayable",
      "type": "function"
    },
    {
      "inputs": [
        {
          "internalType": "uint256",
          "name": "proposalId",
          "type": "uint256"
        },
        {
          "internalType": "uint8",
          "name": "support",
          "type": "uint8"
        },
        {
          "internalType": "string",
          "name": "reason",
          "type": "string"
        }
      ],
      "name": "castVoteWithReason",
      "outputs": [
        {
          "internalType": "uint256",
          "name": "",
          "type": "uint256"
        }
      ],
      "stateMutability": "nonpayable",
      "type": "function"
    },
    {
      "inputs": [
        {
          "internalType": "uint256",
          "name": "proposalId",
          "type": "uint256"
        },
        {
          "internalType": "uint8",
          "name": "support",
          "type": "uint8"
        },
        {
          "internalType": "string",
          "name": "reason",
          "type": "string"
        },
        {
          "internalType": "bytes",
          "name": "params",
          "type": "bytes"
        }
      ],
      "name": "castVoteWithReasonAndParams",
      "outputs": [
        {
          "internalType": "uint256",
          "name": "",
          "type": "uint256"
        }
      ],
      "stateMutability": "nonpayable",
      "type": "function"
    },
    {
      "inputs": [
        {
          "internalType": "uint256",
          "name": "proposalId",
          "type": "uint256"
        },
        {
          "internalType": "uint8",
          "name": "support",
          "type": "uint8"
        },
        {
          "internalType": "string",
          "name": "reason",
          "type": "string"
        },
        {
          "internalType": "bytes",
          "name": "params",
          "type": "bytes"
        },
        {
          "internalType": "uint8",
          "name": "v",
          "type": "uint8"
        },
        {
          "internalType": "bytes32",
          "name": "r",
          "type": "bytes32"
        },
        {
          "internalType": "bytes32",
          "name": "s",
          "type": "bytes32"
        }
      ],
      "name": "castVoteWithReasonAndParamsBySig",
      "outputs": [
        {
          "internalType": "uint256",
          "name": "",
          "type": "uint256"
        }
      ],
      "stateMutability": "nonpayable",
      "type": "function"
    },
    {
      "inputs": [
        {
          "internalType": "address[]",
          "name": "targets",
          "type": "address[]"
        },
        {
          "internalType": "uint256[]",
          "name": "values",
          "type": "uint256[]"
        },
        {
          "internalType": "bytes[]",
          "name": "calldatas",
          "type": "bytes[]"
        },
        {
          "internalType": "bytes32",
          "name": "descriptionHash",
          "type": "bytes32"
        }
      ],
      "name": "execute",
      "outputs": [
        {
          "internalType": "uint256",
          "name": "",
          "type": "uint256"
        }
      ],
      "stateMutability": "payable",
      "type": "function"
    },
    {
      "inputs": [],
      "name": "getExecutedProposals",
      "outputs": [
        {
          "internalType": "uint256",
          "name": "",
          "type": "uint256"
        }
      ],
      "stateMutability": "view",
      "type": "function"
    },
    {
      "inputs": [
        {
          "internalType": "uint256",
          "name": "proposalId",
          "type": "uint256"
        }
      ],
      "name": "getProposer",
      "outputs": [
        {
          "internalType": "address",
          "name": "",
          "type": "address"
        }
      ],
      "stateMutability": "view",
      "type": "function"
    },
    {
      "inputs": [],
      "name": "getTotalProposals",
      "outputs": [
        {
          "internalType": "uint256",
          "name": "",
          "type": "uint256"
        }
      ],
      "stateMutability": "view",
      "type": "function"
    },
    {
      "inputs": [
        {
          "internalType": "address",
          "name": "account",
          "type": "address"
        },
        {
          "internalType": "uint256",
          "name": "blockNumber",
          "type": "uint256"
        }
      ],
      "name": "getVotes",
      "outputs": [
        {
          "internalType": "uint256",
          "name": "",
          "type": "uint256"
        }
      ],
      "stateMutability": "view",
      "type": "function"
    },
    {
      "inputs": [
        {
          "internalType": "address",
          "name": "account",
          "type": "address"
        },
        {
          "internalType": "uint256",
          "name": "blockNumber",
          "type": "uint256"
        },
        {
          "internalType": "bytes",
          "name": "params",
          "type": "bytes"
        }
      ],
      "name": "getVotesWithParams",
      "outputs": [
        {
          "internalType": "uint256",
          "name": "",
          "type": "uint256"
        }
      ],
      "stateMutability": "view",
      "type": "function"
    },
    {
      "inputs": [],
      "name": "governorInfoURI",
      "outputs": [
        {
          "internalType": "string",
          "name": "",
          "type": "string"
        }
      ],
      "stateMutability": "view",
      "type": "function"
    },
    {
      "inputs": [
        {
          "internalType": "uint256",
          "name": "proposalId",
          "type": "uint256"
        },
        {
          "internalType": "address",
          "name": "account",
          "type": "address"
        }
      ],
      "name": "hasVoted",
      "outputs": [
        {
          "internalType": "bool",
          "name": "",
          "type": "bool"
        }
      ],
      "stateMutability": "view",
      "type": "function"
    },
    {
      "inputs": [
        {
          "internalType": "address[]",
          "name": "targets",
          "type": "address[]"
        },
        {
          "internalType": "uint256[]",
          "name": "values",
          "type": "uint256[]"
        },
        {
          "internalType": "bytes[]",
          "name": "calldatas",
          "type": "bytes[]"
        },
        {
          "internalType": "bytes32",
          "name": "descriptionHash",
          "type": "bytes32"
        }
      ],
      "name": "hashProposal",
      "outputs": [
        {
          "internalType": "uint256",
          "name": "",
          "type": "uint256"
        }
      ],
      "stateMutability": "pure",
      "type": "function"
    },
    {
      "inputs": [],
      "name": "incrementExecutedProposals",
      "outputs": [],
      "stateMutability": "nonpayable",
      "type": "function"
    },
    {
      "inputs": [],
      "name": "name",
      "outputs": [
        {
          "internalType": "string",
          "name": "",
          "type": "string"
        }
      ],
      "stateMutability": "view",
      "type": "function"
    },
    {
      "inputs": [
        {
          "internalType": "address",
          "name": "",
          "type": "address"
        },
        {
          "internalType": "address",
          "name": "",
          "type": "address"
        },
        {
          "internalType": "uint256[]",
          "name": "",
          "type": "uint256[]"
        },
        {
          "internalType": "uint256[]",
          "name": "",
          "type": "uint256[]"
        },
        {
          "internalType": "bytes",
          "name": "",
          "type": "bytes"
        }
      ],
      "name": "onERC1155BatchReceived",
      "outputs": [
        {
          "internalType": "bytes4",
          "name": "",
          "type": "bytes4"
        }
      ],
      "stateMutability": "nonpayable",
      "type": "function"
    },
    {
      "inputs": [
        {
          "internalType": "address",
          "name": "",
          "type": "address"
        },
        {
          "internalType": "address",
          "name": "",
          "type": "address"
        },
        {
          "internalType": "uint256",
          "name": "",
          "type": "uint256"
        },
        {
          "internalType": "uint256",
          "name": "",
          "type": "uint256"
        },
        {
          "internalType": "bytes",
          "name": "",
          "type": "bytes"
        }
      ],
      "name": "onERC1155Received",
      "outputs": [
        {
          "internalType": "bytes4",
          "name": "",
          "type": "bytes4"
        }
      ],
      "stateMutability": "nonpayable",
      "type": "function"
    },
    {
      "inputs": [
        {
          "internalType": "address",
          "name": "",
          "type": "address"
        },
        {
          "internalType": "address",
          "name": "",
          "type": "address"
        },
        {
          "internalType": "uint256",
          "name": "",
          "type": "uint256"
        },
        {
          "internalType": "bytes",
          "name": "",
          "type": "bytes"
        }
      ],
      "name": "onERC721Received",
      "outputs": [
        {
          "internalType": "bytes4",
          "name": "",
          "type": "bytes4"
        }
      ],
      "stateMutability": "nonpayable",
      "type": "function"
    },
    {
      "inputs": [],
      "name": "owner",
      "outputs": [
        {
          "internalType": "address",
          "name": "",
          "type": "address"
        }
      ],
      "stateMutability": "view",
      "type": "function"
    },
    {
      "inputs": [
        {
          "internalType": "uint256",
          "name": "proposalId",
          "type": "uint256"
        }
      ],
      "name": "proposalDeadline",
      "outputs": [
        {
          "internalType": "uint256",
          "name": "",
          "type": "uint256"
        }
      ],
      "stateMutability": "view",
      "type": "function"
    },
    {
      "inputs": [
        {
          "internalType": "uint256",
          "name": "proposalId",
          "type": "uint256"
        }
      ],
      "name": "proposalInfoURI",
      "outputs": [
        {
          "internalType": "string",
          "name": "",
          "type": "string"
        }
      ],
      "stateMutability": "view",
      "type": "function"
    },
    {
      "inputs": [
        {
          "internalType": "uint256",
          "name": "proposalId",
          "type": "uint256"
        }
      ],
      "name": "proposalSnapshot",
      "outputs": [
        {
          "internalType": "uint256",
          "name": "",
          "type": "uint256"
        }
      ],
      "stateMutability": "view",
      "type": "function"
    },
    {
      "inputs": [],
      "name": "proposalThreshold",
      "outputs": [
        {
          "internalType": "uint256",
          "name": "",
          "type": "uint256"
        }
      ],
      "stateMutability": "view",
      "type": "function"
    },
    {
      "inputs": [
        {
          "internalType": "uint256",
          "name": "proposalId",
          "type": "uint256"
        }
      ],
      "name": "proposalVotes",
      "outputs": [
        {
          "internalType": "uint256",
          "name": "againstVotes",
          "type": "uint256"
        },
        {
          "internalType": "uint256",
          "name": "forVotes",
          "type": "uint256"
        },
        {
          "internalType": "uint256",
          "name": "abstainVotes",
          "type": "uint256"
        }
      ],
      "stateMutability": "view",
      "type": "function"
    },
    {
      "inputs": [
        {
          "internalType": "address[]",
          "name": "targets",
          "type": "address[]"
        },
        {
          "internalType": "uint256[]",
          "name": "values",
          "type": "uint256[]"
        },
        {
          "internalType": "bytes[]",
          "name": "calldatas",
          "type": "bytes[]"
        },
        {
          "internalType": "string",
          "name": "description",
          "type": "string"
        }
      ],
      "name": "propose",
      "outputs": [
        {
          "internalType": "uint256",
          "name": "",
          "type": "uint256"
        }
      ],
      "stateMutability": "nonpayable",
      "type": "function"
    },
    {
      "inputs": [
        {
          "internalType": "uint256",
          "name": "blockNumber",
          "type": "uint256"
        }
      ],
      "name": "quorum",
      "outputs": [
        {
          "internalType": "uint256",
          "name": "",
          "type": "uint256"
        }
      ],
      "stateMutability": "view",
      "type": "function"
    },
    {
      "inputs": [],
      "name": "quorumDenominator",
      "outputs": [
        {
          "internalType": "uint256",
          "name": "",
          "type": "uint256"
        }
      ],
      "stateMutability": "view",
      "type": "function"
    },
    {
      "inputs": [],
      "name": "quorumNumerator",
      "outputs": [
        {
          "internalType": "uint256",
          "name": "",
          "type": "uint256"
        }
      ],
      "stateMutability": "view",
      "type": "function"
    },
    {
      "inputs": [
        {
          "internalType": "address",
          "name": "target",
          "type": "address"
        },
        {
          "internalType": "uint256",
          "name": "value",
          "type": "uint256"
        },
        {
          "internalType": "bytes",
          "name": "data",
          "type": "bytes"
        }
      ],
      "name": "relay",
      "outputs": [],
      "stateMutability": "nonpayable",
      "type": "function"
    },
    {
      "inputs": [],
      "name": "renounceOwnership",
      "outputs": [],
      "stateMutability": "nonpayable",
      "type": "function"
    },
    {
      "inputs": [
        {
          "internalType": "string",
          "name": "newInfoURI",
          "type": "string"
        }
      ],
      "name": "setGovernorInfoURI",
      "outputs": [],
      "stateMutability": "nonpayable",
      "type": "function"
    },
    {
      "inputs": [
        {
          "internalType": "uint256",
          "name": "proposalId",
          "type": "uint256"
        },
        {
          "internalType": "string",
          "name": "infoURI",
          "type": "string"
        }
      ],
      "name": "setProposalInfoURI",
      "outputs": [],
      "stateMutability": "nonpayable",
      "type": "function"
    },
    {
      "inputs": [
        {
          "internalType": "uint256",
          "name": "newProposalThreshold",
          "type": "uint256"
        }
      ],
      "name": "setProposalThreshold",
      "outputs": [],
      "stateMutability": "nonpayable",
      "type": "function"
    },
    {
      "inputs": [
        {
          "internalType": "uint256",
          "name": "newVotingDelay",
          "type": "uint256"
        }
      ],
      "name": "setVotingDelay",
      "outputs": [],
      "stateMutability": "nonpayable",
      "type": "function"
    },
    {
      "inputs": [
        {
          "internalType": "uint256",
          "name": "newVotingPeriod",
          "type": "uint256"
        }
      ],
      "name": "setVotingPeriod",
      "outputs": [],
      "stateMutability": "nonpayable",
      "type": "function"
    },
    {
      "inputs": [
        {
          "internalType": "uint256",
          "name": "proposalId",
          "type": "uint256"
        }
      ],
      "name": "state",
      "outputs": [
        {
          "internalType": "enum IGovernor.ProposalState",
          "name": "",
          "type": "uint8"
        }
      ],
      "stateMutability": "view",
      "type": "function"
    },
    {
      "inputs": [
        {
          "internalType": "bytes4",
          "name": "interfaceId",
          "type": "bytes4"
        }
      ],
      "name": "supportsInterface",
      "outputs": [
        {
          "internalType": "bool",
          "name": "",
          "type": "bool"
        }
      ],
      "stateMutability": "view",
      "type": "function"
    },
    {
      "inputs": [],
      "name": "token",
      "outputs": [
        {
          "internalType": "contract IVotes",
          "name": "",
          "type": "address"
        }
      ],
      "stateMutability": "view",
      "type": "function"
    },
    {
      "inputs": [
        {
          "internalType": "address",
          "name": "newOwner",
          "type": "address"
        }
      ],
      "name": "transferOwnership",
      "outputs": [],
      "stateMutability": "nonpayable",
      "type": "function"
    },
    {
      "inputs": [
        {
          "internalType": "uint256",
          "name": "newQuorumNumerator",
          "type": "uint256"
        }
      ],
      "name": "updateQuorumNumerator",
      "outputs": [],
      "stateMutability": "nonpayable",
      "type": "function"
    },
    {
      "inputs": [],
      "name": "version",
      "outputs": [
        {
          "internalType": "string",
          "name": "",
          "type": "string"
        }
      ],
      "stateMutability": "view",
      "type": "function"
    },
    {
      "inputs": [],
      "name": "votingDelay",
      "outputs": [
        {
          "internalType": "uint256",
          "name": "",
          "type": "uint256"
        }
      ],
      "stateMutability": "view",
      "type": "function"
    },
    {
      "inputs": [],
      "name": "votingPeriod",
      "outputs": [
        {
          "internalType": "uint256",
          "name": "",
          "type": "uint256"
        }
      ],
      "stateMutability": "view",
      "type": "function"
    },
    {
      "stateMutability": "payable",
      "type": "receive"
    }
  ],
  "bytecode": "0x6101606040523480156200001257600080fd5b5060405162003d4438038062003d44833981016040819052620000359162000475565b80836001848188806200005c6040805180820190915260018152603160f81b602082015290565b815160208084019190912082518383012060e08290526101008190524660a0818152604080517f8b73c3c69bb8fe3d512ecc4cf759cc79239f7b179b0ffacaa9a75d522b39400f81880181905281830187905260608201869052608082019490945230818401528151808203909301835260c00190528051940193909320919290916080523060c05261012052505082516200010292506000915060208401906200039c565b506200011090508362000157565b6200011b8262000198565b62000126816200023f565b5050506001600160a01b031661014052620001418162000280565b506200014d336200034a565b50505050620005b3565b60045460408051918252602082018390527fc565b045403dc03c2eea82b81a0465edad9e2e7fc4d97e11421c209da93d7a93910160405180910390a1600455565b60008111620001fe5760405162461bcd60e51b815260206004820152602760248201527f476f7665726e6f7253657474696e67733a20766f74696e6720706572696f6420604482015266746f6f206c6f7760c81b60648201526084015b60405180910390fd5b60055460408051918252602082018390527f7e3f7f0708a84de9203036abaa450dccc85ad5ff52f78c170f3edb55cf5e8828910160405180910390a1600555565b60065460408051918252602082018390527fccb45da8d5717e6c4544694297c4ba5cf151d455c9bb0ed4fc7a38411bc05461910160405180910390a1600655565b6064811115620003055760405162461bcd60e51b815260206004820152604360248201527f476f7665726e6f72566f74657351756f72756d4672616374696f6e3a2071756f60448201527f72756d4e756d657261746f72206f7665722071756f72756d44656e6f6d696e616064820152623a37b960e91b608482015260a401620001f5565b600880549082905560408051828152602081018490527f0553476bf02ef2726e8ce5ced78d63e26e602e4a2257b1f559418e24b4633997910160405180910390a15050565b600980546001600160a01b038381166001600160a01b0319831681179093556040519116919082907f8be0079c531659141344cd1fd0a4f28419497f9722a3daafe3b4186f6b6457e090600090a35050565b828054620003aa9062000576565b90600052602060002090601f016020900481019282620003ce576000855562000419565b82601f10620003e957805160ff191683800117855562000419565b8280016001018555821562000419579182015b8281111562000419578251825591602001919060010190620003fc565b50620004279291506200042b565b5090565b5b808211156200042757600081556001016200042c565b634e487b7160e01b600052604160045260246000fd5b80516001600160a01b03811681146200047057600080fd5b919050565b600080600080608085870312156200048c57600080fd5b84516001600160401b0380821115620004a457600080fd5b818701915087601f830112620004b957600080fd5b815181811115620004ce57620004ce62000442565b604051601f8201601f19908116603f01168101908382118183101715620004f957620004f962000442565b81604052828152602093508a848487010111156200051657600080fd5b600091505b828210156200053a57848201840151818301850152908301906200051b565b828211156200054c5760008484830101525b97506200055e91505087820162000458565b60408801516060909801519699909850945050505050565b600181811c908216806200058b57607f821691505b60208210811415620005ad57634e487b7160e01b600052602260045260246000fd5b50919050565b60805160a05160c05160e0516101005161012051610140516137286200061c60003960008181610964015281816114f90152611f32015260006121400152600061218f0152600061216a015260006120c3015260006120ed0152600061211701526137286000f3fe6080604052600436106102975760003560e01c8063715018a61161015a578063c28bc2fa116100c1578063eb9019d41161007a578063eb9019d4146108a6578063ece40cc1146108c6578063f23a6e61146108e6578063f2fde38b14610912578063f8ce560a14610932578063fc0c546a1461095257600080fd5b8063c28bc2fa14610796578063c59057e4146107b6578063dd4e2ba5146107d6578063deaaa7cc1461081c578063e14bd87414610850578063ea0217cf1461088657600080fd5b80639a802a6d116101135780639a802a6d146106e0578063a7713a7014610700578063b58131b014610715578063b801c8781461072a578063bc197c811461074a578063c01f9e371461077657600080fd5b8063715018a6146106305780637b3c71d3146106455780637d5e81e2146106655780637e2bcd95146106855780638da5cb5b1461069a57806397c3d334146106cc57600080fd5b80633932abb1116101fe578063544ffc9c116101b7578063544ffc9c1461053157806354fd4d501461058657806356781388146105b05780635f398a14146105d05780636b1084a0146105f057806370b0f6601461061057600080fd5b80633932abb1146104505780633bccf4fd146104655780633e4f49e61461048557806343859632146104b2578063452115d6146104fc57806348ca392f1461051c57600080fd5b80631a5007dd116102505780631a5007dd1461039f5780632656227d146103b45780632ad5aba6146103c75780632d63f693146103e75780632fe3e2611461040757806334592a281461043b57600080fd5b806301ffc9a7146102a557806302a251a3146102da57806303420181146102f957806306f3f9e61461031957806306fdde0314610339578063150b7a021461035b57600080fd5b366102a057005b005b600080fd5b3480156102b157600080fd5b506102c56102c036600461289b565b610986565b60405190151581526020015b60405180910390f35b3480156102e657600080fd5b506005545b6040519081526020016102d1565b34801561030557600080fd5b506102eb6103143660046129d8565b6109f3565b34801561032557600080fd5b5061029e610334366004612a7e565b610aeb565b34801561034557600080fd5b5061034e610b3b565b6040516102d19190612af3565b34801561036757600080fd5b50610386610376366004612b1d565b630a85bd0160e11b949350505050565b6040516001600160e01b031990911681526020016102d1565b3480156103ab57600080fd5b50600d546102eb565b6102eb6103c2366004612cf3565b610bcd565b3480156103d357600080fd5b5061034e6103e2366004612a7e565b610cf4565b3480156103f357600080fd5b506102eb610402366004612a7e565b610d96565b34801561041357600080fd5b506102eb7fb3b3f3b703cd84ce352197dcff232b1b5d3cfb2025ce47cf04742d0651f1af8881565b34801561044757600080fd5b50600e546102eb565b34801561045c57600080fd5b506004546102eb565b34801561047157600080fd5b506102eb610480366004612d82565b610dcd565b34801561049157600080fd5b506104a56104a0366004612a7e565b610e43565b6040516102d19190612de6565b3480156104be57600080fd5b506102c56104cd366004612e0e565b60008281526007602090815260408083206001600160a01b038516845260030190915290205460ff1692915050565b34801561050857600080fd5b506102eb610517366004612cf3565b610f4f565b34801561052857600080fd5b5061034e610fea565b34801561053d57600080fd5b5061056b61054c366004612a7e565b6000908152600760205260409020805460018201546002909201549092565b604080519384526020840192909252908201526060016102d1565b34801561059257600080fd5b506040805180820190915260018152603160f81b602082015261034e565b3480156105bc57600080fd5b506102eb6105cb366004612e3a565b610ff9565b3480156105dc57600080fd5b506102eb6105eb366004612e5d565b611022565b3480156105fc57600080fd5b5061029e61060b366004612ee0565b61106c565b34801561061c57600080fd5b5061029e61062b366004612a7e565b6110e5565b34801561063c57600080fd5b5061029e611129565b34801561065157600080fd5b506102eb610660366004612f26565b61115f565b34801561067157600080fd5b506102eb610680366004612f7f565b6111a7565b34801561069157600080fd5b5061029e6111f4565b3480156106a657600080fd5b506009546001600160a01b03165b6040516001600160a01b0390911681526020016102d1565b3480156106d857600080fd5b5060646102eb565b3480156106ec57600080fd5b506102eb6106fb36600461301f565b611246565b34801561070c57600080fd5b506008546102eb565b34801561072157600080fd5b506102eb61125d565b34801561073657600080fd5b5061029e610745366004613075565b61126d565b34801561075657600080fd5b506103866107653660046130a9565b63bc197c8160e01b95945050505050565b34801561078257600080fd5b506102eb610791366004612a7e565b6112ae565b3480156107a257600080fd5b5061029e6107b1366004613138565b6112dd565b3480156107c257600080fd5b506102eb6107d1366004612cf3565b611361565b3480156107e257600080fd5b506040805180820190915260208082527f737570706f72743d627261766f2671756f72756d3d666f722c6162737461696e9082015261034e565b34801561082857600080fd5b506102eb7f150214d74d59b7d1e90c73fc22ef3d991dd0a76b046543d4d80ab92d2a50328f81565b34801561085c57600080fd5b506106b461086b366004612a7e565b6000908152600a60205260409020546001600160a01b031690565b34801561089257600080fd5b5061029e6108a1366004612a7e565b61139b565b3480156108b257600080fd5b506102eb6108c1366004613179565b6113df565b3480156108d257600080fd5b5061029e6108e1366004612a7e565b611400565b3480156108f257600080fd5b506103866109013660046131a3565b63f23a6e6160e01b95945050505050565b34801561091e57600080fd5b5061029e61092d366004613207565b611444565b34801561093e57600080fd5b506102eb61094d366004612a7e565b6114dc565b34801561095e57600080fd5b506106b47f000000000000000000000000000000000000000000000000000000000000000081565b60006001600160e01b0319821663bf26d89760e01b14806109b757506001600160e01b031982166379dd796f60e01b145b806109d257506001600160e01b03198216630271189760e51b145b806109ed57506301ffc9a760e01b6001600160e01b03198316145b92915050565b600080610a97610a8f7fb3b3f3b703cd84ce352197dcff232b1b5d3cfb2025ce47cf04742d0651f1af888c8c8c8c604051610a2f929190613222565b60405180910390208b80519060200120604051602001610a74959493929190948552602085019390935260ff9190911660408401526060830152608082015260a00190565b6040516020818303038152906040528051906020012061158f565b8686866115dd565b9050610add8a828b8b8b8080601f0160208091040260200160405190810160405280939291908181526020018383808284376000920191909152508d92506115fb915050565b9a9950505050505050505050565b333014610b135760405162461bcd60e51b8152600401610b0a90613232565b60405180910390fd5b610b2f565b80610b23600261175d565b14610b2d57610b18565b505b610b38816117dc565b50565b606060008054610b4a90613269565b80601f0160208091040260200160405190810160405280929190818152602001828054610b7690613269565b8015610bc35780601f10610b9857610100808354040283529160200191610bc3565b820191906000526020600020905b815481529060010190602001808311610ba657829003601f168201915b5050505050905090565b600080610bdc86868686611361565b90506000610be982610e43565b90506004816007811115610bff57610bff612dd0565b1480610c1c57506005816007811115610c1a57610c1a612dd0565b145b610c725760405162461bcd60e51b815260206004820152602160248201527f476f7665726e6f723a2070726f706f73616c206e6f74207375636365737366756044820152601b60fa1b6064820152608401610b0a565b600082815260016020818152604092839020600201805460ff191690921790915590518381527f712ae1383f79ac853f8d882153778e0260ef8f03b504e2866e0593e04d2b291f910160405180910390a1610cd082888888886118a4565b610cdd8288888888611931565b610cea82888888886118a4565b5095945050505050565b6000818152600b60205260409020805460609190610d1190613269565b80601f0160208091040260200160405190810160405280929190818152602001828054610d3d90613269565b8015610d8a5780601f10610d5f57610100808354040283529160200191610d8a565b820191906000526020600020905b815481529060010190602001808311610d6d57829003601f168201915b50505050509050919050565b60008181526001602090815260408083208151928301909152546001600160401b0316908190525b6001600160401b031692915050565b604080517f150214d74d59b7d1e90c73fc22ef3d991dd0a76b046543d4d80ab92d2a50328f602082015290810186905260ff851660608201526000908190610e1b90610a8f90608001610a74565b9050610e3887828860405180602001604052806000815250611a30565b979650505050505050565b6000818152600160205260408120600281015460ff1615610e675750600792915050565b6002810154610100900460ff1615610e825750600292915050565b6000610e8d84610d96565b905080610edc5760405162461bcd60e51b815260206004820152601d60248201527f476f7665726e6f723a20756e6b6e6f776e2070726f706f73616c2069640000006044820152606401610b0a565b438110610eed575060009392505050565b6000610ef8856112ae565b9050438110610f0c57506001949350505050565b610f1585611a5c565b8015610f34575060008581526007602052604090208054600190910154115b15610f4457506004949350505050565b506003949350505050565b600080610f5e86868686611361565b6000818152600a60205260409020549091506001600160a01b0316331480610f9057506009546001600160a01b031633145b610fd45760405162461bcd60e51b81526020600482015260156024820152742737ba10383937b837b9b2b91037b91037bbb732b960591b6044820152606401610b0a565b610fe086868686611a93565b9695505050505050565b6060600c8054610b4a90613269565b60008033905061101a84828560405180602001604052806000815250611a30565b949350505050565b600080339050610e3887828888888080601f0160208091040260200160405190810160405280939291908181526020018383808284376000920191909152508a92506115fb915050565b6000828152600a60205260409020546001600160a01b031633146110c15760405162461bcd60e51b815260206004820152600c60248201526b2737ba10383937b837b9b2b960a11b6044820152606401610b0a565b6000828152600b6020908152604090912082516110e09284019061280b565b505050565b3330146111045760405162461bcd60e51b8152600401610b0a90613232565b611120565b80611114600261175d565b1461111e57611109565b505b610b3881611bb1565b6009546001600160a01b031633146111535760405162461bcd60e51b8152600401610b0a906132a4565b61115d6000611bf2565b565b600080339050610fe086828787878080601f016020809104026020016040519081016040528093929190818152602001838380828437600092019190915250611a3092505050565b6000806111b686868686611c44565b6000818152600a6020526040812080546001600160a01b03191633179055600d8054929350906111e5836132ef565b90915550909695505050505050565b3330146112135760405162461bcd60e51b8152600401610b0a90613232565b61122f565b80611223600261175d565b1461122d57611218565b505b600e805490600061123f836132ef565b9190505550565b6000611253848484611f09565b90505b9392505050565b600061126860065490565b905090565b6009546001600160a01b031633146112975760405162461bcd60e51b8152600401610b0a906132a4565b80516112aa90600c90602084019061280b565b5050565b60008181526001602081815260408084208151928301909152909101546001600160401b031690819052610dbe565b3330146112fc5760405162461bcd60e51b8152600401610b0a90613232565b611318565b8061130c600261175d565b1461131657611301565b505b61135a8483838080601f016020809104026020016040519081016040528093929190818152602001838380828437600092019190915250889250611fae915050565b5050505050565b60008484848460405160200161137a94939291906133d3565b60408051601f19818403018152919052805160209091012095945050505050565b3330146113ba5760405162461bcd60e51b8152600401610b0a90613232565b6113d6565b806113ca600261175d565b146113d4576113bf565b505b610b3881611fd4565b600061125683836113fb60408051602081019091526000815290565b611f09565b33301461141f5760405162461bcd60e51b8152600401610b0a90613232565b61143b565b8061142f600261175d565b1461143957611424565b505b610b3881612075565b6009546001600160a01b0316331461146e5760405162461bcd60e51b8152600401610b0a906132a4565b6001600160a01b0381166114d35760405162461bcd60e51b815260206004820152602660248201527f4f776e61626c653a206e6577206f776e657220697320746865207a65726f206160448201526564647265737360d01b6064820152608401610b0a565b610b3881611bf2565b60006064600854604051632394e7a360e21b8152600481018590527f00000000000000000000000000000000000000000000000000000000000000006001600160a01b031690638e539e8c9060240160206040518083038186803b15801561154357600080fd5b505afa158015611557573d6000803e3d6000fd5b505050506040513d601f19601f8201168201806040525081019061157b919061341e565b6115859190613437565b6109ed9190613456565b60006109ed61159c6120b6565b8360405161190160f01b6020820152602281018390526042810182905260009060620160405160208183030381529060405280519060200120905092915050565b60008060006115ee878787876121dd565b91509150610cea816122ca565b600085815260016020819052604082209061161588610e43565b600781111561162657611626612dd0565b1461167f5760405162461bcd60e51b815260206004820152602360248201527f476f7665726e6f723a20766f7465206e6f742063757272656e746c792061637460448201526269766560e81b6064820152608401610b0a565b604080516020810190915281546001600160401b0316908190526000906116a890889086611f09565b90506116b78888888488612485565b835161170957866001600160a01b03167fb8e138887d0aa13bab447e82de9d5c1777041ecd21ca36ba824ff1e6c07ddda4898884896040516116fc9493929190613478565b60405180910390a2610e38565b866001600160a01b03167fe2babfbac5889a709b63bb7f598b324e08bc5a4fb9ec647fb3cbc9ec07eb8712898884898960405161174a9594939291906134a0565b60405180910390a2979650505050505050565b60006117788254600f81810b600160801b909204900b131590565b1561179657604051631ed9509560e11b815260040160405180910390fd5b508054600f0b6000818152600180840160205260408220805492905583546fffffffffffffffffffffffffffffffff191692016001600160801b03169190911790915590565b606481111561185f5760405162461bcd60e51b815260206004820152604360248201527f476f7665726e6f72566f74657351756f72756d4672616374696f6e3a2071756f60448201527f72756d4e756d657261746f72206f7665722071756f72756d44656e6f6d696e616064820152623a37b960e91b608482015260a401610b0a565b600880549082905560408051828152602081018490527f0553476bf02ef2726e8ce5ced78d63e26e602e4a2257b1f559418e24b4633997910160405180910390a15050565b61135a565b845181101561192957306001600160a01b03168582815181106118ce576118ce6134e6565b60200260200101516001600160a01b03161415611919576119198382815181106118fa576118fa6134e6565b602002602001015180519060200120600261260490919063ffffffff16565b611922816132ef565b90506118a9565b505050505050565b60006040518060600160405280602781526020016136a360279139905060005b8551811015611a275760008087838151811061196f5761196f6134e6565b60200260200101516001600160a01b0316878481518110611992576119926134e6565b60200260200101518785815181106119ac576119ac6134e6565b60200260200101516040516119c191906134fc565b60006040518083038185875af1925050503d80600081146119fe576040519150601f19603f3d011682016040523d82523d6000602084013e611a03565b606091505b5091509150611a13828286612640565b50505080611a20906132ef565b9050611951565b50505050505050565b6000611a5385858585611a4e60408051602081019091526000815290565b6115fb565b95945050505050565b600081815260076020526040812060028101546001820154611a7e9190613518565b611a8a61094d85610d96565b11159392505050565b600080611aa286868686611361565b90506000611aaf82610e43565b90506002816007811115611ac557611ac5612dd0565b14158015611ae557506006816007811115611ae257611ae2612dd0565b14155b8015611b0357506007816007811115611b0057611b00612dd0565b14155b611b4f5760405162461bcd60e51b815260206004820152601d60248201527f476f7665726e6f723a2070726f706f73616c206e6f74206163746976650000006044820152606401610b0a565b60008281526001602052604090819020600201805461ff001916610100179055517f789cf55be980739dad1d0699b93b58e806b51c9d96619bfa8fe0a28abaa7b30c90611b9f9084815260200190565b60405180910390a15095945050505050565b60045460408051918252602082018390527fc565b045403dc03c2eea82b81a0465edad9e2e7fc4d97e11421c209da93d7a93910160405180910390a1600455565b600980546001600160a01b038381166001600160a01b0319831681179093556040519116919082907f8be0079c531659141344cd1fd0a4f28419497f9722a3daafe3b4186f6b6457e090600090a35050565b6000611c4e61125d565b611c5d336108c1600143613530565b1015611cc55760405162461bcd60e51b815260206004820152603160248201527f476f7665726e6f723a2070726f706f73657220766f7465732062656c6f7720706044820152701c9bdc1bdcd85b081d1a1c995cda1bdb19607a1b6064820152608401610b0a565b6000611cda8686868680519060200120611361565b90508451865114611cfd5760405162461bcd60e51b8152600401610b0a90613547565b8351865114611d1e5760405162461bcd60e51b8152600401610b0a90613547565b6000865111611d6f5760405162461bcd60e51b815260206004820152601860248201527f476f7665726e6f723a20656d7074792070726f706f73616c00000000000000006044820152606401610b0a565b600081815260016020908152604091829020825191820190925281546001600160401b03169081905215611def5760405162461bcd60e51b815260206004820152602160248201527f476f7665726e6f723a2070726f706f73616c20616c72656164792065786973746044820152607360f81b6064820152608401610b0a565b6000611e02611dfd60045490565b612679565b611e0b43612679565b611e159190613588565b90506000611e25611dfd60055490565b611e2f9083613588565b835467ffffffffffffffff19166001600160401b038416178455905060018301805467ffffffffffffffff19166001600160401b0383161790557f7d84a6263ae0d98d3329bd7b46bb4e8d6f98cd35a7adb45c274c8b7fd5ebd5e084338b8b8d516001600160401b03811115611ea757611ea7612923565b604051908082528060200260200182016040528015611eda57816020015b6060815260200190600190039081611ec55790505b508c88888e604051611ef4999897969594939291906135b3565b60405180910390a15091979650505050505050565b604051630748d63560e31b81526001600160a01b038481166004830152602482018490526000917f000000000000000000000000000000000000000000000000000000000000000090911690633a46b1a89060440160206040518083038186803b158015611f7657600080fd5b505afa158015611f8a573d6000803e3d6000fd5b505050506040513d601f19601f82011682018060405250810190611253919061341e565b60606112538484846040518060600160405280602981526020016136ca602991396126e5565b600081116120345760405162461bcd60e51b815260206004820152602760248201527f476f7665726e6f7253657474696e67733a20766f74696e6720706572696f6420604482015266746f6f206c6f7760c81b6064820152608401610b0a565b60055460408051918252602082018390527f7e3f7f0708a84de9203036abaa450dccc85ad5ff52f78c170f3edb55cf5e8828910160405180910390a1600555565b60065460408051918252602082018390527fccb45da8d5717e6c4544694297c4ba5cf151d455c9bb0ed4fc7a38411bc05461910160405180910390a1600655565b6000306001600160a01b037f00000000000000000000000000000000000000000000000000000000000000001614801561210f57507f000000000000000000000000000000000000000000000000000000000000000046145b1561213957507f000000000000000000000000000000000000000000000000000000000000000090565b50604080517f00000000000000000000000000000000000000000000000000000000000000006020808301919091527f0000000000000000000000000000000000000000000000000000000000000000828401527f000000000000000000000000000000000000000000000000000000000000000060608301524660808301523060a0808401919091528351808403909101815260c0909201909252805191012090565b6000807f7fffffffffffffffffffffffffffffff5d576e7357a4501ddfe92f46681b20a083111561221457506000905060036122c1565b8460ff16601b1415801561222c57508460ff16601c14155b1561223d57506000905060046122c1565b6040805160008082526020820180845289905260ff881692820192909252606081018690526080810185905260019060a0016020604051602081039080840390855afa158015612291573d6000803e3d6000fd5b5050604051601f1901519150506001600160a01b0381166122ba576000600192509250506122c1565b9150600090505b94509492505050565b60008160048111156122de576122de612dd0565b14156122e75750565b60018160048111156122fb576122fb612dd0565b14156123495760405162461bcd60e51b815260206004820152601860248201527f45434453413a20696e76616c6964207369676e617475726500000000000000006044820152606401610b0a565b600281600481111561235d5761235d612dd0565b14156123ab5760405162461bcd60e51b815260206004820152601f60248201527f45434453413a20696e76616c6964207369676e6174757265206c656e677468006044820152606401610b0a565b60038160048111156123bf576123bf612dd0565b14156124185760405162461bcd60e51b815260206004820152602260248201527f45434453413a20696e76616c6964207369676e6174757265202773272076616c604482015261756560f01b6064820152608401610b0a565b600481600481111561242c5761242c612dd0565b1415610b385760405162461bcd60e51b815260206004820152602260248201527f45434453413a20696e76616c6964207369676e6174757265202776272076616c604482015261756560f01b6064820152608401610b0a565b60008581526007602090815260408083206001600160a01b0388168452600381019092529091205460ff161561250d5760405162461bcd60e51b815260206004820152602760248201527f476f7665726e6f72566f74696e6753696d706c653a20766f746520616c726561604482015266191e4818d85cdd60ca1b6064820152608401610b0a565b6001600160a01b03851660009081526003820160205260408120805460ff1916600117905560ff168460ff16141561255e57828160000160008282546125539190613518565b909155506119299050565b60ff84166001141561257e57828160010160008282546125539190613518565b60ff84166002141561259e57828160020160008282546125539190613518565b60405162461bcd60e51b815260206004820152603560248201527f476f7665726e6f72566f74696e6753696d706c653a20696e76616c69642076616044820152746c756520666f7220656e756d20566f74655479706560581b6064820152608401610b0a565b8154600160801b90819004600f0b6000818152600180860160205260409091209390935583546001600160801b03908116939091011602179055565b6060831561264f575081611256565b82511561265f5782518084602001fd5b8160405162461bcd60e51b8152600401610b0a9190612af3565b60006001600160401b038211156126e15760405162461bcd60e51b815260206004820152602660248201527f53616665436173743a2076616c756520646f65736e27742066697420696e203660448201526534206269747360d01b6064820152608401610b0a565b5090565b6060824710156127465760405162461bcd60e51b815260206004820152602660248201527f416464726573733a20696e73756666696369656e742062616c616e636520666f6044820152651c8818d85b1b60d21b6064820152608401610b0a565b6001600160a01b0385163b61279d5760405162461bcd60e51b815260206004820152601d60248201527f416464726573733a2063616c6c20746f206e6f6e2d636f6e74726163740000006044820152606401610b0a565b600080866001600160a01b031685876040516127b991906134fc565b60006040518083038185875af1925050503d80600081146127f6576040519150601f19603f3d011682016040523d82523d6000602084013e6127fb565b606091505b5091509150610e38828286612640565b82805461281790613269565b90600052602060002090601f016020900481019282612839576000855561287f565b82601f1061285257805160ff191683800117855561287f565b8280016001018555821561287f579182015b8281111561287f578251825591602001919060010190612864565b506126e19291505b808211156126e15760008155600101612887565b6000602082840312156128ad57600080fd5b81356001600160e01b03198116811461125657600080fd5b803560ff811681146128d657600080fd5b919050565b60008083601f8401126128ed57600080fd5b5081356001600160401b0381111561290457600080fd5b60208301915083602082850101111561291c57600080fd5b9250929050565b634e487b7160e01b600052604160045260246000fd5b604051601f8201601f191681016001600160401b038111828210171561296157612961612923565b604052919050565b600082601f83011261297a57600080fd5b81356001600160401b0381111561299357612993612923565b6129a6601f8201601f1916602001612939565b8181528460208386010111156129bb57600080fd5b816020850160208301376000918101602001919091529392505050565b60008060008060008060008060e0898b0312156129f457600080fd5b88359750612a0460208a016128c5565b965060408901356001600160401b0380821115612a2057600080fd5b612a2c8c838d016128db565b909850965060608b0135915080821115612a4557600080fd5b50612a528b828c01612969565b945050612a6160808a016128c5565b925060a0890135915060c089013590509295985092959890939650565b600060208284031215612a9057600080fd5b5035919050565b60005b83811015612ab2578181015183820152602001612a9a565b83811115612ac1576000848401525b50505050565b60008151808452612adf816020860160208601612a97565b601f01601f19169290920160200192915050565b6020815260006112566020830184612ac7565b80356001600160a01b03811681146128d657600080fd5b60008060008060808587031215612b3357600080fd5b612b3c85612b06565b9350612b4a60208601612b06565b92506040850135915060608501356001600160401b03811115612b6c57600080fd5b612b7887828801612969565b91505092959194509250565b60006001600160401b03821115612b9d57612b9d612923565b5060051b60200190565b600082601f830112612bb857600080fd5b81356020612bcd612bc883612b84565b612939565b82815260059290921b84018101918181019086841115612bec57600080fd5b8286015b84811015612c0e57612c0181612b06565b8352918301918301612bf0565b509695505050505050565b600082601f830112612c2a57600080fd5b81356020612c3a612bc883612b84565b82815260059290921b84018101918181019086841115612c5957600080fd5b8286015b84811015612c0e5780358352918301918301612c5d565b600082601f830112612c8557600080fd5b81356020612c95612bc883612b84565b82815260059290921b84018101918181019086841115612cb457600080fd5b8286015b84811015612c0e5780356001600160401b03811115612cd75760008081fd5b612ce58986838b0101612969565b845250918301918301612cb8565b60008060008060808587031215612d0957600080fd5b84356001600160401b0380821115612d2057600080fd5b612d2c88838901612ba7565b95506020870135915080821115612d4257600080fd5b612d4e88838901612c19565b94506040870135915080821115612d6457600080fd5b50612d7187828801612c74565b949793965093946060013593505050565b600080600080600060a08688031215612d9a57600080fd5b85359450612daa602087016128c5565b9350612db8604087016128c5565b94979396509394606081013594506080013592915050565b634e487b7160e01b600052602160045260246000fd5b6020810160088310612e0857634e487b7160e01b600052602160045260246000fd5b91905290565b60008060408385031215612e2157600080fd5b82359150612e3160208401612b06565b90509250929050565b60008060408385031215612e4d57600080fd5b82359150612e31602084016128c5565b600080600080600060808688031215612e7557600080fd5b85359450612e85602087016128c5565b935060408601356001600160401b0380821115612ea157600080fd5b612ead89838a016128db565b90955093506060880135915080821115612ec657600080fd5b50612ed388828901612969565b9150509295509295909350565b60008060408385031215612ef357600080fd5b8235915060208301356001600160401b03811115612f1057600080fd5b612f1c85828601612969565b9150509250929050565b60008060008060608587031215612f3c57600080fd5b84359350612f4c602086016128c5565b925060408501356001600160401b03811115612f6757600080fd5b612f73878288016128db565b95989497509550505050565b60008060008060808587031215612f9557600080fd5b84356001600160401b0380821115612fac57600080fd5b612fb888838901612ba7565b95506020870135915080821115612fce57600080fd5b612fda88838901612c19565b94506040870135915080821115612ff057600080fd5b612ffc88838901612c74565b9350606087013591508082111561301257600080fd5b50612b7887828801612969565b60008060006060848603121561303457600080fd5b61303d84612b06565b92506020840135915060408401356001600160401b0381111561305f57600080fd5b61306b86828701612969565b9150509250925092565b60006020828403121561308757600080fd5b81356001600160401b0381111561309d57600080fd5b61101a84828501612969565b600080600080600060a086880312156130c157600080fd5b6130ca86612b06565b94506130d860208701612b06565b935060408601356001600160401b03808211156130f457600080fd5b61310089838a01612c19565b9450606088013591508082111561311657600080fd5b61312289838a01612c19565b93506080880135915080821115612ec657600080fd5b6000806000806060858703121561314e57600080fd5b61315785612b06565b93506020850135925060408501356001600160401b03811115612f6757600080fd5b6000806040838503121561318c57600080fd5b61319583612b06565b946020939093013593505050565b600080600080600060a086880312156131bb57600080fd5b6131c486612b06565b94506131d260208701612b06565b9350604086013592506060860135915060808601356001600160401b038111156131fb57600080fd5b612ed388828901612969565b60006020828403121561321957600080fd5b61125682612b06565b8183823760009101908152919050565b60208082526018908201527f476f7665726e6f723a206f6e6c79476f7665726e616e63650000000000000000604082015260600190565b600181811c9082168061327d57607f821691505b6020821081141561329e57634e487b7160e01b600052602260045260246000fd5b50919050565b6020808252818101527f4f776e61626c653a2063616c6c6572206973206e6f7420746865206f776e6572604082015260600190565b634e487b7160e01b600052601160045260246000fd5b6000600019821415613303576133036132d9565b5060010190565b600081518084526020808501945080840160005b838110156133435781516001600160a01b03168752958201959082019060010161331e565b509495945050505050565b600081518084526020808501945080840160005b8381101561334357815187529582019590820190600101613362565b600081518084526020808501808196508360051b8101915082860160005b858110156133c65782840389526133b4848351612ac7565b9885019893509084019060010161339c565b5091979650505050505050565b6080815260006133e6608083018761330a565b82810360208401526133f8818761334e565b9050828103604084015261340c818661337e565b91505082606083015295945050505050565b60006020828403121561343057600080fd5b5051919050565b6000816000190483118215151615613451576134516132d9565b500290565b60008261347357634e487b7160e01b600052601260045260246000fd5b500490565b84815260ff84166020820152826040820152608060608201526000610fe06080830184612ac7565b85815260ff8516602082015283604082015260a0606082015260006134c860a0830185612ac7565b82810360808401526134da8185612ac7565b98975050505050505050565b634e487b7160e01b600052603260045260246000fd5b6000825161350e818460208701612a97565b9190910192915050565b6000821982111561352b5761352b6132d9565b500190565b600082821015613542576135426132d9565b500390565b60208082526021908201527f476f7665726e6f723a20696e76616c69642070726f706f73616c206c656e67746040820152600d60fb1b606082015260800190565b60006001600160401b038083168185168083038211156135aa576135aa6132d9565b01949350505050565b60006101208b8352602060018060a01b038c16818501528160408501526135dc8285018c61330a565b915083820360608501526135f0828b61334e565b915083820360808501528189518084528284019150828160051b850101838c0160005b8381101561364157601f1987840301855261362f838351612ac7565b94860194925090850190600101613613565b505086810360a0880152613655818c61337e565b94505050505061367060c08401876001600160401b03169052565b6001600160401b03851660e08401528281036101008401526136928185612ac7565b9c9b50505050505050505050505056fe476f7665726e6f723a2063616c6c20726576657274656420776974686f7574206d657373616765416464726573733a206c6f772d6c6576656c2063616c6c20776974682076616c7565206661696c6564a2646970667358221220115e7eb37da1b987bee2451c8fc0e4a701cc845a23a2241221110391e1decc6f64736f6c63430008090033",
  "linkReferences": {},
  "deployedLinkReferences": {}
}