{
  "_format": "hh-sol-artifact-1",
  "contractName": "GovernorContract",
  "sourceName": "contracts/GovernorContract.sol",
  "abi": [
    {
      "inputs": [
        {
          "internalType": "string",
          "name": "name_",
          "type": "string"
        },
        {
          "internalType": "contract IVotes",
          "name": "token_",
          "type": "address"
        },
        {
          "internalType": "uint256",
          "name": "votingPeriod_",
          "type": "uint256"
        },
        {
          "internalType": "uint256",
          "name": "quorumPercentage_",
          "type": "uint256"
        }
      ],
      "stateMutability": "nonpayable",
      "type": "constructor"
    },
    {
      "inputs": [],
      "name": "Empty",
      "type": "error"
    },
    {
      "anonymous": false,
      "inputs": [
        {
          "indexed": true,
          "internalType": "address",
          "name": "previousOwner",
          "type": "address"
        },
        {
          "indexed": true,
          "internalType": "address",
          "name": "newOwner",
          "type": "address"
        }
      ],
      "name": "OwnershipTransferred",
      "type": "event"
    },
    {
      "anonymous": false,
      "inputs": [
        {
          "indexed": false,
          "internalType": "uint256",
          "name": "proposalId",
          "type": "uint256"
        }
      ],
      "name": "ProposalCanceled",
      "type": "event"
    },
    {
      "anonymous": false,
      "inputs": [
        {
          "indexed": false,
          "internalType": "uint256",
          "name": "proposalId",
          "type": "uint256"
        },
        {
          "indexed": false,
          "internalType": "address",
          "name": "proposer",
          "type": "address"
        },
        {
          "indexed": false,
          "internalType": "address[]",
          "name": "targets",
          "type": "address[]"
        },
        {
          "indexed": false,
          "internalType": "uint256[]",
          "name": "values",
          "type": "uint256[]"
        },
        {
          "indexed": false,
          "internalType": "string[]",
          "name": "signatures",
          "type": "string[]"
        },
        {
          "indexed": false,
          "internalType": "bytes[]",
          "name": "calldatas",
          "type": "bytes[]"
        },
        {
          "indexed": false,
          "internalType": "uint256",
          "name": "startBlock",
          "type": "uint256"
        },
        {
          "indexed": false,
          "internalType": "uint256",
          "name": "endBlock",
          "type": "uint256"
        },
        {
          "indexed": false,
          "internalType": "string",
          "name": "description",
          "type": "string"
        }
      ],
      "name": "ProposalCreated",
      "type": "event"
    },
    {
      "anonymous": false,
      "inputs": [
        {
          "indexed": false,
          "internalType": "uint256",
          "name": "proposalId",
          "type": "uint256"
        }
      ],
      "name": "ProposalExecuted",
      "type": "event"
    },
    {
      "anonymous": false,
      "inputs": [
        {
          "indexed": false,
          "internalType": "uint256",
          "name": "oldProposalThreshold",
          "type": "uint256"
        },
        {
          "indexed": false,
          "internalType": "uint256",
          "name": "newProposalThreshold",
          "type": "uint256"
        }
      ],
      "name": "ProposalThresholdSet",
      "type": "event"
    },
    {
      "anonymous": false,
      "inputs": [
        {
          "indexed": false,
          "internalType": "uint256",
          "name": "oldQuorumNumerator",
          "type": "uint256"
        },
        {
          "indexed": false,
          "internalType": "uint256",
          "name": "newQuorumNumerator",
          "type": "uint256"
        }
      ],
      "name": "QuorumNumeratorUpdated",
      "type": "event"
    },
    {
      "anonymous": false,
      "inputs": [
        {
          "indexed": true,
          "internalType": "address",
          "name": "voter",
          "type": "address"
        },
        {
          "indexed": false,
          "internalType": "uint256",
          "name": "proposalId",
          "type": "uint256"
        },
        {
          "indexed": false,
          "internalType": "uint8",
          "name": "support",
          "type": "uint8"
        },
        {
          "indexed": false,
          "internalType": "uint256",
          "name": "weight",
          "type": "uint256"
        },
        {
          "indexed": false,
          "internalType": "string",
          "name": "reason",
          "type": "string"
        }
      ],
      "name": "VoteCast",
      "type": "event"
    },
    {
      "anonymous": false,
      "inputs": [
        {
          "indexed": true,
          "internalType": "address",
          "name": "voter",
          "type": "address"
        },
        {
          "indexed": false,
          "internalType": "uint256",
          "name": "proposalId",
          "type": "uint256"
        },
        {
          "indexed": false,
          "internalType": "uint8",
          "name": "support",
          "type": "uint8"
        },
        {
          "indexed": false,
          "internalType": "uint256",
          "name": "weight",
          "type": "uint256"
        },
        {
          "indexed": false,
          "internalType": "string",
          "name": "reason",
          "type": "string"
        },
        {
          "indexed": false,
          "internalType": "bytes",
          "name": "params",
          "type": "bytes"
        }
      ],
      "name": "VoteCastWithParams",
      "type": "event"
    },
    {
      "anonymous": false,
      "inputs": [
        {
          "indexed": false,
          "internalType": "uint256",
          "name": "oldVotingDelay",
          "type": "uint256"
        },
        {
          "indexed": false,
          "internalType": "uint256",
          "name": "newVotingDelay",
          "type": "uint256"
        }
      ],
      "name": "VotingDelaySet",
      "type": "event"
    },
    {
      "anonymous": false,
      "inputs": [
        {
          "indexed": false,
          "internalType": "uint256",
          "name": "oldVotingPeriod",
          "type": "uint256"
        },
        {
          "indexed": false,
          "internalType": "uint256",
          "name": "newVotingPeriod",
          "type": "uint256"
        }
      ],
      "name": "VotingPeriodSet",
      "type": "event"
    },
    {
      "inputs": [],
      "name": "BALLOT_TYPEHASH",
      "outputs": [
        {
          "internalType": "bytes32",
          "name": "",
          "type": "bytes32"
        }
      ],
      "stateMutability": "view",
      "type": "function"
    },
    {
      "inputs": [],
      "name": "COUNTING_MODE",
      "outputs": [
        {
          "internalType": "string",
          "name": "",
          "type": "string"
        }
      ],
      "stateMutability": "pure",
      "type": "function"
    },
    {
      "inputs": [],
      "name": "EXTENDED_BALLOT_TYPEHASH",
      "outputs": [
        {
          "internalType": "bytes32",
          "name": "",
          "type": "bytes32"
        }
      ],
      "stateMutability": "view",
      "type": "function"
    },
    {
      "inputs": [
        {
          "internalType": "contract IVotes",
          "name": "tokenAddress",
          "type": "address"
        }
      ],
      "name": "addToken",
      "outputs": [],
      "stateMutability": "nonpayable",
      "type": "function"
    },
    {
      "inputs": [
        {
          "internalType": "contract IVotes",
          "name": "",
          "type": "address"
        }
      ],
      "name": "addressIsAlreadyExist",
      "outputs": [
        {
          "internalType": "bool",
          "name": "",
          "type": "bool"
        }
      ],
      "stateMutability": "view",
      "type": "function"
    },
    {
      "inputs": [
        {
          "internalType": "address[]",
          "name": "targets",
          "type": "address[]"
        },
        {
          "internalType": "uint256[]",
          "name": "values",
          "type": "uint256[]"
        },
        {
          "internalType": "bytes[]",
          "name": "calldatas",
          "type": "bytes[]"
        },
        {
          "internalType": "bytes32",
          "name": "descriptionHash",
          "type": "bytes32"
        }
      ],
      "name": "cancel",
      "outputs": [
        {
          "internalType": "uint256",
          "name": "",
          "type": "uint256"
        }
      ],
      "stateMutability": "nonpayable",
      "type": "function"
    },
    {
      "inputs": [
        {
          "internalType": "uint256",
          "name": "proposalId",
          "type": "uint256"
        },
        {
          "internalType": "uint8",
          "name": "support",
          "type": "uint8"
        }
      ],
      "name": "castVote",
      "outputs": [
        {
          "internalType": "uint256",
          "name": "",
          "type": "uint256"
        }
      ],
      "stateMutability": "nonpayable",
      "type": "function"
    },
    {
      "inputs": [
        {
          "internalType": "uint256",
          "name": "proposalId",
          "type": "uint256"
        },
        {
          "internalType": "uint8",
          "name": "support",
          "type": "uint8"
        },
        {
          "internalType": "string",
          "name": "reason",
          "type": "string"
        }
      ],
      "name": "castVoteWithReason",
      "outputs": [
        {
          "internalType": "uint256",
          "name": "",
          "type": "uint256"
        }
      ],
      "stateMutability": "nonpayable",
      "type": "function"
    },
    {
      "inputs": [
        {
          "internalType": "address[]",
          "name": "targets",
          "type": "address[]"
        },
        {
          "internalType": "uint256[]",
          "name": "values",
          "type": "uint256[]"
        },
        {
          "internalType": "bytes[]",
          "name": "calldatas",
          "type": "bytes[]"
        },
        {
          "internalType": "bytes32",
          "name": "descriptionHash",
          "type": "bytes32"
        }
      ],
      "name": "execute",
      "outputs": [
        {
          "internalType": "uint256",
          "name": "",
          "type": "uint256"
        }
      ],
      "stateMutability": "payable",
      "type": "function"
    },
    {
      "inputs": [],
      "name": "getExecutedProposals",
      "outputs": [
        {
          "internalType": "uint256",
          "name": "",
          "type": "uint256"
        }
      ],
      "stateMutability": "view",
      "type": "function"
    },
    {
      "inputs": [
        {
          "internalType": "uint256",
          "name": "proposalId",
          "type": "uint256"
        }
      ],
      "name": "getProposalTokenAddress",
      "outputs": [
        {
          "internalType": "contract IVotes",
          "name": "",
          "type": "address"
        }
      ],
      "stateMutability": "view",
      "type": "function"
    },
    {
      "inputs": [
        {
          "internalType": "uint256",
          "name": "proposalId",
          "type": "uint256"
        }
      ],
      "name": "getProposer",
      "outputs": [
        {
          "internalType": "address",
          "name": "",
          "type": "address"
        }
      ],
      "stateMutability": "view",
      "type": "function"
    },
    {
      "inputs": [
        {
          "internalType": "uint8",
          "name": "index",
          "type": "uint8"
        }
      ],
      "name": "getTokenElement",
      "outputs": [
        {
          "internalType": "contract IVotes",
          "name": "",
          "type": "address"
        }
      ],
      "stateMutability": "view",
      "type": "function"
    },
    {
      "inputs": [],
      "name": "getTokensLength",
      "outputs": [
        {
          "internalType": "uint256",
          "name": "",
          "type": "uint256"
        }
      ],
      "stateMutability": "view",
      "type": "function"
    },
    {
      "inputs": [],
      "name": "getTotalProposals",
      "outputs": [
        {
          "internalType": "uint256",
          "name": "",
          "type": "uint256"
        }
      ],
      "stateMutability": "view",
      "type": "function"
    },
    {
      "inputs": [
        {
          "internalType": "address",
          "name": "account",
          "type": "address"
        },
        {
          "internalType": "uint256",
          "name": "blockNumber",
          "type": "uint256"
        },
        {
          "internalType": "contract IVotes",
          "name": "tokenAddress",
          "type": "address"
        }
      ],
      "name": "getVotes",
      "outputs": [
        {
          "internalType": "uint256",
          "name": "",
          "type": "uint256"
        }
      ],
      "stateMutability": "view",
      "type": "function"
    },
    {
      "inputs": [],
      "name": "governorInfoURI",
      "outputs": [
        {
          "internalType": "string",
          "name": "",
          "type": "string"
        }
      ],
      "stateMutability": "view",
      "type": "function"
    },
    {
      "inputs": [
        {
          "internalType": "uint256",
          "name": "proposalId",
          "type": "uint256"
        },
        {
          "internalType": "address",
          "name": "account",
          "type": "address"
        }
      ],
      "name": "hasVoted",
      "outputs": [
        {
          "internalType": "bool",
          "name": "",
          "type": "bool"
        }
      ],
      "stateMutability": "view",
      "type": "function"
    },
    {
      "inputs": [
        {
          "internalType": "address[]",
          "name": "targets",
          "type": "address[]"
        },
        {
          "internalType": "uint256[]",
          "name": "values",
          "type": "uint256[]"
        },
        {
          "internalType": "bytes[]",
          "name": "calldatas",
          "type": "bytes[]"
        },
        {
          "internalType": "bytes32",
          "name": "descriptionHash",
          "type": "bytes32"
        }
      ],
      "name": "hashProposal",
      "outputs": [
        {
          "internalType": "uint256",
          "name": "",
          "type": "uint256"
        }
      ],
      "stateMutability": "pure",
      "type": "function"
    },
    {
      "inputs": [],
      "name": "incrementExecutedProposals",
      "outputs": [],
      "stateMutability": "nonpayable",
      "type": "function"
    },
    {
      "inputs": [],
      "name": "name",
      "outputs": [
        {
          "internalType": "string",
          "name": "",
          "type": "string"
        }
      ],
      "stateMutability": "view",
      "type": "function"
    },
    {
      "inputs": [
        {
          "internalType": "address",
          "name": "",
          "type": "address"
        },
        {
          "internalType": "address",
          "name": "",
          "type": "address"
        },
        {
          "internalType": "uint256[]",
          "name": "",
          "type": "uint256[]"
        },
        {
          "internalType": "uint256[]",
          "name": "",
          "type": "uint256[]"
        },
        {
          "internalType": "bytes",
          "name": "",
          "type": "bytes"
        }
      ],
      "name": "onERC1155BatchReceived",
      "outputs": [
        {
          "internalType": "bytes4",
          "name": "",
          "type": "bytes4"
        }
      ],
      "stateMutability": "nonpayable",
      "type": "function"
    },
    {
      "inputs": [
        {
          "internalType": "address",
          "name": "",
          "type": "address"
        },
        {
          "internalType": "address",
          "name": "",
          "type": "address"
        },
        {
          "internalType": "uint256",
          "name": "",
          "type": "uint256"
        },
        {
          "internalType": "uint256",
          "name": "",
          "type": "uint256"
        },
        {
          "internalType": "bytes",
          "name": "",
          "type": "bytes"
        }
      ],
      "name": "onERC1155Received",
      "outputs": [
        {
          "internalType": "bytes4",
          "name": "",
          "type": "bytes4"
        }
      ],
      "stateMutability": "nonpayable",
      "type": "function"
    },
    {
      "inputs": [
        {
          "internalType": "address",
          "name": "",
          "type": "address"
        },
        {
          "internalType": "address",
          "name": "",
          "type": "address"
        },
        {
          "internalType": "uint256",
          "name": "",
          "type": "uint256"
        },
        {
          "internalType": "bytes",
          "name": "",
          "type": "bytes"
        }
      ],
      "name": "onERC721Received",
      "outputs": [
        {
          "internalType": "bytes4",
          "name": "",
          "type": "bytes4"
        }
      ],
      "stateMutability": "nonpayable",
      "type": "function"
    },
    {
      "inputs": [],
      "name": "owner",
      "outputs": [
        {
          "internalType": "address",
          "name": "",
          "type": "address"
        }
      ],
      "stateMutability": "view",
      "type": "function"
    },
    {
      "inputs": [
        {
          "internalType": "uint256",
          "name": "proposalId",
          "type": "uint256"
        }
      ],
      "name": "proposalDeadline",
      "outputs": [
        {
          "internalType": "uint256",
          "name": "",
          "type": "uint256"
        }
      ],
      "stateMutability": "view",
      "type": "function"
    },
    {
      "inputs": [
        {
          "internalType": "uint256",
          "name": "proposalId",
          "type": "uint256"
        }
      ],
      "name": "proposalInfoURI",
      "outputs": [
        {
          "internalType": "string",
          "name": "",
          "type": "string"
        }
      ],
      "stateMutability": "view",
      "type": "function"
    },
    {
      "inputs": [
        {
          "internalType": "uint256",
          "name": "proposalId",
          "type": "uint256"
        }
      ],
      "name": "proposalSnapshot",
      "outputs": [
        {
          "internalType": "uint256",
          "name": "",
          "type": "uint256"
        }
      ],
      "stateMutability": "view",
      "type": "function"
    },
    {
      "inputs": [],
      "name": "proposalThreshold",
      "outputs": [
        {
          "internalType": "uint256",
          "name": "",
          "type": "uint256"
        }
      ],
      "stateMutability": "view",
      "type": "function"
    },
    {
      "inputs": [
        {
          "internalType": "uint256",
          "name": "proposalId",
          "type": "uint256"
        }
      ],
      "name": "proposalVotes",
      "outputs": [
        {
          "internalType": "uint256",
          "name": "againstVotes",
          "type": "uint256"
        },
        {
          "internalType": "uint256",
          "name": "forVotes",
          "type": "uint256"
        },
        {
          "internalType": "uint256",
          "name": "abstainVotes",
          "type": "uint256"
        }
      ],
      "stateMutability": "view",
      "type": "function"
    },
    {
      "inputs": [
        {
          "internalType": "address[]",
          "name": "targets",
          "type": "address[]"
        },
        {
          "internalType": "uint256[]",
          "name": "values",
          "type": "uint256[]"
        },
        {
          "internalType": "bytes[]",
          "name": "calldatas",
          "type": "bytes[]"
        },
        {
          "internalType": "string",
          "name": "description",
          "type": "string"
        },
        {
          "internalType": "contract IVotes",
          "name": "tokenAddress",
          "type": "address"
        }
      ],
      "name": "propose",
      "outputs": [
        {
          "internalType": "uint256",
          "name": "",
          "type": "uint256"
        }
      ],
      "stateMutability": "nonpayable",
      "type": "function"
    },
    {
      "inputs": [
        {
          "internalType": "uint256",
          "name": "blockNumber",
          "type": "uint256"
        },
        {
          "internalType": "contract IVotes",
          "name": "tokenAddress",
          "type": "address"
        }
      ],
      "name": "quorum",
      "outputs": [
        {
          "internalType": "uint256",
          "name": "",
          "type": "uint256"
        }
      ],
      "stateMutability": "view",
      "type": "function"
    },
    {
      "inputs": [],
      "name": "quorumDenominator",
      "outputs": [
        {
          "internalType": "uint256",
          "name": "",
          "type": "uint256"
        }
      ],
      "stateMutability": "view",
      "type": "function"
    },
    {
      "inputs": [
        {
          "internalType": "uint256",
          "name": "blockNumber",
          "type": "uint256"
        }
      ],
      "name": "quorumNumerator",
      "outputs": [
        {
          "internalType": "uint256",
          "name": "",
          "type": "uint256"
        }
      ],
      "stateMutability": "view",
      "type": "function"
    },
    {
      "inputs": [],
      "name": "quorumNumerator",
      "outputs": [
        {
          "internalType": "uint256",
          "name": "",
          "type": "uint256"
        }
      ],
      "stateMutability": "view",
      "type": "function"
    },
    {
      "inputs": [
        {
          "internalType": "address",
          "name": "target",
          "type": "address"
        },
        {
          "internalType": "uint256",
          "name": "value",
          "type": "uint256"
        },
        {
          "internalType": "bytes",
          "name": "data",
          "type": "bytes"
        }
      ],
      "name": "relay",
      "outputs": [],
      "stateMutability": "nonpayable",
      "type": "function"
    },
    {
      "inputs": [],
      "name": "renounceOwnership",
      "outputs": [],
      "stateMutability": "nonpayable",
      "type": "function"
    },
    {
      "inputs": [
        {
          "internalType": "string",
          "name": "newInfoURI",
          "type": "string"
        }
      ],
      "name": "setGovernorInfoURI",
      "outputs": [],
      "stateMutability": "nonpayable",
      "type": "function"
    },
    {
      "inputs": [
        {
          "internalType": "uint256",
          "name": "proposalId",
          "type": "uint256"
        },
        {
          "internalType": "string",
          "name": "infoURI",
          "type": "string"
        }
      ],
      "name": "setProposalInfoURI",
      "outputs": [],
      "stateMutability": "nonpayable",
      "type": "function"
    },
    {
      "inputs": [
        {
          "internalType": "uint256",
          "name": "newProposalThreshold",
          "type": "uint256"
        }
      ],
      "name": "setProposalThreshold",
      "outputs": [],
      "stateMutability": "nonpayable",
      "type": "function"
    },
    {
      "inputs": [
        {
          "internalType": "uint256",
          "name": "newVotingDelay",
          "type": "uint256"
        }
      ],
      "name": "setVotingDelay",
      "outputs": [],
      "stateMutability": "nonpayable",
      "type": "function"
    },
    {
      "inputs": [
        {
          "internalType": "uint256",
          "name": "newVotingPeriod",
          "type": "uint256"
        }
      ],
      "name": "setVotingPeriod",
      "outputs": [],
      "stateMutability": "nonpayable",
      "type": "function"
    },
    {
      "inputs": [
        {
          "internalType": "uint256",
          "name": "proposalId",
          "type": "uint256"
        }
      ],
      "name": "state",
      "outputs": [
        {
          "internalType": "enum IGovernorMulti.ProposalState",
          "name": "",
          "type": "uint8"
        }
      ],
      "stateMutability": "view",
      "type": "function"
    },
    {
      "inputs": [
        {
          "internalType": "bytes4",
          "name": "interfaceId",
          "type": "bytes4"
        }
      ],
      "name": "supportsInterface",
      "outputs": [
        {
          "internalType": "bool",
          "name": "",
          "type": "bool"
        }
      ],
      "stateMutability": "view",
      "type": "function"
    },
    {
      "inputs": [
        {
          "internalType": "uint256",
          "name": "",
          "type": "uint256"
        }
      ],
      "name": "token",
      "outputs": [
        {
          "internalType": "contract IVotes",
          "name": "",
          "type": "address"
        }
      ],
      "stateMutability": "view",
      "type": "function"
    },
    {
      "inputs": [
        {
          "internalType": "address",
          "name": "newOwner",
          "type": "address"
        }
      ],
      "name": "transferOwnership",
      "outputs": [],
      "stateMutability": "nonpayable",
      "type": "function"
    },
    {
      "inputs": [
        {
          "internalType": "uint256",
          "name": "newQuorumNumerator",
          "type": "uint256"
        }
      ],
      "name": "updateQuorumNumerator",
      "outputs": [],
      "stateMutability": "nonpayable",
      "type": "function"
    },
    {
      "inputs": [],
      "name": "version",
      "outputs": [
        {
          "internalType": "string",
          "name": "",
          "type": "string"
        }
      ],
      "stateMutability": "pure",
      "type": "function"
    },
    {
      "inputs": [],
      "name": "votingDelay",
      "outputs": [
        {
          "internalType": "uint256",
          "name": "",
          "type": "uint256"
        }
      ],
      "stateMutability": "view",
      "type": "function"
    },
    {
      "inputs": [],
      "name": "votingPeriod",
      "outputs": [
        {
          "internalType": "uint256",
          "name": "",
          "type": "uint256"
        }
      ],
      "stateMutability": "view",
      "type": "function"
    },
    {
      "stateMutability": "payable",
      "type": "receive"
    }
  ],
  "bytecode": "0x6101406040523480156200001257600080fd5b50604051620041f9380380620041f983398101604081905262000035916200084a565b80836001848188806200005e6040805180820190915260038152620322e360ec1b602082015290565b815160208084019190912082518383012060e08290526101008190524660a0818152604080517f8b73c3c69bb8fe3d512ecc4cf759cc79239f7b179b0ffacaa9a75d522b39400f81880181905281830187905260608201869052608082019490945230818401528151808203909301835260c00190528051940193909320919290916080523060c05261012052505082516200010492506000915060208401906200077b565b5062000112905083620001c0565b6200011d8262000201565b6200012881620002a8565b505050620001456200013f620002e960201b60201c565b620002ed565b6009805460018181019092557f6e1540171b6c0c960b71a7020d9f60077f6af931a8bbf590da0223dacf75c7af0180546001600160a01b039093166001600160a01b0319909316831790556000918252600a6020526040909120805460ff19169091179055620001b5816200033f565b5050505050620009c4565b60045460408051918252602082018390527fc565b045403dc03c2eea82b81a0465edad9e2e7fc4d97e11421c209da93d7a93910160405180910390a1600455565b60008111620002675760405162461bcd60e51b815260206004820152602760248201527f476f7665726e6f7253657474696e67733a20766f74696e6720706572696f6420604482015266746f6f206c6f7760c81b60648201526084015b60405180910390fd5b60055460408051918252602082018390527f7e3f7f0708a84de9203036abaa450dccc85ad5ff52f78c170f3edb55cf5e8828910160405180910390a1600555565b60065460408051918252602082018390527fccb45da8d5717e6c4544694297c4ba5cf151d455c9bb0ed4fc7a38411bc05461910160405180910390a1600655565b3390565b600880546001600160a01b038381166001600160a01b0319831681179093556040519116919082907f8be0079c531659141344cd1fd0a4f28419497f9722a3daafe3b4186f6b6457e090600090a35050565b6064811115620003c45760405162461bcd60e51b815260206004820152604360248201527f476f7665726e6f72566f74657351756f72756d4672616374696f6e3a2071756f60448201527f72756d4e756d657261746f72206f7665722071756f72756d44656e6f6d696e616064820152623a37b960e91b608482015260a4016200025e565b6000620003d0620004b7565b90508015801590620003e25750600c54155b156200045d57600c6000016040518060400160405280600063ffffffff1681526020016200041b84620004e660201b620016bb1760201c565b6001600160e01b0390811690915282546001810184556000938452602093849020835194909301519091166401000000000263ffffffff909316929092179101555b6200047882600c6200055560201b620017281790919060201c565b505060408051828152602081018490527f0553476bf02ef2726e8ce5ced78d63e26e602e4a2257b1f559418e24b4633997910160405180910390a15050565b600c5460009015620004df57620004da600c620006b160201b620018531760201c565b905090565b50600b5490565b60006001600160e01b03821115620005515760405162461bcd60e51b815260206004820152602760248201527f53616665436173743a2076616c756520646f65736e27742066697420696e20326044820152663234206269747360c81b60648201526084016200025e565b5090565b81546000908190816200056886620006b1565b9050600082118015620005ac57504386620005856001856200094b565b8154811062000598576200059862000971565b60009182526020909120015463ffffffff16145b156200062057620005c885620004e660201b620016bb1760201c565b86620005d66001856200094b565b81548110620005e957620005e962000971565b9060005260206000200160000160046101000a8154816001600160e01b0302191690836001600160e01b03160217905550620006a8565b85600001604051806040016040528062000645436200071460201b620018af1760201c565b63ffffffff1681526020016200066688620004e660201b620016bb1760201c565b6001600160e01b0390811690915282546001810184556000938452602093849020835194909301519091166401000000000263ffffffff909316929092179101555b95939450505050565b80546000908015620007015782620006cb6001836200094b565b81548110620006de57620006de62000971565b60009182526020909120015464010000000090046001600160e01b031662000704565b60005b6001600160e01b03169392505050565b600063ffffffff821115620005515760405162461bcd60e51b815260206004820152602660248201527f53616665436173743a2076616c756520646f65736e27742066697420696e203360448201526532206269747360d01b60648201526084016200025e565b828054620007899062000987565b90600052602060002090601f016020900481019282620007ad5760008555620007f8565b82601f10620007c857805160ff1916838001178555620007f8565b82800160010185558215620007f8579182015b82811115620007f8578251825591602001919060010190620007db565b50620005519291505b8082111562000551576000815560010162000801565b634e487b7160e01b600052604160045260246000fd5b80516001600160a01b03811681146200084557600080fd5b919050565b600080600080608085870312156200086157600080fd5b84516001600160401b03808211156200087957600080fd5b818701915087601f8301126200088e57600080fd5b815181811115620008a357620008a362000817565b604051601f8201601f19908116603f01168101908382118183101715620008ce57620008ce62000817565b81604052828152602093508a84848701011115620008eb57600080fd5b600091505b828210156200090f5784820184015181830185015290830190620008f0565b82821115620009215760008484830101525b9750620009339150508782016200082d565b60408801516060909801519699909850945050505050565b6000828210156200096c57634e487b7160e01b600052601160045260246000fd5b500390565b634e487b7160e01b600052603260045260246000fd5b600181811c908216806200099c57607f821691505b60208210811415620009be57634e487b7160e01b600052602260045260246000fd5b50919050565b60805160a05160c05160e05161010051610120516137f762000a026000396000505060005050600050506000505060005050600050506137f76000f3fe6080604052600436106102cd5760003560e01c806370b0f66011610175578063be9e815d116100dc578063deaaa7cc11610095578063ece40cc11161006f578063ece40cc114610980578063f23a6e61146109a0578063f2fde38b146109cc578063fab6add9146109ec57600080fd5b8063deaaa7cc146108f6578063e14bd8741461092a578063ea0217cf1461096057600080fd5b8063be9e815d14610800578063c01f9e3714610830578063c28bc2fa14610850578063c59057e414610870578063d48bfca714610890578063dd4e2ba5146108b057600080fd5b806397c3d3341161012e57806397c3d33414610761578063a7713a7014610775578063b0c26ecf1461078a578063b58131b01461079f578063b801c878146107b4578063bc197c81146107d457600080fd5b806370b0f660146106b9578063715018a6146106d95780637b3c71d3146106ee5780637e2bcd951461070e5780638da5cb5b14610723578063977c6eb51461074157600080fd5b80633932abb111610234578063544ffc9c116101ed5780635ab24f59116101c75780635ab24f591461062057806360c4247f14610659578063669b02a1146106795780636b1084a01461069957600080fd5b8063544ffc9c1461057f57806354fd4d50146105d4578063567813881461060057600080fd5b80633932abb11461049e5780633e4f49e6146104b357806343859632146104e0578063452115d61461052a57806348ca392f1461054a5780634b187e341461055f57600080fd5b80631a5007dd116102865780631a5007dd146103ed5780632656227d146104025780632ad5aba6146104155780632d63f693146104355780632fe3e2611461045557806334592a281461048957600080fd5b806301ffc9a7146102db57806302a251a314610310578063044215c61461032f57806306f3f9e61461036757806306fdde0314610387578063150b7a02146103a957600080fd5b366102d657005b005b600080fd5b3480156102e757600080fd5b506102fb6102f6366004612b04565b610a0c565b60405190151581526020015b60405180910390f35b34801561031c57600080fd5b506005545b604051908152602001610307565b34801561033b57600080fd5b5061034f61034a366004612b2e565b610a79565b6040516001600160a01b039091168152602001610307565b34801561037357600080fd5b506102d4610382366004612b2e565b610aa3565b34801561039357600080fd5b5061039c610af3565b6040516103079190612ba3565b3480156103b557600080fd5b506103d46103c4366004612c80565b630a85bd0160e11b949350505050565b6040516001600160e01b03199091168152602001610307565b3480156103f957600080fd5b50601054610321565b610321610410366004612e5c565b610b85565b34801561042157600080fd5b5061039c610430366004612b2e565b610cb7565b34801561044157600080fd5b50610321610450366004612b2e565b610d59565b34801561046157600080fd5b506103217fb3b3f3b703cd84ce352197dcff232b1b5d3cfb2025ce47cf04742d0651f1af8881565b34801561049557600080fd5b50601154610321565b3480156104aa57600080fd5b50600454610321565b3480156104bf57600080fd5b506104d36104ce366004612b2e565b610d90565b6040516103079190612f01565b3480156104ec57600080fd5b506102fb6104fb366004612f29565b60008281526007602090815260408083206001600160a01b038516845260030190915290205460ff1692915050565b34801561053657600080fd5b50610321610545366004612e5c565b610ea5565b34801561055657600080fd5b5061039c610f40565b34801561056b57600080fd5b5061032161057a366004612f59565b610f4f565b34801561058b57600080fd5b506105b961059a366004612b2e565b6000908152600760205260409020805460018201546002909201549092565b60408051938452602084019290925290820152606001610307565b3480156105e057600080fd5b506040805180820190915260038152620322e360ec1b602082015261039c565b34801561060c57600080fd5b5061032161061b366004612fb1565b610f7b565b34801561062c57600080fd5b5061034f61063b366004612b2e565b6000908152600160205260409020600201546001600160a01b031690565b34801561066557600080fd5b50610321610674366004612b2e565b610fa4565b34801561068557600080fd5b50610321610694366004612fdd565b61103a565b3480156106a557600080fd5b506102d46106b436600461309e565b611108565b3480156106c557600080fd5b506102d46106d4366004612b2e565b611181565b3480156106e557600080fd5b506102d46111c5565b3480156106fa57600080fd5b50610321610709366004613125565b6111d9565b34801561071a57600080fd5b506102d4611221565b34801561072f57600080fd5b506008546001600160a01b031661034f565b34801561074d57600080fd5b5061034f61075c36600461317e565b611273565b34801561076d57600080fd5b506064610321565b34801561078157600080fd5b506103216112a6565b34801561079657600080fd5b50600954610321565b3480156107ab57600080fd5b506103216112c7565b3480156107c057600080fd5b506102d46107cf366004613199565b6112d2565b3480156107e057600080fd5b506103d46107ef3660046131cd565b63bc197c8160e01b95945050505050565b34801561080c57600080fd5b506102fb61081b36600461327a565b600a6020526000908152604090205460ff1681565b34801561083c57600080fd5b5061032161084b366004612b2e565b6112f1565b34801561085c57600080fd5b506102d461086b366004613297565b611320565b34801561087c57600080fd5b5061032161088b366004612e5c565b6113a4565b34801561089c57600080fd5b506102d46108ab36600461327a565b6113de565b3480156108bc57600080fd5b506040805180820190915260208082527f737570706f72743d627261766f2671756f72756d3d666f722c6162737461696e9082015261039c565b34801561090257600080fd5b506103217f150214d74d59b7d1e90c73fc22ef3d991dd0a76b046543d4d80ab92d2a50328f81565b34801561093657600080fd5b5061034f610945366004612b2e565b6000908152600d60205260409020546001600160a01b031690565b34801561096c57600080fd5b506102d461097b366004612b2e565b611524565b34801561098c57600080fd5b506102d461099b366004612b2e565b611568565b3480156109ac57600080fd5b506103d46109bb3660046132da565b63f23a6e6160e01b95945050505050565b3480156109d857600080fd5b506102d46109e736600461327a565b6115ac565b3480156109f857600080fd5b50610321610a07366004612f29565b611622565b60006001600160e01b03198216631eef998d60e11b1480610a3d57506001600160e01b03198216631eef998d60e11b145b80610a5857506001600160e01b03198216630271189760e51b145b80610a7357506301ffc9a760e01b6001600160e01b03198316145b92915050565b60098181548110610a8957600080fd5b6000918252602090912001546001600160a01b0316905081565b333014610acb5760405162461bcd60e51b8152600401610ac290613342565b60405180910390fd5b610ae7565b80610adb6002611914565b14610ae557610ad0565b505b610af081611993565b50565b606060008054610b0290613379565b80601f0160208091040260200160405190810160405280929190818152602001828054610b2e90613379565b8015610b7b5780601f10610b5057610100808354040283529160200191610b7b565b820191906000526020600020905b815481529060010190602001808311610b5e57829003601f168201915b5050505050905090565b600080610b94868686866113a4565b90506000610ba182610d90565b90506004816007811115610bb757610bb7612eeb565b1480610bd457506005816007811115610bd257610bd2612eeb565b145b610c2a5760405162461bcd60e51b815260206004820152602160248201527f476f7665726e6f723a2070726f706f73616c206e6f74207375636365737366756044820152601b60fa1b6064820152608401610ac2565b60008281526001602052604090819020600201805460ff60a01b1916600160a01b179055517f712ae1383f79ac853f8d882153778e0260ef8f03b504e2866e0593e04d2b291f90610c7e9084815260200190565b60405180910390a1610c938288888888611ae0565b610ca08288888888611b6d565b610cad8288888888611ae0565b5095945050505050565b6000818152600e60205260409020805460609190610cd490613379565b80601f0160208091040260200160405190810160405280929190818152602001828054610d0090613379565b8015610d4d5780601f10610d2257610100808354040283529160200191610d4d565b820191906000526020600020905b815481529060010190602001808311610d3057829003601f168201915b50505050509050919050565b60008181526001602090815260408083208151928301909152546001600160401b0316908190525b6001600160401b031692915050565b60008181526001602052604081206002810154600160a01b900460ff1615610dbb5750600792915050565b6002810154600160a81b900460ff1615610dd85750600292915050565b6000610de384610d59565b905080610e325760405162461bcd60e51b815260206004820152601d60248201527f476f7665726e6f723a20756e6b6e6f776e2070726f706f73616c2069640000006044820152606401610ac2565b438110610e43575060009392505050565b6000610e4e856112f1565b9050438110610e6257506001949350505050565b610e6b85611c6c565b8015610e8a575060008581526007602052604090208054600190910154115b15610e9a57506004949350505050565b506003949350505050565b600080610eb4868686866113a4565b6000818152600d60205260409020549091506001600160a01b0316331480610ee657506008546001600160a01b031633145b610f2a5760405162461bcd60e51b81526020600482015260156024820152742737ba10383937b837b9b2b91037b91037bbb732b960591b6044820152606401610ac2565b610f3686868686611cc3565b9695505050505050565b6060600f8054610b0290613379565b6000610f71848484610f6c60408051602081019091526000815290565b611de5565b90505b9392505050565b600080339050610f9c84828560405180602001604052806000815250611e72565b949350505050565b600c5460009080610fb9575050600b54919050565b6000600c610fc86001846133ca565b81548110610fd857610fd86133e1565b60009182526020918290206040805180820190915291015463ffffffff81168083526401000000009091046001600160e01b0316928201929092529150841061102f57602001516001600160e01b03169392505050565b610f9c600c85611e95565b6001600160a01b0381166000908152600a6020526040812054829060ff166110b95760405162461bcd60e51b815260206004820152602c60248201527f476f7665726e6f72566f7465733a20416464726573732073686f756c6420616460448201526b64656420696e746f2044414f60a01b6064820152608401610ac2565b60006110c88888888888611fa4565b6000818152600d6020526040812080546001600160a01b0319163317905560108054929350906110f7836133f7565b909155509098975050505050505050565b6000828152600d60205260409020546001600160a01b0316331461115d5760405162461bcd60e51b815260206004820152600c60248201526b2737ba10383937b837b9b2b960a11b6044820152606401610ac2565b6000828152600e60209081526040909120825161117c92840190612a74565b505050565b3330146111a05760405162461bcd60e51b8152600401610ac290613342565b6111bc565b806111b06002611914565b146111ba576111a5565b505b610af08161228d565b6111cd6122ce565b6111d76000612328565b565b600080339050610f3686828787878080601f016020809104026020016040519081016040528093929190818152602001838380828437600092019190915250611e7292505050565b3330146112405760405162461bcd60e51b8152600401610ac290613342565b61125c565b806112506002611914565b1461125a57611245565b505b6011805490600061126c836133f7565b9190505550565b600060098260ff168154811061128b5761128b6133e1565b6000918252602090912001546001600160a01b031692915050565b600c54600090156112c0576112bb600c611853565b905090565b50600b5490565b60006112bb60065490565b6112da6122ce565b80516112ed90600f906020840190612a74565b5050565b60008181526001602081815260408084208151928301909152909101546001600160401b031690819052610d81565b33301461133f5760405162461bcd60e51b8152600401610ac290613342565b61135b565b8061134f6002611914565b1461135957611344565b505b61139d8483838080601f01602080910402602001604051908101604052809392919081815260200183838082843760009201919091525088925061237a915050565b5050505050565b6000848484846040516020016113bd94939291906134db565b60408051601f19818403018152919052805160209091012095945050505050565b6113e66122ce565b6001600160a01b0381166000908152600a6020526040902054819060ff16156114665760405162461bcd60e51b815260206004820152602c60248201527f476f7665726e6f72566f7465733a20546869732061646472657373206973206160448201526b1b1c9958591e48195e1a5cdd60a21b6064820152608401610ac2565b6001600160a01b0382166114bc5760405162461bcd60e51b815260206004820152601760248201527f416464726573732073686f756c64206e6f6e2d7a65726f0000000000000000006044820152606401610ac2565b506009805460018181019092557f6e1540171b6c0c960b71a7020d9f60077f6af931a8bbf590da0223dacf75c7af0180546001600160a01b039093166001600160a01b0319909316831790556000918252600a6020526040909120805460ff19169091179055565b3330146115435760405162461bcd60e51b8152600401610ac290613342565b61155f565b806115536002611914565b1461155d57611548565b505b610af0816123a0565b3330146115875760405162461bcd60e51b8152600401610ac290613342565b6115a3565b806115976002611914565b146115a15761158c565b505b610af081612441565b6115b46122ce565b6001600160a01b0381166116195760405162461bcd60e51b815260206004820152602660248201527f4f776e61626c653a206e6577206f776e657220697320746865207a65726f206160448201526564647265737360d01b6064820152608401610ac2565b610af081612328565b6000606461162f84610fa4565b604051632394e7a360e21b8152600481018690526001600160a01b03851690638e539e8c9060240160206040518083038186803b15801561166f57600080fd5b505afa158015611683573d6000803e3d6000fd5b505050506040513d601f19601f820116820180604052508101906116a79190613526565b6116b1919061353f565b610f74919061355e565b60006001600160e01b038211156117245760405162461bcd60e51b815260206004820152602760248201527f53616665436173743a2076616c756520646f65736e27742066697420696e20326044820152663234206269747360c81b6064820152608401610ac2565b5090565b815460009081908161173986611853565b9050600082118015611777575043866117536001856133ca565b81548110611763576117636133e1565b60009182526020909120015463ffffffff16145b156117d757611785856116bb565b866117916001856133ca565b815481106117a1576117a16133e1565b9060005260206000200160000160046101000a8154816001600160e01b0302191690836001600160e01b03160217905550611845565b8560000160405180604001604052806117ef436118af565b63ffffffff168152602001611803886116bb565b6001600160e01b0390811690915282546001810184556000938452602093849020835194909301519091166401000000000263ffffffff909316929092179101555b9250839150505b9250929050565b8054600090801561189c578261186a6001836133ca565b8154811061187a5761187a6133e1565b60009182526020909120015464010000000090046001600160e01b031661189f565b60005b6001600160e01b03169392505050565b600063ffffffff8211156117245760405162461bcd60e51b815260206004820152602660248201527f53616665436173743a2076616c756520646f65736e27742066697420696e203360448201526532206269747360d01b6064820152608401610ac2565b600061192f8254600f81810b600160801b909204900b131590565b1561194d57604051631ed9509560e11b815260040160405180910390fd5b508054600f0b6000818152600180840160205260408220805492905583546fffffffffffffffffffffffffffffffff191692016001600160801b03169190911790915590565b6064811115611a165760405162461bcd60e51b815260206004820152604360248201527f476f7665726e6f72566f74657351756f72756d4672616374696f6e3a2071756f60448201527f72756d4e756d657261746f72206f7665722071756f72756d44656e6f6d696e616064820152623a37b960e91b608482015260a401610ac2565b6000611a206112a6565b90508015801590611a315750600c54155b15611a96576040805180820190915260008152600c9060208101611a54846116bb565b6001600160e01b0390811690915282546001810184556000938452602093849020835194909301519091166401000000000263ffffffff909316929092179101555b611aa1600c83611728565b505060408051828152602081018490527f0553476bf02ef2726e8ce5ced78d63e26e602e4a2257b1f559418e24b4633997910160405180910390a15050565b61139d565b8451811015611b6557306001600160a01b0316858281518110611b0a57611b0a6133e1565b60200260200101516001600160a01b03161415611b5557611b55838281518110611b3657611b366133e1565b602002602001015180519060200120600261248290919063ffffffff16565b611b5e816133f7565b9050611ae5565b505050505050565b600060405180606001604052806027815260200161377260279139905060005b8551811015611c6357600080878381518110611bab57611bab6133e1565b60200260200101516001600160a01b0316878481518110611bce57611bce6133e1565b6020026020010151878581518110611be857611be86133e1565b6020026020010151604051611bfd9190613580565b60006040518083038185875af1925050503d8060008114611c3a576040519150601f19603f3d011682016040523d82523d6000602084013e611c3f565b606091505b5091509150611c4f8282866124be565b50505080611c5c906133f7565b9050611b8d565b50505050505050565b600081815260076020526040812060028101546001820154611c8e919061359c565b611cba611c9a85610d59565b6000868152600160205260409020600201546001600160a01b0316611622565b11159392505050565b600080611cd2868686866113a4565b90506000611cdf82610d90565b90506002816007811115611cf557611cf5612eeb565b14158015611d1557506006816007811115611d1257611d12612eeb565b14155b8015611d3357506007816007811115611d3057611d30612eeb565b14155b611d7f5760405162461bcd60e51b815260206004820152601d60248201527f476f7665726e6f723a2070726f706f73616c206e6f74206163746976650000006044820152606401610ac2565b60008281526001602052604090819020600201805460ff60a81b1916600160a81b179055517f789cf55be980739dad1d0699b93b58e806b51c9d96619bfa8fe0a28abaa7b30c90611dd39084815260200190565b60405180910390a15095945050505050565b604051630748d63560e31b81526001600160a01b0385811660048301526024820185905260009190841690633a46b1a89060440160206040518083038186803b158015611e3157600080fd5b505afa158015611e45573d6000803e3d6000fd5b505050506040513d601f19601f82011682018060405250810190611e699190613526565b95945050505050565b6000611e6985858585611e9060408051602081019091526000815290565b6124f7565b6000438210611ee65760405162461bcd60e51b815260206004820181905260248201527f436865636b706f696e74733a20626c6f636b206e6f7420796574206d696e65646044820152606401610ac2565b825460005b81811015611f4b576000611eff8284612741565b905084866000018281548110611f1757611f176133e1565b60009182526020909120015463ffffffff161115611f3757809250611f45565b611f4281600161359c565b91505b50611eeb565b8115611f8f5784611f5d6001846133ca565b81548110611f6d57611f6d6133e1565b60009182526020909120015464010000000090046001600160e01b0316611f92565b60005b6001600160e01b031695945050505050565b6000611fae6112c7565b611fc333611fbd6001436133ca565b85610f4f565b101561202b5760405162461bcd60e51b815260206004820152603160248201527f476f7665726e6f723a2070726f706f73657220766f7465732062656c6f7720706044820152701c9bdc1bdcd85b081d1a1c995cda1bdb19607a1b6064820152608401610ac2565b600061204087878787805190602001206113a4565b905085518751146120635760405162461bcd60e51b8152600401610ac2906135b4565b84518751146120845760405162461bcd60e51b8152600401610ac2906135b4565b60008751116120d55760405162461bcd60e51b815260206004820152601860248201527f476f7665726e6f723a20656d7074792070726f706f73616c00000000000000006044820152606401610ac2565b600081815260016020908152604091829020825191820190925281546001600160401b031690819052156121555760405162461bcd60e51b815260206004820152602160248201527f476f7665726e6f723a2070726f706f73616c20616c72656164792065786973746044820152607360f81b6064820152608401610ac2565b600061216861216360045490565b61275c565b6121714361275c565b61217b91906135f5565b9050600061218b61216360055490565b61219590836135f5565b835467ffffffffffffffff19166001600160401b038416178455905060018301805467ffffffffffffffff19166001600160401b0383161790556002830180546001600160a01b0319166001600160a01b0388161790557f7d84a6263ae0d98d3329bd7b46bb4e8d6f98cd35a7adb45c274c8b7fd5ebd5e084338c8c8e516001600160401b0381111561222a5761222a612bcb565b60405190808252806020026020018201604052801561225d57816020015b60608152602001906001900390816122485790505b508d88888f60405161227799989796959493929190613620565b60405180910390a1509198975050505050505050565b60045460408051918252602082018390527fc565b045403dc03c2eea82b81a0465edad9e2e7fc4d97e11421c209da93d7a93910160405180910390a1600455565b6008546001600160a01b031633146111d75760405162461bcd60e51b815260206004820181905260248201527f4f776e61626c653a2063616c6c6572206973206e6f7420746865206f776e65726044820152606401610ac2565b600880546001600160a01b038381166001600160a01b0319831681179093556040519116919082907f8be0079c531659141344cd1fd0a4f28419497f9722a3daafe3b4186f6b6457e090600090a35050565b6060610f71848484604051806060016040528060298152602001613799602991396127c4565b600081116124005760405162461bcd60e51b815260206004820152602760248201527f476f7665726e6f7253657474696e67733a20766f74696e6720706572696f6420604482015266746f6f206c6f7760c81b6064820152608401610ac2565b60055460408051918252602082018390527f7e3f7f0708a84de9203036abaa450dccc85ad5ff52f78c170f3edb55cf5e8828910160405180910390a1600555565b60065460408051918252602082018390527fccb45da8d5717e6c4544694297c4ba5cf151d455c9bb0ed4fc7a38411bc05461910160405180910390a1600655565b8154600160801b90819004600f0b6000818152600180860160205260409091209390935583546001600160801b03908116939091011602179055565b606083156124cd575081610f74565b8251156124dd5782518084602001fd5b8160405162461bcd60e51b8152600401610ac29190612ba3565b600085815260016020526040808220600281015491516309ab24eb60e41b81526001600160a01b0388811660048301529192919091169083908290639ab24eb09060240160206040518083038186803b15801561255357600080fd5b505afa158015612567573d6000803e3d6000fd5b505050506040513d601f19601f8201168201806040525081019061258b9190613526565b116125eb5760405162461bcd60e51b815260206004820152602a60248201527f50726f706f73616c20746f6b656e2073686f756c64206265207769746820766f6044820152693a34b733903837bbb2b960b11b6064820152608401610ac2565b60016125f689610d90565b600781111561260757612607612eeb565b146126605760405162461bcd60e51b815260206004820152602360248201527f476f7665726e6f723a20766f7465206e6f742063757272656e746c792061637460448201526269766560e81b6064820152608401610ac2565b604080516020810190915282546001600160401b03169081905260009061268a9089908488611de5565b905061269989898984896128f5565b84516126eb57876001600160a01b03167fb8e138887d0aa13bab447e82de9d5c1777041ecd21ca36ba824ff1e6c07ddda48a89848a6040516126de949392919061370f565b60405180910390a2612735565b876001600160a01b03167fe2babfbac5889a709b63bb7f598b324e08bc5a4fb9ec647fb3cbc9ec07eb87128a89848a8a60405161272c959493929190613737565b60405180910390a25b98975050505050505050565b6000612750600284841861355e565b610f749084841661359c565b60006001600160401b038211156117245760405162461bcd60e51b815260206004820152602660248201527f53616665436173743a2076616c756520646f65736e27742066697420696e203660448201526534206269747360d01b6064820152608401610ac2565b6060824710156128255760405162461bcd60e51b815260206004820152602660248201527f416464726573733a20696e73756666696369656e742062616c616e636520666f6044820152651c8818d85b1b60d21b6064820152608401610ac2565b6001600160a01b0385163b61287c5760405162461bcd60e51b815260206004820152601d60248201527f416464726573733a2063616c6c20746f206e6f6e2d636f6e74726163740000006044820152606401610ac2565b600080866001600160a01b031685876040516128989190613580565b60006040518083038185875af1925050503d80600081146128d5576040519150601f19603f3d011682016040523d82523d6000602084013e6128da565b606091505b50915091506128ea8282866124be565b979650505050505050565b60008581526007602090815260408083206001600160a01b0388168452600381019092529091205460ff161561297d5760405162461bcd60e51b815260206004820152602760248201527f476f7665726e6f72566f74696e6753696d706c653a20766f746520616c726561604482015266191e4818d85cdd60ca1b6064820152608401610ac2565b6001600160a01b03851660009081526003820160205260408120805460ff1916600117905560ff168460ff1614156129ce57828160000160008282546129c3919061359c565b90915550611b659050565b60ff8416600114156129ee57828160010160008282546129c3919061359c565b60ff841660021415612a0e57828160020160008282546129c3919061359c565b60405162461bcd60e51b815260206004820152603560248201527f476f7665726e6f72566f74696e6753696d706c653a20696e76616c69642076616044820152746c756520666f7220656e756d20566f74655479706560581b6064820152608401610ac2565b828054612a8090613379565b90600052602060002090601f016020900481019282612aa25760008555612ae8565b82601f10612abb57805160ff1916838001178555612ae8565b82800160010185558215612ae8579182015b82811115612ae8578251825591602001919060010190612acd565b506117249291505b808211156117245760008155600101612af0565b600060208284031215612b1657600080fd5b81356001600160e01b031981168114610f7457600080fd5b600060208284031215612b4057600080fd5b5035919050565b60005b83811015612b62578181015183820152602001612b4a565b83811115612b71576000848401525b50505050565b60008151808452612b8f816020860160208601612b47565b601f01601f19169290920160200192915050565b602081526000610f746020830184612b77565b6001600160a01b0381168114610af057600080fd5b634e487b7160e01b600052604160045260246000fd5b604051601f8201601f191681016001600160401b0381118282101715612c0957612c09612bcb565b604052919050565b600082601f830112612c2257600080fd5b81356001600160401b03811115612c3b57612c3b612bcb565b612c4e601f8201601f1916602001612be1565b818152846020838601011115612c6357600080fd5b816020850160208301376000918101602001919091529392505050565b60008060008060808587031215612c9657600080fd5b8435612ca181612bb6565b93506020850135612cb181612bb6565b92506040850135915060608501356001600160401b03811115612cd357600080fd5b612cdf87828801612c11565b91505092959194509250565b60006001600160401b03821115612d0457612d04612bcb565b5060051b60200190565b600082601f830112612d1f57600080fd5b81356020612d34612d2f83612ceb565b612be1565b82815260059290921b84018101918181019086841115612d5357600080fd5b8286015b84811015612d77578035612d6a81612bb6565b8352918301918301612d57565b509695505050505050565b600082601f830112612d9357600080fd5b81356020612da3612d2f83612ceb565b82815260059290921b84018101918181019086841115612dc257600080fd5b8286015b84811015612d775780358352918301918301612dc6565b600082601f830112612dee57600080fd5b81356020612dfe612d2f83612ceb565b82815260059290921b84018101918181019086841115612e1d57600080fd5b8286015b84811015612d775780356001600160401b03811115612e405760008081fd5b612e4e8986838b0101612c11565b845250918301918301612e21565b60008060008060808587031215612e7257600080fd5b84356001600160401b0380821115612e8957600080fd5b612e9588838901612d0e565b95506020870135915080821115612eab57600080fd5b612eb788838901612d82565b94506040870135915080821115612ecd57600080fd5b50612eda87828801612ddd565b949793965093946060013593505050565b634e487b7160e01b600052602160045260246000fd5b6020810160088310612f2357634e487b7160e01b600052602160045260246000fd5b91905290565b60008060408385031215612f3c57600080fd5b823591506020830135612f4e81612bb6565b809150509250929050565b600080600060608486031215612f6e57600080fd5b8335612f7981612bb6565b9250602084013591506040840135612f9081612bb6565b809150509250925092565b803560ff81168114612fac57600080fd5b919050565b60008060408385031215612fc457600080fd5b82359150612fd460208401612f9b565b90509250929050565b600080600080600060a08688031215612ff557600080fd5b85356001600160401b038082111561300c57600080fd5b61301889838a01612d0e565b9650602088013591508082111561302e57600080fd5b61303a89838a01612d82565b9550604088013591508082111561305057600080fd5b61305c89838a01612ddd565b9450606088013591508082111561307257600080fd5b5061307f88828901612c11565b925050608086013561309081612bb6565b809150509295509295909350565b600080604083850312156130b157600080fd5b8235915060208301356001600160401b038111156130ce57600080fd5b6130da85828601612c11565b9150509250929050565b60008083601f8401126130f657600080fd5b5081356001600160401b0381111561310d57600080fd5b60208301915083602082850101111561184c57600080fd5b6000806000806060858703121561313b57600080fd5b8435935061314b60208601612f9b565b925060408501356001600160401b0381111561316657600080fd5b613172878288016130e4565b95989497509550505050565b60006020828403121561319057600080fd5b610f7482612f9b565b6000602082840312156131ab57600080fd5b81356001600160401b038111156131c157600080fd5b610f9c84828501612c11565b600080600080600060a086880312156131e557600080fd5b85356131f081612bb6565b9450602086013561320081612bb6565b935060408601356001600160401b038082111561321c57600080fd5b61322889838a01612d82565b9450606088013591508082111561323e57600080fd5b61324a89838a01612d82565b9350608088013591508082111561326057600080fd5b5061326d88828901612c11565b9150509295509295909350565b60006020828403121561328c57600080fd5b8135610f7481612bb6565b600080600080606085870312156132ad57600080fd5b84356132b881612bb6565b93506020850135925060408501356001600160401b0381111561316657600080fd5b600080600080600060a086880312156132f257600080fd5b85356132fd81612bb6565b9450602086013561330d81612bb6565b9350604086013592506060860135915060808601356001600160401b0381111561333657600080fd5b61326d88828901612c11565b60208082526018908201527f476f7665726e6f723a206f6e6c79476f7665726e616e63650000000000000000604082015260600190565b600181811c9082168061338d57607f821691505b602082108114156133ae57634e487b7160e01b600052602260045260246000fd5b50919050565b634e487b7160e01b600052601160045260246000fd5b6000828210156133dc576133dc6133b4565b500390565b634e487b7160e01b600052603260045260246000fd5b600060001982141561340b5761340b6133b4565b5060010190565b600081518084526020808501945080840160005b8381101561344b5781516001600160a01b031687529582019590820190600101613426565b509495945050505050565b600081518084526020808501945080840160005b8381101561344b5781518752958201959082019060010161346a565b600081518084526020808501808196508360051b8101915082860160005b858110156134ce5782840389526134bc848351612b77565b988501989350908401906001016134a4565b5091979650505050505050565b6080815260006134ee6080830187613412565b82810360208401526135008187613456565b905082810360408401526135148186613486565b91505082606083015295945050505050565b60006020828403121561353857600080fd5b5051919050565b6000816000190483118215151615613559576135596133b4565b500290565b60008261357b57634e487b7160e01b600052601260045260246000fd5b500490565b60008251613592818460208701612b47565b9190910192915050565b600082198211156135af576135af6133b4565b500190565b60208082526021908201527f476f7665726e6f723a20696e76616c69642070726f706f73616c206c656e67746040820152600d60fb1b606082015260800190565b60006001600160401b03808316818516808303821115613617576136176133b4565b01949350505050565b60006101208b8352602060018060a01b038c16818501528160408501526136498285018c613412565b9150838203606085015261365d828b613456565b915083820360808501528189518084528284019150828160051b850101838c0160005b838110156136ae57601f1987840301855261369c838351612b77565b94860194925090850190600101613680565b505086810360a08801526136c2818c613486565b9450505050506136dd60c08401876001600160401b03169052565b6001600160401b03851660e08401528281036101008401526136ff8185612b77565b9c9b505050505050505050505050565b84815260ff84166020820152826040820152608060608201526000610f366080830184612b77565b85815260ff8516602082015283604082015260a06060820152600061375f60a0830185612b77565b82810360808401526127358185612b7756fe476f7665726e6f723a2063616c6c20726576657274656420776974686f7574206d657373616765416464726573733a206c6f772d6c6576656c2063616c6c20776974682076616c7565206661696c6564a2646970667358221220f6904553908c1f93e387f7d05f32d1ad623d6f68ff95556c2dbd80ba3a80b14064736f6c63430008090033",
  "linkReferences": {},
  "deployedLinkReferences": {}
}