{
  "_format": "hh-sol-artifact-1",
  "contractName": "GovernanceNFT",
  "sourceName": "contracts/GovernanceNFT.sol",
  "abi": [
    {
      "inputs": [
        {
          "internalType": "string",
          "name": "name_",
          "type": "string"
        },
        {
          "internalType": "string",
          "name": "symbol_",
          "type": "string"
        },
        {
          "internalType": "uint256",
          "name": "maxSupply_",
          "type": "uint256"
        }
      ],
      "stateMutability": "nonpayable",
      "type": "constructor"
    },
    {
      "anonymous": false,
      "inputs": [
        {
          "indexed": true,
          "internalType": "address",
          "name": "owner",
          "type": "address"
        },
        {
          "indexed": true,
          "internalType": "address",
          "name": "approved",
          "type": "address"
        },
        {
          "indexed": true,
          "internalType": "uint256",
          "name": "tokenId",
          "type": "uint256"
        }
      ],
      "name": "Approval",
      "type": "event"
    },
    {
      "anonymous": false,
      "inputs": [
        {
          "indexed": true,
          "internalType": "address",
          "name": "owner",
          "type": "address"
        },
        {
          "indexed": true,
          "internalType": "address",
          "name": "operator",
          "type": "address"
        },
        {
          "indexed": false,
          "internalType": "bool",
          "name": "approved",
          "type": "bool"
        }
      ],
      "name": "ApprovalForAll",
      "type": "event"
    },
    {
      "anonymous": false,
      "inputs": [
        {
          "indexed": true,
          "internalType": "address",
          "name": "delegator",
          "type": "address"
        },
        {
          "indexed": true,
          "internalType": "address",
          "name": "fromDelegate",
          "type": "address"
        },
        {
          "indexed": true,
          "internalType": "address",
          "name": "toDelegate",
          "type": "address"
        }
      ],
      "name": "DelegateChanged",
      "type": "event"
    },
    {
      "anonymous": false,
      "inputs": [
        {
          "indexed": true,
          "internalType": "address",
          "name": "delegate",
          "type": "address"
        },
        {
          "indexed": false,
          "internalType": "uint256",
          "name": "previousBalance",
          "type": "uint256"
        },
        {
          "indexed": false,
          "internalType": "uint256",
          "name": "newBalance",
          "type": "uint256"
        }
      ],
      "name": "DelegateVotesChanged",
      "type": "event"
    },
    {
      "anonymous": false,
      "inputs": [
        {
          "indexed": true,
          "internalType": "address",
          "name": "previousOwner",
          "type": "address"
        },
        {
          "indexed": true,
          "internalType": "address",
          "name": "newOwner",
          "type": "address"
        }
      ],
      "name": "OwnershipTransferred",
      "type": "event"
    },
    {
      "anonymous": false,
      "inputs": [
        {
          "indexed": true,
          "internalType": "address",
          "name": "from",
          "type": "address"
        },
        {
          "indexed": true,
          "internalType": "address",
          "name": "to",
          "type": "address"
        },
        {
          "indexed": true,
          "internalType": "uint256",
          "name": "tokenId",
          "type": "uint256"
        }
      ],
      "name": "Transfer",
      "type": "event"
    },
    {
      "inputs": [],
      "name": "DOMAIN_SEPARATOR",
      "outputs": [
        {
          "internalType": "bytes32",
          "name": "",
          "type": "bytes32"
        }
      ],
      "stateMutability": "view",
      "type": "function"
    },
    {
      "inputs": [
        {
          "internalType": "address",
          "name": "to",
          "type": "address"
        },
        {
          "internalType": "uint256",
          "name": "tokenId",
          "type": "uint256"
        }
      ],
      "name": "approve",
      "outputs": [],
      "stateMutability": "nonpayable",
      "type": "function"
    },
    {
      "inputs": [
        {
          "internalType": "address",
          "name": "owner",
          "type": "address"
        }
      ],
      "name": "balanceOf",
      "outputs": [
        {
          "internalType": "uint256",
          "name": "",
          "type": "uint256"
        }
      ],
      "stateMutability": "view",
      "type": "function"
    },
    {
      "inputs": [
        {
          "internalType": "address",
          "name": "delegatee",
          "type": "address"
        }
      ],
      "name": "delegate",
      "outputs": [],
      "stateMutability": "nonpayable",
      "type": "function"
    },
    {
      "inputs": [
        {
          "internalType": "address",
          "name": "delegatee",
          "type": "address"
        },
        {
          "internalType": "uint256",
          "name": "nonce",
          "type": "uint256"
        },
        {
          "internalType": "uint256",
          "name": "expiry",
          "type": "uint256"
        },
        {
          "internalType": "uint8",
          "name": "v",
          "type": "uint8"
        },
        {
          "internalType": "bytes32",
          "name": "r",
          "type": "bytes32"
        },
        {
          "internalType": "bytes32",
          "name": "s",
          "type": "bytes32"
        }
      ],
      "name": "delegateBySig",
      "outputs": [],
      "stateMutability": "nonpayable",
      "type": "function"
    },
    {
      "inputs": [
        {
          "internalType": "address",
          "name": "account",
          "type": "address"
        }
      ],
      "name": "delegates",
      "outputs": [
        {
          "internalType": "address",
          "name": "",
          "type": "address"
        }
      ],
      "stateMutability": "view",
      "type": "function"
    },
    {
      "inputs": [
        {
          "internalType": "uint256",
          "name": "tokenId",
          "type": "uint256"
        }
      ],
      "name": "getApproved",
      "outputs": [
        {
          "internalType": "address",
          "name": "",
          "type": "address"
        }
      ],
      "stateMutability": "view",
      "type": "function"
    },
    {
      "inputs": [
        {
          "internalType": "uint256",
          "name": "blockNumber",
          "type": "uint256"
        }
      ],
      "name": "getPastTotalSupply",
      "outputs": [
        {
          "internalType": "uint256",
          "name": "",
          "type": "uint256"
        }
      ],
      "stateMutability": "view",
      "type": "function"
    },
    {
      "inputs": [
        {
          "internalType": "address",
          "name": "account",
          "type": "address"
        },
        {
          "internalType": "uint256",
          "name": "blockNumber",
          "type": "uint256"
        }
      ],
      "name": "getPastVotes",
      "outputs": [
        {
          "internalType": "uint256",
          "name": "",
          "type": "uint256"
        }
      ],
      "stateMutability": "view",
      "type": "function"
    },
    {
      "inputs": [
        {
          "internalType": "address",
          "name": "account",
          "type": "address"
        }
      ],
      "name": "getVotes",
      "outputs": [
        {
          "internalType": "uint256",
          "name": "",
          "type": "uint256"
        }
      ],
      "stateMutability": "view",
      "type": "function"
    },
    {
      "inputs": [
        {
          "internalType": "address",
          "name": "owner",
          "type": "address"
        },
        {
          "internalType": "address",
          "name": "operator",
          "type": "address"
        }
      ],
      "name": "isApprovedForAll",
      "outputs": [
        {
          "internalType": "bool",
          "name": "",
          "type": "bool"
        }
      ],
      "stateMutability": "view",
      "type": "function"
    },
    {
      "inputs": [],
      "name": "maxSupply",
      "outputs": [
        {
          "internalType": "uint256",
          "name": "",
          "type": "uint256"
        }
      ],
      "stateMutability": "view",
      "type": "function"
    },
    {
      "inputs": [],
      "name": "mint",
      "outputs": [],
      "stateMutability": "nonpayable",
      "type": "function"
    },
    {
      "inputs": [],
      "name": "name",
      "outputs": [
        {
          "internalType": "string",
          "name": "",
          "type": "string"
        }
      ],
      "stateMutability": "view",
      "type": "function"
    },
    {
      "inputs": [
        {
          "internalType": "address",
          "name": "owner",
          "type": "address"
        }
      ],
      "name": "nonces",
      "outputs": [
        {
          "internalType": "uint256",
          "name": "",
          "type": "uint256"
        }
      ],
      "stateMutability": "view",
      "type": "function"
    },
    {
      "inputs": [
        {
          "internalType": "address",
          "name": "addr",
          "type": "address"
        }
      ],
      "name": "numAvailableToMint",
      "outputs": [
        {
          "internalType": "uint8",
          "name": "",
          "type": "uint8"
        }
      ],
      "stateMutability": "view",
      "type": "function"
    },
    {
      "inputs": [],
      "name": "owner",
      "outputs": [
        {
          "internalType": "address",
          "name": "",
          "type": "address"
        }
      ],
      "stateMutability": "view",
      "type": "function"
    },
    {
      "inputs": [
        {
          "internalType": "uint256",
          "name": "tokenId",
          "type": "uint256"
        }
      ],
      "name": "ownerOf",
      "outputs": [
        {
          "internalType": "address",
          "name": "",
          "type": "address"
        }
      ],
      "stateMutability": "view",
      "type": "function"
    },
    {
      "inputs": [],
      "name": "renounceOwnership",
      "outputs": [],
      "stateMutability": "nonpayable",
      "type": "function"
    },
    {
      "inputs": [
        {
          "internalType": "uint256",
          "name": "amount",
          "type": "uint256"
        }
      ],
      "name": "reserve",
      "outputs": [],
      "stateMutability": "nonpayable",
      "type": "function"
    },
    {
      "inputs": [
        {
          "internalType": "address",
          "name": "from",
          "type": "address"
        },
        {
          "internalType": "address",
          "name": "to",
          "type": "address"
        },
        {
          "internalType": "uint256",
          "name": "tokenId",
          "type": "uint256"
        }
      ],
      "name": "safeTransferFrom",
      "outputs": [],
      "stateMutability": "nonpayable",
      "type": "function"
    },
    {
      "inputs": [
        {
          "internalType": "address",
          "name": "from",
          "type": "address"
        },
        {
          "internalType": "address",
          "name": "to",
          "type": "address"
        },
        {
          "internalType": "uint256",
          "name": "tokenId",
          "type": "uint256"
        },
        {
          "internalType": "bytes",
          "name": "_data",
          "type": "bytes"
        }
      ],
      "name": "safeTransferFrom",
      "outputs": [],
      "stateMutability": "nonpayable",
      "type": "function"
    },
    {
      "inputs": [
        {
          "internalType": "address[]",
          "name": "addresses",
          "type": "address[]"
        },
        {
          "internalType": "uint8",
          "name": "numAllowedToMint",
          "type": "uint8"
        }
      ],
      "name": "setAllowList",
      "outputs": [],
      "stateMutability": "nonpayable",
      "type": "function"
    },
    {
      "inputs": [
        {
          "internalType": "address",
          "name": "operator",
          "type": "address"
        },
        {
          "internalType": "bool",
          "name": "approved",
          "type": "bool"
        }
      ],
      "name": "setApprovalForAll",
      "outputs": [],
      "stateMutability": "nonpayable",
      "type": "function"
    },
    {
      "inputs": [
        {
          "internalType": "string",
          "name": "baseURI",
          "type": "string"
        }
      ],
      "name": "setBaseURI",
      "outputs": [],
      "stateMutability": "nonpayable",
      "type": "function"
    },
    {
      "inputs": [
        {
          "internalType": "bytes4",
          "name": "interfaceId",
          "type": "bytes4"
        }
      ],
      "name": "supportsInterface",
      "outputs": [
        {
          "internalType": "bool",
          "name": "",
          "type": "bool"
        }
      ],
      "stateMutability": "view",
      "type": "function"
    },
    {
      "inputs": [],
      "name": "symbol",
      "outputs": [
        {
          "internalType": "string",
          "name": "",
          "type": "string"
        }
      ],
      "stateMutability": "view",
      "type": "function"
    },
    {
      "inputs": [
        {
          "internalType": "uint256",
          "name": "index",
          "type": "uint256"
        }
      ],
      "name": "tokenByIndex",
      "outputs": [
        {
          "internalType": "uint256",
          "name": "",
          "type": "uint256"
        }
      ],
      "stateMutability": "view",
      "type": "function"
    },
    {
      "inputs": [
        {
          "internalType": "address",
          "name": "owner",
          "type": "address"
        },
        {
          "internalType": "uint256",
          "name": "index",
          "type": "uint256"
        }
      ],
      "name": "tokenOfOwnerByIndex",
      "outputs": [
        {
          "internalType": "uint256",
          "name": "",
          "type": "uint256"
        }
      ],
      "stateMutability": "view",
      "type": "function"
    },
    {
      "inputs": [
        {
          "internalType": "uint256",
          "name": "tokenId",
          "type": "uint256"
        }
      ],
      "name": "tokenURI",
      "outputs": [
        {
          "internalType": "string",
          "name": "",
          "type": "string"
        }
      ],
      "stateMutability": "view",
      "type": "function"
    },
    {
      "inputs": [],
      "name": "totalSupply",
      "outputs": [
        {
          "internalType": "uint256",
          "name": "",
          "type": "uint256"
        }
      ],
      "stateMutability": "view",
      "type": "function"
    },
    {
      "inputs": [
        {
          "internalType": "address",
          "name": "from",
          "type": "address"
        },
        {
          "internalType": "address",
          "name": "to",
          "type": "address"
        },
        {
          "internalType": "uint256",
          "name": "tokenId",
          "type": "uint256"
        }
      ],
      "name": "transferFrom",
      "outputs": [],
      "stateMutability": "nonpayable",
      "type": "function"
    },
    {
      "inputs": [
        {
          "internalType": "address",
          "name": "newOwner",
          "type": "address"
        }
      ],
      "name": "transferOwnership",
      "outputs": [],
      "stateMutability": "nonpayable",
      "type": "function"
    }
  ],
  "bytecode": "0x6101606040523480156200001257600080fd5b506040516200316d3803806200316d8339810160408190526200003591620002ef565b82604051806040016040528060018152602001603160f81b815250848481600090805190602001906200006a9291906200017c565b508051620000809060019060208401906200017c565b5050825160209384012082519284019290922060e08390526101008190524660a0818152604080517f8b73c3c69bb8fe3d512ecc4cf759cc79239f7b179b0ffacaa9a75d522b39400f818901819052818301979097526060810194909452608080850193909352308483018190528151808603909301835260c09485019091528151919096012090529290925261012052506200011d336200012a565b61014052506200039f9050565b600e80546001600160a01b038381166001600160a01b0319831681179093556040519116919082907f8be0079c531659141344cd1fd0a4f28419497f9722a3daafe3b4186f6b6457e090600090a35050565b8280546200018a9062000362565b90600052602060002090601f016020900481019282620001ae5760008555620001f9565b82601f10620001c957805160ff1916838001178555620001f9565b82800160010185558215620001f9579182015b82811115620001f9578251825591602001919060010190620001dc565b50620002079291506200020b565b5090565b5b808211156200020757600081556001016200020c565b634e487b7160e01b600052604160045260246000fd5b600082601f8301126200024a57600080fd5b81516001600160401b038082111562000267576200026762000222565b604051601f8301601f19908116603f0116810190828211818310171562000292576200029262000222565b81604052838152602092508683858801011115620002af57600080fd5b600091505b83821015620002d35785820183015181830184015290820190620002b4565b83821115620002e55760008385830101525b9695505050505050565b6000806000606084860312156200030557600080fd5b83516001600160401b03808211156200031d57600080fd5b6200032b8783880162000238565b945060208601519150808211156200034257600080fd5b50620003518682870162000238565b925050604084015190509250925092565b600181811c908216806200037757607f821691505b602082108114156200039957634e487b7160e01b600052602260045260246000fd5b50919050565b60805160a05160c05160e051610100516101205161014051612d656200040860003960008181610485015281816107be0152610bf801526000611486015260006114d5015260006114b001526000611409015260006114330152600061145d0152612d656000f3fe608060405234801561001057600080fd5b50600436106101fb5760003560e01c806370a082311161011a5780639ab24eb0116100ad578063c3cda5201161007c578063c3cda5201461045a578063c87b56dd1461046d578063d5abeb0114610480578063e985e9c5146104a7578063f2fde38b146104e357600080fd5b80639ab24eb0146103e3578063a22cb465146103f6578063b88d4fde14610409578063c04a28361461041c57600080fd5b80638295784d116100e95780638295784d146103a45780638da5cb5b146103b75780638e539e8c146103c857806395d89b41146103db57600080fd5b806370a0823114610363578063715018a6146103765780637ecebe001461037e578063819b25ba1461039157600080fd5b80633644e5151161019257806355f804b31161016157806355f804b3146102fe578063587cde1e146103115780635c19a95c1461033d5780636352211e1461035057600080fd5b80633644e515146102bd5780633a46b1a8146102c557806342842e0e146102d85780634f6ccce7146102eb57600080fd5b80631249c58b116101ce5780631249c58b1461027d57806318160ddd1461028557806323b872dd146102975780632f745c59146102aa57600080fd5b806301ffc9a71461020057806306fdde0314610228578063081812fc1461023d578063095ea7b314610268575b600080fd5b61021361020e3660046126ab565b6104f6565b60405190151581526020015b60405180910390f35b610230610507565b60405161021f9190612720565b61025061024b366004612733565b610599565b6040516001600160a01b03909116815260200161021f565b61027b610276366004612768565b610633565b005b61027b610749565b6008545b60405190815260200161021f565b61027b6102a5366004612792565b610874565b6102896102b8366004612768565b6108a5565b61028961093b565b6102896102d3366004612768565b61094a565b61027b6102e6366004612792565b610973565b6102896102f9366004612733565b61098e565b61027b61030c36600461285a565b610a21565b61025061031f3660046128a3565b6001600160a01b039081166000908152600a60205260409020541690565b61027b61034b3660046128a3565b610a62565b61025061035e366004612733565b610a6d565b6102896103713660046128a3565b610ae4565b61027b610b6b565b61028961038c3660046128a3565b610ba1565b61027b61039f366004612733565b610bbf565b61027b6103b23660046128cf565b610c9f565b600e546001600160a01b0316610250565b6102896103d6366004612733565b610d43565b610230610d9f565b6102896103f13660046128a3565b610dae565b61027b610404366004612953565b610dcf565b61027b61041736600461298f565b610dda565b61044861042a3660046128a3565b6001600160a01b031660009081526010602052604090205460ff1690565b60405160ff909116815260200161021f565b61027b610468366004612a0b565b610e0c565b61023061047b366004612733565b610f39565b6102897f000000000000000000000000000000000000000000000000000000000000000081565b6102136104b5366004612a63565b6001600160a01b03918216600090815260056020908152604080832093909416825291909152205460ff1690565b61027b6104f13660046128a3565b611013565b6000610501826110ab565b92915050565b60606000805461051690612a96565b80601f016020809104026020016040519081016040528092919081815260200182805461054290612a96565b801561058f5780601f106105645761010080835404028352916020019161058f565b820191906000526020600020905b81548152906001019060200180831161057257829003601f168201915b5050505050905090565b6000818152600260205260408120546001600160a01b03166106175760405162461bcd60e51b815260206004820152602c60248201527f4552433732313a20617070726f76656420717565727920666f72206e6f6e657860448201526b34b9ba32b73a103a37b5b2b760a11b60648201526084015b60405180910390fd5b506000908152600460205260409020546001600160a01b031690565b600061063e82610a6d565b9050806001600160a01b0316836001600160a01b031614156106ac5760405162461bcd60e51b815260206004820152602160248201527f4552433732313a20617070726f76616c20746f2063757272656e74206f776e656044820152603960f91b606482015260840161060e565b336001600160a01b03821614806106c857506106c881336104b5565b61073a5760405162461bcd60e51b815260206004820152603860248201527f4552433732313a20617070726f76652063616c6c6572206973206e6f74206f7760448201527f6e6572206e6f7220617070726f76656420666f7220616c6c0000000000000000606482015260840161060e565b61074483836110d0565b505050565b600061075460085490565b33600090815260106020526040902054909150600160ff90911610156107bc5760405162461bcd60e51b815260206004820152601e60248201527f4578636565646564206d617820617661696c61626c6520746f206d696e740000604482015260640161060e565b7f00000000000000000000000000000000000000000000000000000000000000006107e8826001612ae1565b111561082c5760405162461bcd60e51b81526020600482015260136024820152724578636565646564206d617820737570706c7960681b604482015260640161060e565b33600090815260106020526040812080546001929061084f90849060ff16612af9565b92506101000a81548160ff021916908360ff160217905550610871338261113e565b50565b61087e3382611158565b61089a5760405162461bcd60e51b815260040161060e90612b1c565b61074483838361124f565b60006108b083610ae4565b82106109125760405162461bcd60e51b815260206004820152602b60248201527f455243373231456e756d657261626c653a206f776e657220696e646578206f7560448201526a74206f6620626f756e647360a81b606482015260840161060e565b506001600160a01b03919091166000908152600660209081526040808320938352929052205490565b60006109456113fc565b905090565b6001600160a01b0382166000908152600b6020526040812061096c9083611523565b9392505050565b61074483838360405180602001604052806000815250610dda565b600061099960085490565b82106109fc5760405162461bcd60e51b815260206004820152602c60248201527f455243373231456e756d657261626c653a20676c6f62616c20696e646578206f60448201526b7574206f6620626f756e647360a01b606482015260840161060e565b60088281548110610a0f57610a0f612b6d565b90600052602060002001549050919050565b600e546001600160a01b03163314610a4b5760405162461bcd60e51b815260040161060e90612b83565b8051610a5e90600f906020840190612605565b5050565b33610a5e8183611632565b6000818152600260205260408120546001600160a01b0316806105015760405162461bcd60e51b815260206004820152602960248201527f4552433732313a206f776e657220717565727920666f72206e6f6e657869737460448201526832b73a103a37b5b2b760b91b606482015260840161060e565b60006001600160a01b038216610b4f5760405162461bcd60e51b815260206004820152602a60248201527f4552433732313a2062616c616e636520717565727920666f7220746865207a65604482015269726f206164647265737360b01b606482015260840161060e565b506001600160a01b031660009081526003602052604090205490565b600e546001600160a01b03163314610b955760405162461bcd60e51b815260040161060e90612b83565b610b9f60006116a4565b565b6001600160a01b0381166000908152600d6020526040812054610501565b600e546001600160a01b03163314610be95760405162461bcd60e51b815260040161060e90612b83565b6000610bf460085490565b90507f0000000000000000000000000000000000000000000000000000000000000000610c218383612ae1565b1115610c6f5760405162461bcd60e51b815260206004820152601c60248201527f4d617820737570706c7920686173206265656e20657863656564656400000000604482015260640161060e565b60005b8281101561074457610c8d33610c888385612ae1565b61113e565b80610c9781612bb8565b915050610c72565b600e546001600160a01b03163314610cc95760405162461bcd60e51b815260040161060e90612b83565b60005b82811015610d3d578160106000868685818110610ceb57610ceb612b6d565b9050602002016020810190610d0091906128a3565b6001600160a01b031681526020810191909152604001600020805460ff191660ff9290921691909117905580610d3581612bb8565b915050610ccc565b50505050565b6000438210610d945760405162461bcd60e51b815260206004820152601a60248201527f566f7465733a20626c6f636b206e6f7420796574206d696e6564000000000000604482015260640161060e565b610501600c83611523565b60606001805461051690612a96565b6001600160a01b0381166000908152600b60205260408120610501906116f6565b610a5e338383611752565b610de43383611158565b610e005760405162461bcd60e51b815260040161060e90612b1c565b610d3d84848484611821565b83421115610e5c5760405162461bcd60e51b815260206004820152601860248201527f566f7465733a207369676e617475726520657870697265640000000000000000604482015260640161060e565b604080517fe48329057bfd03d55e49b547132e39cffd9c1820ad7b9d4c5307691425d15adf60208201526001600160a01b038816918101919091526060810186905260808101859052600090610ed690610ece9060a00160405160208183030381529060405280519060200120611854565b8585856118a2565b9050610ee1816118ca565b8614610f265760405162461bcd60e51b8152602060048201526014602482015273566f7465733a20696e76616c6964206e6f6e636560601b604482015260640161060e565b610f308188611632565b50505050505050565b6000818152600260205260409020546060906001600160a01b0316610fb85760405162461bcd60e51b815260206004820152602f60248201527f4552433732314d657461646174613a2055524920717565727920666f72206e6f60448201526e3732bc34b9ba32b73a103a37b5b2b760891b606482015260840161060e565b6000610fc26118f2565b90506000815111610fe2576040518060200160405280600081525061096c565b80610fec84611901565b604051602001610ffd929190612bd3565b6040516020818303038152906040529392505050565b600e546001600160a01b0316331461103d5760405162461bcd60e51b815260040161060e90612b83565b6001600160a01b0381166110a25760405162461bcd60e51b815260206004820152602660248201527f4f776e61626c653a206e6577206f776e657220697320746865207a65726f206160448201526564647265737360d01b606482015260840161060e565b610871816116a4565b60006001600160e01b0319821663780e9d6360e01b14806105015750610501826119ff565b600081815260046020526040902080546001600160a01b0319166001600160a01b038416908117909155819061110582610a6d565b6001600160a01b03167f8c5be1e5ebec7d5bd14f71427d1e84f3dd0314c0f7b2291e5b200ac8c7c3b92560405160405180910390a45050565b610a5e828260405180602001604052806000815250611a4f565b6000818152600260205260408120546001600160a01b03166111d15760405162461bcd60e51b815260206004820152602c60248201527f4552433732313a206f70657261746f7220717565727920666f72206e6f6e657860448201526b34b9ba32b73a103a37b5b2b760a11b606482015260840161060e565b60006111dc83610a6d565b9050806001600160a01b0316846001600160a01b0316148061122357506001600160a01b0380821660009081526005602090815260408083209388168352929052205460ff165b806112475750836001600160a01b031661123c84610599565b6001600160a01b0316145b949350505050565b826001600160a01b031661126282610a6d565b6001600160a01b0316146112c65760405162461bcd60e51b815260206004820152602560248201527f4552433732313a207472616e736665722066726f6d20696e636f72726563742060448201526437bbb732b960d91b606482015260840161060e565b6001600160a01b0382166113285760405162461bcd60e51b8152602060048201526024808201527f4552433732313a207472616e7366657220746f20746865207a65726f206164646044820152637265737360e01b606482015260840161060e565b611333838383611a82565b61133e6000826110d0565b6001600160a01b0383166000908152600360205260408120805460019290611367908490612c02565b90915550506001600160a01b0382166000908152600360205260408120805460019290611395908490612ae1565b909155505060008181526002602052604080822080546001600160a01b0319166001600160a01b0386811691821790925591518493918716917fddf252ad1be2c89b69c2b068fc378daa952ba7f163c4a11628f55a4df523b3ef91a4610744838383611a8d565b6000306001600160a01b037f00000000000000000000000000000000000000000000000000000000000000001614801561145557507f000000000000000000000000000000000000000000000000000000000000000046145b1561147f57507f000000000000000000000000000000000000000000000000000000000000000090565b50604080517f00000000000000000000000000000000000000000000000000000000000000006020808301919091527f0000000000000000000000000000000000000000000000000000000000000000828401527f000000000000000000000000000000000000000000000000000000000000000060608301524660808301523060a0808401919091528351808403909101815260c0909201909252805191012090565b60004382106115745760405162461bcd60e51b815260206004820181905260248201527f436865636b706f696e74733a20626c6f636b206e6f7420796574206d696e6564604482015260640161060e565b825460005b818110156115d957600061158d8284611a98565b9050848660000182815481106115a5576115a5612b6d565b60009182526020909120015463ffffffff1611156115c5578092506115d3565b6115d0816001612ae1565b91505b50611579565b811561161d57846115eb600184612c02565b815481106115fb576115fb612b6d565b60009182526020909120015464010000000090046001600160e01b0316611620565b60005b6001600160e01b031695945050505050565b6001600160a01b038281166000818152600a602052604080822080548686166001600160a01b0319821681179092559151919094169392849290917f3134e8a2e6d97e929a7e54011ea5485d7d196dd5f0ba4d4ef95803e8e3fc257f9190a4610744818361169f86611ab3565b611abe565b600e80546001600160a01b038381166001600160a01b0319831681179093556040519116919082907f8be0079c531659141344cd1fd0a4f28419497f9722a3daafe3b4186f6b6457e090600090a35050565b8054600090801561173f578261170d600183612c02565b8154811061171d5761171d612b6d565b60009182526020909120015464010000000090046001600160e01b0316611742565b60005b6001600160e01b03169392505050565b816001600160a01b0316836001600160a01b031614156117b45760405162461bcd60e51b815260206004820152601960248201527f4552433732313a20617070726f766520746f2063616c6c657200000000000000604482015260640161060e565b6001600160a01b03838116600081815260056020908152604080832094871680845294825291829020805460ff191686151590811790915591519182527f17307eab39ab6107e8899845ad3d59bd9653f200f220920489ca2b5937696c31910160405180910390a3505050565b61182c84848461124f565b61183884848484611bfb565b610d3d5760405162461bcd60e51b815260040161060e90612c19565b60006105016118616113fc565b8360405161190160f01b6020820152602281018390526042810182905260009060620160405160208183030381529060405280519060200120905092915050565b60008060006118b387878787611d05565b915091506118c081611df2565b5095945050505050565b6001600160a01b0381166000908152600d602052604090208054600181018255905b50919050565b6060600f805461051690612a96565b6060816119255750506040805180820190915260018152600360fc1b602082015290565b8160005b811561194f578061193981612bb8565b91506119489050600a83612c81565b9150611929565b60008167ffffffffffffffff81111561196a5761196a6127ce565b6040519080825280601f01601f191660200182016040528015611994576020820181803683370190505b5090505b8415611247576119a9600183612c02565b91506119b6600a86612c95565b6119c1906030612ae1565b60f81b8183815181106119d6576119d6612b6d565b60200101906001600160f81b031916908160001a9053506119f8600a86612c81565b9450611998565b60006001600160e01b031982166380ac58cd60e01b1480611a3057506001600160e01b03198216635b5e139f60e01b145b8061050157506301ffc9a760e01b6001600160e01b0319831614610501565b611a598383611fad565b611a666000848484611bfb565b6107445760405162461bcd60e51b815260040161060e90612c19565b610744838383612103565b6107448383836121bb565b6000611aa76002848418612c81565b61096c90848416612ae1565b600061050182610ae4565b816001600160a01b0316836001600160a01b031614158015611ae05750600081115b15610744576001600160a01b03831615611b6e576001600160a01b0383166000908152600b602052604081208190611b1b906121c7856121d3565b91509150846001600160a01b03167fdec2bacdd2f05b59de34da9b523dff8be42e5e38e818c82fdb0bae774387a7248383604051611b63929190918252602082015260400190565b60405180910390a250505b6001600160a01b03821615610744576001600160a01b0382166000908152600b602052604081208190611ba490612201856121d3565b91509150836001600160a01b03167fdec2bacdd2f05b59de34da9b523dff8be42e5e38e818c82fdb0bae774387a7248383604051611bec929190918252602082015260400190565b60405180910390a25050505050565b60006001600160a01b0384163b15611cfd57604051630a85bd0160e11b81526001600160a01b0385169063150b7a0290611c3f903390899088908890600401612ca9565b602060405180830381600087803b158015611c5957600080fd5b505af1925050508015611c89575060408051601f3d908101601f19168201909252611c8691810190612ce6565b60015b611ce3573d808015611cb7576040519150601f19603f3d011682016040523d82523d6000602084013e611cbc565b606091505b508051611cdb5760405162461bcd60e51b815260040161060e90612c19565b805181602001fd5b6001600160e01b031916630a85bd0160e11b149050611247565b506001611247565b6000807f7fffffffffffffffffffffffffffffff5d576e7357a4501ddfe92f46681b20a0831115611d3c5750600090506003611de9565b8460ff16601b14158015611d5457508460ff16601c14155b15611d655750600090506004611de9565b6040805160008082526020820180845289905260ff881692820192909252606081018690526080810185905260019060a0016020604051602081039080840390855afa158015611db9573d6000803e3d6000fd5b5050604051601f1901519150506001600160a01b038116611de257600060019250925050611de9565b9150600090505b94509492505050565b6000816004811115611e0657611e06612d03565b1415611e0f5750565b6001816004811115611e2357611e23612d03565b1415611e715760405162461bcd60e51b815260206004820152601860248201527f45434453413a20696e76616c6964207369676e61747572650000000000000000604482015260640161060e565b6002816004811115611e8557611e85612d03565b1415611ed35760405162461bcd60e51b815260206004820152601f60248201527f45434453413a20696e76616c6964207369676e6174757265206c656e67746800604482015260640161060e565b6003816004811115611ee757611ee7612d03565b1415611f405760405162461bcd60e51b815260206004820152602260248201527f45434453413a20696e76616c6964207369676e6174757265202773272076616c604482015261756560f01b606482015260840161060e565b6004816004811115611f5457611f54612d03565b14156108715760405162461bcd60e51b815260206004820152602260248201527f45434453413a20696e76616c6964207369676e6174757265202776272076616c604482015261756560f01b606482015260840161060e565b6001600160a01b0382166120035760405162461bcd60e51b815260206004820181905260248201527f4552433732313a206d696e7420746f20746865207a65726f2061646472657373604482015260640161060e565b6000818152600260205260409020546001600160a01b0316156120685760405162461bcd60e51b815260206004820152601c60248201527f4552433732313a20746f6b656e20616c7265616479206d696e74656400000000604482015260640161060e565b61207460008383611a82565b6001600160a01b038216600090815260036020526040812080546001929061209d908490612ae1565b909155505060008181526002602052604080822080546001600160a01b0319166001600160a01b03861690811790915590518392907fddf252ad1be2c89b69c2b068fc378daa952ba7f163c4a11628f55a4df523b3ef908290a4610a5e60008383611a8d565b6001600160a01b03831661215e5761215981600880546000838152600960205260408120829055600182018355919091527ff3f7a9fe364faab93b216da50a3214154f22a0a2b415b23a84c8169e8b636ee30155565b612181565b816001600160a01b0316836001600160a01b03161461218157612181838261220d565b6001600160a01b03821661219857610744816122aa565b826001600160a01b0316826001600160a01b031614610744576107448282612359565b6107448383600161239d565b600061096c8284612c02565b6000806121f5856121f06121e6886116f6565b868863ffffffff16565b61240d565b91509150935093915050565b600061096c8284612ae1565b6000600161221a84610ae4565b6122249190612c02565b600083815260076020526040902054909150808214612277576001600160a01b03841660009081526006602090815260408083208584528252808320548484528184208190558352600790915290208190555b5060009182526007602090815260408084208490556001600160a01b039094168352600681528383209183525290812055565b6008546000906122bc90600190612c02565b600083815260096020526040812054600880549394509092849081106122e4576122e4612b6d565b90600052602060002001549050806008838154811061230557612305612b6d565b600091825260208083209091019290925582815260099091526040808220849055858252812055600880548061233d5761233d612d19565b6001900381819060005260206000200160009055905550505050565b600061236483610ae4565b6001600160a01b039093166000908152600660209081526040808320868452825280832085905593825260079052919091209190915550565b6001600160a01b0383166123bc576123b9600c612201836121d3565b50505b6001600160a01b0382166123db576123d8600c6121c7836121d3565b50505b6001600160a01b038381166000908152600a602052604080822054858416835291205461074492918216911683611abe565b815460009081908161241e866116f6565b905060008211801561245c57504386612438600185612c02565b8154811061244857612448612b6d565b60009182526020909120015463ffffffff16145b156124bc5761246a85612533565b86612476600185612c02565b8154811061248657612486612b6d565b9060005260206000200160000160046101000a8154816001600160e01b0302191690836001600160e01b0316021790555061252a565b8560000160405180604001604052806124d4436125a0565b63ffffffff1681526020016124e888612533565b6001600160e01b0390811690915282546001810184556000938452602093849020835194909301519091166401000000000263ffffffff909316929092179101555b95939450505050565b60006001600160e01b0382111561259c5760405162461bcd60e51b815260206004820152602760248201527f53616665436173743a2076616c756520646f65736e27742066697420696e20326044820152663234206269747360c81b606482015260840161060e565b5090565b600063ffffffff82111561259c5760405162461bcd60e51b815260206004820152602660248201527f53616665436173743a2076616c756520646f65736e27742066697420696e203360448201526532206269747360d01b606482015260840161060e565b82805461261190612a96565b90600052602060002090601f0160209004810192826126335760008555612679565b82601f1061264c57805160ff1916838001178555612679565b82800160010185558215612679579182015b8281111561267957825182559160200191906001019061265e565b5061259c9291505b8082111561259c5760008155600101612681565b6001600160e01b03198116811461087157600080fd5b6000602082840312156126bd57600080fd5b813561096c81612695565b60005b838110156126e35781810151838201526020016126cb565b83811115610d3d5750506000910152565b6000815180845261270c8160208601602086016126c8565b601f01601f19169290920160200192915050565b60208152600061096c60208301846126f4565b60006020828403121561274557600080fd5b5035919050565b80356001600160a01b038116811461276357600080fd5b919050565b6000806040838503121561277b57600080fd5b6127848361274c565b946020939093013593505050565b6000806000606084860312156127a757600080fd5b6127b08461274c565b92506127be6020850161274c565b9150604084013590509250925092565b634e487b7160e01b600052604160045260246000fd5b600067ffffffffffffffff808411156127ff576127ff6127ce565b604051601f8501601f19908116603f01168101908282118183101715612827576128276127ce565b8160405280935085815286868601111561284057600080fd5b858560208301376000602087830101525050509392505050565b60006020828403121561286c57600080fd5b813567ffffffffffffffff81111561288357600080fd5b8201601f8101841361289457600080fd5b611247848235602084016127e4565b6000602082840312156128b557600080fd5b61096c8261274c565b803560ff8116811461276357600080fd5b6000806000604084860312156128e457600080fd5b833567ffffffffffffffff808211156128fc57600080fd5b818601915086601f83011261291057600080fd5b81358181111561291f57600080fd5b8760208260051b850101111561293457600080fd5b60209283019550935061294a91860190506128be565b90509250925092565b6000806040838503121561296657600080fd5b61296f8361274c565b91506020830135801515811461298457600080fd5b809150509250929050565b600080600080608085870312156129a557600080fd5b6129ae8561274c565b93506129bc6020860161274c565b925060408501359150606085013567ffffffffffffffff8111156129df57600080fd5b8501601f810187136129f057600080fd5b6129ff878235602084016127e4565b91505092959194509250565b60008060008060008060c08789031215612a2457600080fd5b612a2d8761274c565b95506020870135945060408701359350612a49606088016128be565b92506080870135915060a087013590509295509295509295565b60008060408385031215612a7657600080fd5b612a7f8361274c565b9150612a8d6020840161274c565b90509250929050565b600181811c90821680612aaa57607f821691505b602082108114156118ec57634e487b7160e01b600052602260045260246000fd5b634e487b7160e01b600052601160045260246000fd5b60008219821115612af457612af4612acb565b500190565b600060ff821660ff841680821015612b1357612b13612acb565b90039392505050565b60208082526031908201527f4552433732313a207472616e736665722063616c6c6572206973206e6f74206f6040820152701ddb995c881b9bdc88185c1c1c9bdd9959607a1b606082015260800190565b634e487b7160e01b600052603260045260246000fd5b6020808252818101527f4f776e61626c653a2063616c6c6572206973206e6f7420746865206f776e6572604082015260600190565b6000600019821415612bcc57612bcc612acb565b5060010190565b60008351612be58184602088016126c8565b835190830190612bf98183602088016126c8565b01949350505050565b600082821015612c1457612c14612acb565b500390565b60208082526032908201527f4552433732313a207472616e7366657220746f206e6f6e20455243373231526560408201527131b2b4bb32b91034b6b83632b6b2b73a32b960711b606082015260800190565b634e487b7160e01b600052601260045260246000fd5b600082612c9057612c90612c6b565b500490565b600082612ca457612ca4612c6b565b500690565b6001600160a01b0385811682528416602082015260408101839052608060608201819052600090612cdc908301846126f4565b9695505050505050565b600060208284031215612cf857600080fd5b815161096c81612695565b634e487b7160e01b600052602160045260246000fd5b634e487b7160e01b600052603160045260246000fdfea26469706673582212201075986fa396e9d6cb92f49f481069e9ca208b705a17514d13ec09438377145964736f6c63430008090033",
  "linkReferences": {},
  "deployedLinkReferences": {}
}