{
  "_format": "hh-sol-artifact-1",
  "contractName": "GovernanceNFT",
  "sourceName": "contracts/GovernanceNFT.sol",
  "abi": [
    {
      "inputs": [
        {
          "internalType": "string",
          "name": "name_",
          "type": "string"
        },
        {
          "internalType": "string",
          "name": "symbol_",
          "type": "string"
        },
        {
          "internalType": "address",
          "name": "layerZeroEndpoint_",
          "type": "address"
        },
        {
          "internalType": "uint256",
          "name": "startMintId_",
          "type": "uint256"
        },
        {
          "internalType": "uint256",
          "name": "endMintId_",
          "type": "uint256"
        }
      ],
      "stateMutability": "nonpayable",
      "type": "constructor"
    },
    {
      "anonymous": false,
      "inputs": [
        {
          "indexed": true,
          "internalType": "address",
          "name": "owner",
          "type": "address"
        },
        {
          "indexed": true,
          "internalType": "address",
          "name": "approved",
          "type": "address"
        },
        {
          "indexed": true,
          "internalType": "uint256",
          "name": "tokenId",
          "type": "uint256"
        }
      ],
      "name": "Approval",
      "type": "event"
    },
    {
      "anonymous": false,
      "inputs": [
        {
          "indexed": true,
          "internalType": "address",
          "name": "owner",
          "type": "address"
        },
        {
          "indexed": true,
          "internalType": "address",
          "name": "operator",
          "type": "address"
        },
        {
          "indexed": false,
          "internalType": "bool",
          "name": "approved",
          "type": "bool"
        }
      ],
      "name": "ApprovalForAll",
      "type": "event"
    },
    {
      "anonymous": false,
      "inputs": [
        {
          "indexed": true,
          "internalType": "address",
          "name": "delegator",
          "type": "address"
        },
        {
          "indexed": true,
          "internalType": "address",
          "name": "fromDelegate",
          "type": "address"
        },
        {
          "indexed": true,
          "internalType": "address",
          "name": "toDelegate",
          "type": "address"
        }
      ],
      "name": "DelegateChanged",
      "type": "event"
    },
    {
      "anonymous": false,
      "inputs": [
        {
          "indexed": true,
          "internalType": "address",
          "name": "delegate",
          "type": "address"
        },
        {
          "indexed": false,
          "internalType": "uint256",
          "name": "previousBalance",
          "type": "uint256"
        },
        {
          "indexed": false,
          "internalType": "uint256",
          "name": "newBalance",
          "type": "uint256"
        }
      ],
      "name": "DelegateVotesChanged",
      "type": "event"
    },
    {
      "anonymous": false,
      "inputs": [
        {
          "indexed": false,
          "internalType": "uint16",
          "name": "_srcChainId",
          "type": "uint16"
        },
        {
          "indexed": false,
          "internalType": "bytes",
          "name": "_srcAddress",
          "type": "bytes"
        },
        {
          "indexed": false,
          "internalType": "uint64",
          "name": "_nonce",
          "type": "uint64"
        },
        {
          "indexed": false,
          "internalType": "bytes",
          "name": "_payload",
          "type": "bytes"
        }
      ],
      "name": "MessageFailed",
      "type": "event"
    },
    {
      "anonymous": false,
      "inputs": [
        {
          "indexed": true,
          "internalType": "address",
          "name": "previousOwner",
          "type": "address"
        },
        {
          "indexed": true,
          "internalType": "address",
          "name": "newOwner",
          "type": "address"
        }
      ],
      "name": "OwnershipTransferred",
      "type": "event"
    },
    {
      "anonymous": false,
      "inputs": [
        {
          "indexed": true,
          "internalType": "uint16",
          "name": "_srcChainId",
          "type": "uint16"
        },
        {
          "indexed": true,
          "internalType": "bytes",
          "name": "_srcAddress",
          "type": "bytes"
        },
        {
          "indexed": true,
          "internalType": "address",
          "name": "_toAddress",
          "type": "address"
        },
        {
          "indexed": false,
          "internalType": "uint256",
          "name": "_tokenId",
          "type": "uint256"
        },
        {
          "indexed": false,
          "internalType": "uint64",
          "name": "_nonce",
          "type": "uint64"
        }
      ],
      "name": "ReceiveFromChain",
      "type": "event"
    },
    {
      "anonymous": false,
      "inputs": [
        {
          "indexed": true,
          "internalType": "address",
          "name": "_sender",
          "type": "address"
        },
        {
          "indexed": true,
          "internalType": "uint16",
          "name": "_dstChainId",
          "type": "uint16"
        },
        {
          "indexed": true,
          "internalType": "bytes",
          "name": "_toAddress",
          "type": "bytes"
        },
        {
          "indexed": false,
          "internalType": "uint256",
          "name": "_tokenId",
          "type": "uint256"
        },
        {
          "indexed": false,
          "internalType": "uint64",
          "name": "_nonce",
          "type": "uint64"
        }
      ],
      "name": "SendToChain",
      "type": "event"
    },
    {
      "anonymous": false,
      "inputs": [
        {
          "indexed": false,
          "internalType": "uint16",
          "name": "_srcChainId",
          "type": "uint16"
        },
        {
          "indexed": false,
          "internalType": "bytes",
          "name": "_srcAddress",
          "type": "bytes"
        }
      ],
      "name": "SetTrustedRemote",
      "type": "event"
    },
    {
      "anonymous": false,
      "inputs": [
        {
          "indexed": true,
          "internalType": "address",
          "name": "from",
          "type": "address"
        },
        {
          "indexed": true,
          "internalType": "address",
          "name": "to",
          "type": "address"
        },
        {
          "indexed": true,
          "internalType": "uint256",
          "name": "tokenId",
          "type": "uint256"
        }
      ],
      "name": "Transfer",
      "type": "event"
    },
    {
      "inputs": [],
      "name": "DOMAIN_SEPARATOR",
      "outputs": [
        {
          "internalType": "bytes32",
          "name": "",
          "type": "bytes32"
        }
      ],
      "stateMutability": "view",
      "type": "function"
    },
    {
      "inputs": [
        {
          "internalType": "address",
          "name": "to",
          "type": "address"
        },
        {
          "internalType": "uint256",
          "name": "tokenId",
          "type": "uint256"
        }
      ],
      "name": "approve",
      "outputs": [],
      "stateMutability": "nonpayable",
      "type": "function"
    },
    {
      "inputs": [
        {
          "internalType": "address",
          "name": "owner",
          "type": "address"
        }
      ],
      "name": "balanceOf",
      "outputs": [
        {
          "internalType": "uint256",
          "name": "",
          "type": "uint256"
        }
      ],
      "stateMutability": "view",
      "type": "function"
    },
    {
      "inputs": [
        {
          "internalType": "address",
          "name": "delegatee",
          "type": "address"
        }
      ],
      "name": "delegate",
      "outputs": [],
      "stateMutability": "nonpayable",
      "type": "function"
    },
    {
      "inputs": [
        {
          "internalType": "address",
          "name": "delegatee",
          "type": "address"
        },
        {
          "internalType": "uint256",
          "name": "nonce",
          "type": "uint256"
        },
        {
          "internalType": "uint256",
          "name": "expiry",
          "type": "uint256"
        },
        {
          "internalType": "uint8",
          "name": "v",
          "type": "uint8"
        },
        {
          "internalType": "bytes32",
          "name": "r",
          "type": "bytes32"
        },
        {
          "internalType": "bytes32",
          "name": "s",
          "type": "bytes32"
        }
      ],
      "name": "delegateBySig",
      "outputs": [],
      "stateMutability": "nonpayable",
      "type": "function"
    },
    {
      "inputs": [
        {
          "internalType": "address",
          "name": "account",
          "type": "address"
        }
      ],
      "name": "delegates",
      "outputs": [
        {
          "internalType": "address",
          "name": "",
          "type": "address"
        }
      ],
      "stateMutability": "view",
      "type": "function"
    },
    {
      "inputs": [
        {
          "internalType": "uint16",
          "name": "_dstChainId",
          "type": "uint16"
        },
        {
          "internalType": "bytes",
          "name": "_toAddress",
          "type": "bytes"
        },
        {
          "internalType": "uint256",
          "name": "_tokenId",
          "type": "uint256"
        },
        {
          "internalType": "bool",
          "name": "_useZro",
          "type": "bool"
        },
        {
          "internalType": "bytes",
          "name": "_adapterParams",
          "type": "bytes"
        }
      ],
      "name": "estimateSendFee",
      "outputs": [
        {
          "internalType": "uint256",
          "name": "nativeFee",
          "type": "uint256"
        },
        {
          "internalType": "uint256",
          "name": "zroFee",
          "type": "uint256"
        }
      ],
      "stateMutability": "view",
      "type": "function"
    },
    {
      "inputs": [
        {
          "internalType": "uint16",
          "name": "",
          "type": "uint16"
        },
        {
          "internalType": "bytes",
          "name": "",
          "type": "bytes"
        },
        {
          "internalType": "uint64",
          "name": "",
          "type": "uint64"
        }
      ],
      "name": "failedMessages",
      "outputs": [
        {
          "internalType": "bytes32",
          "name": "",
          "type": "bytes32"
        }
      ],
      "stateMutability": "view",
      "type": "function"
    },
    {
      "inputs": [
        {
          "internalType": "uint16",
          "name": "_srcChainId",
          "type": "uint16"
        },
        {
          "internalType": "bytes",
          "name": "_srcAddress",
          "type": "bytes"
        }
      ],
      "name": "forceResumeReceive",
      "outputs": [],
      "stateMutability": "nonpayable",
      "type": "function"
    },
    {
      "inputs": [
        {
          "internalType": "uint256",
          "name": "tokenId",
          "type": "uint256"
        }
      ],
      "name": "getApproved",
      "outputs": [
        {
          "internalType": "address",
          "name": "",
          "type": "address"
        }
      ],
      "stateMutability": "view",
      "type": "function"
    },
    {
      "inputs": [
        {
          "internalType": "uint16",
          "name": "_version",
          "type": "uint16"
        },
        {
          "internalType": "uint16",
          "name": "_chainId",
          "type": "uint16"
        },
        {
          "internalType": "address",
          "name": "",
          "type": "address"
        },
        {
          "internalType": "uint256",
          "name": "_configType",
          "type": "uint256"
        }
      ],
      "name": "getConfig",
      "outputs": [
        {
          "internalType": "bytes",
          "name": "",
          "type": "bytes"
        }
      ],
      "stateMutability": "view",
      "type": "function"
    },
    {
      "inputs": [
        {
          "internalType": "uint256",
          "name": "blockNumber",
          "type": "uint256"
        }
      ],
      "name": "getPastTotalSupply",
      "outputs": [
        {
          "internalType": "uint256",
          "name": "",
          "type": "uint256"
        }
      ],
      "stateMutability": "view",
      "type": "function"
    },
    {
      "inputs": [
        {
          "internalType": "address",
          "name": "account",
          "type": "address"
        },
        {
          "internalType": "uint256",
          "name": "blockNumber",
          "type": "uint256"
        }
      ],
      "name": "getPastVotes",
      "outputs": [
        {
          "internalType": "uint256",
          "name": "",
          "type": "uint256"
        }
      ],
      "stateMutability": "view",
      "type": "function"
    },
    {
      "inputs": [
        {
          "internalType": "address",
          "name": "account",
          "type": "address"
        }
      ],
      "name": "getVotes",
      "outputs": [
        {
          "internalType": "uint256",
          "name": "",
          "type": "uint256"
        }
      ],
      "stateMutability": "view",
      "type": "function"
    },
    {
      "inputs": [
        {
          "internalType": "address",
          "name": "owner",
          "type": "address"
        },
        {
          "internalType": "address",
          "name": "operator",
          "type": "address"
        }
      ],
      "name": "isApprovedForAll",
      "outputs": [
        {
          "internalType": "bool",
          "name": "",
          "type": "bool"
        }
      ],
      "stateMutability": "view",
      "type": "function"
    },
    {
      "inputs": [
        {
          "internalType": "uint16",
          "name": "_srcChainId",
          "type": "uint16"
        },
        {
          "internalType": "bytes",
          "name": "_srcAddress",
          "type": "bytes"
        }
      ],
      "name": "isTrustedRemote",
      "outputs": [
        {
          "internalType": "bool",
          "name": "",
          "type": "bool"
        }
      ],
      "stateMutability": "view",
      "type": "function"
    },
    {
      "inputs": [],
      "name": "lzEndpoint",
      "outputs": [
        {
          "internalType": "contract ILayerZeroEndpoint",
          "name": "",
          "type": "address"
        }
      ],
      "stateMutability": "view",
      "type": "function"
    },
    {
      "inputs": [
        {
          "internalType": "uint16",
          "name": "_srcChainId",
          "type": "uint16"
        },
        {
          "internalType": "bytes",
          "name": "_srcAddress",
          "type": "bytes"
        },
        {
          "internalType": "uint64",
          "name": "_nonce",
          "type": "uint64"
        },
        {
          "internalType": "bytes",
          "name": "_payload",
          "type": "bytes"
        }
      ],
      "name": "lzReceive",
      "outputs": [],
      "stateMutability": "nonpayable",
      "type": "function"
    },
    {
      "inputs": [],
      "name": "maxMintId",
      "outputs": [
        {
          "internalType": "uint256",
          "name": "",
          "type": "uint256"
        }
      ],
      "stateMutability": "view",
      "type": "function"
    },
    {
      "inputs": [],
      "name": "mint",
      "outputs": [],
      "stateMutability": "nonpayable",
      "type": "function"
    },
    {
      "inputs": [],
      "name": "name",
      "outputs": [
        {
          "internalType": "string",
          "name": "",
          "type": "string"
        }
      ],
      "stateMutability": "view",
      "type": "function"
    },
    {
      "inputs": [],
      "name": "nextMintId",
      "outputs": [
        {
          "internalType": "uint256",
          "name": "",
          "type": "uint256"
        }
      ],
      "stateMutability": "view",
      "type": "function"
    },
    {
      "inputs": [
        {
          "internalType": "uint16",
          "name": "_srcChainId",
          "type": "uint16"
        },
        {
          "internalType": "bytes",
          "name": "_srcAddress",
          "type": "bytes"
        },
        {
          "internalType": "uint64",
          "name": "_nonce",
          "type": "uint64"
        },
        {
          "internalType": "bytes",
          "name": "_payload",
          "type": "bytes"
        }
      ],
      "name": "nonblockingLzReceive",
      "outputs": [],
      "stateMutability": "nonpayable",
      "type": "function"
    },
    {
      "inputs": [
        {
          "internalType": "address",
          "name": "owner",
          "type": "address"
        }
      ],
      "name": "nonces",
      "outputs": [
        {
          "internalType": "uint256",
          "name": "",
          "type": "uint256"
        }
      ],
      "stateMutability": "view",
      "type": "function"
    },
    {
      "inputs": [
        {
          "internalType": "address",
          "name": "addr",
          "type": "address"
        }
      ],
      "name": "numAvailableToMint",
      "outputs": [
        {
          "internalType": "uint8",
          "name": "",
          "type": "uint8"
        }
      ],
      "stateMutability": "view",
      "type": "function"
    },
    {
      "inputs": [],
      "name": "owner",
      "outputs": [
        {
          "internalType": "address",
          "name": "",
          "type": "address"
        }
      ],
      "stateMutability": "view",
      "type": "function"
    },
    {
      "inputs": [
        {
          "internalType": "uint256",
          "name": "tokenId",
          "type": "uint256"
        }
      ],
      "name": "ownerOf",
      "outputs": [
        {
          "internalType": "address",
          "name": "",
          "type": "address"
        }
      ],
      "stateMutability": "view",
      "type": "function"
    },
    {
      "inputs": [],
      "name": "renounceOwnership",
      "outputs": [],
      "stateMutability": "nonpayable",
      "type": "function"
    },
    {
      "inputs": [
        {
          "internalType": "uint256",
          "name": "amount",
          "type": "uint256"
        }
      ],
      "name": "reserve",
      "outputs": [],
      "stateMutability": "nonpayable",
      "type": "function"
    },
    {
      "inputs": [
        {
          "internalType": "uint16",
          "name": "_srcChainId",
          "type": "uint16"
        },
        {
          "internalType": "bytes",
          "name": "_srcAddress",
          "type": "bytes"
        },
        {
          "internalType": "uint64",
          "name": "_nonce",
          "type": "uint64"
        },
        {
          "internalType": "bytes",
          "name": "_payload",
          "type": "bytes"
        }
      ],
      "name": "retryMessage",
      "outputs": [],
      "stateMutability": "payable",
      "type": "function"
    },
    {
      "inputs": [
        {
          "internalType": "address",
          "name": "from",
          "type": "address"
        },
        {
          "internalType": "address",
          "name": "to",
          "type": "address"
        },
        {
          "internalType": "uint256",
          "name": "tokenId",
          "type": "uint256"
        }
      ],
      "name": "safeTransferFrom",
      "outputs": [],
      "stateMutability": "nonpayable",
      "type": "function"
    },
    {
      "inputs": [
        {
          "internalType": "address",
          "name": "from",
          "type": "address"
        },
        {
          "internalType": "address",
          "name": "to",
          "type": "address"
        },
        {
          "internalType": "uint256",
          "name": "tokenId",
          "type": "uint256"
        },
        {
          "internalType": "bytes",
          "name": "data",
          "type": "bytes"
        }
      ],
      "name": "safeTransferFrom",
      "outputs": [],
      "stateMutability": "nonpayable",
      "type": "function"
    },
    {
      "inputs": [
        {
          "internalType": "address",
          "name": "_from",
          "type": "address"
        },
        {
          "internalType": "uint16",
          "name": "_dstChainId",
          "type": "uint16"
        },
        {
          "internalType": "bytes",
          "name": "_toAddress",
          "type": "bytes"
        },
        {
          "internalType": "uint256",
          "name": "_tokenId",
          "type": "uint256"
        },
        {
          "internalType": "address payable",
          "name": "_refundAddress",
          "type": "address"
        },
        {
          "internalType": "address",
          "name": "_zroPaymentAddress",
          "type": "address"
        },
        {
          "internalType": "bytes",
          "name": "_adapterParams",
          "type": "bytes"
        }
      ],
      "name": "sendFrom",
      "outputs": [],
      "stateMutability": "payable",
      "type": "function"
    },
    {
      "inputs": [
        {
          "internalType": "address[]",
          "name": "addresses",
          "type": "address[]"
        },
        {
          "internalType": "uint8",
          "name": "numAllowedToMint",
          "type": "uint8"
        }
      ],
      "name": "setAllowList",
      "outputs": [],
      "stateMutability": "nonpayable",
      "type": "function"
    },
    {
      "inputs": [
        {
          "internalType": "address",
          "name": "operator",
          "type": "address"
        },
        {
          "internalType": "bool",
          "name": "approved",
          "type": "bool"
        }
      ],
      "name": "setApprovalForAll",
      "outputs": [],
      "stateMutability": "nonpayable",
      "type": "function"
    },
    {
      "inputs": [
        {
          "internalType": "string",
          "name": "baseURI",
          "type": "string"
        }
      ],
      "name": "setBaseURI",
      "outputs": [],
      "stateMutability": "nonpayable",
      "type": "function"
    },
    {
      "inputs": [
        {
          "internalType": "uint16",
          "name": "_version",
          "type": "uint16"
        },
        {
          "internalType": "uint16",
          "name": "_chainId",
          "type": "uint16"
        },
        {
          "internalType": "uint256",
          "name": "_configType",
          "type": "uint256"
        },
        {
          "internalType": "bytes",
          "name": "_config",
          "type": "bytes"
        }
      ],
      "name": "setConfig",
      "outputs": [],
      "stateMutability": "nonpayable",
      "type": "function"
    },
    {
      "inputs": [
        {
          "internalType": "uint16",
          "name": "_version",
          "type": "uint16"
        }
      ],
      "name": "setReceiveVersion",
      "outputs": [],
      "stateMutability": "nonpayable",
      "type": "function"
    },
    {
      "inputs": [
        {
          "internalType": "uint16",
          "name": "_version",
          "type": "uint16"
        }
      ],
      "name": "setSendVersion",
      "outputs": [],
      "stateMutability": "nonpayable",
      "type": "function"
    },
    {
      "inputs": [
        {
          "internalType": "uint16",
          "name": "_srcChainId",
          "type": "uint16"
        },
        {
          "internalType": "bytes",
          "name": "_srcAddress",
          "type": "bytes"
        }
      ],
      "name": "setTrustedRemote",
      "outputs": [],
      "stateMutability": "nonpayable",
      "type": "function"
    },
    {
      "inputs": [
        {
          "internalType": "bytes4",
          "name": "interfaceId",
          "type": "bytes4"
        }
      ],
      "name": "supportsInterface",
      "outputs": [
        {
          "internalType": "bool",
          "name": "",
          "type": "bool"
        }
      ],
      "stateMutability": "view",
      "type": "function"
    },
    {
      "inputs": [],
      "name": "symbol",
      "outputs": [
        {
          "internalType": "string",
          "name": "",
          "type": "string"
        }
      ],
      "stateMutability": "view",
      "type": "function"
    },
    {
      "inputs": [
        {
          "internalType": "uint256",
          "name": "index",
          "type": "uint256"
        }
      ],
      "name": "tokenByIndex",
      "outputs": [
        {
          "internalType": "uint256",
          "name": "",
          "type": "uint256"
        }
      ],
      "stateMutability": "view",
      "type": "function"
    },
    {
      "inputs": [
        {
          "internalType": "address",
          "name": "owner",
          "type": "address"
        },
        {
          "internalType": "uint256",
          "name": "index",
          "type": "uint256"
        }
      ],
      "name": "tokenOfOwnerByIndex",
      "outputs": [
        {
          "internalType": "uint256",
          "name": "",
          "type": "uint256"
        }
      ],
      "stateMutability": "view",
      "type": "function"
    },
    {
      "inputs": [
        {
          "internalType": "uint256",
          "name": "tokenId",
          "type": "uint256"
        }
      ],
      "name": "tokenURI",
      "outputs": [
        {
          "internalType": "string",
          "name": "",
          "type": "string"
        }
      ],
      "stateMutability": "view",
      "type": "function"
    },
    {
      "inputs": [],
      "name": "totalSupply",
      "outputs": [
        {
          "internalType": "uint256",
          "name": "",
          "type": "uint256"
        }
      ],
      "stateMutability": "view",
      "type": "function"
    },
    {
      "inputs": [
        {
          "internalType": "address",
          "name": "from",
          "type": "address"
        },
        {
          "internalType": "address",
          "name": "to",
          "type": "address"
        },
        {
          "internalType": "uint256",
          "name": "tokenId",
          "type": "uint256"
        }
      ],
      "name": "transferFrom",
      "outputs": [],
      "stateMutability": "nonpayable",
      "type": "function"
    },
    {
      "inputs": [
        {
          "internalType": "address",
          "name": "newOwner",
          "type": "address"
        }
      ],
      "name": "transferOwnership",
      "outputs": [],
      "stateMutability": "nonpayable",
      "type": "function"
    },
    {
      "inputs": [
        {
          "internalType": "uint16",
          "name": "",
          "type": "uint16"
        }
      ],
      "name": "trustedRemoteLookup",
      "outputs": [
        {
          "internalType": "bytes",
          "name": "",
          "type": "bytes"
        }
      ],
      "stateMutability": "view",
      "type": "function"
    }
  ],
  "bytecode": "0x6101606040523480156200001257600080fd5b506040516200497938038062004979833981016040819052620000359162000321565b84848487604051806040016040528060018152602001603160f81b8152508484848080620000726200006c6200015a60201b60201c565b6200015e565b6001600160a01b03166080525050815162000095906003906020850190620001ae565b508051620000ab906004906020840190620001ae565b505082516020808501919091208351848301206101008290526101208190524660c0818152604080517f8b73c3c69bb8fe3d512ecc4cf759cc79239f7b179b0ffacaa9a75d522b39400f8188018190528183018790526060820186905260808201949094523060a08083019190915282518083039091018152920190528051940193909320919350919060a0523060e0526101405250505060119590955550505060125550620003fc92505050565b3390565b600080546001600160a01b038381166001600160a01b0319831681178455604051919092169283917f8be0079c531659141344cd1fd0a4f28419497f9722a3daafe3b4186f6b6457e09190a35050565b828054620001bc90620003bf565b90600052602060002090601f016020900481019282620001e057600085556200022b565b82601f10620001fb57805160ff19168380011785556200022b565b828001600101855582156200022b579182015b828111156200022b5782518255916020019190600101906200020e565b50620002399291506200023d565b5090565b5b808211156200023957600081556001016200023e565b634e487b7160e01b600052604160045260246000fd5b600082601f8301126200027c57600080fd5b81516001600160401b038082111562000299576200029962000254565b604051601f8301601f19908116603f01168101908282118183101715620002c457620002c462000254565b81604052838152602092508683858801011115620002e157600080fd5b600091505b83821015620003055785820183015181830184015290820190620002e6565b83821115620003175760008385830101525b9695505050505050565b600080600080600060a086880312156200033a57600080fd5b85516001600160401b03808211156200035257600080fd5b6200036089838a016200026a565b965060208801519150808211156200037757600080fd5b5062000386888289016200026a565b604088015190955090506001600160a01b0381168114620003a657600080fd5b6060870151608090970151959894975095949392505050565b600181811c90821680620003d457607f821691505b60208210811415620003f657634e487b7160e01b600052602260045260246000fd5b50919050565b60805160a05160c05160e0516101005161012051610140516144e36200049660003960006120d201526000612121015260006120fc015260006120550152600061207f015260006120a90152600081816107ac0152818161096e01528181610bd601528181610d9501528181610f56015281816111c50152818161186701528181611b3d015281816122df01526129ce01526144e36000f3fe6080604052600436106102ad5760003560e01c806366ad5c8a11610175578063a22cb465116100dc578063cbed8b9c11610095578063e985e9c51161006f578063e985e9c5146108c2578063eb8d72b71461090b578063f2fde38b1461092b578063f5ecbdbc1461094b57600080fd5b8063cbed8b9c14610879578063d1deba1f14610899578063e1d4c870146108ac57600080fd5b8063a22cb4651461077a578063b353aaa71461079a578063b88d4fde146107ce578063c04a2836146107ee578063c3cda52014610839578063c87b56dd1461085957600080fd5b8063819b25ba1161012e578063819b25ba146106c75780638295784d146106e75780638da5cb5b146107075780638e539e8c1461072557806395d89b41146107455780639ab24eb01461075a57600080fd5b806366ad5c8a1461061c5780636aa99da31461063c57806370a0823114610652578063715018a6146106725780637533d788146106875780637ecebe00146106a757600080fd5b80633644e5151161021957806351905636116101d2578063519056361461052157806355f804b314610534578063587cde1e146105545780635b8c41e61461058d5780635c19a95c146105dc5780636352211e146105fc57600080fd5b80633644e5151461046c5780633a46b1a8146104815780633d8b38f6146104a157806342842e0e146104c157806342d65a8d146104e15780634f6ccce71461050157600080fd5b806310ddb1371161026b57806310ddb137146103a35780631249c58b146103c357806318160ddd146103d857806323b872dd146103f75780632a205e3d146104175780632f745c591461044c57600080fd5b80621d3567146102b257806301ffc9a7146102d457806306fdde031461030957806307e0db171461032b578063081812fc1461034b578063095ea7b314610383575b600080fd5b3480156102be57600080fd5b506102d26102cd3660046138ce565b61096b565b005b3480156102e057600080fd5b506102f46102ef36600461396c565b610b12565b60405190151581526020015b60405180910390f35b34801561031557600080fd5b5061031e610b23565b60405161030091906139e1565b34801561033757600080fd5b506102d26103463660046139f4565b610bb5565b34801561035757600080fd5b5061036b610366366004613a0f565b610c37565b6040516001600160a01b039091168152602001610300565b34801561038f57600080fd5b506102d261039e366004613a3d565b610c5e565b3480156103af57600080fd5b506102d26103be3660046139f4565b610d74565b3480156103cf57600080fd5b506102d2610dcc565b3480156103e457600080fd5b50600b545b604051908152602001610300565b34801561040357600080fd5b506102d2610412366004613a69565b610ee5565b34801561042357600080fd5b50610437610432366004613aba565b610f17565b60408051928352602083019190915201610300565b34801561045857600080fd5b506103e9610467366004613a3d565b610ff1565b34801561047857600080fd5b506103e9611087565b34801561048d57600080fd5b506103e961049c366004613a3d565b611096565b3480156104ad57600080fd5b506102f46104bc366004613b89565b6110bf565b3480156104cd57600080fd5b506102d26104dc366004613a69565b61118b565b3480156104ed57600080fd5b506102d26104fc366004613b89565b6111a6565b34801561050d57600080fd5b506103e961051c366004613a0f565b611235565b6102d261052f366004613bdb565b6112c8565b34801561054057600080fd5b506102d261054f366004613c94565b6112d7565b34801561056057600080fd5b5061036b61056f366004613cdc565b6001600160a01b039081166000908152600d60205260409020541690565b34801561059957600080fd5b506103e96105a8366004613cf9565b6002602090815260009384526040808520845180860184018051928152908401958401959095209452929052825290205481565b3480156105e857600080fd5b506102d26105f7366004613cdc565b6112f6565b34801561060857600080fd5b5061036b610617366004613a0f565b611301565b34801561062857600080fd5b506102d26106373660046138ce565b611361565b34801561064857600080fd5b506103e960115481565b34801561065e57600080fd5b506103e961066d366004613cdc565b6113d1565b34801561067e57600080fd5b506102d2611457565b34801561069357600080fd5b5061031e6106a23660046139f4565b61146b565b3480156106b357600080fd5b506103e96106c2366004613cdc565b611505565b3480156106d357600080fd5b506102d26106e2366004613a0f565b611523565b3480156106f357600080fd5b506102d2610702366004613d6b565b6115cc565b34801561071357600080fd5b506000546001600160a01b031661036b565b34801561073157600080fd5b506103e9610740366004613a0f565b611648565b34801561075157600080fd5b5061031e6116a4565b34801561076657600080fd5b506103e9610775366004613cdc565b6116b3565b34801561078657600080fd5b506102d2610795366004613dee565b6116d4565b3480156107a657600080fd5b5061036b7f000000000000000000000000000000000000000000000000000000000000000081565b3480156107da57600080fd5b506102d26107e9366004613e23565b6116df565b3480156107fa57600080fd5b50610827610809366004613cdc565b6001600160a01b031660009081526014602052604090205460ff1690565b60405160ff9091168152602001610300565b34801561084557600080fd5b506102d2610854366004613e82565b611711565b34801561086557600080fd5b5061031e610874366004613a0f565b611835565b34801561088557600080fd5b506102d2610894366004613edc565b611848565b6102d26108a73660046138ce565b6118dd565b3480156108b857600080fd5b506103e960125481565b3480156108ce57600080fd5b506102f46108dd366004613f4a565b6001600160a01b03918216600090815260086020908152604080832093909416825291909152205460ff1690565b34801561091757600080fd5b506102d2610926366004613b89565b611a2f565b34801561093757600080fd5b506102d2610946366004613cdc565b611a96565b34801561095757600080fd5b5061031e610966366004613f83565b611b0c565b337f00000000000000000000000000000000000000000000000000000000000000006001600160a01b0316146109e85760405162461bcd60e51b815260206004820152601e60248201527f4c7a4170703a20696e76616c696420656e64706f696e742063616c6c6572000060448201526064015b60405180910390fd5b61ffff841660009081526001602052604081208054610a0690613fd0565b80601f0160208091040260200160405190810160405280929190818152602001828054610a3290613fd0565b8015610a7f5780601f10610a5457610100808354040283529160200191610a7f565b820191906000526020600020905b815481529060010190602001808311610a6257829003601f168201915b5050505050905080518451148015610aa4575080805190602001208480519060200120145b610aff5760405162461bcd60e51b815260206004820152602660248201527f4c7a4170703a20696e76616c696420736f757263652073656e64696e6720636f6044820152651b9d1c9858dd60d21b60648201526084016109df565b610b0b85858585611bce565b5050505050565b6000610b1d82611cbf565b92915050565b606060038054610b3290613fd0565b80601f0160208091040260200160405190810160405280929190818152602001828054610b5e90613fd0565b8015610bab5780601f10610b8057610100808354040283529160200191610bab565b820191906000526020600020905b815481529060010190602001808311610b8e57829003601f168201915b5050505050905090565b610bbd611cdc565b6040516307e0db1760e01b815261ffff821660048201527f00000000000000000000000000000000000000000000000000000000000000006001600160a01b0316906307e0db17906024015b600060405180830381600087803b158015610c2357600080fd5b505af1158015610b0b573d6000803e3d6000fd5b6000610c4282611d36565b506000908152600760205260409020546001600160a01b031690565b6000610c6982611301565b9050806001600160a01b0316836001600160a01b03161415610cd75760405162461bcd60e51b815260206004820152602160248201527f4552433732313a20617070726f76616c20746f2063757272656e74206f776e656044820152603960f91b60648201526084016109df565b336001600160a01b0382161480610cf35750610cf381336108dd565b610d655760405162461bcd60e51b815260206004820152603e60248201527f4552433732313a20617070726f76652063616c6c6572206973206e6f7420746f60448201527f6b656e206f776e6572206e6f7220617070726f76656420666f7220616c6c000060648201526084016109df565b610d6f8383611d95565b505050565b610d7c611cdc565b6040516310ddb13760e01b815261ffff821660048201527f00000000000000000000000000000000000000000000000000000000000000006001600160a01b0316906310ddb13790602401610c09565b33600090815260146020526040902054600160ff9091161015610e315760405162461bcd60e51b815260206004820152601e60248201527f4578636565646564206d617820617661696c61626c6520746f206d696e74000060448201526064016109df565b6012546011541115610e7e5760405162461bcd60e51b815260206004820152601660248201527513585e081b5a5b9d081b1a5b5a5d081c995858da195960521b60448201526064016109df565b336000908152601460205260408120805460019290610ea190849060ff1661401b565b92506101000a81548160ff021916908360ff1602179055506000601154905060116000815480929190610ed39061403e565b9190505550610ee23382611e03565b50565b610ef0335b82611e1d565b610f0c5760405162461bcd60e51b81526004016109df90614059565b610d6f838383611e9b565b60008060008686604051602001610f2f9291906140a7565b60408051601f198184030181529082905263040a7bb160e41b825291506001600160a01b037f000000000000000000000000000000000000000000000000000000000000000016906340a7bb1090610f93908b90309086908b908b906004016140c9565b604080518083038186803b158015610faa57600080fd5b505afa158015610fbe573d6000803e3d6000fd5b505050506040513d601f19601f82011682018060405250810190610fe2919061411d565b92509250509550959350505050565b6000610ffc836113d1565b821061105e5760405162461bcd60e51b815260206004820152602b60248201527f455243373231456e756d657261626c653a206f776e657220696e646578206f7560448201526a74206f6620626f756e647360a81b60648201526084016109df565b506001600160a01b03919091166000908152600960209081526040808320938352929052205490565b6000611091612048565b905090565b6001600160a01b0382166000908152600e602052604081206110b8908361216f565b9392505050565b61ffff8316600090815260016020526040812080548291906110e090613fd0565b80601f016020809104026020016040519081016040528092919081815260200182805461110c90613fd0565b80156111595780601f1061112e57610100808354040283529160200191611159565b820191906000526020600020905b81548152906001019060200180831161113c57829003601f168201915b505050505090508383604051611170929190614141565b60405180910390208180519060200120149150509392505050565b610d6f838383604051806020016040528060008152506116df565b6111ae611cdc565b6040516342d65a8d60e01b81526001600160a01b037f000000000000000000000000000000000000000000000000000000000000000016906342d65a8d906111fe9086908690869060040161417a565b600060405180830381600087803b15801561121857600080fd5b505af115801561122c573d6000803e3d6000fd5b50505050505050565b6000611240600b5490565b82106112a35760405162461bcd60e51b815260206004820152602c60248201527f455243373231456e756d657261626c653a20676c6f62616c20696e646578206f60448201526b7574206f6620626f756e647360a01b60648201526084016109df565b600b82815481106112b6576112b6614198565b90600052602060002001549050919050565b61122c8787878787878761227e565b6112df611cdc565b80516112f29060139060208401906136ce565b5050565b336112f281836123d5565b6000818152600560205260408120546001600160a01b031680610b1d5760405162461bcd60e51b8152602060048201526018602482015277115490cdcc8c4e881a5b9d985b1a59081d1bdad95b88125160421b60448201526064016109df565b3330146113bf5760405162461bcd60e51b815260206004820152602660248201527f4e6f6e626c6f636b696e674c7a4170703a2063616c6c6572206d7573742062656044820152650204c7a4170760d41b60648201526084016109df565b6113cb84848484612447565b50505050565b60006001600160a01b03821661143b5760405162461bcd60e51b815260206004820152602960248201527f4552433732313a2061646472657373207a65726f206973206e6f7420612076616044820152683634b21037bbb732b960b91b60648201526084016109df565b506001600160a01b031660009081526006602052604090205490565b61145f611cdc565b61146960006124e2565b565b6001602052600090815260409020805461148490613fd0565b80601f01602080910402602001604051908101604052809291908181526020018280546114b090613fd0565b80156114fd5780601f106114d2576101008083540402835291602001916114fd565b820191906000526020600020905b8154815290600101906020018083116114e057829003601f168201915b505050505081565b6001600160a01b038116600090815260106020526040812054610b1d565b61152b611cdc565b6012546115396001836141ae565b60115461154691906141c5565b111561158d5760405162461bcd60e51b815260206004820152601660248201527513585e081b5a5b9d081b1a5b5a5d081c995858da195960521b60448201526064016109df565b60005b818110156112f2576011805490819060006115aa8361403e565b91905055506115b93382611e03565b50806115c48161403e565b915050611590565b6115d4611cdc565b60005b828110156113cb5781601460008686858181106115f6576115f6614198565b905060200201602081019061160b9190613cdc565b6001600160a01b031681526020810191909152604001600020805460ff191660ff92909216919091179055806116408161403e565b9150506115d7565b60004382106116995760405162461bcd60e51b815260206004820152601a60248201527f566f7465733a20626c6f636b206e6f7420796574206d696e656400000000000060448201526064016109df565b610b1d600f8361216f565b606060048054610b3290613fd0565b6001600160a01b0381166000908152600e60205260408120610b1d90612532565b6112f233838361258e565b6116e93383611e1d565b6117055760405162461bcd60e51b81526004016109df90614059565b6113cb8484848461265d565b834211156117615760405162461bcd60e51b815260206004820152601860248201527f566f7465733a207369676e61747572652065787069726564000000000000000060448201526064016109df565b604080517fe48329057bfd03d55e49b547132e39cffd9c1820ad7b9d4c5307691425d15adf60208201526001600160a01b0388169181019190915260608101869052608081018590526000906117db906117d39060a00160405160208183030381529060405280519060200120612690565b8585856126de565b90506117e681612706565b861461182b5760405162461bcd60e51b8152602060048201526014602482015273566f7465733a20696e76616c6964206e6f6e636560601b60448201526064016109df565b61122c81886123d5565b606061184082611d36565b610b1d61272e565b611850611cdc565b6040516332fb62e760e21b81526001600160a01b037f0000000000000000000000000000000000000000000000000000000000000000169063cbed8b9c906118a490889088908890889088906004016141dd565b600060405180830381600087803b1580156118be57600080fd5b505af11580156118d2573d6000803e3d6000fd5b505050505050505050565b61ffff841660009081526002602052604080822090516118fe908690614216565b90815260408051602092819003830190206001600160401b0386166000908152925290205490508061197e5760405162461bcd60e51b815260206004820152602360248201527f4e6f6e626c6f636b696e674c7a4170703a206e6f2073746f726564206d65737360448201526261676560e81b60648201526084016109df565b8151602083012081146119dd5760405162461bcd60e51b815260206004820152602160248201527f4e6f6e626c6f636b696e674c7a4170703a20696e76616c6964207061796c6f616044820152601960fa1b60648201526084016109df565b61ffff851660009081526002602052604080822090516119fe908790614216565b90815260408051602092819003830190206001600160401b03871660009081529252902055610b0b85858585612447565b611a37611cdc565b61ffff83166000908152600160205260409020611a5590838361374e565b507ffa41487ad5d6728f0b19276fa1eddc16558578f5109fc39d2dc33c3230470dab838383604051611a899392919061417a565b60405180910390a1505050565b611a9e611cdc565b6001600160a01b038116611b035760405162461bcd60e51b815260206004820152602660248201527f4f776e61626c653a206e6577206f776e657220697320746865207a65726f206160448201526564647265737360d01b60648201526084016109df565b610ee2816124e2565b604051633d7b2f6f60e21b815261ffff808616600483015284166024820152306044820152606481018290526060907f00000000000000000000000000000000000000000000000000000000000000006001600160a01b03169063f5ecbdbc9060840160006040518083038186803b158015611b8757600080fd5b505afa158015611b9b573d6000803e3d6000fd5b505050506040513d6000823e601f3d908101601f19168201604052611bc39190810190614277565b90505b949350505050565b604051633356ae4560e11b815230906366ad5c8a90611bf79087908790879087906004016142ab565b600060405180830381600087803b158015611c1157600080fd5b505af1925050508015611c22575060015b6113cb578080519060200120600260008661ffff1661ffff16815260200190815260200160002084604051611c579190614216565b9081526040805191829003602090810183206001600160401b0387166000908152915220919091557fe6f254030bcb01ffd20558175c13fcaed6d1520be7becee4c961b65f79243b0d90611cb29086908690869086906142ab565b60405180910390a16113cb565b60006001600160e01b031982161580610b1d5750610b1d8261273d565b6000546001600160a01b031633146114695760405162461bcd60e51b815260206004820181905260248201527f4f776e61626c653a2063616c6c6572206973206e6f7420746865206f776e657260448201526064016109df565b6000818152600560205260409020546001600160a01b0316610ee25760405162461bcd60e51b8152602060048201526018602482015277115490cdcc8c4e881a5b9d985b1a59081d1bdad95b88125160421b60448201526064016109df565b600081815260076020526040902080546001600160a01b0319166001600160a01b0384169081179091558190611dca82611301565b6001600160a01b03167f8c5be1e5ebec7d5bd14f71427d1e84f3dd0314c0f7b2291e5b200ac8c7c3b92560405160405180910390a45050565b6112f2828260405180602001604052806000815250612762565b600080611e2983611301565b9050806001600160a01b0316846001600160a01b03161480611e7057506001600160a01b0380821660009081526008602090815260408083209388168352929052205460ff165b80611bc65750836001600160a01b0316611e8984610c37565b6001600160a01b031614949350505050565b826001600160a01b0316611eae82611301565b6001600160a01b031614611f125760405162461bcd60e51b815260206004820152602560248201527f4552433732313a207472616e736665722066726f6d20696e636f72726563742060448201526437bbb732b960d91b60648201526084016109df565b6001600160a01b038216611f745760405162461bcd60e51b8152602060048201526024808201527f4552433732313a207472616e7366657220746f20746865207a65726f206164646044820152637265737360e01b60648201526084016109df565b611f7f838383612795565b611f8a600082611d95565b6001600160a01b0383166000908152600660205260408120805460019290611fb39084906141ae565b90915550506001600160a01b0382166000908152600660205260408120805460019290611fe19084906141c5565b909155505060008181526005602052604080822080546001600160a01b0319166001600160a01b0386811691821790925591518493918716917fddf252ad1be2c89b69c2b068fc378daa952ba7f163c4a11628f55a4df523b3ef91a4610d6f8383836127a0565b6000306001600160a01b037f0000000000000000000000000000000000000000000000000000000000000000161480156120a157507f000000000000000000000000000000000000000000000000000000000000000046145b156120cb57507f000000000000000000000000000000000000000000000000000000000000000090565b50604080517f00000000000000000000000000000000000000000000000000000000000000006020808301919091527f0000000000000000000000000000000000000000000000000000000000000000828401527f000000000000000000000000000000000000000000000000000000000000000060608301524660808301523060a0808401919091528351808403909101815260c0909201909252805191012090565b60004382106121c05760405162461bcd60e51b815260206004820181905260248201527f436865636b706f696e74733a20626c6f636b206e6f7420796574206d696e656460448201526064016109df565b825460005b818110156122255760006121d982846127ab565b9050848660000182815481106121f1576121f1614198565b60009182526020909120015463ffffffff1611156122115780925061221f565b61221c8160016141c5565b91505b506121c5565b811561226957846122376001846141ae565b8154811061224757612247614198565b60009182526020909120015464010000000090046001600160e01b031661226c565b60005b6001600160e01b031695945050505050565b61228a878787876127c6565b6000858560405160200161229f9291906140a7565b60405160208183030381529060405290506122bd87828686866128af565b604051630f428ae960e31b815261ffff881660048201523060248201526000907f00000000000000000000000000000000000000000000000000000000000000006001600160a01b031690637a1457489060440160206040518083038186803b15801561232957600080fd5b505afa15801561233d573d6000803e3d6000fd5b505050506040513d601f19601f8201168201806040525081019061236191906142e9565b9050866040516123719190614216565b604080519182900382208883526001600160401b03841660208401529161ffff8b16916001600160a01b038d16917f024797cc77ce15dc717112d54fb1df125fdfd8c81344fb046c5e074427ce1543910160405180910390a4505050505050505050565b6001600160a01b038281166000818152600d602052604080822080548686166001600160a01b0319821681179092559151919094169392849290917f3134e8a2e6d97e929a7e54011ea5485d7d196dd5f0ba4d4ef95803e8e3fc257f9190a4610d6f818361244286612a49565b612a54565b6000808280602001905181019061245e9190614306565b60148201519193509150612473878284612b91565b806001600160a01b03168660405161248b9190614216565b604080519182900382208583526001600160401b03891660208401529161ffff8b16917f64e10c37f404d128982dce114f5d233c14c5c7f6d8db93099e3d99dacb9e27ba910160405180910390a450505050505050565b600080546001600160a01b038381166001600160a01b0319831681178455604051919092169283917f8be0079c531659141344cd1fd0a4f28419497f9722a3daafe3b4186f6b6457e09190a35050565b8054600090801561257b57826125496001836141ae565b8154811061255957612559614198565b60009182526020909120015464010000000090046001600160e01b031661257e565b60005b6001600160e01b03169392505050565b816001600160a01b0316836001600160a01b031614156125f05760405162461bcd60e51b815260206004820152601960248201527f4552433732313a20617070726f766520746f2063616c6c65720000000000000060448201526064016109df565b6001600160a01b03838116600081815260086020908152604080832094871680845294825291829020805460ff191686151590811790915591519182527f17307eab39ab6107e8899845ad3d59bd9653f200f220920489ca2b5937696c31910160405180910390a3505050565b612668848484611e9b565b61267484848484612b9b565b6113cb5760405162461bcd60e51b81526004016109df9061434c565b6000610b1d61269d612048565b8360405161190160f01b6020820152602281018390526042810182905260009060620160405160208183030381529060405280519060200120905092915050565b60008060006126ef87878787612ca5565b915091506126fc81612d92565b5095945050505050565b6001600160a01b03811660009081526010602052604090208054600181018255905b50919050565b606060138054610b3290613fd0565b60006001600160e01b0319821663780e9d6360e01b1480610b1d5750610b1d82612f4d565b61276c8383612f8d565b6127796000848484612b9b565b610d6f5760405162461bcd60e51b81526004016109df9061434c565b610d6f8383836130e3565b610d6f83838361319b565b60006127ba600284841861439e565b6110b8908484166141c5565b6127cf33610eea565b6128325760405162461bcd60e51b815260206004820152602e60248201527f4f4e46543732313a2073656e642063616c6c6572206973206e6f74206f776e6560448201526d1c881b9bdc88185c1c1c9bdd995960921b60648201526084016109df565b836001600160a01b031661284582611301565b6001600160a01b0316146128a65760405162461bcd60e51b815260206004820152602260248201527f4f4e46543732313a2073656e642066726f6d20696e636f7272656374206f776e60448201526132b960f11b60648201526084016109df565b6113cb816131a7565b61ffff8516600090815260016020526040812080546128cd90613fd0565b80601f01602080910402602001604051908101604052809291908181526020018280546128f990613fd0565b80156129465780601f1061291b57610100808354040283529160200191612946565b820191906000526020600020905b81548152906001019060200180831161292957829003601f168201915b505050505090508051600014156129b85760405162461bcd60e51b815260206004820152603060248201527f4c7a4170703a2064657374696e6174696f6e20636861696e206973206e6f742060448201526f61207472757374656420736f7572636560801b60648201526084016109df565b60405162c5803160e81b81526001600160a01b037f0000000000000000000000000000000000000000000000000000000000000000169063c5803100903490612a0f908a9086908b908b908b908b906004016143c0565b6000604051808303818588803b158015612a2857600080fd5b505af1158015612a3c573d6000803e3d6000fd5b5050505050505050505050565b6000610b1d826113d1565b816001600160a01b0316836001600160a01b031614158015612a765750600081115b15610d6f576001600160a01b03831615612b04576001600160a01b0383166000908152600e602052604081208190612ab19061325685613262565b91509150846001600160a01b03167fdec2bacdd2f05b59de34da9b523dff8be42e5e38e818c82fdb0bae774387a7248383604051612af9929190918252602082015260400190565b60405180910390a250505b6001600160a01b03821615610d6f576001600160a01b0382166000908152600e602052604081208190612b3a9061329085613262565b91509150836001600160a01b03167fdec2bacdd2f05b59de34da9b523dff8be42e5e38e818c82fdb0bae774387a7248383604051612b82929190918252602082015260400190565b60405180910390a25050505050565b610d6f8282611e03565b60006001600160a01b0384163b15612c9d57604051630a85bd0160e11b81526001600160a01b0385169063150b7a0290612bdf903390899088908890600401614427565b602060405180830381600087803b158015612bf957600080fd5b505af1925050508015612c29575060408051601f3d908101601f19168201909252612c2691810190614464565b60015b612c83573d808015612c57576040519150601f19603f3d011682016040523d82523d6000602084013e612c5c565b606091505b508051612c7b5760405162461bcd60e51b81526004016109df9061434c565b805181602001fd5b6001600160e01b031916630a85bd0160e11b149050611bc6565b506001611bc6565b6000807f7fffffffffffffffffffffffffffffff5d576e7357a4501ddfe92f46681b20a0831115612cdc5750600090506003612d89565b8460ff16601b14158015612cf457508460ff16601c14155b15612d055750600090506004612d89565b6040805160008082526020820180845289905260ff881692820192909252606081018690526080810185905260019060a0016020604051602081039080840390855afa158015612d59573d6000803e3d6000fd5b5050604051601f1901519150506001600160a01b038116612d8257600060019250925050612d89565b9150600090505b94509492505050565b6000816004811115612da657612da6614481565b1415612daf5750565b6001816004811115612dc357612dc3614481565b1415612e115760405162461bcd60e51b815260206004820152601860248201527f45434453413a20696e76616c6964207369676e6174757265000000000000000060448201526064016109df565b6002816004811115612e2557612e25614481565b1415612e735760405162461bcd60e51b815260206004820152601f60248201527f45434453413a20696e76616c6964207369676e6174757265206c656e6774680060448201526064016109df565b6003816004811115612e8757612e87614481565b1415612ee05760405162461bcd60e51b815260206004820152602260248201527f45434453413a20696e76616c6964207369676e6174757265202773272076616c604482015261756560f01b60648201526084016109df565b6004816004811115612ef457612ef4614481565b1415610ee25760405162461bcd60e51b815260206004820152602260248201527f45434453413a20696e76616c6964207369676e6174757265202776272076616c604482015261756560f01b60648201526084016109df565b60006001600160e01b031982166380ac58cd60e01b1480612f7e57506001600160e01b03198216635b5e139f60e01b145b80610b1d5750610b1d8261329c565b6001600160a01b038216612fe35760405162461bcd60e51b815260206004820181905260248201527f4552433732313a206d696e7420746f20746865207a65726f206164647265737360448201526064016109df565b6000818152600560205260409020546001600160a01b0316156130485760405162461bcd60e51b815260206004820152601c60248201527f4552433732313a20746f6b656e20616c7265616479206d696e7465640000000060448201526064016109df565b61305460008383612795565b6001600160a01b038216600090815260066020526040812080546001929061307d9084906141c5565b909155505060008181526005602052604080822080546001600160a01b0319166001600160a01b03861690811790915590518392907fddf252ad1be2c89b69c2b068fc378daa952ba7f163c4a11628f55a4df523b3ef908290a46112f2600083836127a0565b6001600160a01b03831661313e5761313981600b80546000838152600c60205260408120829055600182018355919091527f0175b7a638427703f0dbe7bb9bbf987a2551717b34e79f33b5b1008d1fa01db90155565b613161565b816001600160a01b0316836001600160a01b0316146131615761316183826132d1565b6001600160a01b03821661317857610d6f8161336e565b826001600160a01b0316826001600160a01b031614610d6f57610d6f828261341d565b610d6f83836001613461565b60006131b282611301565b90506131c081600084612795565b6131cb600083611d95565b6001600160a01b03811660009081526006602052604081208054600192906131f49084906141ae565b909155505060008281526005602052604080822080546001600160a01b0319169055518391906001600160a01b038416907fddf252ad1be2c89b69c2b068fc378daa952ba7f163c4a11628f55a4df523b3ef908390a46112f2816000846127a0565b60006110b882846141ae565b6000806132848561327f61327588612532565b868863ffffffff16565b6134d1565b91509150935093915050565b60006110b882846141c5565b60006001600160e01b03198216637bb0080b60e01b1480610b1d57506301ffc9a760e01b6001600160e01b0319831614610b1d565b600060016132de846113d1565b6132e891906141ae565b6000838152600a602052604090205490915080821461333b576001600160a01b03841660009081526009602090815260408083208584528252808320548484528184208190558352600a90915290208190555b506000918252600a602090815260408084208490556001600160a01b039094168352600981528383209183525290812055565b600b54600090613380906001906141ae565b6000838152600c6020526040812054600b80549394509092849081106133a8576133a8614198565b9060005260206000200154905080600b83815481106133c9576133c9614198565b6000918252602080832090910192909255828152600c9091526040808220849055858252812055600b80548061340157613401614497565b6001900381819060005260206000200160009055905550505050565b6000613428836113d1565b6001600160a01b0390931660009081526009602090815260408083208684528252808320859055938252600a9052919091209190915550565b6001600160a01b0383166134805761347d600f61329083613262565b50505b6001600160a01b03821661349f5761349c600f61325683613262565b50505b6001600160a01b038381166000908152600d6020526040808220548584168352912054610d6f92918216911683612a54565b81546000908190816134e286612532565b9050600082118015613520575043866134fc6001856141ae565b8154811061350c5761350c614198565b60009182526020909120015463ffffffff16145b156135805761352e856135fc565b8661353a6001856141ae565b8154811061354a5761354a614198565b9060005260206000200160000160046101000a8154816001600160e01b0302191690836001600160e01b031602179055506135ee565b85600001604051806040016040528061359843613669565b63ffffffff1681526020016135ac886135fc565b6001600160e01b0390811690915282546001810184556000938452602093849020835194909301519091166401000000000263ffffffff909316929092179101555b9250839150505b9250929050565b60006001600160e01b038211156136655760405162461bcd60e51b815260206004820152602760248201527f53616665436173743a2076616c756520646f65736e27742066697420696e20326044820152663234206269747360c81b60648201526084016109df565b5090565b600063ffffffff8211156136655760405162461bcd60e51b815260206004820152602660248201527f53616665436173743a2076616c756520646f65736e27742066697420696e203360448201526532206269747360d01b60648201526084016109df565b8280546136da90613fd0565b90600052602060002090601f0160209004810192826136fc5760008555613742565b82601f1061371557805160ff1916838001178555613742565b82800160010185558215613742579182015b82811115613742578251825591602001919060010190613727565b506136659291506137c2565b82805461375a90613fd0565b90600052602060002090601f01602090048101928261377c5760008555613742565b82601f106137955782800160ff19823516178555613742565b82800160010185558215613742579182015b828111156137425782358255916020019190600101906137a7565b5b8082111561366557600081556001016137c3565b803561ffff811681146137e957600080fd5b919050565b634e487b7160e01b600052604160045260246000fd5b604051601f8201601f191681016001600160401b038111828210171561382c5761382c6137ee565b604052919050565b60006001600160401b0382111561384d5761384d6137ee565b50601f01601f191660200190565b600061386e61386984613834565b613804565b905082815283838301111561388257600080fd5b828260208301376000602084830101529392505050565b600082601f8301126138aa57600080fd5b6110b88383356020850161385b565b6001600160401b0381168114610ee257600080fd5b600080600080608085870312156138e457600080fd5b6138ed856137d7565b935060208501356001600160401b038082111561390957600080fd5b61391588838901613899565b945060408701359150613927826138b9565b9092506060860135908082111561393d57600080fd5b5061394a87828801613899565b91505092959194509250565b6001600160e01b031981168114610ee257600080fd5b60006020828403121561397e57600080fd5b81356110b881613956565b60005b838110156139a457818101518382015260200161398c565b838111156113cb5750506000910152565b600081518084526139cd816020860160208601613989565b601f01601f19169290920160200192915050565b6020815260006110b860208301846139b5565b600060208284031215613a0657600080fd5b6110b8826137d7565b600060208284031215613a2157600080fd5b5035919050565b6001600160a01b0381168114610ee257600080fd5b60008060408385031215613a5057600080fd5b8235613a5b81613a28565b946020939093013593505050565b600080600060608486031215613a7e57600080fd5b8335613a8981613a28565b92506020840135613a9981613a28565b929592945050506040919091013590565b803580151581146137e957600080fd5b600080600080600060a08688031215613ad257600080fd5b613adb866137d7565b945060208601356001600160401b0380821115613af757600080fd5b613b0389838a01613899565b955060408801359450613b1860608901613aaa565b93506080880135915080821115613b2e57600080fd5b50613b3b88828901613899565b9150509295509295909350565b60008083601f840112613b5a57600080fd5b5081356001600160401b03811115613b7157600080fd5b6020830191508360208285010111156135f557600080fd5b600080600060408486031215613b9e57600080fd5b613ba7846137d7565b925060208401356001600160401b03811115613bc257600080fd5b613bce86828701613b48565b9497909650939450505050565b600080600080600080600060e0888a031215613bf657600080fd5b8735613c0181613a28565b9650613c0f602089016137d7565b955060408801356001600160401b0380821115613c2b57600080fd5b613c378b838c01613899565b965060608a0135955060808a01359150613c5082613a28565b90935060a089013590613c6282613a28565b90925060c08901359080821115613c7857600080fd5b50613c858a828b01613899565b91505092959891949750929550565b600060208284031215613ca657600080fd5b81356001600160401b03811115613cbc57600080fd5b8201601f81018413613ccd57600080fd5b611bc68482356020840161385b565b600060208284031215613cee57600080fd5b81356110b881613a28565b600080600060608486031215613d0e57600080fd5b613d17846137d7565b925060208401356001600160401b03811115613d3257600080fd5b613d3e86828701613899565b9250506040840135613d4f816138b9565b809150509250925092565b803560ff811681146137e957600080fd5b600080600060408486031215613d8057600080fd5b83356001600160401b0380821115613d9757600080fd5b818601915086601f830112613dab57600080fd5b813581811115613dba57600080fd5b8760208260051b8501011115613dcf57600080fd5b602092830195509350613de59186019050613d5a565b90509250925092565b60008060408385031215613e0157600080fd5b8235613e0c81613a28565b9150613e1a60208401613aaa565b90509250929050565b60008060008060808587031215613e3957600080fd5b8435613e4481613a28565b93506020850135613e5481613a28565b92506040850135915060608501356001600160401b03811115613e7657600080fd5b61394a87828801613899565b60008060008060008060c08789031215613e9b57600080fd5b8635613ea681613a28565b95506020870135945060408701359350613ec260608801613d5a565b92506080870135915060a087013590509295509295509295565b600080600080600060808688031215613ef457600080fd5b613efd866137d7565b9450613f0b602087016137d7565b93506040860135925060608601356001600160401b03811115613f2d57600080fd5b613f3988828901613b48565b969995985093965092949392505050565b60008060408385031215613f5d57600080fd5b8235613f6881613a28565b91506020830135613f7881613a28565b809150509250929050565b60008060008060808587031215613f9957600080fd5b613fa2856137d7565b9350613fb0602086016137d7565b92506040850135613fc081613a28565b9396929550929360600135925050565b600181811c90821680613fe457607f821691505b6020821081141561272857634e487b7160e01b600052602260045260246000fd5b634e487b7160e01b600052601160045260246000fd5b600060ff821660ff84168082101561403557614035614005565b90039392505050565b600060001982141561405257614052614005565b5060010190565b6020808252602e908201527f4552433732313a2063616c6c6572206973206e6f7420746f6b656e206f776e6560408201526d1c881b9bdc88185c1c1c9bdd995960921b606082015260800190565b6040815260006140ba60408301856139b5565b90508260208301529392505050565b61ffff861681526001600160a01b038516602082015260a0604082018190526000906140f7908301866139b5565b8415156060840152828103608084015261411181856139b5565b98975050505050505050565b6000806040838503121561413057600080fd5b505080516020909101519092909150565b8183823760009101908152919050565b81835281816020850137506000828201602090810191909152601f909101601f19169091010190565b61ffff84168152604060208201526000611bc3604083018486614151565b634e487b7160e01b600052603260045260246000fd5b6000828210156141c0576141c0614005565b500390565b600082198211156141d8576141d8614005565b500190565b600061ffff80881683528087166020840152508460408301526080606083015261420b608083018486614151565b979650505050505050565b60008251614228818460208701613989565b9190910192915050565b600082601f83011261424357600080fd5b815161425161386982613834565b81815284602083860101111561426657600080fd5b611bc6826020830160208701613989565b60006020828403121561428957600080fd5b81516001600160401b0381111561429f57600080fd5b611bc684828501614232565b61ffff851681526080602082015260006142c860808301866139b5565b6001600160401b0385166040840152828103606084015261420b81856139b5565b6000602082840312156142fb57600080fd5b81516110b8816138b9565b6000806040838503121561431957600080fd5b82516001600160401b0381111561432f57600080fd5b61433b85828601614232565b925050602083015190509250929050565b60208082526032908201527f4552433732313a207472616e7366657220746f206e6f6e20455243373231526560408201527131b2b4bb32b91034b6b83632b6b2b73a32b960711b606082015260800190565b6000826143bb57634e487b7160e01b600052601260045260246000fd5b500490565b61ffff8716815260c0602082015260006143dd60c08301886139b5565b82810360408401526143ef81886139b5565b6001600160a01b0387811660608601528616608085015283810360a0850152905061441a81856139b5565b9998505050505050505050565b6001600160a01b038581168252841660208201526040810183905260806060820181905260009061445a908301846139b5565b9695505050505050565b60006020828403121561447657600080fd5b81516110b881613956565b634e487b7160e01b600052602160045260246000fd5b634e487b7160e01b600052603160045260246000fdfea2646970667358221220a1627ea3fc74c00ae8ab072c7a5d53812ce1b31b123c6df114d7bc2a2534be7064736f6c63430008090033",
  "linkReferences": {},
  "deployedLinkReferences": {}
}