{
  "_format": "hh-sol-artifact-1",
  "contractName": "GovernanceNFT",
  "sourceName": "contracts/GovernanceNFT.sol",
  "abi": [
    {
      "inputs": [
        {
          "internalType": "string",
          "name": "name_",
          "type": "string"
        },
        {
          "internalType": "string",
          "name": "symbol_",
          "type": "string"
        },
        {
          "internalType": "address",
          "name": "layerZeroEndpoint_",
          "type": "address"
        },
        {
          "internalType": "uint256",
          "name": "startMintId_",
          "type": "uint256"
        },
        {
          "internalType": "uint256",
          "name": "endMintId_",
          "type": "uint256"
        }
      ],
      "stateMutability": "nonpayable",
      "type": "constructor"
    },
    {
      "anonymous": false,
      "inputs": [
        {
          "indexed": true,
          "internalType": "address",
          "name": "owner",
          "type": "address"
        },
        {
          "indexed": true,
          "internalType": "address",
          "name": "approved",
          "type": "address"
        },
        {
          "indexed": true,
          "internalType": "uint256",
          "name": "tokenId",
          "type": "uint256"
        }
      ],
      "name": "Approval",
      "type": "event"
    },
    {
      "anonymous": false,
      "inputs": [
        {
          "indexed": true,
          "internalType": "address",
          "name": "owner",
          "type": "address"
        },
        {
          "indexed": true,
          "internalType": "address",
          "name": "operator",
          "type": "address"
        },
        {
          "indexed": false,
          "internalType": "bool",
          "name": "approved",
          "type": "bool"
        }
      ],
      "name": "ApprovalForAll",
      "type": "event"
    },
    {
      "anonymous": false,
      "inputs": [
        {
          "indexed": true,
          "internalType": "address",
          "name": "delegator",
          "type": "address"
        },
        {
          "indexed": true,
          "internalType": "address",
          "name": "fromDelegate",
          "type": "address"
        },
        {
          "indexed": true,
          "internalType": "address",
          "name": "toDelegate",
          "type": "address"
        }
      ],
      "name": "DelegateChanged",
      "type": "event"
    },
    {
      "anonymous": false,
      "inputs": [
        {
          "indexed": true,
          "internalType": "address",
          "name": "delegate",
          "type": "address"
        },
        {
          "indexed": false,
          "internalType": "uint256",
          "name": "previousBalance",
          "type": "uint256"
        },
        {
          "indexed": false,
          "internalType": "uint256",
          "name": "newBalance",
          "type": "uint256"
        }
      ],
      "name": "DelegateVotesChanged",
      "type": "event"
    },
    {
      "anonymous": false,
      "inputs": [
        {
          "indexed": false,
          "internalType": "uint16",
          "name": "_srcChainId",
          "type": "uint16"
        },
        {
          "indexed": false,
          "internalType": "bytes",
          "name": "_srcAddress",
          "type": "bytes"
        },
        {
          "indexed": false,
          "internalType": "uint64",
          "name": "_nonce",
          "type": "uint64"
        },
        {
          "indexed": false,
          "internalType": "bytes",
          "name": "_payload",
          "type": "bytes"
        }
      ],
      "name": "MessageFailed",
      "type": "event"
    },
    {
      "anonymous": false,
      "inputs": [
        {
          "indexed": true,
          "internalType": "address",
          "name": "previousOwner",
          "type": "address"
        },
        {
          "indexed": true,
          "internalType": "address",
          "name": "newOwner",
          "type": "address"
        }
      ],
      "name": "OwnershipTransferred",
      "type": "event"
    },
    {
      "anonymous": false,
      "inputs": [
        {
          "indexed": true,
          "internalType": "uint16",
          "name": "_srcChainId",
          "type": "uint16"
        },
        {
          "indexed": true,
          "internalType": "bytes",
          "name": "_srcAddress",
          "type": "bytes"
        },
        {
          "indexed": true,
          "internalType": "address",
          "name": "_toAddress",
          "type": "address"
        },
        {
          "indexed": false,
          "internalType": "uint256",
          "name": "_tokenId",
          "type": "uint256"
        },
        {
          "indexed": false,
          "internalType": "uint64",
          "name": "_nonce",
          "type": "uint64"
        }
      ],
      "name": "ReceiveFromChain",
      "type": "event"
    },
    {
      "anonymous": false,
      "inputs": [
        {
          "indexed": true,
          "internalType": "address",
          "name": "_sender",
          "type": "address"
        },
        {
          "indexed": true,
          "internalType": "uint16",
          "name": "_dstChainId",
          "type": "uint16"
        },
        {
          "indexed": true,
          "internalType": "bytes",
          "name": "_toAddress",
          "type": "bytes"
        },
        {
          "indexed": false,
          "internalType": "uint256",
          "name": "_tokenId",
          "type": "uint256"
        },
        {
          "indexed": false,
          "internalType": "uint64",
          "name": "_nonce",
          "type": "uint64"
        }
      ],
      "name": "SendToChain",
      "type": "event"
    },
    {
      "anonymous": false,
      "inputs": [
        {
          "indexed": false,
          "internalType": "uint16",
          "name": "_srcChainId",
          "type": "uint16"
        },
        {
          "indexed": false,
          "internalType": "bytes",
          "name": "_srcAddress",
          "type": "bytes"
        }
      ],
      "name": "SetTrustedRemote",
      "type": "event"
    },
    {
      "anonymous": false,
      "inputs": [
        {
          "indexed": true,
          "internalType": "address",
          "name": "from",
          "type": "address"
        },
        {
          "indexed": true,
          "internalType": "address",
          "name": "to",
          "type": "address"
        },
        {
          "indexed": true,
          "internalType": "uint256",
          "name": "tokenId",
          "type": "uint256"
        }
      ],
      "name": "Transfer",
      "type": "event"
    },
    {
      "inputs": [],
      "name": "DOMAIN_SEPARATOR",
      "outputs": [
        {
          "internalType": "bytes32",
          "name": "",
          "type": "bytes32"
        }
      ],
      "stateMutability": "view",
      "type": "function"
    },
    {
      "inputs": [
        {
          "internalType": "address",
          "name": "to",
          "type": "address"
        },
        {
          "internalType": "uint256",
          "name": "tokenId",
          "type": "uint256"
        }
      ],
      "name": "approve",
      "outputs": [],
      "stateMutability": "nonpayable",
      "type": "function"
    },
    {
      "inputs": [
        {
          "internalType": "address",
          "name": "owner",
          "type": "address"
        }
      ],
      "name": "balanceOf",
      "outputs": [
        {
          "internalType": "uint256",
          "name": "",
          "type": "uint256"
        }
      ],
      "stateMutability": "view",
      "type": "function"
    },
    {
      "inputs": [],
      "name": "baseURI",
      "outputs": [
        {
          "internalType": "string",
          "name": "",
          "type": "string"
        }
      ],
      "stateMutability": "view",
      "type": "function"
    },
    {
      "inputs": [
        {
          "internalType": "address",
          "name": "delegatee",
          "type": "address"
        }
      ],
      "name": "delegate",
      "outputs": [],
      "stateMutability": "nonpayable",
      "type": "function"
    },
    {
      "inputs": [
        {
          "internalType": "address",
          "name": "delegatee",
          "type": "address"
        },
        {
          "internalType": "uint256",
          "name": "nonce",
          "type": "uint256"
        },
        {
          "internalType": "uint256",
          "name": "expiry",
          "type": "uint256"
        },
        {
          "internalType": "uint8",
          "name": "v",
          "type": "uint8"
        },
        {
          "internalType": "bytes32",
          "name": "r",
          "type": "bytes32"
        },
        {
          "internalType": "bytes32",
          "name": "s",
          "type": "bytes32"
        }
      ],
      "name": "delegateBySig",
      "outputs": [],
      "stateMutability": "nonpayable",
      "type": "function"
    },
    {
      "inputs": [
        {
          "internalType": "address",
          "name": "account",
          "type": "address"
        }
      ],
      "name": "delegates",
      "outputs": [
        {
          "internalType": "address",
          "name": "",
          "type": "address"
        }
      ],
      "stateMutability": "view",
      "type": "function"
    },
    {
      "inputs": [
        {
          "internalType": "uint16",
          "name": "_dstChainId",
          "type": "uint16"
        },
        {
          "internalType": "bytes",
          "name": "_toAddress",
          "type": "bytes"
        },
        {
          "internalType": "uint256",
          "name": "_tokenId",
          "type": "uint256"
        },
        {
          "internalType": "bool",
          "name": "_useZro",
          "type": "bool"
        },
        {
          "internalType": "bytes",
          "name": "_adapterParams",
          "type": "bytes"
        }
      ],
      "name": "estimateSendFee",
      "outputs": [
        {
          "internalType": "uint256",
          "name": "nativeFee",
          "type": "uint256"
        },
        {
          "internalType": "uint256",
          "name": "zroFee",
          "type": "uint256"
        }
      ],
      "stateMutability": "view",
      "type": "function"
    },
    {
      "inputs": [
        {
          "internalType": "uint16",
          "name": "",
          "type": "uint16"
        },
        {
          "internalType": "bytes",
          "name": "",
          "type": "bytes"
        },
        {
          "internalType": "uint64",
          "name": "",
          "type": "uint64"
        }
      ],
      "name": "failedMessages",
      "outputs": [
        {
          "internalType": "bytes32",
          "name": "",
          "type": "bytes32"
        }
      ],
      "stateMutability": "view",
      "type": "function"
    },
    {
      "inputs": [
        {
          "internalType": "uint16",
          "name": "_srcChainId",
          "type": "uint16"
        },
        {
          "internalType": "bytes",
          "name": "_srcAddress",
          "type": "bytes"
        }
      ],
      "name": "forceResumeReceive",
      "outputs": [],
      "stateMutability": "nonpayable",
      "type": "function"
    },
    {
      "inputs": [
        {
          "internalType": "uint256",
          "name": "tokenId",
          "type": "uint256"
        }
      ],
      "name": "getApproved",
      "outputs": [
        {
          "internalType": "address",
          "name": "",
          "type": "address"
        }
      ],
      "stateMutability": "view",
      "type": "function"
    },
    {
      "inputs": [
        {
          "internalType": "uint16",
          "name": "_version",
          "type": "uint16"
        },
        {
          "internalType": "uint16",
          "name": "_chainId",
          "type": "uint16"
        },
        {
          "internalType": "address",
          "name": "",
          "type": "address"
        },
        {
          "internalType": "uint256",
          "name": "_configType",
          "type": "uint256"
        }
      ],
      "name": "getConfig",
      "outputs": [
        {
          "internalType": "bytes",
          "name": "",
          "type": "bytes"
        }
      ],
      "stateMutability": "view",
      "type": "function"
    },
    {
      "inputs": [
        {
          "internalType": "uint256",
          "name": "blockNumber",
          "type": "uint256"
        }
      ],
      "name": "getPastTotalSupply",
      "outputs": [
        {
          "internalType": "uint256",
          "name": "",
          "type": "uint256"
        }
      ],
      "stateMutability": "view",
      "type": "function"
    },
    {
      "inputs": [
        {
          "internalType": "address",
          "name": "account",
          "type": "address"
        },
        {
          "internalType": "uint256",
          "name": "blockNumber",
          "type": "uint256"
        }
      ],
      "name": "getPastVotes",
      "outputs": [
        {
          "internalType": "uint256",
          "name": "",
          "type": "uint256"
        }
      ],
      "stateMutability": "view",
      "type": "function"
    },
    {
      "inputs": [
        {
          "internalType": "address",
          "name": "account",
          "type": "address"
        }
      ],
      "name": "getVotes",
      "outputs": [
        {
          "internalType": "uint256",
          "name": "",
          "type": "uint256"
        }
      ],
      "stateMutability": "view",
      "type": "function"
    },
    {
      "inputs": [
        {
          "internalType": "address",
          "name": "owner",
          "type": "address"
        },
        {
          "internalType": "address",
          "name": "operator",
          "type": "address"
        }
      ],
      "name": "isApprovedForAll",
      "outputs": [
        {
          "internalType": "bool",
          "name": "",
          "type": "bool"
        }
      ],
      "stateMutability": "view",
      "type": "function"
    },
    {
      "inputs": [
        {
          "internalType": "uint16",
          "name": "_srcChainId",
          "type": "uint16"
        },
        {
          "internalType": "bytes",
          "name": "_srcAddress",
          "type": "bytes"
        }
      ],
      "name": "isTrustedRemote",
      "outputs": [
        {
          "internalType": "bool",
          "name": "",
          "type": "bool"
        }
      ],
      "stateMutability": "view",
      "type": "function"
    },
    {
      "inputs": [],
      "name": "lzEndpoint",
      "outputs": [
        {
          "internalType": "contract ILayerZeroEndpoint",
          "name": "",
          "type": "address"
        }
      ],
      "stateMutability": "view",
      "type": "function"
    },
    {
      "inputs": [
        {
          "internalType": "uint16",
          "name": "_srcChainId",
          "type": "uint16"
        },
        {
          "internalType": "bytes",
          "name": "_srcAddress",
          "type": "bytes"
        },
        {
          "internalType": "uint64",
          "name": "_nonce",
          "type": "uint64"
        },
        {
          "internalType": "bytes",
          "name": "_payload",
          "type": "bytes"
        }
      ],
      "name": "lzReceive",
      "outputs": [],
      "stateMutability": "nonpayable",
      "type": "function"
    },
    {
      "inputs": [],
      "name": "maxMintId",
      "outputs": [
        {
          "internalType": "uint256",
          "name": "",
          "type": "uint256"
        }
      ],
      "stateMutability": "view",
      "type": "function"
    },
    {
      "inputs": [],
      "name": "mint",
      "outputs": [],
      "stateMutability": "nonpayable",
      "type": "function"
    },
    {
      "inputs": [],
      "name": "name",
      "outputs": [
        {
          "internalType": "string",
          "name": "",
          "type": "string"
        }
      ],
      "stateMutability": "view",
      "type": "function"
    },
    {
      "inputs": [],
      "name": "nextMintId",
      "outputs": [
        {
          "internalType": "uint256",
          "name": "",
          "type": "uint256"
        }
      ],
      "stateMutability": "view",
      "type": "function"
    },
    {
      "inputs": [
        {
          "internalType": "uint16",
          "name": "_srcChainId",
          "type": "uint16"
        },
        {
          "internalType": "bytes",
          "name": "_srcAddress",
          "type": "bytes"
        },
        {
          "internalType": "uint64",
          "name": "_nonce",
          "type": "uint64"
        },
        {
          "internalType": "bytes",
          "name": "_payload",
          "type": "bytes"
        }
      ],
      "name": "nonblockingLzReceive",
      "outputs": [],
      "stateMutability": "nonpayable",
      "type": "function"
    },
    {
      "inputs": [
        {
          "internalType": "address",
          "name": "owner",
          "type": "address"
        }
      ],
      "name": "nonces",
      "outputs": [
        {
          "internalType": "uint256",
          "name": "",
          "type": "uint256"
        }
      ],
      "stateMutability": "view",
      "type": "function"
    },
    {
      "inputs": [
        {
          "internalType": "address",
          "name": "addr",
          "type": "address"
        }
      ],
      "name": "numAvailableToMint",
      "outputs": [
        {
          "internalType": "uint8",
          "name": "",
          "type": "uint8"
        }
      ],
      "stateMutability": "view",
      "type": "function"
    },
    {
      "inputs": [],
      "name": "owner",
      "outputs": [
        {
          "internalType": "address",
          "name": "",
          "type": "address"
        }
      ],
      "stateMutability": "view",
      "type": "function"
    },
    {
      "inputs": [
        {
          "internalType": "uint256",
          "name": "tokenId",
          "type": "uint256"
        }
      ],
      "name": "ownerOf",
      "outputs": [
        {
          "internalType": "address",
          "name": "",
          "type": "address"
        }
      ],
      "stateMutability": "view",
      "type": "function"
    },
    {
      "inputs": [],
      "name": "renounceOwnership",
      "outputs": [],
      "stateMutability": "nonpayable",
      "type": "function"
    },
    {
      "inputs": [
        {
          "internalType": "uint256",
          "name": "amount",
          "type": "uint256"
        }
      ],
      "name": "reserve",
      "outputs": [],
      "stateMutability": "nonpayable",
      "type": "function"
    },
    {
      "inputs": [
        {
          "internalType": "uint16",
          "name": "_srcChainId",
          "type": "uint16"
        },
        {
          "internalType": "bytes",
          "name": "_srcAddress",
          "type": "bytes"
        },
        {
          "internalType": "uint64",
          "name": "_nonce",
          "type": "uint64"
        },
        {
          "internalType": "bytes",
          "name": "_payload",
          "type": "bytes"
        }
      ],
      "name": "retryMessage",
      "outputs": [],
      "stateMutability": "payable",
      "type": "function"
    },
    {
      "inputs": [
        {
          "internalType": "address",
          "name": "from",
          "type": "address"
        },
        {
          "internalType": "address",
          "name": "to",
          "type": "address"
        },
        {
          "internalType": "uint256",
          "name": "tokenId",
          "type": "uint256"
        }
      ],
      "name": "safeTransferFrom",
      "outputs": [],
      "stateMutability": "nonpayable",
      "type": "function"
    },
    {
      "inputs": [
        {
          "internalType": "address",
          "name": "from",
          "type": "address"
        },
        {
          "internalType": "address",
          "name": "to",
          "type": "address"
        },
        {
          "internalType": "uint256",
          "name": "tokenId",
          "type": "uint256"
        },
        {
          "internalType": "bytes",
          "name": "data",
          "type": "bytes"
        }
      ],
      "name": "safeTransferFrom",
      "outputs": [],
      "stateMutability": "nonpayable",
      "type": "function"
    },
    {
      "inputs": [
        {
          "internalType": "address",
          "name": "_from",
          "type": "address"
        },
        {
          "internalType": "uint16",
          "name": "_dstChainId",
          "type": "uint16"
        },
        {
          "internalType": "bytes",
          "name": "_toAddress",
          "type": "bytes"
        },
        {
          "internalType": "uint256",
          "name": "_tokenId",
          "type": "uint256"
        },
        {
          "internalType": "address payable",
          "name": "_refundAddress",
          "type": "address"
        },
        {
          "internalType": "address",
          "name": "_zroPaymentAddress",
          "type": "address"
        },
        {
          "internalType": "bytes",
          "name": "_adapterParams",
          "type": "bytes"
        }
      ],
      "name": "sendFrom",
      "outputs": [],
      "stateMutability": "payable",
      "type": "function"
    },
    {
      "inputs": [
        {
          "internalType": "address[]",
          "name": "addresses",
          "type": "address[]"
        },
        {
          "internalType": "uint8",
          "name": "numAllowedToMint",
          "type": "uint8"
        }
      ],
      "name": "setAllowList",
      "outputs": [],
      "stateMutability": "nonpayable",
      "type": "function"
    },
    {
      "inputs": [
        {
          "internalType": "address",
          "name": "operator",
          "type": "address"
        },
        {
          "internalType": "bool",
          "name": "approved",
          "type": "bool"
        }
      ],
      "name": "setApprovalForAll",
      "outputs": [],
      "stateMutability": "nonpayable",
      "type": "function"
    },
    {
      "inputs": [
        {
          "internalType": "string",
          "name": "baseURI_",
          "type": "string"
        }
      ],
      "name": "setBaseURI",
      "outputs": [],
      "stateMutability": "nonpayable",
      "type": "function"
    },
    {
      "inputs": [
        {
          "internalType": "uint16",
          "name": "_version",
          "type": "uint16"
        },
        {
          "internalType": "uint16",
          "name": "_chainId",
          "type": "uint16"
        },
        {
          "internalType": "uint256",
          "name": "_configType",
          "type": "uint256"
        },
        {
          "internalType": "bytes",
          "name": "_config",
          "type": "bytes"
        }
      ],
      "name": "setConfig",
      "outputs": [],
      "stateMutability": "nonpayable",
      "type": "function"
    },
    {
      "inputs": [
        {
          "internalType": "uint16",
          "name": "_version",
          "type": "uint16"
        }
      ],
      "name": "setReceiveVersion",
      "outputs": [],
      "stateMutability": "nonpayable",
      "type": "function"
    },
    {
      "inputs": [
        {
          "internalType": "uint16",
          "name": "_version",
          "type": "uint16"
        }
      ],
      "name": "setSendVersion",
      "outputs": [],
      "stateMutability": "nonpayable",
      "type": "function"
    },
    {
      "inputs": [
        {
          "internalType": "uint16",
          "name": "_srcChainId",
          "type": "uint16"
        },
        {
          "internalType": "bytes",
          "name": "_srcAddress",
          "type": "bytes"
        }
      ],
      "name": "setTrustedRemote",
      "outputs": [],
      "stateMutability": "nonpayable",
      "type": "function"
    },
    {
      "inputs": [
        {
          "internalType": "bytes4",
          "name": "interfaceId",
          "type": "bytes4"
        }
      ],
      "name": "supportsInterface",
      "outputs": [
        {
          "internalType": "bool",
          "name": "",
          "type": "bool"
        }
      ],
      "stateMutability": "view",
      "type": "function"
    },
    {
      "inputs": [],
      "name": "symbol",
      "outputs": [
        {
          "internalType": "string",
          "name": "",
          "type": "string"
        }
      ],
      "stateMutability": "view",
      "type": "function"
    },
    {
      "inputs": [
        {
          "internalType": "uint256",
          "name": "index",
          "type": "uint256"
        }
      ],
      "name": "tokenByIndex",
      "outputs": [
        {
          "internalType": "uint256",
          "name": "",
          "type": "uint256"
        }
      ],
      "stateMutability": "view",
      "type": "function"
    },
    {
      "inputs": [
        {
          "internalType": "address",
          "name": "owner",
          "type": "address"
        },
        {
          "internalType": "uint256",
          "name": "index",
          "type": "uint256"
        }
      ],
      "name": "tokenOfOwnerByIndex",
      "outputs": [
        {
          "internalType": "uint256",
          "name": "",
          "type": "uint256"
        }
      ],
      "stateMutability": "view",
      "type": "function"
    },
    {
      "inputs": [
        {
          "internalType": "uint256",
          "name": "tokenId",
          "type": "uint256"
        }
      ],
      "name": "tokenURI",
      "outputs": [
        {
          "internalType": "string",
          "name": "",
          "type": "string"
        }
      ],
      "stateMutability": "view",
      "type": "function"
    },
    {
      "inputs": [],
      "name": "totalSupply",
      "outputs": [
        {
          "internalType": "uint256",
          "name": "",
          "type": "uint256"
        }
      ],
      "stateMutability": "view",
      "type": "function"
    },
    {
      "inputs": [
        {
          "internalType": "address",
          "name": "from",
          "type": "address"
        },
        {
          "internalType": "address",
          "name": "to",
          "type": "address"
        },
        {
          "internalType": "uint256",
          "name": "tokenId",
          "type": "uint256"
        }
      ],
      "name": "transferFrom",
      "outputs": [],
      "stateMutability": "nonpayable",
      "type": "function"
    },
    {
      "inputs": [
        {
          "internalType": "address",
          "name": "newOwner",
          "type": "address"
        }
      ],
      "name": "transferOwnership",
      "outputs": [],
      "stateMutability": "nonpayable",
      "type": "function"
    },
    {
      "inputs": [
        {
          "internalType": "uint16",
          "name": "",
          "type": "uint16"
        }
      ],
      "name": "trustedRemoteLookup",
      "outputs": [
        {
          "internalType": "bytes",
          "name": "",
          "type": "bytes"
        }
      ],
      "stateMutability": "view",
      "type": "function"
    }
  ],
  "bytecode": "0x6101606040523480156200001257600080fd5b50604051620049b3380380620049b3833981016040819052620000359162000321565b84848487604051806040016040528060018152602001603160f81b8152508484848080620000726200006c6200015a60201b60201c565b6200015e565b6001600160a01b03166080525050815162000095906003906020850190620001ae565b508051620000ab906004906020840190620001ae565b505082516020808501919091208351848301206101008290526101208190524660c0818152604080517f8b73c3c69bb8fe3d512ecc4cf759cc79239f7b179b0ffacaa9a75d522b39400f8188018190528183018790526060820186905260808201949094523060a08083019190915282518083039091018152920190528051940193909320919350919060a0523060e0526101405250505060119590955550505060125550620003fc92505050565b3390565b600080546001600160a01b038381166001600160a01b0319831681178455604051919092169283917f8be0079c531659141344cd1fd0a4f28419497f9722a3daafe3b4186f6b6457e09190a35050565b828054620001bc90620003bf565b90600052602060002090601f016020900481019282620001e057600085556200022b565b82601f10620001fb57805160ff19168380011785556200022b565b828001600101855582156200022b579182015b828111156200022b5782518255916020019190600101906200020e565b50620002399291506200023d565b5090565b5b808211156200023957600081556001016200023e565b634e487b7160e01b600052604160045260246000fd5b600082601f8301126200027c57600080fd5b81516001600160401b038082111562000299576200029962000254565b604051601f8301601f19908116603f01168101908282118183101715620002c457620002c462000254565b81604052838152602092508683858801011115620002e157600080fd5b600091505b83821015620003055785820183015181830184015290820190620002e6565b83821115620003175760008385830101525b9695505050505050565b600080600080600060a086880312156200033a57600080fd5b85516001600160401b03808211156200035257600080fd5b6200036089838a016200026a565b965060208801519150808211156200037757600080fd5b5062000386888289016200026a565b604088015190955090506001600160a01b0381168114620003a657600080fd5b6060870151608090970151959894975095949392505050565b600181811c90821680620003d457607f821691505b60208210811415620003f657634e487b7160e01b600052602260045260246000fd5b50919050565b60805160a05160c05160e05161010051610120516101405161451d62000496600039600061210c0152600061215b015260006121360152600061208f015260006120b9015260006120e30152600081816107dc0152818161099e01528181610c0601528181610dc501528181610f86015281816111f5015281816118a101528181611b77015281816123190152612a08015261451d6000f3fe6080604052600436106102c85760003560e01c80636aa99da311610175578063a22cb465116100dc578063cbed8b9c11610095578063e985e9c51161006f578063e985e9c5146108f2578063eb8d72b71461093b578063f2fde38b1461095b578063f5ecbdbc1461097b57600080fd5b8063cbed8b9c146108a9578063d1deba1f146108c9578063e1d4c870146108dc57600080fd5b8063a22cb465146107aa578063b353aaa7146107ca578063b88d4fde146107fe578063c04a28361461081e578063c3cda52014610869578063c87b56dd1461088957600080fd5b8063819b25ba1161012e578063819b25ba146106f75780638295784d146107175780638da5cb5b146107375780638e539e8c1461075557806395d89b41146107755780639ab24eb01461078a57600080fd5b80636aa99da3146106575780636c0360eb1461066d57806370a0823114610682578063715018a6146106a25780637533d788146106b75780637ecebe00146106d757600080fd5b80633644e5151161023457806351905636116101ed5780635b8c41e6116101c75780635b8c41e6146105a85780635c19a95c146105f75780636352211e1461061757806366ad5c8a1461063757600080fd5b8063519056361461053c57806355f804b31461054f578063587cde1e1461056f57600080fd5b80633644e515146104875780633a46b1a81461049c5780633d8b38f6146104bc57806342842e0e146104dc57806342d65a8d146104fc5780634f6ccce71461051c57600080fd5b806310ddb1371161028657806310ddb137146103be5780631249c58b146103de57806318160ddd146103f357806323b872dd146104125780632a205e3d146104325780632f745c591461046757600080fd5b80621d3567146102cd57806301ffc9a7146102ef57806306fdde031461032457806307e0db1714610346578063081812fc14610366578063095ea7b31461039e575b600080fd5b3480156102d957600080fd5b506102ed6102e8366004613908565b61099b565b005b3480156102fb57600080fd5b5061030f61030a3660046139a6565b610b42565b60405190151581526020015b60405180910390f35b34801561033057600080fd5b50610339610b53565b60405161031b9190613a1b565b34801561035257600080fd5b506102ed610361366004613a2e565b610be5565b34801561037257600080fd5b50610386610381366004613a49565b610c67565b6040516001600160a01b03909116815260200161031b565b3480156103aa57600080fd5b506102ed6103b9366004613a77565b610c8e565b3480156103ca57600080fd5b506102ed6103d9366004613a2e565b610da4565b3480156103ea57600080fd5b506102ed610dfc565b3480156103ff57600080fd5b50600b545b60405190815260200161031b565b34801561041e57600080fd5b506102ed61042d366004613aa3565b610f15565b34801561043e57600080fd5b5061045261044d366004613af4565b610f47565b6040805192835260208301919091520161031b565b34801561047357600080fd5b50610404610482366004613a77565b611021565b34801561049357600080fd5b506104046110b7565b3480156104a857600080fd5b506104046104b7366004613a77565b6110c6565b3480156104c857600080fd5b5061030f6104d7366004613bc3565b6110ef565b3480156104e857600080fd5b506102ed6104f7366004613aa3565b6111bb565b34801561050857600080fd5b506102ed610517366004613bc3565b6111d6565b34801561052857600080fd5b50610404610537366004613a49565b611265565b6102ed61054a366004613c15565b6112f8565b34801561055b57600080fd5b506102ed61056a366004613cce565b611307565b34801561057b57600080fd5b5061038661058a366004613d16565b6001600160a01b039081166000908152600d60205260409020541690565b3480156105b457600080fd5b506104046105c3366004613d33565b6002602090815260009384526040808520845180860184018051928152908401958401959095209452929052825290205481565b34801561060357600080fd5b506102ed610612366004613d16565b611326565b34801561062357600080fd5b50610386610632366004613a49565b611331565b34801561064357600080fd5b506102ed610652366004613908565b611391565b34801561066357600080fd5b5061040460115481565b34801561067957600080fd5b50610339611401565b34801561068e57600080fd5b5061040461069d366004613d16565b61140b565b3480156106ae57600080fd5b506102ed611491565b3480156106c357600080fd5b506103396106d2366004613a2e565b6114a5565b3480156106e357600080fd5b506104046106f2366004613d16565b61153f565b34801561070357600080fd5b506102ed610712366004613a49565b61155d565b34801561072357600080fd5b506102ed610732366004613da5565b611606565b34801561074357600080fd5b506000546001600160a01b0316610386565b34801561076157600080fd5b50610404610770366004613a49565b611682565b34801561078157600080fd5b506103396116de565b34801561079657600080fd5b506104046107a5366004613d16565b6116ed565b3480156107b657600080fd5b506102ed6107c5366004613e28565b61170e565b3480156107d657600080fd5b506103867f000000000000000000000000000000000000000000000000000000000000000081565b34801561080a57600080fd5b506102ed610819366004613e5d565b611719565b34801561082a57600080fd5b50610857610839366004613d16565b6001600160a01b031660009081526014602052604090205460ff1690565b60405160ff909116815260200161031b565b34801561087557600080fd5b506102ed610884366004613ebc565b61174b565b34801561089557600080fd5b506103396108a4366004613a49565b61186f565b3480156108b557600080fd5b506102ed6108c4366004613f16565b611882565b6102ed6108d7366004613908565b611917565b3480156108e857600080fd5b5061040460125481565b3480156108fe57600080fd5b5061030f61090d366004613f84565b6001600160a01b03918216600090815260086020908152604080832093909416825291909152205460ff1690565b34801561094757600080fd5b506102ed610956366004613bc3565b611a69565b34801561096757600080fd5b506102ed610976366004613d16565b611ad0565b34801561098757600080fd5b50610339610996366004613fbd565b611b46565b337f00000000000000000000000000000000000000000000000000000000000000006001600160a01b031614610a185760405162461bcd60e51b815260206004820152601e60248201527f4c7a4170703a20696e76616c696420656e64706f696e742063616c6c6572000060448201526064015b60405180910390fd5b61ffff841660009081526001602052604081208054610a369061400a565b80601f0160208091040260200160405190810160405280929190818152602001828054610a629061400a565b8015610aaf5780601f10610a8457610100808354040283529160200191610aaf565b820191906000526020600020905b815481529060010190602001808311610a9257829003601f168201915b5050505050905080518451148015610ad4575080805190602001208480519060200120145b610b2f5760405162461bcd60e51b815260206004820152602660248201527f4c7a4170703a20696e76616c696420736f757263652073656e64696e6720636f6044820152651b9d1c9858dd60d21b6064820152608401610a0f565b610b3b85858585611c08565b5050505050565b6000610b4d82611cf9565b92915050565b606060038054610b629061400a565b80601f0160208091040260200160405190810160405280929190818152602001828054610b8e9061400a565b8015610bdb5780601f10610bb057610100808354040283529160200191610bdb565b820191906000526020600020905b815481529060010190602001808311610bbe57829003601f168201915b5050505050905090565b610bed611d16565b6040516307e0db1760e01b815261ffff821660048201527f00000000000000000000000000000000000000000000000000000000000000006001600160a01b0316906307e0db17906024015b600060405180830381600087803b158015610c5357600080fd5b505af1158015610b3b573d6000803e3d6000fd5b6000610c7282611d70565b506000908152600760205260409020546001600160a01b031690565b6000610c9982611331565b9050806001600160a01b0316836001600160a01b03161415610d075760405162461bcd60e51b815260206004820152602160248201527f4552433732313a20617070726f76616c20746f2063757272656e74206f776e656044820152603960f91b6064820152608401610a0f565b336001600160a01b0382161480610d235750610d23813361090d565b610d955760405162461bcd60e51b815260206004820152603e60248201527f4552433732313a20617070726f76652063616c6c6572206973206e6f7420746f60448201527f6b656e206f776e6572206e6f7220617070726f76656420666f7220616c6c00006064820152608401610a0f565b610d9f8383611dcf565b505050565b610dac611d16565b6040516310ddb13760e01b815261ffff821660048201527f00000000000000000000000000000000000000000000000000000000000000006001600160a01b0316906310ddb13790602401610c39565b33600090815260146020526040902054600160ff9091161015610e615760405162461bcd60e51b815260206004820152601e60248201527f4578636565646564206d617820617661696c61626c6520746f206d696e7400006044820152606401610a0f565b6012546011541115610eae5760405162461bcd60e51b815260206004820152601660248201527513585e081b5a5b9d081b1a5b5a5d081c995858da195960521b6044820152606401610a0f565b336000908152601460205260408120805460019290610ed190849060ff16614055565b92506101000a81548160ff021916908360ff1602179055506000601154905060116000815480929190610f0390614078565b9190505550610f123382611e3d565b50565b610f20335b82611e57565b610f3c5760405162461bcd60e51b8152600401610a0f90614093565b610d9f838383611ed5565b60008060008686604051602001610f5f9291906140e1565b60408051601f198184030181529082905263040a7bb160e41b825291506001600160a01b037f000000000000000000000000000000000000000000000000000000000000000016906340a7bb1090610fc3908b90309086908b908b90600401614103565b604080518083038186803b158015610fda57600080fd5b505afa158015610fee573d6000803e3d6000fd5b505050506040513d601f19601f820116820180604052508101906110129190614157565b92509250509550959350505050565b600061102c8361140b565b821061108e5760405162461bcd60e51b815260206004820152602b60248201527f455243373231456e756d657261626c653a206f776e657220696e646578206f7560448201526a74206f6620626f756e647360a81b6064820152608401610a0f565b506001600160a01b03919091166000908152600960209081526040808320938352929052205490565b60006110c1612082565b905090565b6001600160a01b0382166000908152600e602052604081206110e890836121a9565b9392505050565b61ffff8316600090815260016020526040812080548291906111109061400a565b80601f016020809104026020016040519081016040528092919081815260200182805461113c9061400a565b80156111895780601f1061115e57610100808354040283529160200191611189565b820191906000526020600020905b81548152906001019060200180831161116c57829003601f168201915b5050505050905083836040516111a092919061417b565b60405180910390208180519060200120149150509392505050565b610d9f83838360405180602001604052806000815250611719565b6111de611d16565b6040516342d65a8d60e01b81526001600160a01b037f000000000000000000000000000000000000000000000000000000000000000016906342d65a8d9061122e908690869086906004016141b4565b600060405180830381600087803b15801561124857600080fd5b505af115801561125c573d6000803e3d6000fd5b50505050505050565b6000611270600b5490565b82106112d35760405162461bcd60e51b815260206004820152602c60248201527f455243373231456e756d657261626c653a20676c6f62616c20696e646578206f60448201526b7574206f6620626f756e647360a01b6064820152608401610a0f565b600b82815481106112e6576112e66141d2565b90600052602060002001549050919050565b61125c878787878787876122b8565b61130f611d16565b8051611322906013906020840190613708565b5050565b33611322818361240f565b6000818152600560205260408120546001600160a01b031680610b4d5760405162461bcd60e51b8152602060048201526018602482015277115490cdcc8c4e881a5b9d985b1a59081d1bdad95b88125160421b6044820152606401610a0f565b3330146113ef5760405162461bcd60e51b815260206004820152602660248201527f4e6f6e626c6f636b696e674c7a4170703a2063616c6c6572206d7573742062656044820152650204c7a4170760d41b6064820152608401610a0f565b6113fb84848484612481565b50505050565b60606110c161251c565b60006001600160a01b0382166114755760405162461bcd60e51b815260206004820152602960248201527f4552433732313a2061646472657373207a65726f206973206e6f7420612076616044820152683634b21037bbb732b960b91b6064820152608401610a0f565b506001600160a01b031660009081526006602052604090205490565b611499611d16565b6114a3600061252b565b565b600160205260009081526040902080546114be9061400a565b80601f01602080910402602001604051908101604052809291908181526020018280546114ea9061400a565b80156115375780601f1061150c57610100808354040283529160200191611537565b820191906000526020600020905b81548152906001019060200180831161151a57829003601f168201915b505050505081565b6001600160a01b038116600090815260106020526040812054610b4d565b611565611d16565b6012546115736001836141e8565b60115461158091906141ff565b11156115c75760405162461bcd60e51b815260206004820152601660248201527513585e081b5a5b9d081b1a5b5a5d081c995858da195960521b6044820152606401610a0f565b60005b81811015611322576011805490819060006115e483614078565b91905055506115f33382611e3d565b50806115fe81614078565b9150506115ca565b61160e611d16565b60005b828110156113fb578160146000868685818110611630576116306141d2565b90506020020160208101906116459190613d16565b6001600160a01b031681526020810191909152604001600020805460ff191660ff929092169190911790558061167a81614078565b915050611611565b60004382106116d35760405162461bcd60e51b815260206004820152601a60248201527f566f7465733a20626c6f636b206e6f7420796574206d696e65640000000000006044820152606401610a0f565b610b4d600f836121a9565b606060048054610b629061400a565b6001600160a01b0381166000908152600e60205260408120610b4d9061257b565b6113223383836125d7565b6117233383611e57565b61173f5760405162461bcd60e51b8152600401610a0f90614093565b6113fb848484846126a6565b8342111561179b5760405162461bcd60e51b815260206004820152601860248201527f566f7465733a207369676e6174757265206578706972656400000000000000006044820152606401610a0f565b604080517fe48329057bfd03d55e49b547132e39cffd9c1820ad7b9d4c5307691425d15adf60208201526001600160a01b0388169181019190915260608101869052608081018590526000906118159061180d9060a001604051602081830303815290604052805190602001206126d9565b858585612727565b90506118208161274f565b86146118655760405162461bcd60e51b8152602060048201526014602482015273566f7465733a20696e76616c6964206e6f6e636560601b6044820152606401610a0f565b61125c818861240f565b606061187a82611d70565b610b4d61251c565b61188a611d16565b6040516332fb62e760e21b81526001600160a01b037f0000000000000000000000000000000000000000000000000000000000000000169063cbed8b9c906118de9088908890889088908890600401614217565b600060405180830381600087803b1580156118f857600080fd5b505af115801561190c573d6000803e3d6000fd5b505050505050505050565b61ffff84166000908152600260205260408082209051611938908690614250565b90815260408051602092819003830190206001600160401b038616600090815292529020549050806119b85760405162461bcd60e51b815260206004820152602360248201527f4e6f6e626c6f636b696e674c7a4170703a206e6f2073746f726564206d65737360448201526261676560e81b6064820152608401610a0f565b815160208301208114611a175760405162461bcd60e51b815260206004820152602160248201527f4e6f6e626c6f636b696e674c7a4170703a20696e76616c6964207061796c6f616044820152601960fa1b6064820152608401610a0f565b61ffff85166000908152600260205260408082209051611a38908790614250565b90815260408051602092819003830190206001600160401b03871660009081529252902055610b3b85858585612481565b611a71611d16565b61ffff83166000908152600160205260409020611a8f908383613788565b507ffa41487ad5d6728f0b19276fa1eddc16558578f5109fc39d2dc33c3230470dab838383604051611ac3939291906141b4565b60405180910390a1505050565b611ad8611d16565b6001600160a01b038116611b3d5760405162461bcd60e51b815260206004820152602660248201527f4f776e61626c653a206e6577206f776e657220697320746865207a65726f206160448201526564647265737360d01b6064820152608401610a0f565b610f128161252b565b604051633d7b2f6f60e21b815261ffff808616600483015284166024820152306044820152606481018290526060907f00000000000000000000000000000000000000000000000000000000000000006001600160a01b03169063f5ecbdbc9060840160006040518083038186803b158015611bc157600080fd5b505afa158015611bd5573d6000803e3d6000fd5b505050506040513d6000823e601f3d908101601f19168201604052611bfd91908101906142b1565b90505b949350505050565b604051633356ae4560e11b815230906366ad5c8a90611c319087908790879087906004016142e5565b600060405180830381600087803b158015611c4b57600080fd5b505af1925050508015611c5c575060015b6113fb578080519060200120600260008661ffff1661ffff16815260200190815260200160002084604051611c919190614250565b9081526040805191829003602090810183206001600160401b0387166000908152915220919091557fe6f254030bcb01ffd20558175c13fcaed6d1520be7becee4c961b65f79243b0d90611cec9086908690869086906142e5565b60405180910390a16113fb565b60006001600160e01b031982161580610b4d5750610b4d82612777565b6000546001600160a01b031633146114a35760405162461bcd60e51b815260206004820181905260248201527f4f776e61626c653a2063616c6c6572206973206e6f7420746865206f776e65726044820152606401610a0f565b6000818152600560205260409020546001600160a01b0316610f125760405162461bcd60e51b8152602060048201526018602482015277115490cdcc8c4e881a5b9d985b1a59081d1bdad95b88125160421b6044820152606401610a0f565b600081815260076020526040902080546001600160a01b0319166001600160a01b0384169081179091558190611e0482611331565b6001600160a01b03167f8c5be1e5ebec7d5bd14f71427d1e84f3dd0314c0f7b2291e5b200ac8c7c3b92560405160405180910390a45050565b61132282826040518060200160405280600081525061279c565b600080611e6383611331565b9050806001600160a01b0316846001600160a01b03161480611eaa57506001600160a01b0380821660009081526008602090815260408083209388168352929052205460ff165b80611c005750836001600160a01b0316611ec384610c67565b6001600160a01b031614949350505050565b826001600160a01b0316611ee882611331565b6001600160a01b031614611f4c5760405162461bcd60e51b815260206004820152602560248201527f4552433732313a207472616e736665722066726f6d20696e636f72726563742060448201526437bbb732b960d91b6064820152608401610a0f565b6001600160a01b038216611fae5760405162461bcd60e51b8152602060048201526024808201527f4552433732313a207472616e7366657220746f20746865207a65726f206164646044820152637265737360e01b6064820152608401610a0f565b611fb98383836127cf565b611fc4600082611dcf565b6001600160a01b0383166000908152600660205260408120805460019290611fed9084906141e8565b90915550506001600160a01b038216600090815260066020526040812080546001929061201b9084906141ff565b909155505060008181526005602052604080822080546001600160a01b0319166001600160a01b0386811691821790925591518493918716917fddf252ad1be2c89b69c2b068fc378daa952ba7f163c4a11628f55a4df523b3ef91a4610d9f8383836127da565b6000306001600160a01b037f0000000000000000000000000000000000000000000000000000000000000000161480156120db57507f000000000000000000000000000000000000000000000000000000000000000046145b1561210557507f000000000000000000000000000000000000000000000000000000000000000090565b50604080517f00000000000000000000000000000000000000000000000000000000000000006020808301919091527f0000000000000000000000000000000000000000000000000000000000000000828401527f000000000000000000000000000000000000000000000000000000000000000060608301524660808301523060a0808401919091528351808403909101815260c0909201909252805191012090565b60004382106121fa5760405162461bcd60e51b815260206004820181905260248201527f436865636b706f696e74733a20626c6f636b206e6f7420796574206d696e65646044820152606401610a0f565b825460005b8181101561225f57600061221382846127e5565b90508486600001828154811061222b5761222b6141d2565b60009182526020909120015463ffffffff16111561224b57809250612259565b6122568160016141ff565b91505b506121ff565b81156122a357846122716001846141e8565b81548110612281576122816141d2565b60009182526020909120015464010000000090046001600160e01b03166122a6565b60005b6001600160e01b031695945050505050565b6122c487878787612800565b600085856040516020016122d99291906140e1565b60405160208183030381529060405290506122f787828686866128e9565b604051630f428ae960e31b815261ffff881660048201523060248201526000907f00000000000000000000000000000000000000000000000000000000000000006001600160a01b031690637a1457489060440160206040518083038186803b15801561236357600080fd5b505afa158015612377573d6000803e3d6000fd5b505050506040513d601f19601f8201168201806040525081019061239b9190614323565b9050866040516123ab9190614250565b604080519182900382208883526001600160401b03841660208401529161ffff8b16916001600160a01b038d16917f024797cc77ce15dc717112d54fb1df125fdfd8c81344fb046c5e074427ce1543910160405180910390a4505050505050505050565b6001600160a01b038281166000818152600d602052604080822080548686166001600160a01b0319821681179092559151919094169392849290917f3134e8a2e6d97e929a7e54011ea5485d7d196dd5f0ba4d4ef95803e8e3fc257f9190a4610d9f818361247c86612a83565b612a8e565b600080828060200190518101906124989190614340565b601482015191935091506124ad878284612bcb565b806001600160a01b0316866040516124c59190614250565b604080519182900382208583526001600160401b03891660208401529161ffff8b16917f64e10c37f404d128982dce114f5d233c14c5c7f6d8db93099e3d99dacb9e27ba910160405180910390a450505050505050565b606060138054610b629061400a565b600080546001600160a01b038381166001600160a01b0319831681178455604051919092169283917f8be0079c531659141344cd1fd0a4f28419497f9722a3daafe3b4186f6b6457e09190a35050565b805460009080156125c457826125926001836141e8565b815481106125a2576125a26141d2565b60009182526020909120015464010000000090046001600160e01b03166125c7565b60005b6001600160e01b03169392505050565b816001600160a01b0316836001600160a01b031614156126395760405162461bcd60e51b815260206004820152601960248201527f4552433732313a20617070726f766520746f2063616c6c6572000000000000006044820152606401610a0f565b6001600160a01b03838116600081815260086020908152604080832094871680845294825291829020805460ff191686151590811790915591519182527f17307eab39ab6107e8899845ad3d59bd9653f200f220920489ca2b5937696c31910160405180910390a3505050565b6126b1848484611ed5565b6126bd84848484612bd5565b6113fb5760405162461bcd60e51b8152600401610a0f90614386565b6000610b4d6126e6612082565b8360405161190160f01b6020820152602281018390526042810182905260009060620160405160208183030381529060405280519060200120905092915050565b600080600061273887878787612cdf565b9150915061274581612dcc565b5095945050505050565b6001600160a01b03811660009081526010602052604090208054600181018255905b50919050565b60006001600160e01b0319821663780e9d6360e01b1480610b4d5750610b4d82612f87565b6127a68383612fc7565b6127b36000848484612bd5565b610d9f5760405162461bcd60e51b8152600401610a0f90614386565b610d9f83838361311d565b610d9f8383836131d5565b60006127f460028484186143d8565b6110e8908484166141ff565b61280933610f1a565b61286c5760405162461bcd60e51b815260206004820152602e60248201527f4f4e46543732313a2073656e642063616c6c6572206973206e6f74206f776e6560448201526d1c881b9bdc88185c1c1c9bdd995960921b6064820152608401610a0f565b836001600160a01b031661287f82611331565b6001600160a01b0316146128e05760405162461bcd60e51b815260206004820152602260248201527f4f4e46543732313a2073656e642066726f6d20696e636f7272656374206f776e60448201526132b960f11b6064820152608401610a0f565b6113fb816131e1565b61ffff8516600090815260016020526040812080546129079061400a565b80601f01602080910402602001604051908101604052809291908181526020018280546129339061400a565b80156129805780601f1061295557610100808354040283529160200191612980565b820191906000526020600020905b81548152906001019060200180831161296357829003601f168201915b505050505090508051600014156129f25760405162461bcd60e51b815260206004820152603060248201527f4c7a4170703a2064657374696e6174696f6e20636861696e206973206e6f742060448201526f61207472757374656420736f7572636560801b6064820152608401610a0f565b60405162c5803160e81b81526001600160a01b037f0000000000000000000000000000000000000000000000000000000000000000169063c5803100903490612a49908a9086908b908b908b908b906004016143fa565b6000604051808303818588803b158015612a6257600080fd5b505af1158015612a76573d6000803e3d6000fd5b5050505050505050505050565b6000610b4d8261140b565b816001600160a01b0316836001600160a01b031614158015612ab05750600081115b15610d9f576001600160a01b03831615612b3e576001600160a01b0383166000908152600e602052604081208190612aeb906132908561329c565b91509150846001600160a01b03167fdec2bacdd2f05b59de34da9b523dff8be42e5e38e818c82fdb0bae774387a7248383604051612b33929190918252602082015260400190565b60405180910390a250505b6001600160a01b03821615610d9f576001600160a01b0382166000908152600e602052604081208190612b74906132ca8561329c565b91509150836001600160a01b03167fdec2bacdd2f05b59de34da9b523dff8be42e5e38e818c82fdb0bae774387a7248383604051612bbc929190918252602082015260400190565b60405180910390a25050505050565b610d9f8282611e3d565b60006001600160a01b0384163b15612cd757604051630a85bd0160e11b81526001600160a01b0385169063150b7a0290612c19903390899088908890600401614461565b602060405180830381600087803b158015612c3357600080fd5b505af1925050508015612c63575060408051601f3d908101601f19168201909252612c609181019061449e565b60015b612cbd573d808015612c91576040519150601f19603f3d011682016040523d82523d6000602084013e612c96565b606091505b508051612cb55760405162461bcd60e51b8152600401610a0f90614386565b805181602001fd5b6001600160e01b031916630a85bd0160e11b149050611c00565b506001611c00565b6000807f7fffffffffffffffffffffffffffffff5d576e7357a4501ddfe92f46681b20a0831115612d165750600090506003612dc3565b8460ff16601b14158015612d2e57508460ff16601c14155b15612d3f5750600090506004612dc3565b6040805160008082526020820180845289905260ff881692820192909252606081018690526080810185905260019060a0016020604051602081039080840390855afa158015612d93573d6000803e3d6000fd5b5050604051601f1901519150506001600160a01b038116612dbc57600060019250925050612dc3565b9150600090505b94509492505050565b6000816004811115612de057612de06144bb565b1415612de95750565b6001816004811115612dfd57612dfd6144bb565b1415612e4b5760405162461bcd60e51b815260206004820152601860248201527f45434453413a20696e76616c6964207369676e617475726500000000000000006044820152606401610a0f565b6002816004811115612e5f57612e5f6144bb565b1415612ead5760405162461bcd60e51b815260206004820152601f60248201527f45434453413a20696e76616c6964207369676e6174757265206c656e677468006044820152606401610a0f565b6003816004811115612ec157612ec16144bb565b1415612f1a5760405162461bcd60e51b815260206004820152602260248201527f45434453413a20696e76616c6964207369676e6174757265202773272076616c604482015261756560f01b6064820152608401610a0f565b6004816004811115612f2e57612f2e6144bb565b1415610f125760405162461bcd60e51b815260206004820152602260248201527f45434453413a20696e76616c6964207369676e6174757265202776272076616c604482015261756560f01b6064820152608401610a0f565b60006001600160e01b031982166380ac58cd60e01b1480612fb857506001600160e01b03198216635b5e139f60e01b145b80610b4d5750610b4d826132d6565b6001600160a01b03821661301d5760405162461bcd60e51b815260206004820181905260248201527f4552433732313a206d696e7420746f20746865207a65726f20616464726573736044820152606401610a0f565b6000818152600560205260409020546001600160a01b0316156130825760405162461bcd60e51b815260206004820152601c60248201527f4552433732313a20746f6b656e20616c7265616479206d696e746564000000006044820152606401610a0f565b61308e600083836127cf565b6001600160a01b03821660009081526006602052604081208054600192906130b79084906141ff565b909155505060008181526005602052604080822080546001600160a01b0319166001600160a01b03861690811790915590518392907fddf252ad1be2c89b69c2b068fc378daa952ba7f163c4a11628f55a4df523b3ef908290a4611322600083836127da565b6001600160a01b0383166131785761317381600b80546000838152600c60205260408120829055600182018355919091527f0175b7a638427703f0dbe7bb9bbf987a2551717b34e79f33b5b1008d1fa01db90155565b61319b565b816001600160a01b0316836001600160a01b03161461319b5761319b838261330b565b6001600160a01b0382166131b257610d9f816133a8565b826001600160a01b0316826001600160a01b031614610d9f57610d9f8282613457565b610d9f8383600161349b565b60006131ec82611331565b90506131fa816000846127cf565b613205600083611dcf565b6001600160a01b038116600090815260066020526040812080546001929061322e9084906141e8565b909155505060008281526005602052604080822080546001600160a01b0319169055518391906001600160a01b038416907fddf252ad1be2c89b69c2b068fc378daa952ba7f163c4a11628f55a4df523b3ef908390a4611322816000846127da565b60006110e882846141e8565b6000806132be856132b96132af8861257b565b868863ffffffff16565b61350b565b91509150935093915050565b60006110e882846141ff565b60006001600160e01b03198216637bb0080b60e01b1480610b4d57506301ffc9a760e01b6001600160e01b0319831614610b4d565b600060016133188461140b565b61332291906141e8565b6000838152600a6020526040902054909150808214613375576001600160a01b03841660009081526009602090815260408083208584528252808320548484528184208190558352600a90915290208190555b506000918252600a602090815260408084208490556001600160a01b039094168352600981528383209183525290812055565b600b546000906133ba906001906141e8565b6000838152600c6020526040812054600b80549394509092849081106133e2576133e26141d2565b9060005260206000200154905080600b8381548110613403576134036141d2565b6000918252602080832090910192909255828152600c9091526040808220849055858252812055600b80548061343b5761343b6144d1565b6001900381819060005260206000200160009055905550505050565b60006134628361140b565b6001600160a01b0390931660009081526009602090815260408083208684528252808320859055938252600a9052919091209190915550565b6001600160a01b0383166134ba576134b7600f6132ca8361329c565b50505b6001600160a01b0382166134d9576134d6600f6132908361329c565b50505b6001600160a01b038381166000908152600d6020526040808220548584168352912054610d9f92918216911683612a8e565b815460009081908161351c8661257b565b905060008211801561355a575043866135366001856141e8565b81548110613546576135466141d2565b60009182526020909120015463ffffffff16145b156135ba5761356885613636565b866135746001856141e8565b81548110613584576135846141d2565b9060005260206000200160000160046101000a8154816001600160e01b0302191690836001600160e01b03160217905550613628565b8560000160405180604001604052806135d2436136a3565b63ffffffff1681526020016135e688613636565b6001600160e01b0390811690915282546001810184556000938452602093849020835194909301519091166401000000000263ffffffff909316929092179101555b9250839150505b9250929050565b60006001600160e01b0382111561369f5760405162461bcd60e51b815260206004820152602760248201527f53616665436173743a2076616c756520646f65736e27742066697420696e20326044820152663234206269747360c81b6064820152608401610a0f565b5090565b600063ffffffff82111561369f5760405162461bcd60e51b815260206004820152602660248201527f53616665436173743a2076616c756520646f65736e27742066697420696e203360448201526532206269747360d01b6064820152608401610a0f565b8280546137149061400a565b90600052602060002090601f016020900481019282613736576000855561377c565b82601f1061374f57805160ff191683800117855561377c565b8280016001018555821561377c579182015b8281111561377c578251825591602001919060010190613761565b5061369f9291506137fc565b8280546137949061400a565b90600052602060002090601f0160209004810192826137b6576000855561377c565b82601f106137cf5782800160ff1982351617855561377c565b8280016001018555821561377c579182015b8281111561377c5782358255916020019190600101906137e1565b5b8082111561369f57600081556001016137fd565b803561ffff8116811461382357600080fd5b919050565b634e487b7160e01b600052604160045260246000fd5b604051601f8201601f191681016001600160401b038111828210171561386657613866613828565b604052919050565b60006001600160401b0382111561388757613887613828565b50601f01601f191660200190565b60006138a86138a38461386e565b61383e565b90508281528383830111156138bc57600080fd5b828260208301376000602084830101529392505050565b600082601f8301126138e457600080fd5b6110e883833560208501613895565b6001600160401b0381168114610f1257600080fd5b6000806000806080858703121561391e57600080fd5b61392785613811565b935060208501356001600160401b038082111561394357600080fd5b61394f888389016138d3565b945060408701359150613961826138f3565b9092506060860135908082111561397757600080fd5b50613984878288016138d3565b91505092959194509250565b6001600160e01b031981168114610f1257600080fd5b6000602082840312156139b857600080fd5b81356110e881613990565b60005b838110156139de5781810151838201526020016139c6565b838111156113fb5750506000910152565b60008151808452613a078160208601602086016139c3565b601f01601f19169290920160200192915050565b6020815260006110e860208301846139ef565b600060208284031215613a4057600080fd5b6110e882613811565b600060208284031215613a5b57600080fd5b5035919050565b6001600160a01b0381168114610f1257600080fd5b60008060408385031215613a8a57600080fd5b8235613a9581613a62565b946020939093013593505050565b600080600060608486031215613ab857600080fd5b8335613ac381613a62565b92506020840135613ad381613a62565b929592945050506040919091013590565b8035801515811461382357600080fd5b600080600080600060a08688031215613b0c57600080fd5b613b1586613811565b945060208601356001600160401b0380821115613b3157600080fd5b613b3d89838a016138d3565b955060408801359450613b5260608901613ae4565b93506080880135915080821115613b6857600080fd5b50613b75888289016138d3565b9150509295509295909350565b60008083601f840112613b9457600080fd5b5081356001600160401b03811115613bab57600080fd5b60208301915083602082850101111561362f57600080fd5b600080600060408486031215613bd857600080fd5b613be184613811565b925060208401356001600160401b03811115613bfc57600080fd5b613c0886828701613b82565b9497909650939450505050565b600080600080600080600060e0888a031215613c3057600080fd5b8735613c3b81613a62565b9650613c4960208901613811565b955060408801356001600160401b0380821115613c6557600080fd5b613c718b838c016138d3565b965060608a0135955060808a01359150613c8a82613a62565b90935060a089013590613c9c82613a62565b90925060c08901359080821115613cb257600080fd5b50613cbf8a828b016138d3565b91505092959891949750929550565b600060208284031215613ce057600080fd5b81356001600160401b03811115613cf657600080fd5b8201601f81018413613d0757600080fd5b611c0084823560208401613895565b600060208284031215613d2857600080fd5b81356110e881613a62565b600080600060608486031215613d4857600080fd5b613d5184613811565b925060208401356001600160401b03811115613d6c57600080fd5b613d78868287016138d3565b9250506040840135613d89816138f3565b809150509250925092565b803560ff8116811461382357600080fd5b600080600060408486031215613dba57600080fd5b83356001600160401b0380821115613dd157600080fd5b818601915086601f830112613de557600080fd5b813581811115613df457600080fd5b8760208260051b8501011115613e0957600080fd5b602092830195509350613e1f9186019050613d94565b90509250925092565b60008060408385031215613e3b57600080fd5b8235613e4681613a62565b9150613e5460208401613ae4565b90509250929050565b60008060008060808587031215613e7357600080fd5b8435613e7e81613a62565b93506020850135613e8e81613a62565b92506040850135915060608501356001600160401b03811115613eb057600080fd5b613984878288016138d3565b60008060008060008060c08789031215613ed557600080fd5b8635613ee081613a62565b95506020870135945060408701359350613efc60608801613d94565b92506080870135915060a087013590509295509295509295565b600080600080600060808688031215613f2e57600080fd5b613f3786613811565b9450613f4560208701613811565b93506040860135925060608601356001600160401b03811115613f6757600080fd5b613f7388828901613b82565b969995985093965092949392505050565b60008060408385031215613f9757600080fd5b8235613fa281613a62565b91506020830135613fb281613a62565b809150509250929050565b60008060008060808587031215613fd357600080fd5b613fdc85613811565b9350613fea60208601613811565b92506040850135613ffa81613a62565b9396929550929360600135925050565b600181811c9082168061401e57607f821691505b6020821081141561277157634e487b7160e01b600052602260045260246000fd5b634e487b7160e01b600052601160045260246000fd5b600060ff821660ff84168082101561406f5761406f61403f565b90039392505050565b600060001982141561408c5761408c61403f565b5060010190565b6020808252602e908201527f4552433732313a2063616c6c6572206973206e6f7420746f6b656e206f776e6560408201526d1c881b9bdc88185c1c1c9bdd995960921b606082015260800190565b6040815260006140f460408301856139ef565b90508260208301529392505050565b61ffff861681526001600160a01b038516602082015260a060408201819052600090614131908301866139ef565b8415156060840152828103608084015261414b81856139ef565b98975050505050505050565b6000806040838503121561416a57600080fd5b505080516020909101519092909150565b8183823760009101908152919050565b81835281816020850137506000828201602090810191909152601f909101601f19169091010190565b61ffff84168152604060208201526000611bfd60408301848661418b565b634e487b7160e01b600052603260045260246000fd5b6000828210156141fa576141fa61403f565b500390565b600082198211156142125761421261403f565b500190565b600061ffff80881683528087166020840152508460408301526080606083015261424560808301848661418b565b979650505050505050565b600082516142628184602087016139c3565b9190910192915050565b600082601f83011261427d57600080fd5b815161428b6138a38261386e565b8181528460208386010111156142a057600080fd5b611c008260208301602087016139c3565b6000602082840312156142c357600080fd5b81516001600160401b038111156142d957600080fd5b611c008482850161426c565b61ffff8516815260806020820152600061430260808301866139ef565b6001600160401b0385166040840152828103606084015261424581856139ef565b60006020828403121561433557600080fd5b81516110e8816138f3565b6000806040838503121561435357600080fd5b82516001600160401b0381111561436957600080fd5b6143758582860161426c565b925050602083015190509250929050565b60208082526032908201527f4552433732313a207472616e7366657220746f206e6f6e20455243373231526560408201527131b2b4bb32b91034b6b83632b6b2b73a32b960711b606082015260800190565b6000826143f557634e487b7160e01b600052601260045260246000fd5b500490565b61ffff8716815260c06020820152600061441760c08301886139ef565b828103604084015261442981886139ef565b6001600160a01b0387811660608601528616608085015283810360a0850152905061445481856139ef565b9998505050505050505050565b6001600160a01b0385811682528416602082015260408101839052608060608201819052600090614494908301846139ef565b9695505050505050565b6000602082840312156144b057600080fd5b81516110e881613990565b634e487b7160e01b600052602160045260246000fd5b634e487b7160e01b600052603160045260246000fdfea2646970667358221220cd99b606e1439853480ff56fdde60554b1a39fdb27f0036e997e09feab55fd8864736f6c63430008090033",
  "linkReferences": {},
  "deployedLinkReferences": {}
}