{
  "_format": "hh-sol-artifact-1",
  "contractName": "Treasury",
  "sourceName": "contracts/Treasury.sol",
  "abi": [
    {
      "anonymous": false,
      "inputs": [
        {
          "indexed": true,
          "internalType": "address",
          "name": "previousOwner",
          "type": "address"
        },
        {
          "indexed": true,
          "internalType": "address",
          "name": "newOwner",
          "type": "address"
        }
      ],
      "name": "OwnershipTransferred",
      "type": "event"
    },
    {
      "anonymous": false,
      "inputs": [
        {
          "indexed": false,
          "internalType": "uint256",
          "name": "executedProposals",
          "type": "uint256"
        }
      ],
      "name": "ProposalExecuted",
      "type": "event"
    },
    {
      "stateMutability": "payable",
      "type": "fallback"
    },
    {
      "inputs": [],
      "name": "execute",
      "outputs": [],
      "stateMutability": "nonpayable",
      "type": "function"
    },
    {
      "inputs": [],
      "name": "executedProposals",
      "outputs": [
        {
          "internalType": "uint256",
          "name": "",
          "type": "uint256"
        }
      ],
      "stateMutability": "view",
      "type": "function"
    },
    {
      "inputs": [],
      "name": "owner",
      "outputs": [
        {
          "internalType": "address",
          "name": "",
          "type": "address"
        }
      ],
      "stateMutability": "view",
      "type": "function"
    },
    {
      "inputs": [],
      "name": "renounceOwnership",
      "outputs": [],
      "stateMutability": "nonpayable",
      "type": "function"
    },
    {
      "inputs": [
        {
          "internalType": "address",
          "name": "to",
          "type": "address"
        },
        {
          "internalType": "uint256",
          "name": "amount",
          "type": "uint256"
        }
      ],
      "name": "send",
      "outputs": [],
      "stateMutability": "nonpayable",
      "type": "function"
    },
    {
      "inputs": [
        {
          "internalType": "address",
          "name": "newOwner",
          "type": "address"
        }
      ],
      "name": "transferOwnership",
      "outputs": [],
      "stateMutability": "nonpayable",
      "type": "function"
    },
    {
      "stateMutability": "payable",
      "type": "receive"
    }
  ],
  "bytecode": "0x608060405234801561001057600080fd5b5061001a3361001f565b61006f565b600080546001600160a01b038381166001600160a01b0319831681178455604051919092169283917f8be0079c531659141344cd1fd0a4f28419497f9722a3daafe3b4186f6b6457e09190a35050565b6104678061007e6000396000f3fe6080604052600436106100565760003560e01c8063614619541461005f578063715018a6146100745780638da5cb5b14610089578063d0679d34146100b6578063d8a11dc2146100d6578063f2fde38b146100fa57005b3661005d57005b005b34801561006b57600080fd5b5061005d61011a565b34801561008057600080fd5b5061005d610174565b34801561009557600080fd5b506000546040516001600160a01b0390911681526020015b60405180910390f35b3480156100c257600080fd5b5061005d6100d13660046103bc565b610188565b3480156100e257600080fd5b506100ec60015481565b6040519081526020016100ad565b34801561010657600080fd5b5061005d6101153660046103e6565b61027d565b6101226102f6565b6001805490600061013283610408565b91905055507f712ae1383f79ac853f8d882153778e0260ef8f03b504e2866e0593e04d2b291f60015460405161016a91815260200190565b60405180910390a1565b61017c6102f6565b6101866000610350565b565b6101906102f6565b804710156101d65760405162461bcd60e51b815260206004820152600e60248201526d09cdee840cadcdeeaced0408aa8960931b60448201526064015b60405180910390fd5b6000826001600160a01b03168260405160006040518083038185875af1925050503d8060008114610223576040519150601f19603f3d011682016040523d82523d6000602084013e610228565b606091505b50509050806102705760405162461bcd60e51b81526020600482015260146024820152732330b4b632b2103a379039b2b7321022ba3432b960611b60448201526064016101cd565b61027861011a565b505050565b6102856102f6565b6001600160a01b0381166102ea5760405162461bcd60e51b815260206004820152602660248201527f4f776e61626c653a206e6577206f776e657220697320746865207a65726f206160448201526564647265737360d01b60648201526084016101cd565b6102f381610350565b50565b6000546001600160a01b031633146101865760405162461bcd60e51b815260206004820181905260248201527f4f776e61626c653a2063616c6c6572206973206e6f7420746865206f776e657260448201526064016101cd565b600080546001600160a01b038381166001600160a01b0319831681178455604051919092169283917f8be0079c531659141344cd1fd0a4f28419497f9722a3daafe3b4186f6b6457e09190a35050565b80356001600160a01b03811681146103b757600080fd5b919050565b600080604083850312156103cf57600080fd5b6103d8836103a0565b946020939093013593505050565b6000602082840312156103f857600080fd5b610401826103a0565b9392505050565b600060001982141561042a57634e487b7160e01b600052601160045260246000fd5b506001019056fea26469706673582212204a2c28228291d1b065e198bca28763bdb9440f1445c6ac5e2eda09743ea9b52764736f6c63430008090033",
  "linkReferences": {},
  "deployedLinkReferences": {}
}