{
  "_format": "hh-sol-artifact-1",
  "contractName": "GovernorContractNFT",
  "sourceName": "contracts/governance-standard/GovernorContractNFT.sol",
  "abi": [
    {
      "inputs": [
        {
          "internalType": "string",
          "name": "name_",
          "type": "string"
        },
        {
          "internalType": "contract IVotes",
          "name": "token_",
          "type": "address"
        },
        {
          "internalType": "uint256",
          "name": "votingDelay_",
          "type": "uint256"
        },
        {
          "internalType": "uint256",
          "name": "votingPeriod_",
          "type": "uint256"
        },
        {
          "internalType": "uint256",
          "name": "quorumPercentage_",
          "type": "uint256"
        }
      ],
      "stateMutability": "nonpayable",
      "type": "constructor"
    },
    {
      "inputs": [],
      "name": "Empty",
      "type": "error"
    },
    {
      "anonymous": false,
      "inputs": [
        {
          "indexed": true,
          "internalType": "address",
          "name": "previousOwner",
          "type": "address"
        },
        {
          "indexed": true,
          "internalType": "address",
          "name": "newOwner",
          "type": "address"
        }
      ],
      "name": "OwnershipTransferred",
      "type": "event"
    },
    {
      "anonymous": false,
      "inputs": [
        {
          "indexed": false,
          "internalType": "uint256",
          "name": "proposalId",
          "type": "uint256"
        }
      ],
      "name": "ProposalCanceled",
      "type": "event"
    },
    {
      "anonymous": false,
      "inputs": [
        {
          "indexed": false,
          "internalType": "uint256",
          "name": "proposalId",
          "type": "uint256"
        },
        {
          "indexed": false,
          "internalType": "address",
          "name": "proposer",
          "type": "address"
        },
        {
          "indexed": false,
          "internalType": "address[]",
          "name": "targets",
          "type": "address[]"
        },
        {
          "indexed": false,
          "internalType": "uint256[]",
          "name": "values",
          "type": "uint256[]"
        },
        {
          "indexed": false,
          "internalType": "string[]",
          "name": "signatures",
          "type": "string[]"
        },
        {
          "indexed": false,
          "internalType": "bytes[]",
          "name": "calldatas",
          "type": "bytes[]"
        },
        {
          "indexed": false,
          "internalType": "uint256",
          "name": "startBlock",
          "type": "uint256"
        },
        {
          "indexed": false,
          "internalType": "uint256",
          "name": "endBlock",
          "type": "uint256"
        },
        {
          "indexed": false,
          "internalType": "string",
          "name": "description",
          "type": "string"
        }
      ],
      "name": "ProposalCreated",
      "type": "event"
    },
    {
      "anonymous": false,
      "inputs": [
        {
          "indexed": false,
          "internalType": "uint256",
          "name": "proposalId",
          "type": "uint256"
        }
      ],
      "name": "ProposalExecuted",
      "type": "event"
    },
    {
      "anonymous": false,
      "inputs": [
        {
          "indexed": false,
          "internalType": "uint256",
          "name": "oldProposalThreshold",
          "type": "uint256"
        },
        {
          "indexed": false,
          "internalType": "uint256",
          "name": "newProposalThreshold",
          "type": "uint256"
        }
      ],
      "name": "ProposalThresholdSet",
      "type": "event"
    },
    {
      "anonymous": false,
      "inputs": [
        {
          "indexed": false,
          "internalType": "uint256",
          "name": "oldQuorumNumerator",
          "type": "uint256"
        },
        {
          "indexed": false,
          "internalType": "uint256",
          "name": "newQuorumNumerator",
          "type": "uint256"
        }
      ],
      "name": "QuorumNumeratorUpdated",
      "type": "event"
    },
    {
      "anonymous": false,
      "inputs": [
        {
          "indexed": true,
          "internalType": "address",
          "name": "voter",
          "type": "address"
        },
        {
          "indexed": false,
          "internalType": "uint256",
          "name": "proposalId",
          "type": "uint256"
        },
        {
          "indexed": false,
          "internalType": "uint8",
          "name": "support",
          "type": "uint8"
        },
        {
          "indexed": false,
          "internalType": "uint256",
          "name": "weight",
          "type": "uint256"
        },
        {
          "indexed": false,
          "internalType": "string",
          "name": "reason",
          "type": "string"
        }
      ],
      "name": "VoteCast",
      "type": "event"
    },
    {
      "anonymous": false,
      "inputs": [
        {
          "indexed": true,
          "internalType": "address",
          "name": "voter",
          "type": "address"
        },
        {
          "indexed": false,
          "internalType": "uint256",
          "name": "proposalId",
          "type": "uint256"
        },
        {
          "indexed": false,
          "internalType": "uint8",
          "name": "support",
          "type": "uint8"
        },
        {
          "indexed": false,
          "internalType": "uint256",
          "name": "weight",
          "type": "uint256"
        },
        {
          "indexed": false,
          "internalType": "string",
          "name": "reason",
          "type": "string"
        },
        {
          "indexed": false,
          "internalType": "bytes",
          "name": "params",
          "type": "bytes"
        }
      ],
      "name": "VoteCastWithParams",
      "type": "event"
    },
    {
      "anonymous": false,
      "inputs": [
        {
          "indexed": false,
          "internalType": "uint256",
          "name": "oldVotingDelay",
          "type": "uint256"
        },
        {
          "indexed": false,
          "internalType": "uint256",
          "name": "newVotingDelay",
          "type": "uint256"
        }
      ],
      "name": "VotingDelaySet",
      "type": "event"
    },
    {
      "anonymous": false,
      "inputs": [
        {
          "indexed": false,
          "internalType": "uint256",
          "name": "oldVotingPeriod",
          "type": "uint256"
        },
        {
          "indexed": false,
          "internalType": "uint256",
          "name": "newVotingPeriod",
          "type": "uint256"
        }
      ],
      "name": "VotingPeriodSet",
      "type": "event"
    },
    {
      "inputs": [],
      "name": "BALLOT_TYPEHASH",
      "outputs": [
        {
          "internalType": "bytes32",
          "name": "",
          "type": "bytes32"
        }
      ],
      "stateMutability": "view",
      "type": "function"
    },
    {
      "inputs": [],
      "name": "COUNTING_MODE",
      "outputs": [
        {
          "internalType": "string",
          "name": "",
          "type": "string"
        }
      ],
      "stateMutability": "pure",
      "type": "function"
    },
    {
      "inputs": [],
      "name": "EXTENDED_BALLOT_TYPEHASH",
      "outputs": [
        {
          "internalType": "bytes32",
          "name": "",
          "type": "bytes32"
        }
      ],
      "stateMutability": "view",
      "type": "function"
    },
    {
      "inputs": [
        {
          "internalType": "address[]",
          "name": "targets",
          "type": "address[]"
        },
        {
          "internalType": "uint256[]",
          "name": "values",
          "type": "uint256[]"
        },
        {
          "internalType": "bytes[]",
          "name": "calldatas",
          "type": "bytes[]"
        },
        {
          "internalType": "bytes32",
          "name": "descriptionHash",
          "type": "bytes32"
        }
      ],
      "name": "cancel",
      "outputs": [
        {
          "internalType": "uint256",
          "name": "",
          "type": "uint256"
        }
      ],
      "stateMutability": "nonpayable",
      "type": "function"
    },
    {
      "inputs": [
        {
          "internalType": "uint256",
          "name": "proposalId",
          "type": "uint256"
        },
        {
          "internalType": "uint8",
          "name": "support",
          "type": "uint8"
        }
      ],
      "name": "castVote",
      "outputs": [
        {
          "internalType": "uint256",
          "name": "",
          "type": "uint256"
        }
      ],
      "stateMutability": "nonpayable",
      "type": "function"
    },
    {
      "inputs": [
        {
          "internalType": "uint256",
          "name": "proposalId",
          "type": "uint256"
        },
        {
          "internalType": "uint8",
          "name": "support",
          "type": "uint8"
        },
        {
          "internalType": "uint8",
          "name": "v",
          "type": "uint8"
        },
        {
          "internalType": "bytes32",
          "name": "r",
          "type": "bytes32"
        },
        {
          "internalType": "bytes32",
          "name": "s",
          "type": "bytes32"
        }
      ],
      "name": "castVoteBySig",
      "outputs": [
        {
          "internalType": "uint256",
          "name": "",
          "type": "uint256"
        }
      ],
      "stateMutability": "nonpayable",
      "type": "function"
    },
    {
      "inputs": [
        {
          "internalType": "uint256",
          "name": "proposalId",
          "type": "uint256"
        },
        {
          "internalType": "uint8",
          "name": "support",
          "type": "uint8"
        },
        {
          "internalType": "string",
          "name": "reason",
          "type": "string"
        }
      ],
      "name": "castVoteWithReason",
      "outputs": [
        {
          "internalType": "uint256",
          "name": "",
          "type": "uint256"
        }
      ],
      "stateMutability": "nonpayable",
      "type": "function"
    },
    {
      "inputs": [
        {
          "internalType": "uint256",
          "name": "proposalId",
          "type": "uint256"
        },
        {
          "internalType": "uint8",
          "name": "support",
          "type": "uint8"
        },
        {
          "internalType": "string",
          "name": "reason",
          "type": "string"
        },
        {
          "internalType": "bytes",
          "name": "params",
          "type": "bytes"
        }
      ],
      "name": "castVoteWithReasonAndParams",
      "outputs": [
        {
          "internalType": "uint256",
          "name": "",
          "type": "uint256"
        }
      ],
      "stateMutability": "nonpayable",
      "type": "function"
    },
    {
      "inputs": [
        {
          "internalType": "uint256",
          "name": "proposalId",
          "type": "uint256"
        },
        {
          "internalType": "uint8",
          "name": "support",
          "type": "uint8"
        },
        {
          "internalType": "string",
          "name": "reason",
          "type": "string"
        },
        {
          "internalType": "bytes",
          "name": "params",
          "type": "bytes"
        },
        {
          "internalType": "uint8",
          "name": "v",
          "type": "uint8"
        },
        {
          "internalType": "bytes32",
          "name": "r",
          "type": "bytes32"
        },
        {
          "internalType": "bytes32",
          "name": "s",
          "type": "bytes32"
        }
      ],
      "name": "castVoteWithReasonAndParamsBySig",
      "outputs": [
        {
          "internalType": "uint256",
          "name": "",
          "type": "uint256"
        }
      ],
      "stateMutability": "nonpayable",
      "type": "function"
    },
    {
      "inputs": [
        {
          "internalType": "address[]",
          "name": "targets",
          "type": "address[]"
        },
        {
          "internalType": "uint256[]",
          "name": "values",
          "type": "uint256[]"
        },
        {
          "internalType": "bytes[]",
          "name": "calldatas",
          "type": "bytes[]"
        },
        {
          "internalType": "bytes32",
          "name": "descriptionHash",
          "type": "bytes32"
        }
      ],
      "name": "execute",
      "outputs": [
        {
          "internalType": "uint256",
          "name": "",
          "type": "uint256"
        }
      ],
      "stateMutability": "payable",
      "type": "function"
    },
    {
      "inputs": [
        {
          "internalType": "uint256",
          "name": "proposalId",
          "type": "uint256"
        }
      ],
      "name": "getProposer",
      "outputs": [
        {
          "internalType": "address",
          "name": "",
          "type": "address"
        }
      ],
      "stateMutability": "view",
      "type": "function"
    },
    {
      "inputs": [
        {
          "internalType": "address",
          "name": "account",
          "type": "address"
        },
        {
          "internalType": "uint256",
          "name": "blockNumber",
          "type": "uint256"
        }
      ],
      "name": "getVotes",
      "outputs": [
        {
          "internalType": "uint256",
          "name": "",
          "type": "uint256"
        }
      ],
      "stateMutability": "view",
      "type": "function"
    },
    {
      "inputs": [
        {
          "internalType": "address",
          "name": "account",
          "type": "address"
        },
        {
          "internalType": "uint256",
          "name": "blockNumber",
          "type": "uint256"
        },
        {
          "internalType": "bytes",
          "name": "params",
          "type": "bytes"
        }
      ],
      "name": "getVotesWithParams",
      "outputs": [
        {
          "internalType": "uint256",
          "name": "",
          "type": "uint256"
        }
      ],
      "stateMutability": "view",
      "type": "function"
    },
    {
      "inputs": [],
      "name": "governorInfoURI",
      "outputs": [
        {
          "internalType": "string",
          "name": "",
          "type": "string"
        }
      ],
      "stateMutability": "view",
      "type": "function"
    },
    {
      "inputs": [
        {
          "internalType": "uint256",
          "name": "proposalId",
          "type": "uint256"
        },
        {
          "internalType": "address",
          "name": "account",
          "type": "address"
        }
      ],
      "name": "hasVoted",
      "outputs": [
        {
          "internalType": "bool",
          "name": "",
          "type": "bool"
        }
      ],
      "stateMutability": "view",
      "type": "function"
    },
    {
      "inputs": [
        {
          "internalType": "address[]",
          "name": "targets",
          "type": "address[]"
        },
        {
          "internalType": "uint256[]",
          "name": "values",
          "type": "uint256[]"
        },
        {
          "internalType": "bytes[]",
          "name": "calldatas",
          "type": "bytes[]"
        },
        {
          "internalType": "bytes32",
          "name": "descriptionHash",
          "type": "bytes32"
        }
      ],
      "name": "hashProposal",
      "outputs": [
        {
          "internalType": "uint256",
          "name": "",
          "type": "uint256"
        }
      ],
      "stateMutability": "pure",
      "type": "function"
    },
    {
      "inputs": [],
      "name": "name",
      "outputs": [
        {
          "internalType": "string",
          "name": "",
          "type": "string"
        }
      ],
      "stateMutability": "view",
      "type": "function"
    },
    {
      "inputs": [
        {
          "internalType": "address",
          "name": "",
          "type": "address"
        },
        {
          "internalType": "address",
          "name": "",
          "type": "address"
        },
        {
          "internalType": "uint256[]",
          "name": "",
          "type": "uint256[]"
        },
        {
          "internalType": "uint256[]",
          "name": "",
          "type": "uint256[]"
        },
        {
          "internalType": "bytes",
          "name": "",
          "type": "bytes"
        }
      ],
      "name": "onERC1155BatchReceived",
      "outputs": [
        {
          "internalType": "bytes4",
          "name": "",
          "type": "bytes4"
        }
      ],
      "stateMutability": "nonpayable",
      "type": "function"
    },
    {
      "inputs": [
        {
          "internalType": "address",
          "name": "",
          "type": "address"
        },
        {
          "internalType": "address",
          "name": "",
          "type": "address"
        },
        {
          "internalType": "uint256",
          "name": "",
          "type": "uint256"
        },
        {
          "internalType": "uint256",
          "name": "",
          "type": "uint256"
        },
        {
          "internalType": "bytes",
          "name": "",
          "type": "bytes"
        }
      ],
      "name": "onERC1155Received",
      "outputs": [
        {
          "internalType": "bytes4",
          "name": "",
          "type": "bytes4"
        }
      ],
      "stateMutability": "nonpayable",
      "type": "function"
    },
    {
      "inputs": [
        {
          "internalType": "address",
          "name": "",
          "type": "address"
        },
        {
          "internalType": "address",
          "name": "",
          "type": "address"
        },
        {
          "internalType": "uint256",
          "name": "",
          "type": "uint256"
        },
        {
          "internalType": "bytes",
          "name": "",
          "type": "bytes"
        }
      ],
      "name": "onERC721Received",
      "outputs": [
        {
          "internalType": "bytes4",
          "name": "",
          "type": "bytes4"
        }
      ],
      "stateMutability": "nonpayable",
      "type": "function"
    },
    {
      "inputs": [],
      "name": "owner",
      "outputs": [
        {
          "internalType": "address",
          "name": "",
          "type": "address"
        }
      ],
      "stateMutability": "view",
      "type": "function"
    },
    {
      "inputs": [
        {
          "internalType": "uint256",
          "name": "proposalId",
          "type": "uint256"
        }
      ],
      "name": "proposalDeadline",
      "outputs": [
        {
          "internalType": "uint256",
          "name": "",
          "type": "uint256"
        }
      ],
      "stateMutability": "view",
      "type": "function"
    },
    {
      "inputs": [
        {
          "internalType": "uint256",
          "name": "proposalId",
          "type": "uint256"
        }
      ],
      "name": "proposalInfoURI",
      "outputs": [
        {
          "internalType": "string",
          "name": "",
          "type": "string"
        }
      ],
      "stateMutability": "view",
      "type": "function"
    },
    {
      "inputs": [
        {
          "internalType": "uint256",
          "name": "proposalId",
          "type": "uint256"
        }
      ],
      "name": "proposalSnapshot",
      "outputs": [
        {
          "internalType": "uint256",
          "name": "",
          "type": "uint256"
        }
      ],
      "stateMutability": "view",
      "type": "function"
    },
    {
      "inputs": [],
      "name": "proposalThreshold",
      "outputs": [
        {
          "internalType": "uint256",
          "name": "",
          "type": "uint256"
        }
      ],
      "stateMutability": "view",
      "type": "function"
    },
    {
      "inputs": [
        {
          "internalType": "uint256",
          "name": "proposalId",
          "type": "uint256"
        }
      ],
      "name": "proposalVotes",
      "outputs": [
        {
          "internalType": "uint256",
          "name": "againstVotes",
          "type": "uint256"
        },
        {
          "internalType": "uint256",
          "name": "forVotes",
          "type": "uint256"
        },
        {
          "internalType": "uint256",
          "name": "abstainVotes",
          "type": "uint256"
        }
      ],
      "stateMutability": "view",
      "type": "function"
    },
    {
      "inputs": [
        {
          "internalType": "address[]",
          "name": "targets",
          "type": "address[]"
        },
        {
          "internalType": "uint256[]",
          "name": "values",
          "type": "uint256[]"
        },
        {
          "internalType": "bytes[]",
          "name": "calldatas",
          "type": "bytes[]"
        },
        {
          "internalType": "string",
          "name": "description",
          "type": "string"
        }
      ],
      "name": "propose",
      "outputs": [
        {
          "internalType": "uint256",
          "name": "",
          "type": "uint256"
        }
      ],
      "stateMutability": "nonpayable",
      "type": "function"
    },
    {
      "inputs": [
        {
          "internalType": "uint256",
          "name": "blockNumber",
          "type": "uint256"
        }
      ],
      "name": "quorum",
      "outputs": [
        {
          "internalType": "uint256",
          "name": "",
          "type": "uint256"
        }
      ],
      "stateMutability": "view",
      "type": "function"
    },
    {
      "inputs": [],
      "name": "quorumDenominator",
      "outputs": [
        {
          "internalType": "uint256",
          "name": "",
          "type": "uint256"
        }
      ],
      "stateMutability": "view",
      "type": "function"
    },
    {
      "inputs": [],
      "name": "quorumNumerator",
      "outputs": [
        {
          "internalType": "uint256",
          "name": "",
          "type": "uint256"
        }
      ],
      "stateMutability": "view",
      "type": "function"
    },
    {
      "inputs": [
        {
          "internalType": "address",
          "name": "target",
          "type": "address"
        },
        {
          "internalType": "uint256",
          "name": "value",
          "type": "uint256"
        },
        {
          "internalType": "bytes",
          "name": "data",
          "type": "bytes"
        }
      ],
      "name": "relay",
      "outputs": [],
      "stateMutability": "nonpayable",
      "type": "function"
    },
    {
      "inputs": [],
      "name": "renounceOwnership",
      "outputs": [],
      "stateMutability": "nonpayable",
      "type": "function"
    },
    {
      "inputs": [
        {
          "internalType": "string",
          "name": "newInfoURI",
          "type": "string"
        }
      ],
      "name": "setGovernorInfoURI",
      "outputs": [],
      "stateMutability": "nonpayable",
      "type": "function"
    },
    {
      "inputs": [
        {
          "internalType": "uint256",
          "name": "proposalId",
          "type": "uint256"
        },
        {
          "internalType": "string",
          "name": "infoURI",
          "type": "string"
        }
      ],
      "name": "setProposalInfoURI",
      "outputs": [],
      "stateMutability": "nonpayable",
      "type": "function"
    },
    {
      "inputs": [
        {
          "internalType": "uint256",
          "name": "newProposalThreshold",
          "type": "uint256"
        }
      ],
      "name": "setProposalThreshold",
      "outputs": [],
      "stateMutability": "nonpayable",
      "type": "function"
    },
    {
      "inputs": [
        {
          "internalType": "uint256",
          "name": "newVotingDelay",
          "type": "uint256"
        }
      ],
      "name": "setVotingDelay",
      "outputs": [],
      "stateMutability": "nonpayable",
      "type": "function"
    },
    {
      "inputs": [
        {
          "internalType": "uint256",
          "name": "newVotingPeriod",
          "type": "uint256"
        }
      ],
      "name": "setVotingPeriod",
      "outputs": [],
      "stateMutability": "nonpayable",
      "type": "function"
    },
    {
      "inputs": [
        {
          "internalType": "uint256",
          "name": "proposalId",
          "type": "uint256"
        }
      ],
      "name": "state",
      "outputs": [
        {
          "internalType": "enum IGovernor.ProposalState",
          "name": "",
          "type": "uint8"
        }
      ],
      "stateMutability": "view",
      "type": "function"
    },
    {
      "inputs": [
        {
          "internalType": "bytes4",
          "name": "interfaceId",
          "type": "bytes4"
        }
      ],
      "name": "supportsInterface",
      "outputs": [
        {
          "internalType": "bool",
          "name": "",
          "type": "bool"
        }
      ],
      "stateMutability": "view",
      "type": "function"
    },
    {
      "inputs": [],
      "name": "token",
      "outputs": [
        {
          "internalType": "contract IVotes",
          "name": "",
          "type": "address"
        }
      ],
      "stateMutability": "view",
      "type": "function"
    },
    {
      "inputs": [
        {
          "internalType": "address",
          "name": "newOwner",
          "type": "address"
        }
      ],
      "name": "transferOwnership",
      "outputs": [],
      "stateMutability": "nonpayable",
      "type": "function"
    },
    {
      "inputs": [
        {
          "internalType": "uint256",
          "name": "newQuorumNumerator",
          "type": "uint256"
        }
      ],
      "name": "updateQuorumNumerator",
      "outputs": [],
      "stateMutability": "nonpayable",
      "type": "function"
    },
    {
      "inputs": [],
      "name": "version",
      "outputs": [
        {
          "internalType": "string",
          "name": "",
          "type": "string"
        }
      ],
      "stateMutability": "view",
      "type": "function"
    },
    {
      "inputs": [],
      "name": "votingDelay",
      "outputs": [
        {
          "internalType": "uint256",
          "name": "",
          "type": "uint256"
        }
      ],
      "stateMutability": "view",
      "type": "function"
    },
    {
      "inputs": [],
      "name": "votingPeriod",
      "outputs": [
        {
          "internalType": "uint256",
          "name": "",
          "type": "uint256"
        }
      ],
      "stateMutability": "view",
      "type": "function"
    },
    {
      "stateMutability": "payable",
      "type": "receive"
    }
  ],
  "bytecode": "0x6101606040523480156200001257600080fd5b5060405162003c8838038062003c88833981016040819052620000359162000476565b80848484600189806200005c6040805180820190915260018152603160f81b602082015290565b815160208084019190912082518383012060e08290526101008190524660a0818152604080517f8b73c3c69bb8fe3d512ecc4cf759cc79239f7b179b0ffacaa9a75d522b39400f81880181905281830187905260608201869052608082019490945230818401528151808203909301835260c00190528051940193909320919290916080523060c05261012052505082516200010292506000915060208401906200039d565b506200011090508362000158565b6200011b8262000199565b620001268162000240565b5050506001600160a01b031661014052620001418162000281565b506200014d336200034b565b5050505050620005bf565b60045460408051918252602082018390527fc565b045403dc03c2eea82b81a0465edad9e2e7fc4d97e11421c209da93d7a93910160405180910390a1600455565b60008111620001ff5760405162461bcd60e51b815260206004820152602760248201527f476f7665726e6f7253657474696e67733a20766f74696e6720706572696f6420604482015266746f6f206c6f7760c81b60648201526084015b60405180910390fd5b60055460408051918252602082018390527f7e3f7f0708a84de9203036abaa450dccc85ad5ff52f78c170f3edb55cf5e8828910160405180910390a1600555565b60065460408051918252602082018390527fccb45da8d5717e6c4544694297c4ba5cf151d455c9bb0ed4fc7a38411bc05461910160405180910390a1600655565b6064811115620003065760405162461bcd60e51b815260206004820152604360248201527f476f7665726e6f72566f74657351756f72756d4672616374696f6e3a2071756f60448201527f72756d4e756d657261746f72206f7665722071756f72756d44656e6f6d696e616064820152623a37b960e91b608482015260a401620001f6565b600880549082905560408051828152602081018490527f0553476bf02ef2726e8ce5ced78d63e26e602e4a2257b1f559418e24b4633997910160405180910390a15050565b600980546001600160a01b038381166001600160a01b0319831681179093556040519116919082907f8be0079c531659141344cd1fd0a4f28419497f9722a3daafe3b4186f6b6457e090600090a35050565b828054620003ab9062000582565b90600052602060002090601f016020900481019282620003cf57600085556200041a565b82601f10620003ea57805160ff19168380011785556200041a565b828001600101855582156200041a579182015b828111156200041a578251825591602001919060010190620003fd565b50620004289291506200042c565b5090565b5b808211156200042857600081556001016200042d565b634e487b7160e01b600052604160045260246000fd5b80516001600160a01b03811681146200047157600080fd5b919050565b600080600080600060a086880312156200048f57600080fd5b85516001600160401b0380821115620004a757600080fd5b818801915088601f830112620004bc57600080fd5b815181811115620004d157620004d162000443565b604051601f8201601f19908116603f01168101908382118183101715620004fc57620004fc62000443565b81604052828152602093508b848487010111156200051957600080fd5b600091505b828210156200053d57848201840151818301850152908301906200051e565b828211156200054f5760008484830101525b98506200056191505088820162000459565b604089015160608a01516080909a0151989b919a5098979650945050505050565b600181811c908216806200059757607f821691505b60208210811415620005b957634e487b7160e01b600052602260045260246000fd5b50919050565b60805160a05160c05160e0516101005161012051610140516136606200062860003960008181610904015281816114310152611e6a01526000612078015260006120c7015260006120a201526000611ffb015260006120250152600061204f01526136606000f3fe6080604052600436106102765760003560e01c8063715018a61161014f578063c28bc2fa116100c1578063eb9019d41161007a578063eb9019d414610846578063ece40cc114610866578063f23a6e6114610886578063f2fde38b146108b2578063f8ce560a146108d2578063fc0c546a146108f257600080fd5b8063c28bc2fa14610736578063c59057e414610756578063dd4e2ba514610776578063deaaa7cc146107bc578063e14bd874146107f0578063ea0217cf1461082657600080fd5b80639a802a6d116101135780639a802a6d14610680578063a7713a70146106a0578063b58131b0146106b5578063b801c878146106ca578063bc197c81146106ea578063c01f9e371461071657600080fd5b8063715018a6146105e55780637b3c71d3146105fa5780637d5e81e21461061a5780638da5cb5b1461063a57806397c3d3341461066c57600080fd5b80633bccf4fd116101e8578063544ffc9c116101ac578063544ffc9c146104e657806354fd4d501461053b57806356781388146105655780635f398a14146105855780636b1084a0146105a557806370b0f660146105c557600080fd5b80633bccf4fd1461041a5780633e4f49e61461043a5780634385963214610467578063452115d6146104b157806348ca392f146104d157600080fd5b8063150b7a021161023a578063150b7a021461033a5780632656227d1461037e5780632ad5aba6146103915780632d63f693146103b15780632fe3e261146103d15780633932abb11461040557600080fd5b806301ffc9a71461028457806302a251a3146102b957806303420181146102d857806306f3f9e6146102f857806306fdde031461031857600080fd5b3661027f57005b005b600080fd5b34801561029057600080fd5b506102a461029f3660046127d3565b610926565b60405190151581526020015b60405180910390f35b3480156102c557600080fd5b506005545b6040519081526020016102b0565b3480156102e457600080fd5b506102ca6102f3366004612910565b610993565b34801561030457600080fd5b5061027d6103133660046129b6565b610a8b565b34801561032457600080fd5b5061032d610adb565b6040516102b09190612a2b565b34801561034657600080fd5b50610365610355366004612a55565b630a85bd0160e11b949350505050565b6040516001600160e01b031990911681526020016102b0565b6102ca61038c366004612c2b565b610b6d565b34801561039d57600080fd5b5061032d6103ac3660046129b6565b610c94565b3480156103bd57600080fd5b506102ca6103cc3660046129b6565b610d36565b3480156103dd57600080fd5b506102ca7fb3b3f3b703cd84ce352197dcff232b1b5d3cfb2025ce47cf04742d0651f1af8881565b34801561041157600080fd5b506004546102ca565b34801561042657600080fd5b506102ca610435366004612cba565b610d6d565b34801561044657600080fd5b5061045a6104553660046129b6565b610de3565b6040516102b09190612d1e565b34801561047357600080fd5b506102a4610482366004612d46565b60008281526007602090815260408083206001600160a01b038516845260030190915290205460ff1692915050565b3480156104bd57600080fd5b506102ca6104cc366004612c2b565b610eef565b3480156104dd57600080fd5b5061032d610f8a565b3480156104f257600080fd5b506105206105013660046129b6565b6000908152600760205260409020805460018201546002909201549092565b604080519384526020840192909252908201526060016102b0565b34801561054757600080fd5b506040805180820190915260018152603160f81b602082015261032d565b34801561057157600080fd5b506102ca610580366004612d72565b610f99565b34801561059157600080fd5b506102ca6105a0366004612d95565b610fc2565b3480156105b157600080fd5b5061027d6105c0366004612e18565b61100c565b3480156105d157600080fd5b5061027d6105e03660046129b6565b611085565b3480156105f157600080fd5b5061027d6110c9565b34801561060657600080fd5b506102ca610615366004612e5e565b6110ff565b34801561062657600080fd5b506102ca610635366004612eb7565b611147565b34801561064657600080fd5b506009546001600160a01b03165b6040516001600160a01b0390911681526020016102b0565b34801561067857600080fd5b5060646102ca565b34801561068c57600080fd5b506102ca61069b366004612f57565b61117e565b3480156106ac57600080fd5b506008546102ca565b3480156106c157600080fd5b506102ca611195565b3480156106d657600080fd5b5061027d6106e5366004612fad565b6111a5565b3480156106f657600080fd5b50610365610705366004612fe1565b63bc197c8160e01b95945050505050565b34801561072257600080fd5b506102ca6107313660046129b6565b6111e6565b34801561074257600080fd5b5061027d610751366004613070565b611215565b34801561076257600080fd5b506102ca610771366004612c2b565b611299565b34801561078257600080fd5b506040805180820190915260208082527f737570706f72743d627261766f2671756f72756d3d666f722c6162737461696e9082015261032d565b3480156107c857600080fd5b506102ca7f150214d74d59b7d1e90c73fc22ef3d991dd0a76b046543d4d80ab92d2a50328f81565b3480156107fc57600080fd5b5061065461080b3660046129b6565b6000908152600a60205260409020546001600160a01b031690565b34801561083257600080fd5b5061027d6108413660046129b6565b6112d3565b34801561085257600080fd5b506102ca6108613660046130b1565b611317565b34801561087257600080fd5b5061027d6108813660046129b6565b611338565b34801561089257600080fd5b506103656108a13660046130db565b63f23a6e6160e01b95945050505050565b3480156108be57600080fd5b5061027d6108cd36600461313f565b61137c565b3480156108de57600080fd5b506102ca6108ed3660046129b6565b611414565b3480156108fe57600080fd5b506106547f000000000000000000000000000000000000000000000000000000000000000081565b60006001600160e01b0319821663bf26d89760e01b148061095757506001600160e01b031982166379dd796f60e01b145b8061097257506001600160e01b03198216630271189760e51b145b8061098d57506301ffc9a760e01b6001600160e01b03198316145b92915050565b600080610a37610a2f7fb3b3f3b703cd84ce352197dcff232b1b5d3cfb2025ce47cf04742d0651f1af888c8c8c8c6040516109cf92919061315a565b60405180910390208b80519060200120604051602001610a14959493929190948552602085019390935260ff9190911660408401526060830152608082015260a00190565b604051602081830303815290604052805190602001206114c7565b868686611515565b9050610a7d8a828b8b8b8080601f0160208091040260200160405190810160405280939291908181526020018383808284376000920191909152508d9250611533915050565b9a9950505050505050505050565b333014610ab35760405162461bcd60e51b8152600401610aaa9061316a565b60405180910390fd5b610acf565b80610ac36002611695565b14610acd57610ab8565b505b610ad881611714565b50565b606060008054610aea906131a1565b80601f0160208091040260200160405190810160405280929190818152602001828054610b16906131a1565b8015610b635780601f10610b3857610100808354040283529160200191610b63565b820191906000526020600020905b815481529060010190602001808311610b4657829003601f168201915b5050505050905090565b600080610b7c86868686611299565b90506000610b8982610de3565b90506004816007811115610b9f57610b9f612d08565b1480610bbc57506005816007811115610bba57610bba612d08565b145b610c125760405162461bcd60e51b815260206004820152602160248201527f476f7665726e6f723a2070726f706f73616c206e6f74207375636365737366756044820152601b60fa1b6064820152608401610aaa565b600082815260016020818152604092839020600201805460ff191690921790915590518381527f712ae1383f79ac853f8d882153778e0260ef8f03b504e2866e0593e04d2b291f910160405180910390a1610c7082888888886117dc565b610c7d8288888888611869565b610c8a82888888886117dc565b5095945050505050565b6000818152600b60205260409020805460609190610cb1906131a1565b80601f0160208091040260200160405190810160405280929190818152602001828054610cdd906131a1565b8015610d2a5780601f10610cff57610100808354040283529160200191610d2a565b820191906000526020600020905b815481529060010190602001808311610d0d57829003601f168201915b50505050509050919050565b60008181526001602090815260408083208151928301909152546001600160401b0316908190525b6001600160401b031692915050565b604080517f150214d74d59b7d1e90c73fc22ef3d991dd0a76b046543d4d80ab92d2a50328f602082015290810186905260ff851660608201526000908190610dbb90610a2f90608001610a14565b9050610dd887828860405180602001604052806000815250611968565b979650505050505050565b6000818152600160205260408120600281015460ff1615610e075750600792915050565b6002810154610100900460ff1615610e225750600292915050565b6000610e2d84610d36565b905080610e7c5760405162461bcd60e51b815260206004820152601d60248201527f476f7665726e6f723a20756e6b6e6f776e2070726f706f73616c2069640000006044820152606401610aaa565b438110610e8d575060009392505050565b6000610e98856111e6565b9050438110610eac57506001949350505050565b610eb585611994565b8015610ed4575060008581526007602052604090208054600190910154115b15610ee457506004949350505050565b506003949350505050565b600080610efe86868686611299565b6000818152600a60205260409020549091506001600160a01b0316331480610f3057506009546001600160a01b031633145b610f745760405162461bcd60e51b81526020600482015260156024820152742737ba10383937b837b9b2b91037b91037bbb732b960591b6044820152606401610aaa565b610f80868686866119cb565b9695505050505050565b6060600c8054610aea906131a1565b600080339050610fba84828560405180602001604052806000815250611968565b949350505050565b600080339050610dd887828888888080601f0160208091040260200160405190810160405280939291908181526020018383808284376000920191909152508a9250611533915050565b6000828152600a60205260409020546001600160a01b031633146110615760405162461bcd60e51b815260206004820152600c60248201526b2737ba10383937b837b9b2b960a11b6044820152606401610aaa565b6000828152600b60209081526040909120825161108092840190612743565b505050565b3330146110a45760405162461bcd60e51b8152600401610aaa9061316a565b6110c0565b806110b46002611695565b146110be576110a9565b505b610ad881611ae9565b6009546001600160a01b031633146110f35760405162461bcd60e51b8152600401610aaa906131dc565b6110fd6000611b2a565b565b600080339050610f8086828787878080601f01602080910402602001604051908101604052809392919081815260200183838082843760009201919091525061196892505050565b60008061115686868686611b7c565b6000818152600a6020526040902080546001600160a01b031916331790559695505050505050565b600061118b848484611e41565b90505b9392505050565b60006111a060065490565b905090565b6009546001600160a01b031633146111cf5760405162461bcd60e51b8152600401610aaa906131dc565b80516111e290600c906020840190612743565b5050565b60008181526001602081815260408084208151928301909152909101546001600160401b031690819052610d5e565b3330146112345760405162461bcd60e51b8152600401610aaa9061316a565b611250565b806112446002611695565b1461124e57611239565b505b6112928483838080601f016020809104026020016040519081016040528093929190818152602001838380828437600092019190915250889250611ee6915050565b5050505050565b6000848484846040516020016112b294939291906132da565b60408051601f19818403018152919052805160209091012095945050505050565b3330146112f25760405162461bcd60e51b8152600401610aaa9061316a565b61130e565b806113026002611695565b1461130c576112f7565b505b610ad881611f0c565b600061118e838361133360408051602081019091526000815290565b611e41565b3330146113575760405162461bcd60e51b8152600401610aaa9061316a565b611373565b806113676002611695565b146113715761135c565b505b610ad881611fad565b6009546001600160a01b031633146113a65760405162461bcd60e51b8152600401610aaa906131dc565b6001600160a01b03811661140b5760405162461bcd60e51b815260206004820152602660248201527f4f776e61626c653a206e6577206f776e657220697320746865207a65726f206160448201526564647265737360d01b6064820152608401610aaa565b610ad881611b2a565b60006064600854604051632394e7a360e21b8152600481018590527f00000000000000000000000000000000000000000000000000000000000000006001600160a01b031690638e539e8c9060240160206040518083038186803b15801561147b57600080fd5b505afa15801561148f573d6000803e3d6000fd5b505050506040513d601f19601f820116820180604052508101906114b39190613325565b6114bd9190613354565b61098d9190613373565b600061098d6114d4611fee565b8360405161190160f01b6020820152602281018390526042810182905260009060620160405160208183030381529060405280519060200120905092915050565b600080600061152687878787612115565b91509150610c8a81612202565b600085815260016020819052604082209061154d88610de3565b600781111561155e5761155e612d08565b146115b75760405162461bcd60e51b815260206004820152602360248201527f476f7665726e6f723a20766f7465206e6f742063757272656e746c792061637460448201526269766560e81b6064820152608401610aaa565b604080516020810190915281546001600160401b0316908190526000906115e090889086611e41565b90506115ef88888884886123bd565b835161164157866001600160a01b03167fb8e138887d0aa13bab447e82de9d5c1777041ecd21ca36ba824ff1e6c07ddda4898884896040516116349493929190613395565b60405180910390a2610dd8565b866001600160a01b03167fe2babfbac5889a709b63bb7f598b324e08bc5a4fb9ec647fb3cbc9ec07eb871289888489896040516116829594939291906133bd565b60405180910390a2979650505050505050565b60006116b08254600f81810b600160801b909204900b131590565b156116ce57604051631ed9509560e11b815260040160405180910390fd5b508054600f0b6000818152600180840160205260408220805492905583546fffffffffffffffffffffffffffffffff191692016001600160801b03169190911790915590565b60648111156117975760405162461bcd60e51b815260206004820152604360248201527f476f7665726e6f72566f74657351756f72756d4672616374696f6e3a2071756f60448201527f72756d4e756d657261746f72206f7665722071756f72756d44656e6f6d696e616064820152623a37b960e91b608482015260a401610aaa565b600880549082905560408051828152602081018490527f0553476bf02ef2726e8ce5ced78d63e26e602e4a2257b1f559418e24b4633997910160405180910390a15050565b611292565b845181101561186157306001600160a01b031685828151811061180657611806613403565b60200260200101516001600160a01b031614156118515761185183828151811061183257611832613403565b602002602001015180519060200120600261253c90919063ffffffff16565b61185a81613419565b90506117e1565b505050505050565b60006040518060600160405280602781526020016135db60279139905060005b855181101561195f576000808783815181106118a7576118a7613403565b60200260200101516001600160a01b03168784815181106118ca576118ca613403565b60200260200101518785815181106118e4576118e4613403565b60200260200101516040516118f99190613434565b60006040518083038185875af1925050503d8060008114611936576040519150601f19603f3d011682016040523d82523d6000602084013e61193b565b606091505b509150915061194b828286612578565b5050508061195890613419565b9050611889565b50505050505050565b600061198b8585858561198660408051602081019091526000815290565b611533565b95945050505050565b6000818152600760205260408120600281015460018201546119b69190613450565b6119c26108ed85610d36565b11159392505050565b6000806119da86868686611299565b905060006119e782610de3565b905060028160078111156119fd576119fd612d08565b14158015611a1d57506006816007811115611a1a57611a1a612d08565b14155b8015611a3b57506007816007811115611a3857611a38612d08565b14155b611a875760405162461bcd60e51b815260206004820152601d60248201527f476f7665726e6f723a2070726f706f73616c206e6f74206163746976650000006044820152606401610aaa565b60008281526001602052604090819020600201805461ff001916610100179055517f789cf55be980739dad1d0699b93b58e806b51c9d96619bfa8fe0a28abaa7b30c90611ad79084815260200190565b60405180910390a15095945050505050565b60045460408051918252602082018390527fc565b045403dc03c2eea82b81a0465edad9e2e7fc4d97e11421c209da93d7a93910160405180910390a1600455565b600980546001600160a01b038381166001600160a01b0319831681179093556040519116919082907f8be0079c531659141344cd1fd0a4f28419497f9722a3daafe3b4186f6b6457e090600090a35050565b6000611b86611195565b611b9533610861600143613468565b1015611bfd5760405162461bcd60e51b815260206004820152603160248201527f476f7665726e6f723a2070726f706f73657220766f7465732062656c6f7720706044820152701c9bdc1bdcd85b081d1a1c995cda1bdb19607a1b6064820152608401610aaa565b6000611c128686868680519060200120611299565b90508451865114611c355760405162461bcd60e51b8152600401610aaa9061347f565b8351865114611c565760405162461bcd60e51b8152600401610aaa9061347f565b6000865111611ca75760405162461bcd60e51b815260206004820152601860248201527f476f7665726e6f723a20656d7074792070726f706f73616c00000000000000006044820152606401610aaa565b600081815260016020908152604091829020825191820190925281546001600160401b03169081905215611d275760405162461bcd60e51b815260206004820152602160248201527f476f7665726e6f723a2070726f706f73616c20616c72656164792065786973746044820152607360f81b6064820152608401610aaa565b6000611d3a611d3560045490565b6125b1565b611d43436125b1565b611d4d91906134c0565b90506000611d5d611d3560055490565b611d6790836134c0565b835467ffffffffffffffff19166001600160401b038416178455905060018301805467ffffffffffffffff19166001600160401b0383161790557f7d84a6263ae0d98d3329bd7b46bb4e8d6f98cd35a7adb45c274c8b7fd5ebd5e084338b8b8d516001600160401b03811115611ddf57611ddf61285b565b604051908082528060200260200182016040528015611e1257816020015b6060815260200190600190039081611dfd5790505b508c88888e604051611e2c999897969594939291906134eb565b60405180910390a15091979650505050505050565b604051630748d63560e31b81526001600160a01b038481166004830152602482018490526000917f000000000000000000000000000000000000000000000000000000000000000090911690633a46b1a89060440160206040518083038186803b158015611eae57600080fd5b505afa158015611ec2573d6000803e3d6000fd5b505050506040513d601f19601f8201168201806040525081019061118b9190613325565b606061118b8484846040518060600160405280602981526020016136026029913961261d565b60008111611f6c5760405162461bcd60e51b815260206004820152602760248201527f476f7665726e6f7253657474696e67733a20766f74696e6720706572696f6420604482015266746f6f206c6f7760c81b6064820152608401610aaa565b60055460408051918252602082018390527f7e3f7f0708a84de9203036abaa450dccc85ad5ff52f78c170f3edb55cf5e8828910160405180910390a1600555565b60065460408051918252602082018390527fccb45da8d5717e6c4544694297c4ba5cf151d455c9bb0ed4fc7a38411bc05461910160405180910390a1600655565b6000306001600160a01b037f00000000000000000000000000000000000000000000000000000000000000001614801561204757507f000000000000000000000000000000000000000000000000000000000000000046145b1561207157507f000000000000000000000000000000000000000000000000000000000000000090565b50604080517f00000000000000000000000000000000000000000000000000000000000000006020808301919091527f0000000000000000000000000000000000000000000000000000000000000000828401527f000000000000000000000000000000000000000000000000000000000000000060608301524660808301523060a0808401919091528351808403909101815260c0909201909252805191012090565b6000807f7fffffffffffffffffffffffffffffff5d576e7357a4501ddfe92f46681b20a083111561214c57506000905060036121f9565b8460ff16601b1415801561216457508460ff16601c14155b1561217557506000905060046121f9565b6040805160008082526020820180845289905260ff881692820192909252606081018690526080810185905260019060a0016020604051602081039080840390855afa1580156121c9573d6000803e3d6000fd5b5050604051601f1901519150506001600160a01b0381166121f2576000600192509250506121f9565b9150600090505b94509492505050565b600081600481111561221657612216612d08565b141561221f5750565b600181600481111561223357612233612d08565b14156122815760405162461bcd60e51b815260206004820152601860248201527f45434453413a20696e76616c6964207369676e617475726500000000000000006044820152606401610aaa565b600281600481111561229557612295612d08565b14156122e35760405162461bcd60e51b815260206004820152601f60248201527f45434453413a20696e76616c6964207369676e6174757265206c656e677468006044820152606401610aaa565b60038160048111156122f7576122f7612d08565b14156123505760405162461bcd60e51b815260206004820152602260248201527f45434453413a20696e76616c6964207369676e6174757265202773272076616c604482015261756560f01b6064820152608401610aaa565b600481600481111561236457612364612d08565b1415610ad85760405162461bcd60e51b815260206004820152602260248201527f45434453413a20696e76616c6964207369676e6174757265202776272076616c604482015261756560f01b6064820152608401610aaa565b60008581526007602090815260408083206001600160a01b0388168452600381019092529091205460ff16156124455760405162461bcd60e51b815260206004820152602760248201527f476f7665726e6f72566f74696e6753696d706c653a20766f746520616c726561604482015266191e4818d85cdd60ca1b6064820152608401610aaa565b6001600160a01b03851660009081526003820160205260408120805460ff1916600117905560ff168460ff161415612496578281600001600082825461248b9190613450565b909155506118619050565b60ff8416600114156124b6578281600101600082825461248b9190613450565b60ff8416600214156124d6578281600201600082825461248b9190613450565b60405162461bcd60e51b815260206004820152603560248201527f476f7665726e6f72566f74696e6753696d706c653a20696e76616c69642076616044820152746c756520666f7220656e756d20566f74655479706560581b6064820152608401610aaa565b8154600160801b90819004600f0b6000818152600180860160205260409091209390935583546001600160801b03908116939091011602179055565b6060831561258757508161118e565b8251156125975782518084602001fd5b8160405162461bcd60e51b8152600401610aaa9190612a2b565b60006001600160401b038211156126195760405162461bcd60e51b815260206004820152602660248201527f53616665436173743a2076616c756520646f65736e27742066697420696e203660448201526534206269747360d01b6064820152608401610aaa565b5090565b60608247101561267e5760405162461bcd60e51b815260206004820152602660248201527f416464726573733a20696e73756666696369656e742062616c616e636520666f6044820152651c8818d85b1b60d21b6064820152608401610aaa565b6001600160a01b0385163b6126d55760405162461bcd60e51b815260206004820152601d60248201527f416464726573733a2063616c6c20746f206e6f6e2d636f6e74726163740000006044820152606401610aaa565b600080866001600160a01b031685876040516126f19190613434565b60006040518083038185875af1925050503d806000811461272e576040519150601f19603f3d011682016040523d82523d6000602084013e612733565b606091505b5091509150610dd8828286612578565b82805461274f906131a1565b90600052602060002090601f01602090048101928261277157600085556127b7565b82601f1061278a57805160ff19168380011785556127b7565b828001600101855582156127b7579182015b828111156127b757825182559160200191906001019061279c565b506126199291505b8082111561261957600081556001016127bf565b6000602082840312156127e557600080fd5b81356001600160e01b03198116811461118e57600080fd5b803560ff8116811461280e57600080fd5b919050565b60008083601f84011261282557600080fd5b5081356001600160401b0381111561283c57600080fd5b60208301915083602082850101111561285457600080fd5b9250929050565b634e487b7160e01b600052604160045260246000fd5b604051601f8201601f191681016001600160401b03811182821017156128995761289961285b565b604052919050565b600082601f8301126128b257600080fd5b81356001600160401b038111156128cb576128cb61285b565b6128de601f8201601f1916602001612871565b8181528460208386010111156128f357600080fd5b816020850160208301376000918101602001919091529392505050565b60008060008060008060008060e0898b03121561292c57600080fd5b8835975061293c60208a016127fd565b965060408901356001600160401b038082111561295857600080fd5b6129648c838d01612813565b909850965060608b013591508082111561297d57600080fd5b5061298a8b828c016128a1565b94505061299960808a016127fd565b925060a0890135915060c089013590509295985092959890939650565b6000602082840312156129c857600080fd5b5035919050565b60005b838110156129ea5781810151838201526020016129d2565b838111156129f9576000848401525b50505050565b60008151808452612a178160208601602086016129cf565b601f01601f19169290920160200192915050565b60208152600061118e60208301846129ff565b80356001600160a01b038116811461280e57600080fd5b60008060008060808587031215612a6b57600080fd5b612a7485612a3e565b9350612a8260208601612a3e565b92506040850135915060608501356001600160401b03811115612aa457600080fd5b612ab0878288016128a1565b91505092959194509250565b60006001600160401b03821115612ad557612ad561285b565b5060051b60200190565b600082601f830112612af057600080fd5b81356020612b05612b0083612abc565b612871565b82815260059290921b84018101918181019086841115612b2457600080fd5b8286015b84811015612b4657612b3981612a3e565b8352918301918301612b28565b509695505050505050565b600082601f830112612b6257600080fd5b81356020612b72612b0083612abc565b82815260059290921b84018101918181019086841115612b9157600080fd5b8286015b84811015612b465780358352918301918301612b95565b600082601f830112612bbd57600080fd5b81356020612bcd612b0083612abc565b82815260059290921b84018101918181019086841115612bec57600080fd5b8286015b84811015612b465780356001600160401b03811115612c0f5760008081fd5b612c1d8986838b01016128a1565b845250918301918301612bf0565b60008060008060808587031215612c4157600080fd5b84356001600160401b0380821115612c5857600080fd5b612c6488838901612adf565b95506020870135915080821115612c7a57600080fd5b612c8688838901612b51565b94506040870135915080821115612c9c57600080fd5b50612ca987828801612bac565b949793965093946060013593505050565b600080600080600060a08688031215612cd257600080fd5b85359450612ce2602087016127fd565b9350612cf0604087016127fd565b94979396509394606081013594506080013592915050565b634e487b7160e01b600052602160045260246000fd5b6020810160088310612d4057634e487b7160e01b600052602160045260246000fd5b91905290565b60008060408385031215612d5957600080fd5b82359150612d6960208401612a3e565b90509250929050565b60008060408385031215612d8557600080fd5b82359150612d69602084016127fd565b600080600080600060808688031215612dad57600080fd5b85359450612dbd602087016127fd565b935060408601356001600160401b0380821115612dd957600080fd5b612de589838a01612813565b90955093506060880135915080821115612dfe57600080fd5b50612e0b888289016128a1565b9150509295509295909350565b60008060408385031215612e2b57600080fd5b8235915060208301356001600160401b03811115612e4857600080fd5b612e54858286016128a1565b9150509250929050565b60008060008060608587031215612e7457600080fd5b84359350612e84602086016127fd565b925060408501356001600160401b03811115612e9f57600080fd5b612eab87828801612813565b95989497509550505050565b60008060008060808587031215612ecd57600080fd5b84356001600160401b0380821115612ee457600080fd5b612ef088838901612adf565b95506020870135915080821115612f0657600080fd5b612f1288838901612b51565b94506040870135915080821115612f2857600080fd5b612f3488838901612bac565b93506060870135915080821115612f4a57600080fd5b50612ab0878288016128a1565b600080600060608486031215612f6c57600080fd5b612f7584612a3e565b92506020840135915060408401356001600160401b03811115612f9757600080fd5b612fa3868287016128a1565b9150509250925092565b600060208284031215612fbf57600080fd5b81356001600160401b03811115612fd557600080fd5b610fba848285016128a1565b600080600080600060a08688031215612ff957600080fd5b61300286612a3e565b945061301060208701612a3e565b935060408601356001600160401b038082111561302c57600080fd5b61303889838a01612b51565b9450606088013591508082111561304e57600080fd5b61305a89838a01612b51565b93506080880135915080821115612dfe57600080fd5b6000806000806060858703121561308657600080fd5b61308f85612a3e565b93506020850135925060408501356001600160401b03811115612e9f57600080fd5b600080604083850312156130c457600080fd5b6130cd83612a3e565b946020939093013593505050565b600080600080600060a086880312156130f357600080fd5b6130fc86612a3e565b945061310a60208701612a3e565b9350604086013592506060860135915060808601356001600160401b0381111561313357600080fd5b612e0b888289016128a1565b60006020828403121561315157600080fd5b61118e82612a3e565b8183823760009101908152919050565b60208082526018908201527f476f7665726e6f723a206f6e6c79476f7665726e616e63650000000000000000604082015260600190565b600181811c908216806131b557607f821691505b602082108114156131d657634e487b7160e01b600052602260045260246000fd5b50919050565b6020808252818101527f4f776e61626c653a2063616c6c6572206973206e6f7420746865206f776e6572604082015260600190565b600081518084526020808501945080840160005b8381101561324a5781516001600160a01b031687529582019590820190600101613225565b509495945050505050565b600081518084526020808501945080840160005b8381101561324a57815187529582019590820190600101613269565b600081518084526020808501808196508360051b8101915082860160005b858110156132cd5782840389526132bb8483516129ff565b988501989350908401906001016132a3565b5091979650505050505050565b6080815260006132ed6080830187613211565b82810360208401526132ff8187613255565b905082810360408401526133138186613285565b91505082606083015295945050505050565b60006020828403121561333757600080fd5b5051919050565b634e487b7160e01b600052601160045260246000fd5b600081600019048311821515161561336e5761336e61333e565b500290565b60008261339057634e487b7160e01b600052601260045260246000fd5b500490565b84815260ff84166020820152826040820152608060608201526000610f8060808301846129ff565b85815260ff8516602082015283604082015260a0606082015260006133e560a08301856129ff565b82810360808401526133f781856129ff565b98975050505050505050565b634e487b7160e01b600052603260045260246000fd5b600060001982141561342d5761342d61333e565b5060010190565b600082516134468184602087016129cf565b9190910192915050565b600082198211156134635761346361333e565b500190565b60008282101561347a5761347a61333e565b500390565b60208082526021908201527f476f7665726e6f723a20696e76616c69642070726f706f73616c206c656e67746040820152600d60fb1b606082015260800190565b60006001600160401b038083168185168083038211156134e2576134e261333e565b01949350505050565b60006101208b8352602060018060a01b038c16818501528160408501526135148285018c613211565b91508382036060850152613528828b613255565b915083820360808501528189518084528284019150828160051b850101838c0160005b8381101561357957601f198784030185526135678383516129ff565b9486019492509085019060010161354b565b505086810360a088015261358d818c613285565b9450505050506135a860c08401876001600160401b03169052565b6001600160401b03851660e08401528281036101008401526135ca81856129ff565b9c9b50505050505050505050505056fe476f7665726e6f723a2063616c6c20726576657274656420776974686f7574206d657373616765416464726573733a206c6f772d6c6576656c2063616c6c20776974682076616c7565206661696c6564a2646970667358221220ff806df627068a16411fce8fe9876b2f04afdb8aaf29dc262f7478e3557f24d664736f6c63430008090033",
  "linkReferences": {},
  "deployedLinkReferences": {}
}